{
  "contractName": "Authenticator",
  "abi": [
    {
      "inputs": [
        {
          "internalType": "address",
          "name": "_multiSig",
          "type": "address"
        },
        {
          "internalType": "address",
          "name": "_generatorPool",
          "type": "address"
        },
        {
          "internalType": "address",
          "name": "_wethGatewayAddr",
          "type": "address"
        },
        {
          "internalType": "uint256",
          "name": "_minimumProvide",
          "type": "uint256"
        },
        {
          "internalType": "uint256",
          "name": "_minimumReserve",
          "type": "uint256"
        },
        {
          "internalType": "uint256",
          "name": "_maxClaim",
          "type": "uint256"
        },
        {
          "internalType": "address",
          "name": "_oracle",
          "type": "address"
        },
        {
          "internalType": "address",
          "name": "_oracleGateway",
          "type": "address"
        }
      ],
      "stateMutability": "nonpayable",
      "type": "constructor"
    },
    {
      "inputs": [],
      "name": "APPLY_WINDOW",
      "outputs": [
        {
          "internalType": "uint256",
          "name": "",
          "type": "uint256"
        }
      ],
      "stateMutability": "view",
      "type": "function"
    },
    {
      "inputs": [],
      "name": "WAIT_PERIOD",
      "outputs": [
        {
          "internalType": "uint256",
          "name": "",
          "type": "uint256"
        }
      ],
      "stateMutability": "view",
      "type": "function"
    },
    {
      "inputs": [],
      "name": "generatorPool",
      "outputs": [
        {
          "internalType": "address",
          "name": "",
          "type": "address"
        }
      ],
      "stateMutability": "view",
      "type": "function"
    },
    {
      "inputs": [],
      "name": "maxClaim",
      "outputs": [
        {
          "internalType": "uint256",
          "name": "",
          "type": "uint256"
        }
      ],
      "stateMutability": "view",
      "type": "function"
    },
    {
      "inputs": [],
      "name": "minimumProvide",
      "outputs": [
        {
          "internalType": "uint256",
          "name": "",
          "type": "uint256"
        }
      ],
      "stateMutability": "view",
      "type": "function"
    },
    {
      "inputs": [],
      "name": "minimumReserve",
      "outputs": [
        {
          "internalType": "uint256",
          "name": "",
          "type": "uint256"
        }
      ],
      "stateMutability": "view",
      "type": "function"
    },
    {
      "inputs": [],
      "name": "multiSig",
      "outputs": [
        {
          "internalType": "address",
          "name": "",
          "type": "address"
        }
      ],
      "stateMutability": "view",
      "type": "function"
    },
    {
      "inputs": [],
      "name": "oracleGateway",
      "outputs": [
        {
          "internalType": "address",
          "name": "",
          "type": "address"
        }
      ],
      "stateMutability": "view",
      "type": "function"
    }
  ],
  "bytecode": "0x60e060405234801561001057600080fd5b506040516105cd3803806105cd8339818101604052810190610032919061021a565b87878787878787878773ffffffffffffffffffffffffffffffffffffffff1660c08173ffffffffffffffffffffffffffffffffffffffff16815250508673ffffffffffffffffffffffffffffffffffffffff1660a08173ffffffffffffffffffffffffffffffffffffffff16815250508573ffffffffffffffffffffffffffffffffffffffff1660808173ffffffffffffffffffffffffffffffffffffffff1681525050846004819055508360058190555082600681905550816000806101000a81548173ffffffffffffffffffffffffffffffffffffffff021916908373ffffffffffffffffffffffffffffffffffffffff16021790555080600160006101000a81548173ffffffffffffffffffffffffffffffffffffffff021916908373ffffffffffffffffffffffffffffffffffffffff160217905550505050505050505050505050505050506102d0565b600080fd5b600073ffffffffffffffffffffffffffffffffffffffff82169050919050565b60006101b182610186565b9050919050565b6101c1816101a6565b81146101cc57600080fd5b50565b6000815190506101de816101b8565b92915050565b6000819050919050565b6101f7816101e4565b811461020257600080fd5b50565b600081519050610214816101ee565b92915050565b600080600080600080600080610100898b03121561023b5761023a610181565b5b60006102498b828c016101cf565b985050602061025a8b828c016101cf565b975050604061026b8b828c016101cf565b965050606061027c8b828c01610205565b955050608061028d8b828c01610205565b94505060a061029e8b828c01610205565b93505060c06102af8b828c016101cf565b92505060e06102c08b828c016101cf565b9150509295985092959890939650565b60805160a05160c0516102d16102fc600039600061018d015260006101e90152600050506102d16000f3fe608060405234801561001057600080fd5b50600436106100885760003560e01c8063b6c5039f1161005b578063b6c5039f14610105578063c1810f6614610123578063d4938db314610141578063dc0e5d4b1461015f57610088565b8063189df97d1461008d57806333e5c43d146100ab57806336e0004a146100c95780633c1e7c56146100e7575b600080fd5b61009561017d565b6040516100a29190610224565b60405180910390f35b6100b3610184565b6040516100c09190610224565b60405180910390f35b6100d161018b565b6040516100de9190610280565b60405180910390f35b6100ef6101af565b6040516100fc9190610224565b60405180910390f35b61010d6101b5565b60405161011a9190610224565b60405180910390f35b61012b6101bb565b6040516101389190610280565b60405180910390f35b6101496101e1565b6040516101569190610224565b60405180910390f35b6101676101e7565b6040516101749190610280565b60405180910390f35b6201518081565b6202a30081565b7f000000000000000000000000000000000000000000000000000000000000000081565b60045481565b60055481565b600160009054906101000a900473ffffffffffffffffffffffffffffffffffffffff1681565b60065481565b7f000000000000000000000000000000000000000000000000000000000000000081565b6000819050919050565b61021e8161020b565b82525050565b60006020820190506102396000830184610215565b92915050565b600073ffffffffffffffffffffffffffffffffffffffff82169050919050565b600061026a8261023f565b9050919050565b61027a8161025f565b82525050565b60006020820190506102956000830184610271565b9291505056fea2646970667358221220bcad6f3045d2921e490d2f0cd1159cc58945c3dbfa0b1f94d9aee9dfe8f6d09164736f6c63430008090033",
  "immutableReferences": {
    "2406": [
      {
        "length": 32,
        "start": 489
      }
    ],
    "2408": [
      {
        "length": 32,
        "start": 397
      }
    ]
  },
  "source": "// SPDX-License-Identifier: MIT\npragma solidity 0.8.9;\n\nimport { ReserveStorage } from \"./ReserveStorage.sol\";\n\ncontract Authenticator is ReserveStorage {\n\n    modifier minimumReserveMet(uint _protocolBalance) {\n        require(\n            minimumReserve <= _protocolBalance,\n            \"minimum reserve not met\"\n        );\n        _;\n    }\n\n    modifier onlyApply(uint _validatorIndex) {\n        bool validityCheck = (\n                beneficiaries[_validatorIndex].status == Status.NOT_ACTIVE\n            ) ||\n            (\n                beneficiaries[_validatorIndex].status == Status.ORACLE_ADD_APPROVE &&\n                beneficiaries[_validatorIndex].withdrawAddress == msg.sender &&\n                block.timestamp >= beneficiaries[_validatorIndex].applyTimestamp + APPLY_WINDOW\n            );\n        require(validityCheck, \"not eligible to apply\");\n        _;\n    }\n\n    modifier onlyBeneficiary(address _withdrawAddress, uint _validatorIndex) {\n        require(\n            beneficiaries[_validatorIndex].withdrawAddress == _withdrawAddress,\n            \"must send tx from validator withdrawAddress\"\n        );\n        _;\n    }\n    modifier onlyAddApproved(uint _validatorIndex) {\n        require(\n            beneficiaries[_validatorIndex].status == Status.ORACLE_ADD_APPROVE,\n            \"beneficiary is not approved\"\n        );\n        _;\n    }\n\n    modifier onlyActiveBeneficiary(uint _validatorIndex) {\n        require(\n            beneficiaries[_validatorIndex].status == Status.ACTIVE,\n            \"beneficiary not active\"\n        );\n        _;\n    }\n\n    modifier onlyWaitPeriod(uint _validatorIndex) {\n        require(\n            beneficiaries[_validatorIndex].status == Status.CLAIM_WAIT_PERIOD,\n            \"no claim pending\"\n        );\n        _;\n    }\n\n    modifier onlyPausedClaim(uint _validatorIndex) {\n        require(\n            beneficiaries[_validatorIndex].status == Status.CLAIM_PAUSED,\n            \"no claim paused\"\n        );\n        _;\n    }\n\n    modifier onlyTimeoutPassed(uint _validatorIndex) {\n        require(block.timestamp >=\n                beneficiaries[_validatorIndex].claimTimestamp +\n                WAIT_PERIOD, \"Cannot withdraw claim until timeout passed\"\n        );\n        _;\n    }\n\n    modifier onlyInApplyWindow(uint _validatorIndex) {\n        require((block.timestamp <=\n                beneficiaries[_validatorIndex].applyTimestamp +\n                APPLY_WINDOW), \"Outside apply window\"\n        );\n        _;\n    }\n\n    modifier fromWithdrawAddress(\n        address _withdrawAddress,\n        uint _validatorIndex\n    ) {\n        require(\n            beneficiaries[_validatorIndex].withdrawAddress == _withdrawAddress,\n            \"withdrawAddress does not match\"\n        );\n        _;\n    }\n\n    /**\n     * @dev Only address that are a pool can be passed to functions marked by this modifier.\n     **/\n    modifier onlyPools() {\n        require(msg.sender == generatorPool, \"sender is not pool\");\n        _;\n    }\n\n    /**\n     * @dev Only multisig can call functions marked by this modifier.\n     **/\n    modifier onlyMultiSig() {\n        require(multiSig == msg.sender, \"not the multiSig\");\n        _;\n    }\n\n    /**\n     * @dev Only oracle can call functions marked by this modifier.\n     **/\n    modifier onlyOracle() {\n        require(oracle == msg.sender, \"not the oracle\");\n        _;\n    }\n\n    /**\n     * @dev Constructor.\n     */\n    constructor(\n        address _multiSig,\n        address _generatorPool,\n        address _wethGatewayAddr,\n        uint _minimumProvide,\n        uint _minimumReserve,\n        uint _maxClaim,\n        address _oracle,\n        address _oracleGateway\n    )ReserveStorage(\n        _multiSig,\n        _generatorPool,\n        _wethGatewayAddr,\n        _minimumProvide,\n        _minimumReserve,\n        _maxClaim,\n        _oracle,\n        _oracleGateway){\n    }\n}\n",
  "sourcePath": "/home/smeee/projects/slashing_insurance/contracts/contracts/Authenticator.sol",
  "compiler": {
    "name": "solc",
    "version": "0.8.9+commit.e5eed63a.Emscripten.clang"
  },
  "schemaVersion": "3.4.7",
  "updatedAt": "2023-06-06T17:11:31.064Z",
  "devdoc": {
    "kind": "dev",
    "methods": {
      "constructor": {
        "details": "Constructor."
      }
    },
    "version": 1
  },
  "userdoc": {
    "kind": "user",
    "methods": {},
    "version": 1
  }
}