{
  "contractName": "LendingPoolAddressesProviderMock",
  "abi": [
    {
      "inputs": [
        {
          "internalType": "address",
          "name": "_poolAddress",
          "type": "address"
        }
      ],
      "stateMutability": "nonpayable",
      "type": "constructor"
    },
    {
      "inputs": [],
      "name": "getLendingPool",
      "outputs": [
        {
          "internalType": "address",
          "name": "",
          "type": "address"
        }
      ],
      "stateMutability": "view",
      "type": "function"
    }
  ],
  "bytecode": "0x608060405234801561001057600080fd5b50604051610212380380610212833981810160405281019061003291906100db565b806000806101000a81548173ffffffffffffffffffffffffffffffffffffffff021916908373ffffffffffffffffffffffffffffffffffffffff16021790555050610108565b600080fd5b600073ffffffffffffffffffffffffffffffffffffffff82169050919050565b60006100a88261007d565b9050919050565b6100b88161009d565b81146100c357600080fd5b50565b6000815190506100d5816100af565b92915050565b6000602082840312156100f1576100f0610078565b5b60006100ff848285016100c6565b91505092915050565b60fc806101166000396000f3fe6080604052348015600f57600080fd5b506004361060285760003560e01c80630261bf8b14602d575b600080fd5b60336047565b604051603e919060ad565b60405180910390f35b60008060009054906101000a900473ffffffffffffffffffffffffffffffffffffffff16905090565b600073ffffffffffffffffffffffffffffffffffffffff82169050919050565b60006099826070565b9050919050565b60a7816090565b82525050565b600060208201905060c0600083018460a0565b9291505056fea264697066735822122040112ab80a067bcbd4d18c436ba70304e6d610edf212c5e328e5c416992c8d0464736f6c63430008090033",
  "immutableReferences": {},
  "source": "// SPDX-License-Identifier: AGPL-3.0\npragma solidity 0.8.9;\n\ncontract LendingPoolAddressesProviderMock {\n\n    address poolAddress;\n\n    constructor(address _poolAddress){\n        poolAddress = _poolAddress;\n    }\n\n    function getLendingPool() external view returns (address) {\n        return poolAddress;\n    }\n\n}",
  "sourcePath": "/home/smeee/projects/slashing_insurance/contracts/test/LendingPoolAddressesProviderMock.sol",
  "compiler": {
    "name": "solc",
    "version": "0.8.9+commit.e5eed63a.Emscripten.clang"
  },
  "schemaVersion": "3.4.7",
  "updatedAt": "2023-05-27T20:21:13.194Z",
  "networkType": "ethereum",
  "devdoc": {
    "kind": "dev",
    "methods": {},
    "version": 1
  },
  "userdoc": {
    "kind": "user",
    "methods": {},
    "version": 1
  }
}