{
  "contractName": "OracleMock",
  "abi": [
    {
      "inputs": [
        {
          "internalType": "address",
          "name": "_multiSig",
          "type": "address"
        }
      ],
      "stateMutability": "nonpayable",
      "type": "constructor"
    },
    {
      "inputs": [
        {
          "internalType": "string",
          "name": "_index",
          "type": "string"
        }
      ],
      "name": "getStatusAndAddrResponse",
      "outputs": [
        {
          "internalType": "bytes32",
          "name": "requestId",
          "type": "bytes32"
        }
      ],
      "stateMutability": "nonpayable",
      "type": "function"
    },
    {
      "inputs": [
        {
          "internalType": "bytes32",
          "name": "_requestId",
          "type": "bytes32"
        },
        {
          "internalType": "uint256",
          "name": "_index",
          "type": "uint256"
        },
        {
          "internalType": "uint8",
          "name": "_slashed",
          "type": "uint8"
        },
        {
          "internalType": "address",
          "name": "_withdrawAddress",
          "type": "address"
        },
        {
          "internalType": "uint256",
          "name": "_loss",
          "type": "uint256"
        }
      ],
      "name": "fulfillMultipleParameters",
      "outputs": [],
      "stateMutability": "nonpayable",
      "type": "function"
    },
    {
      "inputs": [
        {
          "internalType": "string",
          "name": "source",
          "type": "string"
        },
        {
          "internalType": "bytes",
          "name": "secrets",
          "type": "bytes"
        },
        {
          "internalType": "string[]",
          "name": "args",
          "type": "string[]"
        },
        {
          "internalType": "uint64",
          "name": "subscriptionId",
          "type": "uint64"
        },
        {
          "internalType": "uint32",
          "name": "gasLimit",
          "type": "uint32"
        }
      ],
      "name": "executeRequest",
      "outputs": [
        {
          "internalType": "bytes32",
          "name": "",
          "type": "bytes32"
        }
      ],
      "stateMutability": "nonpayable",
      "type": "function"
    },
    {
      "inputs": [
        {
          "internalType": "address",
          "name": "_reserve",
          "type": "address"
        }
      ],
      "name": "setReserve",
      "outputs": [],
      "stateMutability": "nonpayable",
      "type": "function"
    }
  ],
  "bytecode": "0x608060405234801561001057600080fd5b50604051610da7380380610da7833981810160405281019061003291906100dc565b80600160006101000a81548173ffffffffffffffffffffffffffffffffffffffff021916908373ffffffffffffffffffffffffffffffffffffffff16021790555050610109565b600080fd5b600073ffffffffffffffffffffffffffffffffffffffff82169050919050565b60006100a98261007e565b9050919050565b6100b98161009e565b81146100c457600080fd5b50565b6000815190506100d6816100b0565b92915050565b6000602082840312156100f2576100f1610079565b5b6000610100848285016100c7565b91505092915050565b610c8f806101186000396000f3fe608060405234801561001057600080fd5b506004361061004c5760003560e01c8063277145891461005157806328c6e163146100815780639cecc80a1461009d578063f34302d4146100b9575b600080fd5b61006b600480360381019061006691906105f6565b6100e9565b60405161007891906106eb565b60405180910390f35b61009b600480360381019061009691906107ff565b610100565b005b6100b760048036038101906100b2919061087a565b61019e565b005b6100d360048036038101906100ce91906109e8565b610300565b6040516100e091906106eb565b60405180910390f35b600080600090508091505098975050505050505050565b6000801b945060008054906101000a900473ffffffffffffffffffffffffffffffffffffffff1673ffffffffffffffffffffffffffffffffffffffff166344c506d5858585856040518563ffffffff1660e01b81526004016101659493929190610a5e565b600060405180830381600087803b15801561017f57600080fd5b505af1158015610193573d6000803e3d6000fd5b505050505050505050565b3373ffffffffffffffffffffffffffffffffffffffff16600160009054906101000a900473ffffffffffffffffffffffffffffffffffffffff1673ffffffffffffffffffffffffffffffffffffffff161461022e576040517f08c379a000000000000000000000000000000000000000000000000000000000815260040161022590610b00565b60405180910390fd5b600073ffffffffffffffffffffffffffffffffffffffff1660008054906101000a900473ffffffffffffffffffffffffffffffffffffffff1673ffffffffffffffffffffffffffffffffffffffff16146102bd576040517f08c379a00000000000000000000000000000000000000000000000000000000081526004016102b490610b6c565b60405180910390fd5b806000806101000a81548173ffffffffffffffffffffffffffffffffffffffff021916908373ffffffffffffffffffffffffffffffffffffffff16021790555050565b60003373ffffffffffffffffffffffffffffffffffffffff1660008054906101000a900473ffffffffffffffffffffffffffffffffffffffff1673ffffffffffffffffffffffffffffffffffffffff1614610390576040517f08c379a000000000000000000000000000000000000000000000000000000000815260040161038790610bd8565b60405180910390fd5b81600390805190602001906103a69291906103b2565b506000801b9050919050565b8280546103be90610c27565b90600052602060002090601f0160209004810192826103e05760008555610427565b82601f106103f957805160ff1916838001178555610427565b82800160010185558215610427579182015b8281111561042657825182559160200191906001019061040b565b5b5090506104349190610438565b5090565b5b80821115610451576000816000905550600101610439565b5090565b6000604051905090565b600080fd5b600080fd5b600080fd5b600080fd5b600080fd5b60008083601f84011261048e5761048d610469565b5b8235905067ffffffffffffffff8111156104ab576104aa61046e565b5b6020830191508360018202830111156104c7576104c6610473565b5b9250929050565b60008083601f8401126104e4576104e3610469565b5b8235905067ffffffffffffffff8111156105015761050061046e565b5b60208301915083600182028301111561051d5761051c610473565b5b9250929050565b60008083601f84011261053a57610539610469565b5b8235905067ffffffffffffffff8111156105575761055661046e565b5b60208301915083602082028301111561057357610572610473565b5b9250929050565b600067ffffffffffffffff82169050919050565b6105978161057a565b81146105a257600080fd5b50565b6000813590506105b48161058e565b92915050565b600063ffffffff82169050919050565b6105d3816105ba565b81146105de57600080fd5b50565b6000813590506105f0816105ca565b92915050565b60008060008060008060008060a0898b0312156106165761061561045f565b5b600089013567ffffffffffffffff81111561063457610633610464565b5b6106408b828c01610478565b9850985050602089013567ffffffffffffffff81111561066357610662610464565b5b61066f8b828c016104ce565b9650965050604089013567ffffffffffffffff81111561069257610691610464565b5b61069e8b828c01610524565b945094505060606106b18b828c016105a5565b92505060806106c28b828c016105e1565b9150509295985092959890939650565b6000819050919050565b6106e5816106d2565b82525050565b600060208201905061070060008301846106dc565b92915050565b61070f816106d2565b811461071a57600080fd5b50565b60008135905061072c81610706565b92915050565b6000819050919050565b61074581610732565b811461075057600080fd5b50565b6000813590506107628161073c565b92915050565b600060ff82169050919050565b61077e81610768565b811461078957600080fd5b50565b60008135905061079b81610775565b92915050565b600073ffffffffffffffffffffffffffffffffffffffff82169050919050565b60006107cc826107a1565b9050919050565b6107dc816107c1565b81146107e757600080fd5b50565b6000813590506107f9816107d3565b92915050565b600080600080600060a0868803121561081b5761081a61045f565b5b60006108298882890161071d565b955050602061083a88828901610753565b945050604061084b8882890161078c565b935050606061085c888289016107ea565b925050608061086d88828901610753565b9150509295509295909350565b6000602082840312156108905761088f61045f565b5b600061089e848285016107ea565b91505092915050565b600080fd5b6000601f19601f8301169050919050565b7f4e487b7100000000000000000000000000000000000000000000000000000000600052604160045260246000fd5b6108f5826108ac565b810181811067ffffffffffffffff82111715610914576109136108bd565b5b80604052505050565b6000610927610455565b905061093382826108ec565b919050565b600067ffffffffffffffff821115610953576109526108bd565b5b61095c826108ac565b9050602081019050919050565b82818337600083830152505050565b600061098b61098684610938565b61091d565b9050828152602081018484840111156109a7576109a66108a7565b5b6109b2848285610969565b509392505050565b600082601f8301126109cf576109ce610469565b5b81356109df848260208601610978565b91505092915050565b6000602082840312156109fe576109fd61045f565b5b600082013567ffffffffffffffff811115610a1c57610a1b610464565b5b610a28848285016109ba565b91505092915050565b610a3a81610732565b82525050565b610a4981610768565b82525050565b610a58816107c1565b82525050565b6000608082019050610a736000830187610a31565b610a806020830186610a40565b610a8d6040830185610a4f565b610a9a6060830184610a31565b95945050505050565b600082825260208201905092915050565b7f6e6f7420746865206d756c746953696700000000000000000000000000000000600082015250565b6000610aea601083610aa3565b9150610af582610ab4565b602082019050919050565b60006020820190508181036000830152610b1981610add565b9050919050565b7f7265736572766520616c72656164792073657400000000000000000000000000600082015250565b6000610b56601383610aa3565b9150610b6182610b20565b602082019050919050565b60006020820190508181036000830152610b8581610b49565b9050919050565b7f6e6f742074686520726573657276650000000000000000000000000000000000600082015250565b6000610bc2600f83610aa3565b9150610bcd82610b8c565b602082019050919050565b60006020820190508181036000830152610bf181610bb5565b9050919050565b7f4e487b7100000000000000000000000000000000000000000000000000000000600052602260045260246000fd5b60006002820490506001821680610c3f57607f821691505b60208210811415610c5357610c52610bf8565b5b5091905056fea2646970667358221220482c77e0cb6de404524791ce59cdbc544c4932220d3319f4c1e9c657f12f33ed64736f6c63430008090033",
  "immutableReferences": {},
  "source": "// SPDX-License-Identifier: MIT\npragma solidity ^0.8.0;\n\nimport { IReserve } from '../contracts/interfaces/protocol/IReserve.sol';\n\ncontract OracleMock {\n  address reserve;\n  address multiSig;\n  address sender;\n  string index;\n\n  /**\n  * @dev Only Reserve can call functions marked by this modifier.\n  **/\n  modifier onlyReserve(){\n      require(reserve == msg.sender, \"not the reserve\");\n      _;\n  }\n\n  /**\n  * @dev Only MultiSig can call functions marked by this modifier.\n  **/\n  modifier onlyMultiSig(){\n      require(multiSig == msg.sender, \"not the multiSig\");\n      _;\n  }\n\n  constructor(address _multiSig) {\n    multiSig = _multiSig;\n  }\n\n  function getStatusAndAddrResponse(string memory _index) external onlyReserve returns (bytes32 requestId) {\n    index = _index;\n    return 0x0;\n  }\n\n  function fulfillMultipleParameters(\n        bytes32 _requestId,\n        uint _index,\n        uint8 _slashed,\n        address _withdrawAddress,\n        uint _loss\n    ) public {\n    _requestId = 0x0;\n    IReserve(reserve).oracleResponse(_index, _slashed, _withdrawAddress, _loss);\n  }\n\n  function executeRequest(\n        string calldata source,\n        bytes calldata secrets,\n        string[] calldata args,\n        uint64 subscriptionId,\n        uint32 gasLimit\n    ) external returns (bytes32){\n      bytes32 result = \"\";\n      return result;\n    }\n\n  function setReserve(address _reserve) external onlyMultiSig {\n    require(reserve == address(0), \"reserve already set\");\n    reserve = _reserve;\n  }\n}",
  "sourcePath": "/home/smeee/projects/slashing_insurance/contracts/test/OracleMock.sol",
  "compiler": {
    "name": "solc",
    "version": "0.8.9+commit.e5eed63a.Emscripten.clang"
  },
  "schemaVersion": "3.4.7",
  "updatedAt": "2023-05-21T01:21:52.022Z",
  "networkType": "ethereum",
  "devdoc": {
    "kind": "dev",
    "methods": {},
    "version": 1
  },
  "userdoc": {
    "kind": "user",
    "methods": {},
    "version": 1
  }
}