{
  "contractName": "OracleGateway",
  "abi": [
    {
      "inputs": [
        {
          "internalType": "address",
          "name": "_multiSig",
          "type": "address"
        },
        {
          "internalType": "address",
          "name": "_oracle",
          "type": "address"
        }
      ],
      "stateMutability": "nonpayable",
      "type": "constructor"
    },
    {
      "inputs": [],
      "name": "multiSig",
      "outputs": [
        {
          "internalType": "address",
          "name": "",
          "type": "address"
        }
      ],
      "stateMutability": "view",
      "type": "function",
      "constant": true
    },
    {
      "inputs": [],
      "name": "oracle",
      "outputs": [
        {
          "internalType": "address",
          "name": "",
          "type": "address"
        }
      ],
      "stateMutability": "view",
      "type": "function",
      "constant": true
    },
    {
      "inputs": [],
      "name": "reserve",
      "outputs": [
        {
          "internalType": "address",
          "name": "",
          "type": "address"
        }
      ],
      "stateMutability": "view",
      "type": "function",
      "constant": true
    },
    {
      "inputs": [
        {
          "internalType": "address",
          "name": "_reserve",
          "type": "address"
        }
      ],
      "name": "setReserve",
      "outputs": [],
      "stateMutability": "nonpayable",
      "type": "function"
    },
    {
      "inputs": [
        {
          "internalType": "address",
          "name": "_oracle",
          "type": "address"
        }
      ],
      "name": "setOracle",
      "outputs": [],
      "stateMutability": "nonpayable",
      "type": "function"
    },
    {
      "inputs": [
        {
          "internalType": "string",
          "name": "_index",
          "type": "string"
        }
      ],
      "name": "callOracle",
      "outputs": [],
      "stateMutability": "nonpayable",
      "type": "function"
    }
  ],
  "bytecode": "0x60a060405234801561001057600080fd5b5060405161126c38038061126c83398181016040528101906100329190610110565b8173ffffffffffffffffffffffffffffffffffffffff1660808173ffffffffffffffffffffffffffffffffffffffff1681525050806000806101000a81548173ffffffffffffffffffffffffffffffffffffffff021916908373ffffffffffffffffffffffffffffffffffffffff1602179055505050610150565b600080fd5b600073ffffffffffffffffffffffffffffffffffffffff82169050919050565b60006100dd826100b2565b9050919050565b6100ed816100d2565b81146100f857600080fd5b50565b60008151905061010a816100e4565b92915050565b60008060408385031215610127576101266100ad565b5b6000610135858286016100fb565b9250506020610146858286016100fb565b9150509250929050565b6080516110f36101796000396000818161030701528181610342015261043701526110f36000f3fe608060405234801561001057600080fd5b50600436106100625760003560e01c806332d59b2a1461006757806336e0004a146100835780637adbf973146100a15780637dc0d1d0146100bd5780639cecc80a146100db578063cd3293de146100f7575b600080fd5b610081600480360381019061007c9190610670565b610115565b005b61008b610305565b60405161009891906106fa565b60405180910390f35b6100bb60048036038101906100b69190610741565b610329565b005b6100c56103fa565b6040516100d291906106fa565b60405180910390f35b6100f560048036038101906100f09190610741565b61041e565b005b6100ff6104f0565b60405161010c91906106fa565b60405180910390f35b3373ffffffffffffffffffffffffffffffffffffffff16600160009054906101000a900473ffffffffffffffffffffffffffffffffffffffff1673ffffffffffffffffffffffffffffffffffffffff16146101a5576040517f08c379a000000000000000000000000000000000000000000000000000000000815260040161019c906107cb565b60405180910390fd5b6000604051806105e001604052806105be8152602001610b006105be9139905060606000600167ffffffffffffffff8111156101e4576101e3610545565b5b60405190808252806020026020018201604052801561021757816020015b60608152602001906001900390816102025790505b509050838160008151811061022f5761022e6107eb565b5b60200260200101819052506000610386905060006203d090905060008054906101000a900473ffffffffffffffffffffffffffffffffffffffff1673ffffffffffffffffffffffffffffffffffffffff16632771458986868686866040518663ffffffff1660e01b81526004016102aa959493929190610a34565b602060405180830381600087803b1580156102c457600080fd5b505af11580156102d8573d6000803e3d6000fd5b505050506040513d601f19601f820116820180604052508101906102fc9190610ad2565b50505050505050565b7f000000000000000000000000000000000000000000000000000000000000000081565b3373ffffffffffffffffffffffffffffffffffffffff167f000000000000000000000000000000000000000000000000000000000000000073ffffffffffffffffffffffffffffffffffffffff16146103b7576040517f08c379a00000000000000000000000000000000000000000000000000000000081526004016103ae906107cb565b60405180910390fd5b806000806101000a81548173ffffffffffffffffffffffffffffffffffffffff021916908373ffffffffffffffffffffffffffffffffffffffff16021790555050565b60008054906101000a900473ffffffffffffffffffffffffffffffffffffffff1681565b3373ffffffffffffffffffffffffffffffffffffffff167f000000000000000000000000000000000000000000000000000000000000000073ffffffffffffffffffffffffffffffffffffffff16146104ac576040517f08c379a00000000000000000000000000000000000000000000000000000000081526004016104a3906107cb565b60405180910390fd5b80600160006101000a81548173ffffffffffffffffffffffffffffffffffffffff021916908373ffffffffffffffffffffffffffffffffffffffff16021790555050565b600160009054906101000a900473ffffffffffffffffffffffffffffffffffffffff1681565b6000604051905090565b600080fd5b600080fd5b600080fd5b600080fd5b6000601f19601f8301169050919050565b7f4e487b7100000000000000000000000000000000000000000000000000000000600052604160045260246000fd5b61057d82610534565b810181811067ffffffffffffffff8211171561059c5761059b610545565b5b80604052505050565b60006105af610516565b90506105bb8282610574565b919050565b600067ffffffffffffffff8211156105db576105da610545565b5b6105e482610534565b9050602081019050919050565b82818337600083830152505050565b600061061361060e846105c0565b6105a5565b90508281526020810184848401111561062f5761062e61052f565b5b61063a8482856105f1565b509392505050565b600082601f8301126106575761065661052a565b5b8135610667848260208601610600565b91505092915050565b60006020828403121561068657610685610520565b5b600082013567ffffffffffffffff8111156106a4576106a3610525565b5b6106b084828501610642565b91505092915050565b600073ffffffffffffffffffffffffffffffffffffffff82169050919050565b60006106e4826106b9565b9050919050565b6106f4816106d9565b82525050565b600060208201905061070f60008301846106eb565b92915050565b61071e816106d9565b811461072957600080fd5b50565b60008135905061073b81610715565b92915050565b60006020828403121561075757610756610520565b5b60006107658482850161072c565b91505092915050565b600082825260208201905092915050565b7f6e6f7420746865206f776e657200000000000000000000000000000000000000600082015250565b60006107b5600d8361076e565b91506107c08261077f565b602082019050919050565b600060208201905081810360008301526107e4816107a8565b9050919050565b7f4e487b7100000000000000000000000000000000000000000000000000000000600052603260045260246000fd5b600081519050919050565b60005b83811015610843578082015181840152602081019050610828565b83811115610852576000848401525b50505050565b60006108638261081a565b61086d818561076e565b935061087d818560208601610825565b61088681610534565b840191505092915050565b600081519050919050565b600082825260208201905092915050565b60006108b882610891565b6108c2818561089c565b93506108d2818560208601610825565b6108db81610534565b840191505092915050565b600081519050919050565b600082825260208201905092915050565b6000819050602082019050919050565b600082825260208201905092915050565b600061092e8261081a565b6109388185610912565b9350610948818560208601610825565b61095181610534565b840191505092915050565b60006109688383610923565b905092915050565b6000602082019050919050565b6000610988826108e6565b61099281856108f1565b9350836020820285016109a485610902565b8060005b858110156109e057848403895281516109c1858261095c565b94506109cc83610970565b925060208a019950506001810190506109a8565b50829750879550505050505092915050565b600067ffffffffffffffff82169050919050565b610a0f816109f2565b82525050565b600063ffffffff82169050919050565b610a2e81610a15565b82525050565b600060a0820190508181036000830152610a4e8188610858565b90508181036020830152610a6281876108ad565b90508181036040830152610a76818661097d565b9050610a856060830185610a06565b610a926080830184610a25565b9695505050505050565b6000819050919050565b610aaf81610a9c565b8114610aba57600080fd5b50565b600081519050610acc81610aa6565b92915050565b600060208284031215610ae857610ae7610520565b5b6000610af684828501610abd565b9150509291505056fe636f6e73742076616c696461746f72496e646578203d20617267735b305d0a202020202020202020202020636f6e73742075726c203d202768747470733a2f2f666c61736b2d73657276696365636f72732e726671626872383334716c6e6f2e75732d656173742d322e63732e616d617a6f6e6c696768747361696c2e636f6d2f7374617475732f272b76616c696461746f72496e6465782e746f537472696e6728290a202020202020202020202020636f6e73742063727970746f436f6d7061726552657175657374203d2046756e6374696f6e732e6d616b654874747052657175657374287b0a2020202020202020202020202020202075726c3a2075726c2c0a2020202020202020202020207d290a202020202020202020202020636f6e73742063727970746f436f6d70617265526573706f6e7365203d2061776169742063727970746f436f6d70617265526571756573740a2020202020202020202020206966202863727970746f436f6d70617265526573706f6e73652e6572726f7229207b0a20202020202020202020202020202020636f6e736f6c652e6572726f722863727970746f436f6d70617265526573706f6e73652e6572726f72290a202020202020202020202020202020207468726f77204572726f72282752657175657374206661696c656427290a2020202020202020202020207d0a202020202020202020202020636f6e73742064617461203d2063727970746f436f6d70617265526573706f6e73655b2764617461275d0a20202020202020202020202069662028646174612e526573706f6e7365203d3d3d20274572726f722729207b0a20202020202020202020202020202020636f6e736f6c652e6572726f7228646174612e4d657373616765290a202020202020202020202020202020207468726f77204572726f72286046756e6374696f6e616c206572726f722e2052656164206d6573736167653a20247b646174612e4d6573736167657d60290a2020202020202020202020207d0a2020202020202020202020206c657420736c6173686564203d20747275653b0a20202020202020202020202069662821646174615b27736c6173686564275d297b0a20202020202020202020202020202020736c6173686564203d2066616c73653b0a2020202020202020202020207d0a202020202020202020202020696628646174615b27776974686472617741646472657373275d203d3d202730783027297b0a20202020202020202020202020202020646174615b27776974686472617741646472657373275d203d2027307830303030303030303030303030303030303030303030303030303030303030303030303030303030270a2020202020202020202020207d0a2020202020202020202020206c6574206c6f7373203d20646174615b276c6f7373275d202a20310a202020202020202020202020636f6e737420627566666572203d204275666665722e616c6c6f632831293b0a2020202020202020202020206275666665722e777269746555496e743828736c6173686564203f2031203a20302c2030290a202020202020202020202020636f6e737420686578426f6f6c203d206275666665722e746f537472696e67282768657827290a2020202020202020202020206c657420686578496e646578203d20646174615b27696e646578275d2e746f537472696e67283136292e70616453746172742836342c20273027290a2020202020202020202020206c6574206865784c6f7373203d206c6f73732e746f537472696e67283136292e70616453746172742836342c20273027290a2020202020202020202020206c657420726573756c74203d204275666665722e66726f6d28646174615b27776974686472617741646472657373275d2e736c6963652832292b686578426f6f6c2b686578496e6465782b6865784c6f73732c202768657827290a20202020202020202020202072657475726e204275666665722e66726f6d28726573756c7429a264697066735822122033053a1df490549e75c36164ff88515c586a4a4a9a41052d5e74cefc492bdc5364736f6c63430008090033",
  "immutableReferences": {
    "1205": [
      {
        "length": 32,
        "start": 775
      },
      {
        "length": 32,
        "start": 834
      },
      {
        "length": 32,
        "start": 1079
      }
    ]
  },
  "source": "// SPDX-License-Identifier: MIT\npragma solidity 0.8.9;\n\nimport {IFunctionsConsumer} from \"./interfaces/link/IFunctionsConsumer.sol\";\n\ncontract OracleGateway {\n\n    address public oracle;\n    address public reserve;\n    address immutable public multiSig;\n\n    /**\n     * @dev Only MultiSig can call functions marked by this modifier.\n     **/\n    modifier onlyMultiSig(){\n        require(multiSig == msg.sender, \"not the owner\");\n        _;\n    }\n\n    /**\n    * @dev Only Reserve can call functions marked by this modifier.\n    **/\n    modifier onlyReserve(){\n        require(reserve == msg.sender, \"not the owner\");\n        _;\n    }\n\n    constructor(address _multiSig, address _oracle){\n        multiSig = _multiSig;\n        oracle = _oracle;\n    }\n\n    /**\n    * @param _reserve address of reserve.\n    **/\n    function setReserve(address _reserve) external onlyMultiSig {\n        //commented out for testnet\n        //require(reserve == address(0), \"reserve already set\");\n        reserve = _reserve;\n    }\n\n    /**\n    * @param _oracle address of oracle.\n    **/\n    function setOracle(address _oracle) external onlyMultiSig {\n        //require(reserve == address(0), \"reserve already set\");\n        oracle = _oracle;\n    }\n\n    /**\n     * @dev calls FunctionsConsumer sending source code,\n     * args, subId, gasLimit etc.\n    * @param _index validator index for the .\n    **/\n    function callOracle(string memory _index) external onlyReserve {\n        string memory source =\n            (\"const validatorIndex = args[0]\\n\\\n            const url = 'https://flask-servicecors.rfqbhr834qlno.us-east-2.cs.amazonlightsail.com/status/'+validatorIndex.toString()\\n\\\n            const cryptoCompareRequest = Functions.makeHttpRequest({\\n\\\n                url: url,\\n\\\n            })\\n\\\n            const cryptoCompareResponse = await cryptoCompareRequest\\n\\\n            if (cryptoCompareResponse.error) {\\n\\\n                console.error(cryptoCompareResponse.error)\\n\\\n                throw Error('Request failed')\\n\\\n            }\\n\\\n            const data = cryptoCompareResponse['data']\\n\\\n            if (data.Response === 'Error') {\\n\\\n                console.error(data.Message)\\n\\\n                throw Error(`Functional error. Read message: ${data.Message}`)\\n\\\n            }\\n\\\n            let slashed = true;\\n\\\n            if(!data['slashed']){\\n\\\n                slashed = false;\\n\\\n            }\\n\\\n            if(data['withdrawAddress'] == '0x0'){\\n\\\n                data['withdrawAddress'] = '0x0000000000000000000000000000000000000000'\\n\\\n            }\\n\\\n            let loss = data['loss'] * 1\\n\\\n            const buffer = Buffer.alloc(1);\\n\\\n            buffer.writeUInt8(slashed ? 1 : 0, 0)\\n\\\n            const hexBool = buffer.toString('hex')\\n\\\n            let hexIndex = data['index'].toString(16).padStart(64, '0')\\n\\\n            let hexLoss = loss.toString(16).padStart(64, '0')\\n\\\n            let result = Buffer.from(data['withdrawAddress'].slice(2)+hexBool+hexIndex+hexLoss, 'hex')\\n\\\n            return Buffer.from(result)\");\n        bytes memory secrets;\n        string[] memory args = new string[](1);\n        args[0] = _index;\n        uint64 sub = 902;\n        uint32 gasLimit = 250000;\n        IFunctionsConsumer(oracle).executeRequest(\n            source,\n            secrets,\n            args,\n            sub,\n            gasLimit\n        );\n    }\n\n}",
  "sourcePath": "/home/smeee/projects/slashing_insurance/contracts/contracts/OracleGateway.sol",
  "compiler": {
    "name": "solc",
    "version": "0.8.9+commit.e5eed63a.Emscripten.clang"
  },
  "schemaVersion": "3.4.7",
  "updatedAt": "2023-06-06T17:13:29.375Z",
  "networkType": "ethereum",
  "devdoc": {
    "kind": "dev",
    "methods": {
      "callOracle(string)": {
        "details": "calls FunctionsConsumer sending source code, args, subId, gasLimit etc.",
        "params": {
          "_index": "validator index for the .*"
        }
      },
      "setOracle(address)": {
        "params": {
          "_oracle": "address of oracle.*"
        }
      },
      "setReserve(address)": {
        "params": {
          "_reserve": "address of reserve.*"
        }
      }
    },
    "version": 1
  },
  "userdoc": {
    "kind": "user",
    "methods": {},
    "version": 1
  }
}