{
  "contractName": "OracleMock",
  "abi": [
    {
      "inputs": [
        {
          "internalType": "address",
          "name": "_multiSig",
          "type": "address"
        }
      ],
      "stateMutability": "nonpayable",
      "type": "constructor"
    },
    {
      "inputs": [
        {
          "internalType": "string",
          "name": "_index",
          "type": "string"
        }
      ],
      "name": "getStatusAndAddrResponse",
      "outputs": [
        {
          "internalType": "bytes32",
          "name": "requestId",
          "type": "bytes32"
        }
      ],
      "stateMutability": "nonpayable",
      "type": "function"
    },
    {
      "inputs": [
        {
          "internalType": "bytes32",
          "name": "_requestId",
          "type": "bytes32"
        },
        {
          "internalType": "uint256",
          "name": "_index",
          "type": "uint256"
        },
        {
          "internalType": "uint8",
          "name": "_slashed",
          "type": "uint8"
        },
        {
          "internalType": "address",
          "name": "_withdrawAddress",
          "type": "address"
        },
        {
          "internalType": "uint256",
          "name": "_loss",
          "type": "uint256"
        }
      ],
      "name": "fulfillMultipleParameters",
      "outputs": [],
      "stateMutability": "nonpayable",
      "type": "function"
    },
    {
      "inputs": [
        {
          "internalType": "string",
          "name": "_source",
          "type": "string"
        },
        {
          "internalType": "bytes",
          "name": "_secrets",
          "type": "bytes"
        },
        {
          "internalType": "string[]",
          "name": "_args",
          "type": "string[]"
        },
        {
          "internalType": "uint64",
          "name": "_subscriptionId",
          "type": "uint64"
        },
        {
          "internalType": "uint32",
          "name": "_gasLimit",
          "type": "uint32"
        }
      ],
      "name": "executeRequest",
      "outputs": [
        {
          "internalType": "bytes32",
          "name": "",
          "type": "bytes32"
        }
      ],
      "stateMutability": "nonpayable",
      "type": "function"
    },
    {
      "inputs": [
        {
          "internalType": "address",
          "name": "_reserve",
          "type": "address"
        }
      ],
      "name": "setReserve",
      "outputs": [],
      "stateMutability": "nonpayable",
      "type": "function"
    }
  ],
  "bytecode": "0x608060405234801561001057600080fd5b50604051610efe380380610efe833981810160405281019061003291906100dc565b80600160006101000a81548173ffffffffffffffffffffffffffffffffffffffff021916908373ffffffffffffffffffffffffffffffffffffffff16021790555050610109565b600080fd5b600073ffffffffffffffffffffffffffffffffffffffff82169050919050565b60006100a98261007e565b9050919050565b6100b98161009e565b81146100c457600080fd5b50565b6000815190506100d6816100b0565b92915050565b6000602082840312156100f2576100f1610079565b5b6000610100848285016100c7565b91505092915050565b610de6806101186000396000f3fe608060405234801561001057600080fd5b506004361061004c5760003560e01c8063277145891461005157806328c6e163146100815780639cecc80a1461009d578063f34302d4146100b9575b600080fd5b61006b60048036038101906100669190610718565b6100e9565b604051610078919061080d565b60405180910390f35b61009b60048036038101906100969190610921565b6101a4565b005b6100b760048036038101906100b2919061099c565b610242565b005b6100d360048036038101906100ce9190610b0a565b6103a4565b6040516100e0919061080d565b60405180910390f35b600080600090508989600491906101019291906103c8565b5087876005919061011392919061044e565b508585600081811061012857610127610b53565b5b905060200281019061013a9190610b91565b600691906101499291906103c8565b5083600760006101000a81548167ffffffffffffffff021916908367ffffffffffffffff16021790555082600760086101000a81548163ffffffff021916908363ffffffff1602179055508091505098975050505050505050565b6000801b945060008054906101000a900473ffffffffffffffffffffffffffffffffffffffff1673ffffffffffffffffffffffffffffffffffffffff166344c506d5858585856040518563ffffffff1660e01b81526004016102099493929190610c21565b600060405180830381600087803b15801561022357600080fd5b505af1158015610237573d6000803e3d6000fd5b505050505050505050565b3373ffffffffffffffffffffffffffffffffffffffff16600160009054906101000a900473ffffffffffffffffffffffffffffffffffffffff1673ffffffffffffffffffffffffffffffffffffffff16146102d2576040517f08c379a00000000000000000000000000000000000000000000000000000000081526004016102c990610cc3565b60405180910390fd5b600073ffffffffffffffffffffffffffffffffffffffff1660008054906101000a900473ffffffffffffffffffffffffffffffffffffffff1673ffffffffffffffffffffffffffffffffffffffff1614610361576040517f08c379a000000000000000000000000000000000000000000000000000000000815260040161035890610d2f565b60405180910390fd5b806000806101000a81548173ffffffffffffffffffffffffffffffffffffffff021916908373ffffffffffffffffffffffffffffffffffffffff16021790555050565b600081600390805190602001906103bc9291906104d4565b506000801b9050919050565b8280546103d490610d7e565b90600052602060002090601f0160209004810192826103f6576000855561043d565b82601f1061040f57803560ff191683800117855561043d565b8280016001018555821561043d579182015b8281111561043c578235825591602001919060010190610421565b5b50905061044a919061055a565b5090565b82805461045a90610d7e565b90600052602060002090601f01602090048101928261047c57600085556104c3565b82601f1061049557803560ff19168380011785556104c3565b828001600101855582156104c3579182015b828111156104c25782358255916020019190600101906104a7565b5b5090506104d0919061055a565b5090565b8280546104e090610d7e565b90600052602060002090601f0160209004810192826105025760008555610549565b82601f1061051b57805160ff1916838001178555610549565b82800160010185558215610549579182015b8281111561054857825182559160200191906001019061052d565b5b509050610556919061055a565b5090565b5b8082111561057357600081600090555060010161055b565b5090565b6000604051905090565b600080fd5b600080fd5b600080fd5b600080fd5b600080fd5b60008083601f8401126105b0576105af61058b565b5b8235905067ffffffffffffffff8111156105cd576105cc610590565b5b6020830191508360018202830111156105e9576105e8610595565b5b9250929050565b60008083601f8401126106065761060561058b565b5b8235905067ffffffffffffffff81111561062357610622610590565b5b60208301915083600182028301111561063f5761063e610595565b5b9250929050565b60008083601f84011261065c5761065b61058b565b5b8235905067ffffffffffffffff81111561067957610678610590565b5b60208301915083602082028301111561069557610694610595565b5b9250929050565b600067ffffffffffffffff82169050919050565b6106b98161069c565b81146106c457600080fd5b50565b6000813590506106d6816106b0565b92915050565b600063ffffffff82169050919050565b6106f5816106dc565b811461070057600080fd5b50565b600081359050610712816106ec565b92915050565b60008060008060008060008060a0898b03121561073857610737610581565b5b600089013567ffffffffffffffff81111561075657610755610586565b5b6107628b828c0161059a565b9850985050602089013567ffffffffffffffff81111561078557610784610586565b5b6107918b828c016105f0565b9650965050604089013567ffffffffffffffff8111156107b4576107b3610586565b5b6107c08b828c01610646565b945094505060606107d38b828c016106c7565b92505060806107e48b828c01610703565b9150509295985092959890939650565b6000819050919050565b610807816107f4565b82525050565b600060208201905061082260008301846107fe565b92915050565b610831816107f4565b811461083c57600080fd5b50565b60008135905061084e81610828565b92915050565b6000819050919050565b61086781610854565b811461087257600080fd5b50565b6000813590506108848161085e565b92915050565b600060ff82169050919050565b6108a08161088a565b81146108ab57600080fd5b50565b6000813590506108bd81610897565b92915050565b600073ffffffffffffffffffffffffffffffffffffffff82169050919050565b60006108ee826108c3565b9050919050565b6108fe816108e3565b811461090957600080fd5b50565b60008135905061091b816108f5565b92915050565b600080600080600060a0868803121561093d5761093c610581565b5b600061094b8882890161083f565b955050602061095c88828901610875565b945050604061096d888289016108ae565b935050606061097e8882890161090c565b925050608061098f88828901610875565b9150509295509295909350565b6000602082840312156109b2576109b1610581565b5b60006109c08482850161090c565b91505092915050565b600080fd5b6000601f19601f8301169050919050565b7f4e487b7100000000000000000000000000000000000000000000000000000000600052604160045260246000fd5b610a17826109ce565b810181811067ffffffffffffffff82111715610a3657610a356109df565b5b80604052505050565b6000610a49610577565b9050610a558282610a0e565b919050565b600067ffffffffffffffff821115610a7557610a746109df565b5b610a7e826109ce565b9050602081019050919050565b82818337600083830152505050565b6000610aad610aa884610a5a565b610a3f565b905082815260208101848484011115610ac957610ac86109c9565b5b610ad4848285610a8b565b509392505050565b600082601f830112610af157610af061058b565b5b8135610b01848260208601610a9a565b91505092915050565b600060208284031215610b2057610b1f610581565b5b600082013567ffffffffffffffff811115610b3e57610b3d610586565b5b610b4a84828501610adc565b91505092915050565b7f4e487b7100000000000000000000000000000000000000000000000000000000600052603260045260246000fd5b600080fd5b600080fd5b600080fd5b60008083356001602003843603038112610bae57610bad610b82565b5b80840192508235915067ffffffffffffffff821115610bd057610bcf610b87565b5b602083019250600182023603831315610bec57610beb610b8c565b5b509250929050565b610bfd81610854565b82525050565b610c0c8161088a565b82525050565b610c1b816108e3565b82525050565b6000608082019050610c366000830187610bf4565b610c436020830186610c03565b610c506040830185610c12565b610c5d6060830184610bf4565b95945050505050565b600082825260208201905092915050565b7f6e6f7420746865206d756c746953696700000000000000000000000000000000600082015250565b6000610cad601083610c66565b9150610cb882610c77565b602082019050919050565b60006020820190508181036000830152610cdc81610ca0565b9050919050565b7f7265736572766520616c72656164792073657400000000000000000000000000600082015250565b6000610d19601383610c66565b9150610d2482610ce3565b602082019050919050565b60006020820190508181036000830152610d4881610d0c565b9050919050565b7f4e487b7100000000000000000000000000000000000000000000000000000000600052602260045260246000fd5b60006002820490506001821680610d9657607f821691505b60208210811415610daa57610da9610d4f565b5b5091905056fea264697066735822122071bcf6c5855e22645c8f1ed79d31c4a5ba779c58d32c46eb44f07037cc37afb964736f6c63430008090033",
  "immutableReferences": {},
  "source": "// SPDX-License-Identifier: MIT\npragma solidity ^0.8.0;\n\nimport { IReserve } from '../contracts/interfaces/protocol/IReserve.sol';\n\ncontract OracleMock {\n  address reserve;\n  address multiSig;\n  address sender;\n  string index;\n  string source;\n  bytes secrets;\n  string args;\n  uint64 subscriptionId;\n  uint32 gasLimit;\n  /**\n  * @dev Only Reserve can call functions marked by this modifier.\n  **/\n  modifier onlyReserve(){\n      require(reserve == msg.sender, \"not the reserve\");\n      _;\n  }\n\n  /**\n  * @dev Only MultiSig can call functions marked by this modifier.\n  **/\n  modifier onlyMultiSig(){\n      require(multiSig == msg.sender, \"not the multiSig\");\n      _;\n  }\n\n  constructor(address _multiSig) {\n    multiSig = _multiSig;\n  }\n\n  function getStatusAndAddrResponse(string memory _index) external returns (bytes32 requestId) {\n    index = _index;\n    return 0x0;\n  }\n\n  function fulfillMultipleParameters(\n        bytes32 _requestId,\n        uint _index,\n        uint8 _slashed,\n        address _withdrawAddress,\n        uint _loss\n    ) public {\n    _requestId = 0x0;\n    IReserve(reserve).oracleResponse(_index, _slashed, _withdrawAddress, _loss);\n  }\n\n  function executeRequest(\n        string calldata _source,\n        bytes calldata _secrets,\n        string[] calldata _args,\n        uint64 _subscriptionId,\n        uint32 _gasLimit\n    ) external returns (bytes32){\n      bytes32 result = \"\";\n      source = _source;\n      secrets = _secrets;\n      args = _args[0];\n      subscriptionId = _subscriptionId;\n      gasLimit = _gasLimit;\n\n      return result;\n    }\n\n  function setReserve(address _reserve) external onlyMultiSig {\n    require(reserve == address(0), \"reserve already set\");\n    reserve = _reserve;\n  }\n}",
  "sourcePath": "/home/smeee/projects/slashing_insurance/contracts/test/OracleMock.sol",
  "compiler": {
    "name": "solc",
    "version": "0.8.9+commit.e5eed63a.Emscripten.clang"
  },
  "schemaVersion": "3.4.7",
  "updatedAt": "2023-06-04T02:38:11.413Z",
  "networkType": "ethereum",
  "devdoc": {
    "kind": "dev",
    "methods": {},
    "version": 1
  },
  "userdoc": {
    "kind": "user",
    "methods": {},
    "version": 1
  }
}