{
  "contractName": "OracleGateway",
  "abi": [
    {
      "inputs": [
        {
          "internalType": "address",
          "name": "_multiSig",
          "type": "address"
        },
        {
          "internalType": "address",
          "name": "_oracle",
          "type": "address"
        }
      ],
      "stateMutability": "nonpayable",
      "type": "constructor"
    },
    {
      "inputs": [],
      "name": "multiSig",
      "outputs": [
        {
          "internalType": "address",
          "name": "",
          "type": "address"
        }
      ],
      "stateMutability": "view",
      "type": "function",
      "constant": true
    },
    {
      "inputs": [],
      "name": "reserve",
      "outputs": [
        {
          "internalType": "address",
          "name": "",
          "type": "address"
        }
      ],
      "stateMutability": "view",
      "type": "function",
      "constant": true
    },
    {
      "inputs": [
        {
          "internalType": "address",
          "name": "_reserve",
          "type": "address"
        }
      ],
      "name": "setReserve",
      "outputs": [],
      "stateMutability": "nonpayable",
      "type": "function"
    },
    {
      "inputs": [
        {
          "internalType": "string",
          "name": "_index",
          "type": "string"
        }
      ],
      "name": "callOracle",
      "outputs": [],
      "stateMutability": "nonpayable",
      "type": "function"
    }
  ],
  "bytecode": "0x60a060405234801561001057600080fd5b5060405161111c38038061111c83398181016040528101906100329190610110565b8173ffffffffffffffffffffffffffffffffffffffff1660808173ffffffffffffffffffffffffffffffffffffffff1681525050806000806101000a81548173ffffffffffffffffffffffffffffffffffffffff021916908373ffffffffffffffffffffffffffffffffffffffff1602179055505050610150565b600080fd5b600073ffffffffffffffffffffffffffffffffffffffff82169050919050565b60006100dd826100b2565b9050919050565b6100ed816100d2565b81146100f857600080fd5b50565b60008151905061010a816100e4565b92915050565b60008060408385031215610127576101266100ad565b5b6000610135858286016100fb565b9250506020610146858286016100fb565b9150509250929050565b608051610faa610172600039600081816102b701526102f20152610faa6000f3fe608060405234801561001057600080fd5b506004361061004c5760003560e01c806332d59b2a1461005157806336e0004a1461006d5780639cecc80a1461008b578063cd3293de146100a7575b600080fd5b61006b6004803603810190610066919061052b565b6100c5565b005b6100756102b5565b60405161008291906105b5565b60405180910390f35b6100a560048036038101906100a091906105fc565b6102d9565b005b6100af6103ab565b6040516100bc91906105b5565b60405180910390f35b3373ffffffffffffffffffffffffffffffffffffffff16600160009054906101000a900473ffffffffffffffffffffffffffffffffffffffff1673ffffffffffffffffffffffffffffffffffffffff1614610155576040517f08c379a000000000000000000000000000000000000000000000000000000000815260040161014c90610686565b60405180910390fd5b6000604051806105e001604052806105ba81526020016109bb6105ba9139905060606000600167ffffffffffffffff81111561019457610193610400565b5b6040519080825280602002602001820160405280156101c757816020015b60608152602001906001900390816101b25790505b50905083816000815181106101df576101de6106a6565b5b60200260200101819052506000610386905060006203d090905060008054906101000a900473ffffffffffffffffffffffffffffffffffffffff1673ffffffffffffffffffffffffffffffffffffffff16632771458986868686866040518663ffffffff1660e01b815260040161025a9594939291906108ef565b602060405180830381600087803b15801561027457600080fd5b505af1158015610288573d6000803e3d6000fd5b505050506040513d601f19601f820116820180604052508101906102ac919061098d565b50505050505050565b7f000000000000000000000000000000000000000000000000000000000000000081565b3373ffffffffffffffffffffffffffffffffffffffff167f000000000000000000000000000000000000000000000000000000000000000073ffffffffffffffffffffffffffffffffffffffff1614610367576040517f08c379a000000000000000000000000000000000000000000000000000000000815260040161035e90610686565b60405180910390fd5b80600160006101000a81548173ffffffffffffffffffffffffffffffffffffffff021916908373ffffffffffffffffffffffffffffffffffffffff16021790555050565b600160009054906101000a900473ffffffffffffffffffffffffffffffffffffffff1681565b6000604051905090565b600080fd5b600080fd5b600080fd5b600080fd5b6000601f19601f8301169050919050565b7f4e487b7100000000000000000000000000000000000000000000000000000000600052604160045260246000fd5b610438826103ef565b810181811067ffffffffffffffff8211171561045757610456610400565b5b80604052505050565b600061046a6103d1565b9050610476828261042f565b919050565b600067ffffffffffffffff82111561049657610495610400565b5b61049f826103ef565b9050602081019050919050565b82818337600083830152505050565b60006104ce6104c98461047b565b610460565b9050828152602081018484840111156104ea576104e96103ea565b5b6104f58482856104ac565b509392505050565b600082601f830112610512576105116103e5565b5b81356105228482602086016104bb565b91505092915050565b600060208284031215610541576105406103db565b5b600082013567ffffffffffffffff81111561055f5761055e6103e0565b5b61056b848285016104fd565b91505092915050565b600073ffffffffffffffffffffffffffffffffffffffff82169050919050565b600061059f82610574565b9050919050565b6105af81610594565b82525050565b60006020820190506105ca60008301846105a6565b92915050565b6105d981610594565b81146105e457600080fd5b50565b6000813590506105f6816105d0565b92915050565b600060208284031215610612576106116103db565b5b6000610620848285016105e7565b91505092915050565b600082825260208201905092915050565b7f6e6f7420746865206f776e657200000000000000000000000000000000000000600082015250565b6000610670600d83610629565b915061067b8261063a565b602082019050919050565b6000602082019050818103600083015261069f81610663565b9050919050565b7f4e487b7100000000000000000000000000000000000000000000000000000000600052603260045260246000fd5b600081519050919050565b60005b838110156106fe5780820151818401526020810190506106e3565b8381111561070d576000848401525b50505050565b600061071e826106d5565b6107288185610629565b93506107388185602086016106e0565b610741816103ef565b840191505092915050565b600081519050919050565b600082825260208201905092915050565b60006107738261074c565b61077d8185610757565b935061078d8185602086016106e0565b610796816103ef565b840191505092915050565b600081519050919050565b600082825260208201905092915050565b6000819050602082019050919050565b600082825260208201905092915050565b60006107e9826106d5565b6107f381856107cd565b93506108038185602086016106e0565b61080c816103ef565b840191505092915050565b600061082383836107de565b905092915050565b6000602082019050919050565b6000610843826107a1565b61084d81856107ac565b93508360208202850161085f856107bd565b8060005b8581101561089b578484038952815161087c8582610817565b94506108878361082b565b925060208a01995050600181019050610863565b50829750879550505050505092915050565b600067ffffffffffffffff82169050919050565b6108ca816108ad565b82525050565b600063ffffffff82169050919050565b6108e9816108d0565b82525050565b600060a08201905081810360008301526109098188610713565b9050818103602083015261091d8187610768565b905081810360408301526109318186610838565b905061094060608301856108c1565b61094d60808301846108e0565b9695505050505050565b6000819050919050565b61096a81610957565b811461097557600080fd5b50565b60008151905061098781610961565b92915050565b6000602082840312156109a3576109a26103db565b5b60006109b184828501610978565b9150509291505056fe636f6e73742076616c696461746f72496e646578203d20617267735b305d0a202020202020202020202020636f6e73742075726c203d202768747470733a2f2f666c61736b2d736572766963652e726671626872383334716c6e6f2e75732d656173742d322e63732e616d617a6f6e6c696768747361696c2e636f6d2f7374617475732f272b76616c696461746f72496e6465782e746f537472696e6728290a202020202020202020202020636f6e73742063727970746f436f6d7061726552657175657374203d2046756e6374696f6e732e6d616b654874747052657175657374287b0a2020202020202020202020202020202075726c3a2075726c2c0a2020202020202020202020207d290a202020202020202020202020636f6e73742063727970746f436f6d70617265526573706f6e7365203d2061776169742063727970746f436f6d70617265526571756573740a2020202020202020202020206966202863727970746f436f6d70617265526573706f6e73652e6572726f7229207b0a20202020202020202020202020202020636f6e736f6c652e6572726f722863727970746f436f6d70617265526573706f6e73652e6572726f72290a202020202020202020202020202020207468726f77204572726f72282752657175657374206661696c656427290a2020202020202020202020207d0a202020202020202020202020636f6e73742064617461203d2063727970746f436f6d70617265526573706f6e73655b2764617461275d0a20202020202020202020202069662028646174612e526573706f6e7365203d3d3d20274572726f722729207b0a20202020202020202020202020202020636f6e736f6c652e6572726f7228646174612e4d657373616765290a202020202020202020202020202020207468726f77204572726f72286046756e6374696f6e616c206572726f722e2052656164206d6573736167653a20247b646174612e4d6573736167657d60290a2020202020202020202020207d0a2020202020202020202020206c657420736c6173686564203d20747275653b0a20202020202020202020202069662821646174615b27736c6173686564275d297b0a20202020202020202020202020202020736c6173686564203d2066616c73653b0a2020202020202020202020207d0a202020202020202020202020696628646174615b27776974686472617741646472657373275d203d3d202730783027297b0a20202020202020202020202020202020646174615b27776974686472617741646472657373275d203d2027307830303030303030303030303030303030303030303030303030303030303030303030303030303030270a2020202020202020202020207d0a2020202020202020202020206c6574206c6f7373203d20646174615b276c6f7373275d202a20310a202020202020202020202020636f6e737420627566666572203d204275666665722e616c6c6f632831293b0a2020202020202020202020206275666665722e777269746555496e743828736c6173686564203f2031203a20302c2030290a202020202020202020202020636f6e737420686578426f6f6c203d206275666665722e746f537472696e67282768657827290a2020202020202020202020206c657420686578496e646578203d20646174615b27696e646578275d2e746f537472696e67283136292e70616453746172742836342c20273027290a2020202020202020202020206c6574206865784c6f7373203d206c6f73732e746f537472696e67283136292e70616453746172742836342c20273027290a2020202020202020202020206c657420726573756c74203d204275666665722e66726f6d28646174615b27776974686472617741646472657373275d2e736c6963652832292b686578426f6f6c2b686578496e6465782b6865784c6f73732c202768657827290a20202020202020202020202072657475726e204275666665722e66726f6d28726573756c7429a2646970667358221220067381c643c0a16a720df6e7fb99d57372f4600bc24a13edbbb46c7e890eae5064736f6c63430008090033",
  "immutableReferences": {
    "9": [
      {
        "length": 32,
        "start": 695
      },
      {
        "length": 32,
        "start": 754
      }
    ]
  },
  "source": "// SPDX-License-Identifier: MIT\npragma solidity 0.8.9;\n\nimport {IFunctionsConsumer} from \"./interfaces/link/IFunctionsConsumer.sol\";\n\ncontract OracleGateway {\n\n    address oracle;\n    address public reserve;\n    address immutable public multiSig;\n\n    /**\n     * @dev Only MultiSig can call functions marked by this modifier.\n     **/\n    modifier onlyMultiSig(){\n        require(multiSig == msg.sender, \"not the owner\");\n        _;\n    }\n\n    /**\n    * @dev Only Reserve can call functions marked by this modifier.\n    **/\n    modifier onlyReserve(){\n        require(reserve == msg.sender, \"not the owner\");\n        _;\n    }\n\n    constructor(address _multiSig, address _oracle){\n        multiSig = _multiSig;\n        oracle = _oracle;\n    }\n\n    /**\n    * @param _reserve address of reserve.\n    **/\n    function setReserve(address _reserve) external onlyMultiSig {\n        //require(reserve == address(0), \"reserve already set\");\n        reserve = _reserve;\n    }\n\n    function callOracle(string memory _index) external onlyReserve {\n        string memory source =\n            (\"const validatorIndex = args[0]\\n\\\n            const url = 'https://flask-service.rfqbhr834qlno.us-east-2.cs.amazonlightsail.com/status/'+validatorIndex.toString()\\n\\\n            const cryptoCompareRequest = Functions.makeHttpRequest({\\n\\\n                url: url,\\n\\\n            })\\n\\\n            const cryptoCompareResponse = await cryptoCompareRequest\\n\\\n            if (cryptoCompareResponse.error) {\\n\\\n                console.error(cryptoCompareResponse.error)\\n\\\n                throw Error('Request failed')\\n\\\n            }\\n\\\n            const data = cryptoCompareResponse['data']\\n\\\n            if (data.Response === 'Error') {\\n\\\n                console.error(data.Message)\\n\\\n                throw Error(`Functional error. Read message: ${data.Message}`)\\n\\\n            }\\n\\\n            let slashed = true;\\n\\\n            if(!data['slashed']){\\n\\\n                slashed = false;\\n\\\n            }\\n\\\n            if(data['withdrawAddress'] == '0x0'){\\n\\\n                data['withdrawAddress'] = '0x0000000000000000000000000000000000000000'\\n\\\n            }\\n\\\n            let loss = data['loss'] * 1\\n\\\n            const buffer = Buffer.alloc(1);\\n\\\n            buffer.writeUInt8(slashed ? 1 : 0, 0)\\n\\\n            const hexBool = buffer.toString('hex')\\n\\\n            let hexIndex = data['index'].toString(16).padStart(64, '0')\\n\\\n            let hexLoss = loss.toString(16).padStart(64, '0')\\n\\\n            let result = Buffer.from(data['withdrawAddress'].slice(2)+hexBool+hexIndex+hexLoss, 'hex')\\n\\\n            return Buffer.from(result)\");\n        bytes memory secrets;\n        string[] memory args = new string[](1);\n        args[0] = _index;\n        uint64 sub = 902;\n        uint32 gasLimit = 250000;\n        IFunctionsConsumer(oracle).executeRequest(\n            source,\n            secrets,\n            args,\n            sub,\n            gasLimit\n        );\n    }\n\n}",
  "sourcePath": "/home/smeee/projects/slashing_insurance/contracts/contracts/OracleGateway.sol",
  "compiler": {
    "name": "solc",
    "version": "0.8.9+commit.e5eed63a.Emscripten.clang"
  },
  "schemaVersion": "3.4.7",
  "updatedAt": "2023-05-27T20:21:13.152Z",
  "networkType": "ethereum",
  "devdoc": {
    "kind": "dev",
    "methods": {
      "setReserve(address)": {
        "params": {
          "_reserve": "address of reserve.*"
        }
      }
    },
    "version": 1
  },
  "userdoc": {
    "kind": "user",
    "methods": {},
    "version": 1
  }
}