{
  "contractName": "PoolMock",
  "abi": [
    {
      "inputs": [],
      "name": "sender",
      "outputs": [
        {
          "internalType": "address",
          "name": "",
          "type": "address"
        }
      ],
      "stateMutability": "view",
      "type": "function"
    },
    {
      "inputs": [
        {
          "internalType": "address",
          "name": "_wETHToken",
          "type": "address"
        },
        {
          "internalType": "address",
          "name": "_aWETHToken",
          "type": "address"
        }
      ],
      "name": "setTestTokens",
      "outputs": [],
      "stateMutability": "nonpayable",
      "type": "function"
    },
    {
      "inputs": [
        {
          "internalType": "address",
          "name": "asset",
          "type": "address"
        },
        {
          "internalType": "uint256",
          "name": "amount",
          "type": "uint256"
        },
        {
          "internalType": "address",
          "name": "onBehalfOf",
          "type": "address"
        },
        {
          "internalType": "uint16",
          "name": "referralCode",
          "type": "uint16"
        }
      ],
      "name": "deposit",
      "outputs": [],
      "stateMutability": "nonpayable",
      "type": "function"
    },
    {
      "inputs": [
        {
          "internalType": "uint256",
          "name": "amount",
          "type": "uint256"
        },
        {
          "internalType": "address",
          "name": "onBehalfOf",
          "type": "address"
        }
      ],
      "name": "simulateInterest",
      "outputs": [],
      "stateMutability": "nonpayable",
      "type": "function"
    },
    {
      "inputs": [
        {
          "internalType": "address",
          "name": "asset",
          "type": "address"
        },
        {
          "internalType": "uint256",
          "name": "amount",
          "type": "uint256"
        },
        {
          "internalType": "address",
          "name": "to",
          "type": "address"
        }
      ],
      "name": "withdraw",
      "outputs": [
        {
          "internalType": "uint256",
          "name": "",
          "type": "uint256"
        }
      ],
      "stateMutability": "nonpayable",
      "type": "function"
    },
    {
      "inputs": [],
      "name": "getReservesList",
      "outputs": [
        {
          "internalType": "address[]",
          "name": "",
          "type": "address[]"
        }
      ],
      "stateMutability": "view",
      "type": "function"
    },
    {
      "inputs": [
        {
          "internalType": "address",
          "name": "_asset",
          "type": "address"
        }
      ],
      "name": "getReserveData",
      "outputs": [
        {
          "components": [
            {
              "components": [
                {
                  "internalType": "uint256",
                  "name": "data",
                  "type": "uint256"
                }
              ],
              "internalType": "struct DataTypes.ReserveConfigurationMap",
              "name": "configuration",
              "type": "tuple"
            },
            {
              "internalType": "uint128",
              "name": "liquidityIndex",
              "type": "uint128"
            },
            {
              "internalType": "uint128",
              "name": "currentLiquidityRate",
              "type": "uint128"
            },
            {
              "internalType": "uint128",
              "name": "variableBorrowIndex",
              "type": "uint128"
            },
            {
              "internalType": "uint128",
              "name": "currentVariableBorrowRate",
              "type": "uint128"
            },
            {
              "internalType": "uint128",
              "name": "currentStableBorrowRate",
              "type": "uint128"
            },
            {
              "internalType": "uint40",
              "name": "lastUpdateTimestamp",
              "type": "uint40"
            },
            {
              "internalType": "uint16",
              "name": "id",
              "type": "uint16"
            },
            {
              "internalType": "address",
              "name": "aTokenAddress",
              "type": "address"
            },
            {
              "internalType": "address",
              "name": "stableDebtTokenAddress",
              "type": "address"
            },
            {
              "internalType": "address",
              "name": "variableDebtTokenAddress",
              "type": "address"
            },
            {
              "internalType": "address",
              "name": "interestRateStrategyAddress",
              "type": "address"
            },
            {
              "internalType": "uint128",
              "name": "accruedToTreasury",
              "type": "uint128"
            },
            {
              "internalType": "uint128",
              "name": "unbacked",
              "type": "uint128"
            },
            {
              "internalType": "uint128",
              "name": "isolationModeTotalDebt",
              "type": "uint128"
            }
          ],
          "internalType": "struct DataTypes.ReserveData",
          "name": "",
          "type": "tuple"
        }
      ],
      "stateMutability": "view",
      "type": "function"
    },
    {
      "inputs": [
        {
          "internalType": "address",
          "name": "_asset",
          "type": "address"
        }
      ],
      "name": "getReserveNormalizedIncome",
      "outputs": [
        {
          "internalType": "uint256",
          "name": "",
          "type": "uint256"
        }
      ],
      "stateMutability": "pure",
      "type": "function"
    }
  ],
  "bytecode": "0x608060405234801561001057600080fd5b50611a6b806100206000396000f3fe608060405234801561001057600080fd5b50600436106100885760003560e01c8063d174257e1161005b578063d174257e1461013b578063d1946dbc14610157578063e8eda9df14610175578063f81f982d1461019157610088565b806335ea6a751461008d57806367e404ce146100bd57806369328dec146100db578063d15e00531461010b575b600080fd5b6100a760048036038101906100a29190611442565b6101ad565b6040516100b49190611650565b60405180910390f35b6100c5610615565b6040516100d2919061167b565b60405180910390f35b6100f560048036038101906100f091906116c2565b61063b565b6040516101029190611724565b60405180910390f35b61012560048036038101906101209190611442565b6107f4565b6040516101329190611724565b60405180910390f35b6101556004803603810190610150919061173f565b610872565b005b61015f610905565b60405161016c919061182e565b60405180910390f35b61018f600480360381019061018a919061187c565b610993565b005b6101ab60048036038101906101a691906118e3565b610adf565b005b6101b561125d565b6000808373ffffffffffffffffffffffffffffffffffffffff1673ffffffffffffffffffffffffffffffffffffffff168152602001908152602001600020604051806101e00160405290816000820160405180602001604052908160008201548152505081526020016001820160009054906101000a90046fffffffffffffffffffffffffffffffff166fffffffffffffffffffffffffffffffff166fffffffffffffffffffffffffffffffff1681526020016001820160109054906101000a90046fffffffffffffffffffffffffffffffff166fffffffffffffffffffffffffffffffff166fffffffffffffffffffffffffffffffff1681526020016002820160009054906101000a90046fffffffffffffffffffffffffffffffff166fffffffffffffffffffffffffffffffff166fffffffffffffffffffffffffffffffff1681526020016002820160109054906101000a90046fffffffffffffffffffffffffffffffff166fffffffffffffffffffffffffffffffff166fffffffffffffffffffffffffffffffff1681526020016003820160009054906101000a90046fffffffffffffffffffffffffffffffff166fffffffffffffffffffffffffffffffff166fffffffffffffffffffffffffffffffff1681526020016003820160109054906101000a900464ffffffffff1664ffffffffff1664ffffffffff1681526020016003820160159054906101000a900461ffff1661ffff1661ffff1681526020016004820160009054906101000a900473ffffffffffffffffffffffffffffffffffffffff1673ffffffffffffffffffffffffffffffffffffffff1673ffffffffffffffffffffffffffffffffffffffff1681526020016005820160009054906101000a900473ffffffffffffffffffffffffffffffffffffffff1673ffffffffffffffffffffffffffffffffffffffff1673ffffffffffffffffffffffffffffffffffffffff1681526020016006820160009054906101000a900473ffffffffffffffffffffffffffffffffffffffff1673ffffffffffffffffffffffffffffffffffffffff1673ffffffffffffffffffffffffffffffffffffffff1681526020016007820160009054906101000a900473ffffffffffffffffffffffffffffffffffffffff1673ffffffffffffffffffffffffffffffffffffffff1673ffffffffffffffffffffffffffffffffffffffff1681526020016008820160009054906101000a90046fffffffffffffffffffffffffffffffff166fffffffffffffffffffffffffffffffff166fffffffffffffffffffffffffffffffff1681526020016008820160109054906101000a90046fffffffffffffffffffffffffffffffff166fffffffffffffffffffffffffffffffff166fffffffffffffffffffffffffffffffff1681526020016009820160009054906101000a90046fffffffffffffffffffffffffffffffff166fffffffffffffffffffffffffffffffff166fffffffffffffffffffffffffffffffff16815250509050919050565b600460009054906101000a900473ffffffffffffffffffffffffffffffffffffffff1681565b600033600460006101000a81548173ffffffffffffffffffffffffffffffffffffffff021916908373ffffffffffffffffffffffffffffffffffffffff160217905550600073ffffffffffffffffffffffffffffffffffffffff168473ffffffffffffffffffffffffffffffffffffffff1614156106ee576040517f08c379a00000000000000000000000000000000000000000000000000000000081526004016106e590611980565b60405180910390fd5b8373ffffffffffffffffffffffffffffffffffffffff166340c10f1983856040518363ffffffff1660e01b81526004016107299291906119a0565b600060405180830381600087803b15801561074357600080fd5b505af1158015610757573d6000803e3d6000fd5b50505050600160009054906101000a900473ffffffffffffffffffffffffffffffffffffffff1673ffffffffffffffffffffffffffffffffffffffff16639dc29fac33856040518363ffffffff1660e01b81526004016107b89291906119a0565b600060405180830381600087803b1580156107d257600080fd5b505af11580156107e6573d6000803e3d6000fd5b505050508290509392505050565b60008073ffffffffffffffffffffffffffffffffffffffff168273ffffffffffffffffffffffffffffffffffffffff161415610865576040517f08c379a000000000000000000000000000000000000000000000000000000000815260040161085c90611980565b60405180910390fd5b6401ce4281a29050919050565b600160009054906101000a900473ffffffffffffffffffffffffffffffffffffffff1673ffffffffffffffffffffffffffffffffffffffff166340c10f1982846040518363ffffffff1660e01b81526004016108cf9291906119a0565b600060405180830381600087803b1580156108e957600080fd5b505af11580156108fd573d6000803e3d6000fd5b505050505050565b6060600380548060200260200160405190810160405280929190818152602001828054801561098957602002820191906000526020600020905b8160009054906101000a900473ffffffffffffffffffffffffffffffffffffffff1673ffffffffffffffffffffffffffffffffffffffff168152602001906001019080831161093f575b5050505050905090565b600073ffffffffffffffffffffffffffffffffffffffff168473ffffffffffffffffffffffffffffffffffffffff161415610a03576040517f08c379a00000000000000000000000000000000000000000000000000000000081526004016109fa90611980565b60405180910390fd5b60008161ffff1614610a4a576040517f08c379a0000000000000000000000000000000000000000000000000000000008152600401610a4190611a15565b60405180910390fd5b600160009054906101000a900473ffffffffffffffffffffffffffffffffffffffff1673ffffffffffffffffffffffffffffffffffffffff166340c10f1983856040518363ffffffff1660e01b8152600401610aa79291906119a0565b600060405180830381600087803b158015610ac157600080fd5b505af1158015610ad5573d6000803e3d6000fd5b5050505050505050565b6003829080600181540180825580915050600190039060005260206000200160009091909190916101000a81548173ffffffffffffffffffffffffffffffffffffffff021916908373ffffffffffffffffffffffffffffffffffffffff16021790555081600260006101000a81548173ffffffffffffffffffffffffffffffffffffffff021916908373ffffffffffffffffffffffffffffffffffffffff16021790555080600160006101000a81548173ffffffffffffffffffffffffffffffffffffffff021916908373ffffffffffffffffffffffffffffffffffffffff1602179055506104d26000808473ffffffffffffffffffffffffffffffffffffffff1673ffffffffffffffffffffffffffffffffffffffff16815260200190815260200160002060010160006101000a8154816fffffffffffffffffffffffffffffffff02191690836fffffffffffffffffffffffffffffffff1602179055506105c66000808473ffffffffffffffffffffffffffffffffffffffff1673ffffffffffffffffffffffffffffffffffffffff16815260200190815260200160002060010160106101000a8154816fffffffffffffffffffffffffffffffff02191690836fffffffffffffffffffffffffffffffff16021790555061237f6000808473ffffffffffffffffffffffffffffffffffffffff1673ffffffffffffffffffffffffffffffffffffffff16815260200190815260200160002060020160006101000a8154816fffffffffffffffffffffffffffffffff02191690836fffffffffffffffffffffffffffffffff16021790555061237f6000808473ffffffffffffffffffffffffffffffffffffffff1673ffffffffffffffffffffffffffffffffffffffff16815260200190815260200160002060020160106101000a8154816fffffffffffffffffffffffffffffffff02191690836fffffffffffffffffffffffffffffffff16021790555061237f6000808473ffffffffffffffffffffffffffffffffffffffff1673ffffffffffffffffffffffffffffffffffffffff16815260200190815260200160002060030160006101000a8154816fffffffffffffffffffffffffffffffff02191690836fffffffffffffffffffffffffffffffff16021790555061237f6000808473ffffffffffffffffffffffffffffffffffffffff1673ffffffffffffffffffffffffffffffffffffffff16815260200190815260200160002060030160106101000a81548164ffffffffff021916908364ffffffffff16021790555061237f6000808473ffffffffffffffffffffffffffffffffffffffff1673ffffffffffffffffffffffffffffffffffffffff16815260200190815260200160002060030160156101000a81548161ffff021916908361ffff160217905550806000808473ffffffffffffffffffffffffffffffffffffffff1673ffffffffffffffffffffffffffffffffffffffff16815260200190815260200160002060040160006101000a81548173ffffffffffffffffffffffffffffffffffffffff021916908373ffffffffffffffffffffffffffffffffffffffff16021790555060008060008473ffffffffffffffffffffffffffffffffffffffff1673ffffffffffffffffffffffffffffffffffffffff16815260200190815260200160002060050160006101000a81548173ffffffffffffffffffffffffffffffffffffffff021916908373ffffffffffffffffffffffffffffffffffffffff16021790555060008060008473ffffffffffffffffffffffffffffffffffffffff1673ffffffffffffffffffffffffffffffffffffffff16815260200190815260200160002060060160006101000a81548173ffffffffffffffffffffffffffffffffffffffff021916908373ffffffffffffffffffffffffffffffffffffffff16021790555060008060008473ffffffffffffffffffffffffffffffffffffffff1673ffffffffffffffffffffffffffffffffffffffff16815260200190815260200160002060070160006101000a81548173ffffffffffffffffffffffffffffffffffffffff021916908373ffffffffffffffffffffffffffffffffffffffff16021790555061237f6000808473ffffffffffffffffffffffffffffffffffffffff1673ffffffffffffffffffffffffffffffffffffffff16815260200190815260200160002060080160006101000a8154816fffffffffffffffffffffffffffffffff02191690836fffffffffffffffffffffffffffffffff16021790555061237f6000808473ffffffffffffffffffffffffffffffffffffffff1673ffffffffffffffffffffffffffffffffffffffff16815260200190815260200160002060080160106101000a8154816fffffffffffffffffffffffffffffffff02191690836fffffffffffffffffffffffffffffffff16021790555061237f6000808473ffffffffffffffffffffffffffffffffffffffff1673ffffffffffffffffffffffffffffffffffffffff16815260200190815260200160002060090160006101000a8154816fffffffffffffffffffffffffffffffff02191690836fffffffffffffffffffffffffffffffff1602179055505050565b604051806101e001604052806112716113cc565b815260200160006fffffffffffffffffffffffffffffffff16815260200160006fffffffffffffffffffffffffffffffff16815260200160006fffffffffffffffffffffffffffffffff16815260200160006fffffffffffffffffffffffffffffffff16815260200160006fffffffffffffffffffffffffffffffff168152602001600064ffffffffff168152602001600061ffff168152602001600073ffffffffffffffffffffffffffffffffffffffff168152602001600073ffffffffffffffffffffffffffffffffffffffff168152602001600073ffffffffffffffffffffffffffffffffffffffff168152602001600073ffffffffffffffffffffffffffffffffffffffff16815260200160006fffffffffffffffffffffffffffffffff16815260200160006fffffffffffffffffffffffffffffffff16815260200160006fffffffffffffffffffffffffffffffff1681525090565b6040518060200160405280600081525090565b600080fd5b600073ffffffffffffffffffffffffffffffffffffffff82169050919050565b600061140f826113e4565b9050919050565b61141f81611404565b811461142a57600080fd5b50565b60008135905061143c81611416565b92915050565b600060208284031215611458576114576113df565b5b60006114668482850161142d565b91505092915050565b6000819050919050565b6114828161146f565b82525050565b60208201600082015161149e6000850182611479565b50505050565b60006fffffffffffffffffffffffffffffffff82169050919050565b6114c9816114a4565b82525050565b600064ffffffffff82169050919050565b6114e9816114cf565b82525050565b600061ffff82169050919050565b611506816114ef565b82525050565b61151581611404565b82525050565b6101e0820160008201516115326000850182611488565b50602082015161154560208501826114c0565b50604082015161155860408501826114c0565b50606082015161156b60608501826114c0565b50608082015161157e60808501826114c0565b5060a082015161159160a08501826114c0565b5060c08201516115a460c08501826114e0565b5060e08201516115b760e08501826114fd565b506101008201516115cc61010085018261150c565b506101208201516115e161012085018261150c565b506101408201516115f661014085018261150c565b5061016082015161160b61016085018261150c565b506101808201516116206101808501826114c0565b506101a08201516116356101a08501826114c0565b506101c082015161164a6101c08501826114c0565b50505050565b60006101e082019050611666600083018461151b565b92915050565b61167581611404565b82525050565b6000602082019050611690600083018461166c565b92915050565b61169f8161146f565b81146116aa57600080fd5b50565b6000813590506116bc81611696565b92915050565b6000806000606084860312156116db576116da6113df565b5b60006116e98682870161142d565b93505060206116fa868287016116ad565b925050604061170b8682870161142d565b9150509250925092565b61171e8161146f565b82525050565b60006020820190506117396000830184611715565b92915050565b60008060408385031215611756576117556113df565b5b6000611764858286016116ad565b92505060206117758582860161142d565b9150509250929050565b600081519050919050565b600082825260208201905092915050565b6000819050602082019050919050565b60006117b7838361150c565b60208301905092915050565b6000602082019050919050565b60006117db8261177f565b6117e5818561178a565b93506117f08361179b565b8060005b8381101561182157815161180888826117ab565b9750611813836117c3565b9250506001810190506117f4565b5085935050505092915050565b6000602082019050818103600083015261184881846117d0565b905092915050565b611859816114ef565b811461186457600080fd5b50565b60008135905061187681611850565b92915050565b60008060008060808587031215611896576118956113df565b5b60006118a48782880161142d565b94505060206118b5878288016116ad565b93505060406118c68782880161142d565b92505060606118d787828801611867565b91505092959194509250565b600080604083850312156118fa576118f96113df565b5b60006119088582860161142d565b92505060206119198582860161142d565b9150509250929050565b600082825260208201905092915050565b7f61737365742063616e6e6f74206265206275726e206164647265737300000000600082015250565b600061196a601c83611923565b915061197582611934565b602082019050919050565b600060208201905081810360008301526119998161195d565b9050919050565b60006040820190506119b5600083018561166c565b6119c26020830184611715565b9392505050565b7f7465737420726566657272616c20636f6465206d757374206265203000000000600082015250565b60006119ff601c83611923565b9150611a0a826119c9565b602082019050919050565b60006020820190508181036000830152611a2e816119f2565b905091905056fea2646970667358221220b7f5a13244e4ac4ff28fa24b2ac2dc6c0f964c09157339f1089cf2cf91b2f53764736f6c63430008090033",
  "immutableReferences": {},
  "source": "// SPDX-License-Identifier: AGPL-3.0\npragma solidity 0.8.9;\n\nimport { IERC20} from '../contracts/interfaces/other/IERC20.sol';\nimport { ITestToken } from '../contracts/interfaces/test/ITestToken.sol';\nimport { DataTypes } from \"../contracts/libraries/DataTypes.sol\";\n\ncontract PoolMock {\n\n  mapping(address => DataTypes.ReserveData) internal _reserves;\n\n  address aWETHToken;\n  address wETHToken;\n  address[] aaveAcceptedTokens;\n  address public sender;\n  //uint256 constant INTEREST = 1000000000000000000;\n  uint256 constant RESERVE_NORMALIZED_INCOME = 7755432354;\n\n  function setTestTokens(address _wETHToken, address _aWETHToken) external {\n    aaveAcceptedTokens.push(_wETHToken);\n\n    wETHToken = _wETHToken;\n    aWETHToken = _aWETHToken;\n\n    _reserves[_wETHToken].liquidityIndex = 1234;\n    _reserves[_wETHToken].currentLiquidityRate = 1478;\n    _reserves[_wETHToken].variableBorrowIndex = 9087;\n    _reserves[_wETHToken].currentVariableBorrowRate = 9087;\n    _reserves[_wETHToken].currentStableBorrowRate = 9087;\n    _reserves[_wETHToken].lastUpdateTimestamp = 9087;\n    _reserves[_wETHToken].id = 9087;\n    _reserves[_wETHToken].aTokenAddress = _aWETHToken;\n    _reserves[_wETHToken].stableDebtTokenAddress = address(0);\n    _reserves[_wETHToken].variableDebtTokenAddress = address(0);\n    _reserves[_wETHToken].interestRateStrategyAddress = address(0);\n    _reserves[_wETHToken].accruedToTreasury = 9087;\n    _reserves[_wETHToken].unbacked = 9087;\n    _reserves[_wETHToken].isolationModeTotalDebt = 9087;\n  }\n    /**\n   * @dev Deposits an `amount` of underlying asset into the reserve, receiving in return overlying aTokens.\n   * - E.g. User deposits 100 USDC and gets in return 100 aUSDC\n   * @param asset The address of the underlying asset to deposit\n   * @param amount The amount to be deposited\n   * @param onBehalfOf The address that will receive the aTokens, same as msg.sender if the user\n   *   wants to receive them on his own wallet, or a different address if the beneficiary of aTokens\n   *   is a different wallet\n   * @param referralCode Code used to register the integrator originating the operation, for potential rewards.\n   *   0 if the action is executed directly by the user, without any middle-man\n   **/\n    function deposit(\n    address asset,\n    uint256 amount,\n    address onBehalfOf,\n    uint16 referralCode\n  ) external {\n      require(asset != address(0x0), \"asset cannot be burn address\");\n      require(referralCode == 0, \"test referral code must be 0\");\n      ITestToken(aWETHToken).mint(onBehalfOf, amount);\n  }\n\n  function simulateInterest(\n    uint256 amount,\n    address onBehalfOf\n  ) external {\n    ITestToken(aWETHToken).mint(onBehalfOf, amount);\n  }\n\n    /**\n   * @notice Withdraws an `amount` of underlying asset from the reserve, burning the equivalent aTokens owned\n   * E.g. User has 100 aUSDC, calls withdraw() and receives 100 USDC, burning the 100 aUSDC\n   * @param asset The address of the underlying asset to withdraw\n   * @param amount The underlying amount to be withdrawn\n   *   - Send the value type(uint256).max in order to withdraw the whole aToken balance\n   * @param to The address that will receive the underlying, same as msg.sender if the user\n   *   wants to receive it on his own wallet, or a different address if the beneficiary is a\n   *   different wallet\n   * @return The final amount withdrawn\n   **/\n  function withdraw(\n    address asset,\n    uint256 amount,\n    address to\n  ) external returns (uint256){\n\n    sender = msg.sender;\n\n      require(asset != address(0x0), \"asset cannot be burn address\");\n      ITestToken(asset).mint(to, amount);\n      ITestToken(aWETHToken).burn(msg.sender, amount);\n      return amount;\n  }\n\n  function getReservesList() external view returns (address[] memory){\n    return aaveAcceptedTokens;\n  }\n  function getReserveData(address _asset) external view returns(DataTypes.ReserveData memory) {\n    return _reserves[_asset];\n  }\n\n  function getReserveNormalizedIncome(address _asset) external pure returns(uint256) {\n    require(_asset != address(0x0), \"asset cannot be burn address\");\n    return RESERVE_NORMALIZED_INCOME;\n  }\n}",
  "sourcePath": "/home/smeee/projects/slashing_insurance/contracts/test/PoolMock.sol",
  "compiler": {
    "name": "solc",
    "version": "0.8.9+commit.e5eed63a.Emscripten.clang"
  },
  "schemaVersion": "3.4.7",
  "updatedAt": "2023-06-06T17:13:29.363Z",
  "networkType": "ethereum",
  "devdoc": {
    "kind": "dev",
    "methods": {
      "deposit(address,uint256,address,uint16)": {
        "details": "Deposits an `amount` of underlying asset into the reserve, receiving in return overlying aTokens. - E.g. User deposits 100 USDC and gets in return 100 aUSDC",
        "params": {
          "amount": "The amount to be deposited",
          "asset": "The address of the underlying asset to deposit",
          "onBehalfOf": "The address that will receive the aTokens, same as msg.sender if the user   wants to receive them on his own wallet, or a different address if the beneficiary of aTokens   is a different wallet",
          "referralCode": "Code used to register the integrator originating the operation, for potential rewards.   0 if the action is executed directly by the user, without any middle-man*"
        }
      },
      "withdraw(address,uint256,address)": {
        "params": {
          "amount": "The underlying amount to be withdrawn   - Send the value type(uint256).max in order to withdraw the whole aToken balance",
          "asset": "The address of the underlying asset to withdraw",
          "to": "The address that will receive the underlying, same as msg.sender if the user   wants to receive it on his own wallet, or a different address if the beneficiary is a   different wallet"
        },
        "returns": {
          "_0": "The final amount withdrawn*"
        }
      }
    },
    "version": 1
  },
  "userdoc": {
    "kind": "user",
    "methods": {
      "withdraw(address,uint256,address)": {
        "notice": "Withdraws an `amount` of underlying asset from the reserve, burning the equivalent aTokens owned E.g. User has 100 aUSDC, calls withdraw() and receives 100 USDC, burning the 100 aUSDC"
      }
    },
    "version": 1
  }
}