{
  "contractName": "PremiumGeneratorCore",
  "abi": [
    {
      "inputs": [
        {
          "internalType": "address",
          "name": "_multiSig",
          "type": "address"
        },
        {
          "internalType": "address",
          "name": "_wethGatewayAddr",
          "type": "address"
        },
        {
          "internalType": "uint256",
          "name": "_premiumDeposit",
          "type": "uint256"
        }
      ],
      "stateMutability": "nonpayable",
      "type": "constructor"
    },
    {
      "inputs": [],
      "name": "deposits",
      "outputs": [
        {
          "internalType": "uint256",
          "name": "",
          "type": "uint256"
        }
      ],
      "stateMutability": "view",
      "type": "function"
    },
    {
      "inputs": [],
      "name": "multiSig",
      "outputs": [
        {
          "internalType": "address",
          "name": "",
          "type": "address"
        }
      ],
      "stateMutability": "view",
      "type": "function"
    },
    {
      "inputs": [],
      "name": "premiumDeposit",
      "outputs": [
        {
          "internalType": "uint256",
          "name": "",
          "type": "uint256"
        }
      ],
      "stateMutability": "view",
      "type": "function"
    },
    {
      "inputs": [],
      "name": "reserve",
      "outputs": [
        {
          "internalType": "address",
          "name": "",
          "type": "address"
        }
      ],
      "stateMutability": "view",
      "type": "function"
    },
    {
      "inputs": [
        {
          "internalType": "address",
          "name": "_reserve",
          "type": "address"
        }
      ],
      "name": "setReserve",
      "outputs": [],
      "stateMutability": "nonpayable",
      "type": "function"
    },
    {
      "inputs": [
        {
          "internalType": "address",
          "name": "_aTokenAddress",
          "type": "address"
        }
      ],
      "name": "_getATokenBalance",
      "outputs": [
        {
          "internalType": "uint256",
          "name": "",
          "type": "uint256"
        }
      ],
      "stateMutability": "view",
      "type": "function"
    }
  ],
  "bytecode": "0x60e060405234801561001057600080fd5b50604051610889380380610889833981810160405281019061003291906101fd565b60016000819055508273ffffffffffffffffffffffffffffffffffffffff1660c08173ffffffffffffffffffffffffffffffffffffffff1681525050806002819055508173ffffffffffffffffffffffffffffffffffffffff1660808173ffffffffffffffffffffffffffffffffffffffff168152505060805173ffffffffffffffffffffffffffffffffffffffff1663affa88176040518163ffffffff1660e01b815260040160206040518083038186803b1580156100f157600080fd5b505afa158015610105573d6000803e3d6000fd5b505050506040513d601f19601f820116820180604052508101906101299190610250565b73ffffffffffffffffffffffffffffffffffffffff1660a08173ffffffffffffffffffffffffffffffffffffffff168152505050505061027d565b600080fd5b600073ffffffffffffffffffffffffffffffffffffffff82169050919050565b600061019482610169565b9050919050565b6101a481610189565b81146101af57600080fd5b50565b6000815190506101c18161019b565b92915050565b6000819050919050565b6101da816101c7565b81146101e557600080fd5b50565b6000815190506101f7816101d1565b92915050565b60008060006060848603121561021657610215610164565b5b6000610224868287016101b2565b9350506020610235868287016101b2565b9250506040610246868287016101e8565b9150509250925092565b60006020828403121561026657610265610164565b5b6000610274848285016101b2565b91505092915050565b60805160a05160c0516105dc6102ad600039600081816101cb0152610206015260005050600050506105dc6000f3fe608060405234801561001057600080fd5b50600436106100625760003560e01c806305ddb019146100675780631219a7f514610085578063323a5e0b146100b557806336e0004a146100d35780639cecc80a146100f1578063cd3293de1461010d575b600080fd5b61006f61012b565b60405161007c919061038f565b60405180910390f35b61009f600480360381019061009a919061040d565b610131565b6040516100ac919061038f565b60405180910390f35b6100bd6101c3565b6040516100ca919061038f565b60405180910390f35b6100db6101c9565b6040516100e89190610449565b60405180910390f35b61010b6004803603810190610106919061040d565b6101ed565b005b610115610350565b6040516101229190610449565b60405180910390f35b60025481565b60008173ffffffffffffffffffffffffffffffffffffffff166370a08231306040518263ffffffff1660e01b815260040161016c9190610449565b60206040518083038186803b15801561018457600080fd5b505afa158015610198573d6000803e3d6000fd5b505050506040513d601f19601f820116820180604052508101906101bc9190610490565b9050919050565b60015481565b7f000000000000000000000000000000000000000000000000000000000000000081565b3373ffffffffffffffffffffffffffffffffffffffff167f000000000000000000000000000000000000000000000000000000000000000073ffffffffffffffffffffffffffffffffffffffff161461027b576040517f08c379a00000000000000000000000000000000000000000000000000000000081526004016102729061051a565b60405180910390fd5b600073ffffffffffffffffffffffffffffffffffffffff16600360009054906101000a900473ffffffffffffffffffffffffffffffffffffffff1673ffffffffffffffffffffffffffffffffffffffff161461030c576040517f08c379a000000000000000000000000000000000000000000000000000000000815260040161030390610586565b60405180910390fd5b80600360006101000a81548173ffffffffffffffffffffffffffffffffffffffff021916908373ffffffffffffffffffffffffffffffffffffffff16021790555050565b600360009054906101000a900473ffffffffffffffffffffffffffffffffffffffff1681565b6000819050919050565b61038981610376565b82525050565b60006020820190506103a46000830184610380565b92915050565b600080fd5b600073ffffffffffffffffffffffffffffffffffffffff82169050919050565b60006103da826103af565b9050919050565b6103ea816103cf565b81146103f557600080fd5b50565b600081359050610407816103e1565b92915050565b600060208284031215610423576104226103aa565b5b6000610431848285016103f8565b91505092915050565b610443816103cf565b82525050565b600060208201905061045e600083018461043a565b92915050565b61046d81610376565b811461047857600080fd5b50565b60008151905061048a81610464565b92915050565b6000602082840312156104a6576104a56103aa565b5b60006104b48482850161047b565b91505092915050565b600082825260208201905092915050565b7f6e6f7420746865206f776e657200000000000000000000000000000000000000600082015250565b6000610504600d836104bd565b915061050f826104ce565b602082019050919050565b60006020820190508181036000830152610533816104f7565b9050919050565b7f7265736572766520616c72656164792073657400000000000000000000000000600082015250565b60006105706013836104bd565b915061057b8261053a565b602082019050919050565b6000602082019050818103600083015261059f81610563565b905091905056fea264697066735822122086faa492a9afd7f48050772890433045ad5a4152a8cf724e1074100a11b37ce764736f6c63430008090033",
  "immutableReferences": {
    "1741": [
      {
        "length": 32,
        "start": 459
      },
      {
        "length": 32,
        "start": 518
      }
    ]
  },
  "source": "// SPDX-License-Identifier: MIT\npragma solidity 0.8.9;\n\nimport { IERC20} from './interfaces/other/IERC20.sol';\nimport { IWETHGateway} from './interfaces/aave/IWETHGateway.sol';\nimport { SafeERC20 } from './libraries/SafeERC20.sol';\nimport { IReserve} from './interfaces/protocol/IReserve.sol';\nimport \"@openzeppelin/contracts/security/ReentrancyGuard.sol\";\n\n/**\n * @title PremiumGenerator contract\n * @author smeee\n * This is a contract for lossless insurance premiums using Aave v2 and v3\n\n   This contract acts as the core layer of interaction with Aave and\n   is inherited by both the v2 and v3 PremiumGenerator contracts.\n\n * @dev To be covered by a proxy contract\n * @dev deposits, withdraws, withdrawInterest controlled by the Reserve contract\n **/\n\ncontract PremiumGeneratorCore is ReentrancyGuard {\n    using SafeERC20 for IERC20;\n\n    uint public deposits;\n    uint public premiumDeposit;\n\n    address immutable wethGatewayAddr;\n    address immutable wethAddress;\n    address public reserve;\n    address immutable public multiSig;\n\n\n    /**\n    * @dev msg.value must be equal to the premiumDeposit.\n    **/\n    modifier correctValue(){\n        require(msg.value == premiumDeposit, \"value sent must be equal to premium deposit\");\n        _;\n    }\n\n    /**\n    * @dev Only Reserve can call functions marked by this modifier.\n    **/\n    modifier onlyReserve(){\n        require(reserve == msg.sender, \"not the owner\");\n        _;\n    }\n\n     /**\n  * @dev Only MultiSig can call functions marked by this modifier.\n  **/\n  modifier onlyMultiSig(){\n      require(multiSig == msg.sender, \"not the owner\");\n      _;\n  }\n\n    /**\n   * @dev Constructor.\n   */\n    constructor (\n        address _multiSig,\n        address _wethGatewayAddr,\n        uint _premiumDeposit\n    ){\n        multiSig = _multiSig;\n        premiumDeposit = _premiumDeposit;\n        wethGatewayAddr = _wethGatewayAddr;\n        wethAddress = IWETHGateway(wethGatewayAddr).getWETHAddress();\n        //lendingPoolAddressesProviderAddr = _lendingPoolAddressesProviderAddr;\n        //dataProviderAddr = _dataProviderAddr;\n    }\n\n    /**\n     * @dev Internal function to deposit funds to the lending pool.\n     * @param _poolAddr The address of the lending pool.\n     * @param _validatorIndex The index of the validator.\n     */\n    function _deposit(address _poolAddr, uint _validatorIndex) internal correctValue{\n        deposits += premiumDeposit;\n        IWETHGateway(wethGatewayAddr).depositETH{value: msg.value}(_poolAddr, address(this), 0);\n        IReserve(reserve).addBeneficiary(msg.sender, _validatorIndex);\n    }\n\n    /**\n     * @dev Internal function to withdraw funds from the lending pool.\n     * @param _poolAddr The address of the lending pool.\n     * @param _aTokenAddress The address of the aToken.\n     * @param _validatorIndex The index of the validator.\n     */\n    function _withdraw(address _poolAddr, address _aTokenAddress, uint _validatorIndex) internal {\n        deposits -= premiumDeposit;\n        IERC20(_aTokenAddress).safeApprove(wethGatewayAddr, 0);\n        IERC20(_aTokenAddress).safeApprove(wethGatewayAddr, premiumDeposit);\n        IWETHGateway(wethGatewayAddr).withdrawETH(_poolAddr, premiumDeposit, msg.sender);\n        IReserve(reserve).withdrawBeneficiary(msg.sender, _validatorIndex);\n    }\n\n    /**\n     * @dev Internal function to withdraw accumulated interest to the Reserve.\n     * @param _aTokenAddress The address of the aToken.\n     * @return interestEarned The amount of interest earned and withdrawn.\n     */\n    function _withdrawInterest(address _aTokenAddress) internal returns(uint256){\n        uint256 aTokenBalance = IERC20(_aTokenAddress).balanceOf(address(this));\n        uint256 interestEarned = aTokenBalance - deposits;\n        if(interestEarned > 0){\n            IERC20(_aTokenAddress).safeTransfer(reserve, interestEarned);\n        }\n        return interestEarned;\n    }\n\n    /**\n     * @dev Sets the reserve address.\n     * @param _reserve The address of the reserve contract.\n     * @dev Only the multi-signature wallet is allowed to call this function.\n     * @dev This function can only be called once to set the reserve address.\n     */\n    function setReserve(address _reserve) external onlyMultiSig {\n        require(reserve == address(0), \"reserve already set\");\n        reserve = _reserve;\n    }\n\n\n    /**\n     * @dev Returns the unclaimed interest for the given aToken address.\n     * @param _aTokenAddress The address of the aToken contract.\n     * @return The amount of unclaimed interest.\n     */\n    function _getUnclaimedInterest(address _aTokenAddress) internal view returns (uint256){\n        uint256 aTokenBalance = IERC20(_aTokenAddress).balanceOf(address(this));\n        if(aTokenBalance == 0) return 0;\n        return aTokenBalance - deposits;\n    }\n\n    /**\n     * @dev Returns the balance of aToken for the given aToken address.\n     * @param _aTokenAddress The address of the aToken contract.\n     * @return The balance of aToken.\n     */\n    function _getATokenBalance(address _aTokenAddress) public view returns (uint256){\n        return IERC20(_aTokenAddress).balanceOf(address(this));\n    }\n}",
  "sourcePath": "/home/smeee/projects/slashing_insurance/contracts/contracts/PremiumGeneratorCore.sol",
  "compiler": {
    "name": "solc",
    "version": "0.8.9+commit.e5eed63a.Emscripten.clang"
  },
  "schemaVersion": "3.4.7",
  "updatedAt": "2023-06-05T18:27:36.070Z",
  "devdoc": {
    "author": "smeee This is a contract for lossless insurance premiums using Aave v2 and v3 This contract acts as the core layer of interaction with Aave and is inherited by both the v2 and v3 PremiumGenerator contracts.",
    "details": "To be covered by a proxy contractdeposits, withdraws, withdrawInterest controlled by the Reserve contract*",
    "kind": "dev",
    "methods": {
      "_getATokenBalance(address)": {
        "details": "Returns the balance of aToken for the given aToken address.",
        "params": {
          "_aTokenAddress": "The address of the aToken contract."
        },
        "returns": {
          "_0": "The balance of aToken."
        }
      },
      "constructor": {
        "details": "Constructor."
      },
      "setReserve(address)": {
        "details": "Sets the reserve address.Only the multi-signature wallet is allowed to call this function.This function can only be called once to set the reserve address.",
        "params": {
          "_reserve": "The address of the reserve contract."
        }
      }
    },
    "title": "PremiumGenerator contract",
    "version": 1
  },
  "userdoc": {
    "kind": "user",
    "methods": {},
    "version": 1
  }
}