{
  "contractName": "PremiumGeneratorAaveV2",
  "abi": [
    {
      "inputs": [
        {
          "internalType": "address",
          "name": "_lendingPoolAddressesProviderAddr",
          "type": "address"
        },
        {
          "internalType": "address",
          "name": "_dataProviderAddr",
          "type": "address"
        },
        {
          "internalType": "address",
          "name": "_multiSig",
          "type": "address"
        },
        {
          "internalType": "address",
          "name": "_wethGatewayAddr",
          "type": "address"
        },
        {
          "internalType": "uint256",
          "name": "_premiumDeposit",
          "type": "uint256"
        }
      ],
      "stateMutability": "nonpayable",
      "type": "constructor"
    },
    {
      "inputs": [
        {
          "internalType": "address",
          "name": "_aTokenAddress",
          "type": "address"
        }
      ],
      "name": "_getATokenBalance",
      "outputs": [
        {
          "internalType": "uint256",
          "name": "",
          "type": "uint256"
        }
      ],
      "stateMutability": "view",
      "type": "function"
    },
    {
      "inputs": [],
      "name": "deposits",
      "outputs": [
        {
          "internalType": "uint256",
          "name": "",
          "type": "uint256"
        }
      ],
      "stateMutability": "view",
      "type": "function"
    },
    {
      "inputs": [],
      "name": "multiSig",
      "outputs": [
        {
          "internalType": "address",
          "name": "",
          "type": "address"
        }
      ],
      "stateMutability": "view",
      "type": "function"
    },
    {
      "inputs": [],
      "name": "premiumDeposit",
      "outputs": [
        {
          "internalType": "uint256",
          "name": "",
          "type": "uint256"
        }
      ],
      "stateMutability": "view",
      "type": "function"
    },
    {
      "inputs": [],
      "name": "reserve",
      "outputs": [
        {
          "internalType": "address",
          "name": "",
          "type": "address"
        }
      ],
      "stateMutability": "view",
      "type": "function"
    },
    {
      "inputs": [
        {
          "internalType": "address",
          "name": "_reserve",
          "type": "address"
        }
      ],
      "name": "setReserve",
      "outputs": [],
      "stateMutability": "nonpayable",
      "type": "function"
    },
    {
      "inputs": [
        {
          "internalType": "uint256",
          "name": "_validatorIndex",
          "type": "uint256"
        }
      ],
      "name": "deposit",
      "outputs": [],
      "stateMutability": "payable",
      "type": "function"
    },
    {
      "inputs": [
        {
          "internalType": "uint256",
          "name": "_validatorIndex",
          "type": "uint256"
        }
      ],
      "name": "withdraw",
      "outputs": [],
      "stateMutability": "nonpayable",
      "type": "function"
    },
    {
      "inputs": [],
      "name": "withdrawInterest",
      "outputs": [
        {
          "internalType": "uint256",
          "name": "",
          "type": "uint256"
        }
      ],
      "stateMutability": "nonpayable",
      "type": "function"
    },
    {
      "inputs": [],
      "name": "getLendingPoolAddress",
      "outputs": [
        {
          "internalType": "address",
          "name": "poolAddr",
          "type": "address"
        }
      ],
      "stateMutability": "view",
      "type": "function"
    },
    {
      "inputs": [],
      "name": "getATokenAddress",
      "outputs": [
        {
          "internalType": "address",
          "name": "",
          "type": "address"
        }
      ],
      "stateMutability": "view",
      "type": "function"
    },
    {
      "inputs": [],
      "name": "getUnclaimedInterest",
      "outputs": [
        {
          "internalType": "uint256",
          "name": "",
          "type": "uint256"
        }
      ],
      "stateMutability": "view",
      "type": "function"
    },
    {
      "inputs": [],
      "name": "getATokenBalance",
      "outputs": [
        {
          "internalType": "uint256",
          "name": "",
          "type": "uint256"
        }
      ],
      "stateMutability": "view",
      "type": "function"
    },
    {
      "inputs": [],
      "name": "getReserveNormalizedIncome",
      "outputs": [
        {
          "internalType": "uint256",
          "name": "",
          "type": "uint256"
        }
      ],
      "stateMutability": "view",
      "type": "function"
    },
    {
      "inputs": [],
      "name": "getAaveLiquidityIndex",
      "outputs": [
        {
          "internalType": "uint256",
          "name": "liquidityIndex",
          "type": "uint256"
        }
      ],
      "stateMutability": "view",
      "type": "function"
    },
    {
      "inputs": [],
      "name": "getPoolInfo",
      "outputs": [
        {
          "internalType": "address",
          "name": "",
          "type": "address"
        },
        {
          "internalType": "uint256",
          "name": "",
          "type": "uint256"
        },
        {
          "internalType": "uint256",
          "name": "",
          "type": "uint256"
        },
        {
          "internalType": "uint256",
          "name": "",
          "type": "uint256"
        },
        {
          "internalType": "uint256",
          "name": "",
          "type": "uint256"
        },
        {
          "internalType": "uint256",
          "name": "",
          "type": "uint256"
        },
        {
          "internalType": "uint256",
          "name": "",
          "type": "uint256"
        },
        {
          "internalType": "address",
          "name": "",
          "type": "address"
        }
      ],
      "stateMutability": "view",
      "type": "function"
    }
  ],
  "bytecode": "0x6101206040523480156200001257600080fd5b506040516200231a3803806200231a833981810160405281019062000038919062000285565b82828260016000819055508273ffffffffffffffffffffffffffffffffffffffff1660c08173ffffffffffffffffffffffffffffffffffffffff1681525050806002819055508173ffffffffffffffffffffffffffffffffffffffff1660808173ffffffffffffffffffffffffffffffffffffffff168152505060805173ffffffffffffffffffffffffffffffffffffffff1663affa88176040518163ffffffff1660e01b815260040160206040518083038186803b158015620000fb57600080fd5b505afa15801562000110573d6000803e3d6000fd5b505050506040513d601f19601f820116820180604052508101906200013691906200030d565b73ffffffffffffffffffffffffffffffffffffffff1660a08173ffffffffffffffffffffffffffffffffffffffff16815250505050508473ffffffffffffffffffffffffffffffffffffffff1660e08173ffffffffffffffffffffffffffffffffffffffff16815250508373ffffffffffffffffffffffffffffffffffffffff166101008173ffffffffffffffffffffffffffffffffffffffff168152505050505050506200033f565b600080fd5b600073ffffffffffffffffffffffffffffffffffffffff82169050919050565b60006200021282620001e5565b9050919050565b620002248162000205565b81146200023057600080fd5b50565b600081519050620002448162000219565b92915050565b6000819050919050565b6200025f816200024a565b81146200026b57600080fd5b50565b6000815190506200027f8162000254565b92915050565b600080600080600060a08688031215620002a457620002a3620001e0565b5b6000620002b48882890162000233565b9550506020620002c78882890162000233565b9450506040620002da8882890162000233565b9350506060620002ed8882890162000233565b925050608062000300888289016200026e565b9150509295509295909350565b600060208284031215620003265762000325620001e0565b5b6000620003368482850162000233565b91505092915050565b60805160a05160c05160e05161010051611f5e620003bc6000396000818161051101526107f90152600081816106dc01526108d00152600081816106b60152610a3601526000818161054d01528181610835015261098c015260008181610def01528181610e3b01528181610e8501526110090152611f5e6000f3fe6080604052600436106100f15760003560e01c806336e0004a1161008a57806396c2614c1161005957806396c2614c146103115780639cecc80a1461033c578063b6b55f2514610365578063cd3293de14610381576100f1565b806336e0004a1461025e5780635f36a7421461028957806360246c88146102b457806382899756146102e6576100f1565b806313cdbcfe116100c657806313cdbcfe146101b4578063233641fa146101df5780632e1a7d4d1461020a578063323a5e0b14610233576100f1565b806263750c146100f6578062c2d1431461012157806305ddb0191461014c5780631219a7f514610177575b600080fd5b34801561010257600080fd5b5061010b6103ac565b60405161011891906114e4565b60405180910390f35b34801561012d57600080fd5b50610136610459565b60405161014391906114e4565b60405180910390f35b34801561015857600080fd5b50610161610475565b60405161016e91906114e4565b60405180910390f35b34801561018357600080fd5b5061019e60048036038101906101999190611562565b61047b565b6040516101ab91906114e4565b60405180910390f35b3480156101c057600080fd5b506101c961050d565b6040516101d691906114e4565b60405180910390f35b3480156101eb57600080fd5b506101f4610614565b60405161020191906114e4565b60405180910390f35b34801561021657600080fd5b50610231600480360381019061022c91906115bb565b610630565b005b34801561023f57600080fd5b506102486106ae565b60405161025591906114e4565b60405180910390f35b34801561026a57600080fd5b506102736106b4565b60405161028091906115f7565b60405180910390f35b34801561029557600080fd5b5061029e6106d8565b6040516102ab91906115f7565b60405180910390f35b3480156102c057600080fd5b506102c961077d565b6040516102dd989796959493929190611612565b60405180910390f35b3480156102f257600080fd5b506102fb6107f4565b60405161030891906115f7565b60405180910390f35b34801561031d57600080fd5b506103266108cb565b60405161033391906114e4565b60405180910390f35b34801561034857600080fd5b50610363600480360381019061035e9190611562565b610a1d565b005b61037f600480360381019061037a91906115bb565b610b80565b005b34801561038d57600080fd5b50610396610bf0565b6040516103a391906115f7565b60405180910390f35b60003373ffffffffffffffffffffffffffffffffffffffff16600360009054906101000a900473ffffffffffffffffffffffffffffffffffffffff1673ffffffffffffffffffffffffffffffffffffffff161461043e576040517f08c379a0000000000000000000000000000000000000000000000000000000008152600401610435906116ed565b60405180910390fd5b60006104486107f4565b905061045381610c16565b91505090565b6000806104646107f4565b905061046f8161047b565b91505090565b60025481565b60008173ffffffffffffffffffffffffffffffffffffffff166370a08231306040518263ffffffff1660e01b81526004016104b691906115f7565b60206040518083038186803b1580156104ce57600080fd5b505afa1580156104e2573d6000803e3d6000fd5b505050506040513d601f19601f820116820180604052508101906105069190611722565b9050919050565b60007f000000000000000000000000000000000000000000000000000000000000000073ffffffffffffffffffffffffffffffffffffffff166335ea6a757f00000000000000000000000000000000000000000000000000000000000000006040518263ffffffff1660e01b815260040161058891906115f7565b6101406040518083038186803b1580156105a157600080fd5b505afa1580156105b5573d6000803e3d6000fd5b505050506040513d601f19601f820116820180604052508101906105d9919061178c565b909192939495969798509091929394959697509091929394959650909192939495509091929394509091929350909192509050508091505090565b60008061061f6107f4565b905061062a81610d17565b91505090565b60026000541415610676576040517f08c379a000000000000000000000000000000000000000000000000000000000815260040161066d906118b7565b60405180910390fd5b600260008190555060006106886107f4565b905060006106946106d8565b90506106a1818385610dcf565b5050600160008190555050565b60015481565b7f000000000000000000000000000000000000000000000000000000000000000081565b60007f000000000000000000000000000000000000000000000000000000000000000073ffffffffffffffffffffffffffffffffffffffff16630261bf8b6040518163ffffffff1660e01b815260040160206040518083038186803b15801561074057600080fd5b505afa158015610754573d6000803e3d6000fd5b505050506040513d601f19601f8201168201806040525081019061077891906118ec565b905090565b600080600080600080600080600360009054906101000a900473ffffffffffffffffffffffffffffffffffffffff166001546002546107ba61050d565b6107c26108cb565b6107ca610459565b6107d2610614565b6107da6107f4565b975097509750975097509750975097509091929394959697565b6000807f000000000000000000000000000000000000000000000000000000000000000073ffffffffffffffffffffffffffffffffffffffff1663d2493b6c7f00000000000000000000000000000000000000000000000000000000000000006040518263ffffffff1660e01b815260040161087091906115f7565b60606040518083038186803b15801561088857600080fd5b505afa15801561089c573d6000803e3d6000fd5b505050506040513d601f19601f820116820180604052508101906108c09190611919565b505090508091505090565b6000807f000000000000000000000000000000000000000000000000000000000000000073ffffffffffffffffffffffffffffffffffffffff16630261bf8b6040518163ffffffff1660e01b815260040160206040518083038186803b15801561093457600080fd5b505afa158015610948573d6000803e3d6000fd5b505050506040513d601f19601f8201168201806040525081019061096c91906118ec565b90508073ffffffffffffffffffffffffffffffffffffffff1663d15e00537f00000000000000000000000000000000000000000000000000000000000000006040518263ffffffff1660e01b81526004016109c791906115f7565b60206040518083038186803b1580156109df57600080fd5b505afa1580156109f3573d6000803e3d6000fd5b505050506040513d601f19601f82011682018060405250810190610a179190611722565b91505090565b3373ffffffffffffffffffffffffffffffffffffffff167f000000000000000000000000000000000000000000000000000000000000000073ffffffffffffffffffffffffffffffffffffffff1614610aab576040517f08c379a0000000000000000000000000000000000000000000000000000000008152600401610aa2906116ed565b60405180910390fd5b600073ffffffffffffffffffffffffffffffffffffffff16600360009054906101000a900473ffffffffffffffffffffffffffffffffffffffff1673ffffffffffffffffffffffffffffffffffffffff1614610b3c576040517f08c379a0000000000000000000000000000000000000000000000000000000008152600401610b33906119b8565b60405180910390fd5b80600360006101000a81548173ffffffffffffffffffffffffffffffffffffffff021916908373ffffffffffffffffffffffffffffffffffffffff16021790555050565b60026000541415610bc6576040517f08c379a0000000000000000000000000000000000000000000000000000000008152600401610bbd906118b7565b60405180910390fd5b60026000819055506000610bd86106d8565b9050610be48183610fa8565b50600160008190555050565b600360009054906101000a900473ffffffffffffffffffffffffffffffffffffffff1681565b6000808273ffffffffffffffffffffffffffffffffffffffff166370a08231306040518263ffffffff1660e01b8152600401610c5291906115f7565b60206040518083038186803b158015610c6a57600080fd5b505afa158015610c7e573d6000803e3d6000fd5b505050506040513d601f19601f82011682018060405250810190610ca29190611722565b9050600060015482610cb49190611a07565b90506000811115610d0d57610d0c600360009054906101000a900473ffffffffffffffffffffffffffffffffffffffff16828673ffffffffffffffffffffffffffffffffffffffff1661112b9092919063ffffffff16565b5b8092505050919050565b6000808273ffffffffffffffffffffffffffffffffffffffff166370a08231306040518263ffffffff1660e01b8152600401610d5391906115f7565b60206040518083038186803b158015610d6b57600080fd5b505afa158015610d7f573d6000803e3d6000fd5b505050506040513d601f19601f82011682018060405250810190610da39190611722565b90506000811415610db8576000915050610dca565b60015481610dc69190611a07565b9150505b919050565b60025460016000828254610de39190611a07565b92505081905550610e367f000000000000000000000000000000000000000000000000000000000000000060008473ffffffffffffffffffffffffffffffffffffffff166111b19092919063ffffffff16565b610e837f00000000000000000000000000000000000000000000000000000000000000006002548473ffffffffffffffffffffffffffffffffffffffff166111b19092919063ffffffff16565b7f000000000000000000000000000000000000000000000000000000000000000073ffffffffffffffffffffffffffffffffffffffff166380500d2084600254336040518463ffffffff1660e01b8152600401610ee293929190611a3b565b600060405180830381600087803b158015610efc57600080fd5b505af1158015610f10573d6000803e3d6000fd5b50505050600360009054906101000a900473ffffffffffffffffffffffffffffffffffffffff1673ffffffffffffffffffffffffffffffffffffffff1663ecb61ea133836040518363ffffffff1660e01b8152600401610f71929190611a72565b600060405180830381600087803b158015610f8b57600080fd5b505af1158015610f9f573d6000803e3d6000fd5b50505050505050565b6002543414610fec576040517f08c379a0000000000000000000000000000000000000000000000000000000008152600401610fe390611b0d565b60405180910390fd5b600254600160008282546110009190611b2d565b925050819055507f000000000000000000000000000000000000000000000000000000000000000073ffffffffffffffffffffffffffffffffffffffff1663474cf53d34843060006040518563ffffffff1660e01b815260040161106693929190611bd6565b6000604051808303818588803b15801561107f57600080fd5b505af1158015611093573d6000803e3d6000fd5b5050505050600360009054906101000a900473ffffffffffffffffffffffffffffffffffffffff1673ffffffffffffffffffffffffffffffffffffffff166396074e7033836040518363ffffffff1660e01b81526004016110f5929190611a72565b600060405180830381600087803b15801561110f57600080fd5b505af1158015611123573d6000803e3d6000fd5b505050505050565b6111ac8363a9059cbb60e01b848460405160240161114a929190611a72565b604051602081830303815290604052907bffffffffffffffffffffffffffffffffffffffffffffffffffffffff19166020820180517bffffffffffffffffffffffffffffffffffffffffffffffffffffffff838183161783525050505061130f565b505050565b600081148061124a575060008373ffffffffffffffffffffffffffffffffffffffff1663dd62ed3e30856040518363ffffffff1660e01b81526004016111f8929190611c0d565b60206040518083038186803b15801561121057600080fd5b505afa158015611224573d6000803e3d6000fd5b505050506040513d601f19601f820116820180604052508101906112489190611722565b145b611289576040517f08c379a000000000000000000000000000000000000000000000000000000000815260040161128090611ca8565b60405180910390fd5b61130a8363095ea7b360e01b84846040516024016112a8929190611a72565b604051602081830303815290604052907bffffffffffffffffffffffffffffffffffffffffffffffffffffffff19166020820180517bffffffffffffffffffffffffffffffffffffffffffffffffffffffff838183161783525050505061130f565b505050565b61132e8273ffffffffffffffffffffffffffffffffffffffff16611480565b61136d576040517f08c379a000000000000000000000000000000000000000000000000000000000815260040161136490611d14565b60405180910390fd5b6000808373ffffffffffffffffffffffffffffffffffffffff16836040516113959190611dae565b6000604051808303816000865af19150503d80600081146113d2576040519150601f19603f3d011682016040523d82523d6000602084013e6113d7565b606091505b50915091508161141c576040517f08c379a000000000000000000000000000000000000000000000000000000000815260040161141390611e11565b60405180910390fd5b60008151111561147a578080602001905181019061143a9190611e69565b611479576040517f08c379a000000000000000000000000000000000000000000000000000000000815260040161147090611f08565b60405180910390fd5b5b50505050565b60008060007fc5d2460186f7233c927e7db2dcc703c0e500b653ca82273b7bfad8045d85a47060001b9050833f91508082141580156114c257506000801b8214155b92505050919050565b6000819050919050565b6114de816114cb565b82525050565b60006020820190506114f960008301846114d5565b92915050565b600080fd5b600073ffffffffffffffffffffffffffffffffffffffff82169050919050565b600061152f82611504565b9050919050565b61153f81611524565b811461154a57600080fd5b50565b60008135905061155c81611536565b92915050565b600060208284031215611578576115776114ff565b5b60006115868482850161154d565b91505092915050565b611598816114cb565b81146115a357600080fd5b50565b6000813590506115b58161158f565b92915050565b6000602082840312156115d1576115d06114ff565b5b60006115df848285016115a6565b91505092915050565b6115f181611524565b82525050565b600060208201905061160c60008301846115e8565b92915050565b600061010082019050611628600083018b6115e8565b611635602083018a6114d5565b61164260408301896114d5565b61164f60608301886114d5565b61165c60808301876114d5565b61166960a08301866114d5565b61167660c08301856114d5565b61168360e08301846115e8565b9998505050505050505050565b600082825260208201905092915050565b7f6e6f7420746865206f776e657200000000000000000000000000000000000000600082015250565b60006116d7600d83611690565b91506116e2826116a1565b602082019050919050565b60006020820190508181036000830152611706816116ca565b9050919050565b60008151905061171c8161158f565b92915050565b600060208284031215611738576117376114ff565b5b60006117468482850161170d565b91505092915050565b600064ffffffffff82169050919050565b6117698161174f565b811461177457600080fd5b50565b60008151905061178681611760565b92915050565b6000806000806000806000806000806101408b8d0312156117b0576117af6114ff565b5b60006117be8d828e0161170d565b9a505060206117cf8d828e0161170d565b99505060406117e08d828e0161170d565b98505060606117f18d828e0161170d565b97505060806118028d828e0161170d565b96505060a06118138d828e0161170d565b95505060c06118248d828e0161170d565b94505060e06118358d828e0161170d565b9350506101006118478d828e0161170d565b9250506101206118598d828e01611777565b9150509295989b9194979a5092959850565b7f5265656e7472616e637947756172643a207265656e7472616e742063616c6c00600082015250565b60006118a1601f83611690565b91506118ac8261186b565b602082019050919050565b600060208201905081810360008301526118d081611894565b9050919050565b6000815190506118e681611536565b92915050565b600060208284031215611902576119016114ff565b5b6000611910848285016118d7565b91505092915050565b600080600060608486031215611932576119316114ff565b5b6000611940868287016118d7565b9350506020611951868287016118d7565b9250506040611962868287016118d7565b9150509250925092565b7f7265736572766520616c72656164792073657400000000000000000000000000600082015250565b60006119a2601383611690565b91506119ad8261196c565b602082019050919050565b600060208201905081810360008301526119d181611995565b9050919050565b7f4e487b7100000000000000000000000000000000000000000000000000000000600052601160045260246000fd5b6000611a12826114cb565b9150611a1d836114cb565b925082821015611a3057611a2f6119d8565b5b828203905092915050565b6000606082019050611a5060008301866115e8565b611a5d60208301856114d5565b611a6a60408301846115e8565b949350505050565b6000604082019050611a8760008301856115e8565b611a9460208301846114d5565b9392505050565b7f76616c75652073656e74206d75737420626520657175616c20746f207072656d60008201527f69756d206465706f736974000000000000000000000000000000000000000000602082015250565b6000611af7602b83611690565b9150611b0282611a9b565b604082019050919050565b60006020820190508181036000830152611b2681611aea565b9050919050565b6000611b38826114cb565b9150611b43836114cb565b9250827fffffffffffffffffffffffffffffffffffffffffffffffffffffffffffffffff03821115611b7857611b776119d8565b5b828201905092915050565b6000819050919050565b600061ffff82169050919050565b6000819050919050565b6000611bc0611bbb611bb684611b83565b611b9b565b611b8d565b9050919050565b611bd081611ba5565b82525050565b6000606082019050611beb60008301866115e8565b611bf860208301856115e8565b611c056040830184611bc7565b949350505050565b6000604082019050611c2260008301856115e8565b611c2f60208301846115e8565b9392505050565b7f5361666545524332303a20617070726f76652066726f6d206e6f6e2d7a65726f60008201527f20746f206e6f6e2d7a65726f20616c6c6f77616e636500000000000000000000602082015250565b6000611c92603683611690565b9150611c9d82611c36565b604082019050919050565b60006020820190508181036000830152611cc181611c85565b9050919050565b7f5361666545524332303a2063616c6c20746f206e6f6e2d636f6e747261637400600082015250565b6000611cfe601f83611690565b9150611d0982611cc8565b602082019050919050565b60006020820190508181036000830152611d2d81611cf1565b9050919050565b600081519050919050565b600081905092915050565b60005b83811015611d68578082015181840152602081019050611d4d565b83811115611d77576000848401525b50505050565b6000611d8882611d34565b611d928185611d3f565b9350611da2818560208601611d4a565b80840191505092915050565b6000611dba8284611d7d565b915081905092915050565b7f5361666545524332303a206c6f772d6c6576656c2063616c6c206661696c6564600082015250565b6000611dfb602083611690565b9150611e0682611dc5565b602082019050919050565b60006020820190508181036000830152611e2a81611dee565b9050919050565b60008115159050919050565b611e4681611e31565b8114611e5157600080fd5b50565b600081519050611e6381611e3d565b92915050565b600060208284031215611e7f57611e7e6114ff565b5b6000611e8d84828501611e54565b91505092915050565b7f5361666545524332303a204552433230206f7065726174696f6e20646964206e60008201527f6f74207375636365656400000000000000000000000000000000000000000000602082015250565b6000611ef2602a83611690565b9150611efd82611e96565b604082019050919050565b60006020820190508181036000830152611f2181611ee5565b905091905056fea264697066735822122013cb31dbba3420fa30153c36c7d12f9445cb3a5bf19f0013a8856e804946ea3e64736f6c63430008090033",
  "immutableReferences": {
    "1213": [
      {
        "length": 32,
        "start": 1756
      },
      {
        "length": 32,
        "start": 2256
      }
    ],
    "1215": [
      {
        "length": 32,
        "start": 1297
      },
      {
        "length": 32,
        "start": 2041
      }
    ],
    "1735": [
      {
        "length": 32,
        "start": 3567
      },
      {
        "length": 32,
        "start": 3643
      },
      {
        "length": 32,
        "start": 3717
      },
      {
        "length": 32,
        "start": 4105
      }
    ],
    "1737": [
      {
        "length": 32,
        "start": 1357
      },
      {
        "length": 32,
        "start": 2101
      },
      {
        "length": 32,
        "start": 2444
      }
    ],
    "1741": [
      {
        "length": 32,
        "start": 1718
      },
      {
        "length": 32,
        "start": 2614
      }
    ]
  },
  "source": "// SPDX-License-Identifier: MIT\npragma solidity 0.8.9;\n\nimport { ILendingPool} from './interfaces/aave/ILendingPool.sol';\nimport { ILendingPoolAddressesProvider} from './interfaces/aave/ILendingPoolAddressesProvider.sol';\nimport { IProtocolDataProvider } from './interfaces/aave/IProtocolDataProvider.sol';\nimport { PremiumGeneratorCore } from './PremiumGeneratorCore.sol';\nimport \"@openzeppelin/contracts/security/ReentrancyGuard.sol\";\n\n/**\n * @title PremiumGenerator contract\n * @author smeee\n * This is a contract for lossless insurance premiums using Aave v2\n\n   Aave is used to generate interest for insurance applications\n\n   Beneficiaries deposit tokens into PremiumGenerator which deposit\n   them into Aave lending protocol\n\n   The interest earned is directed to the reserve associated with\n   the PremiumGenerator\n\n   Beneficiaries can claim their funds (and terminate their policy) at any time.\n\n   Functions deposit(), withdraw() and withdrawInterest() handle Aave interaction.\n **/\n\ncontract PremiumGeneratorAaveV2 is ReentrancyGuard, PremiumGeneratorCore{\n\n    address immutable lendingPoolAddressesProviderAddr;\n    address immutable dataProviderAddr;\n\n    /**\n   * @dev Constructor.\n   */\n    constructor (\n        //address _premiumDeposit,\n        address _lendingPoolAddressesProviderAddr,\n        address _dataProviderAddr,\n        //address _reserve,\n        address _multiSig,\n        address _wethGatewayAddr,\n        uint _premiumDeposit\n    )PremiumGeneratorCore(\n        _multiSig,\n        _wethGatewayAddr,\n        _premiumDeposit\n    ){\n        lendingPoolAddressesProviderAddr = _lendingPoolAddressesProviderAddr;\n        dataProviderAddr = _dataProviderAddr;\n    }\n\n    /**\n     * @dev Allows a user to deposit funds for a specific validator index.\n     * @param _validatorIndex The index of the validator.\n     */\n    function deposit(uint _validatorIndex) external payable nonReentrant {\n        address poolAddr = getLendingPoolAddress();\n        _deposit(poolAddr, _validatorIndex);\n    }\n\n    /**\n     * @dev Allows a user to withdraw funds for a specific validator index.\n     * @param _validatorIndex The index of the validator.\n     */\n    function withdraw(uint _validatorIndex) external nonReentrant {\n        address aTokenAddress = getATokenAddress();\n        address poolAddr = getLendingPoolAddress();\n        _withdraw(poolAddr, aTokenAddress, _validatorIndex);\n    }\n\n    /**\n     * @dev Allows the contract to withdraw interest in the form of\n     * aTokens to the reserve.\n     * @return The amount of interest claimed.\n     */\n    function withdrawInterest()external onlyReserve returns(uint256){\n        address aTokenAddress = getATokenAddress();\n        return _withdrawInterest(aTokenAddress);\n    }\n\n    /**\n     * @dev Returns the address of the Aave lending pool.\n     * @return poolAddr The address of the lending pool.\n     */\n    function getLendingPoolAddress() public view returns(address poolAddr){\n        return ILendingPoolAddressesProvider(lendingPoolAddressesProviderAddr).getLendingPool();\n    }\n\n    /**\n     * @dev Returns the address of the Aave aToken associated with the WETH reserve.\n     * @return The address of the aToken.\n     */\n    function getATokenAddress() public view returns(address){\n        (address aTokenAddress,,) = IProtocolDataProvider(dataProviderAddr).getReserveTokensAddresses(wethAddress);\n        return aTokenAddress;\n    }\n\n    /**\n     * @dev Returns the amount of unclaimed interest for the contract from the specified aToken.\n     * @return unclaimed The amount of unclaimed interest.\n     */\n    function getUnclaimedInterest() public view returns (uint256){\n        address aTokenAddress = getATokenAddress();\n        return _getUnclaimedInterest(aTokenAddress);\n    }\n\n    /**\n     * @dev Returns the balance of aToken held by the contract.\n     * @return The balance of aToken.\n     */\n    function getATokenBalance() public view returns (uint256){\n        address aTokenAddress = getATokenAddress();\n        return _getATokenBalance(aTokenAddress);\n    }\n\n    /**\n     * @dev Returns the normalized income of the reserve.\n     * @return The normalized income of the reserve.\n     */\n    function getReserveNormalizedIncome() public view returns(uint256){\n        address lendingPoolAddr = ILendingPoolAddressesProvider(lendingPoolAddressesProviderAddr).getLendingPool();\n        return ILendingPool(lendingPoolAddr).getReserveNormalizedIncome(wethAddress);\n    }\n\n    /**\n     * @dev Returns the Aave liquidity index of the reserve.\n     * @return liquidityIndex The Aave liquidity index of the reserve.\n     */\n    function getAaveLiquidityIndex() public view returns(uint256 liquidityIndex){\n        (,,,,,,,liquidityIndex,,) = IProtocolDataProvider(dataProviderAddr).getReserveData(wethAddress);\n    }\n\n    /**\n    * @notice Returns asset specific pool information\n    * @return reserve address of reserve\n    * @return deposits amount of ETH/WETH deposited in contract\n    * @return premiumDeposit amount of ETH required for a deposit\n    * @return liquidityIndex reserve's liquidity index\n    * @return normalizedIncome reserve's normalized income\n    * @return aTokenBalance Pool balance of aToken for the asset\n    * @return unclaimedInterest accrued interest that has not yet been claimed\n    * @return aTokenAddress address of Aave's aToken for asset\n    */\n    function getPoolInfo() external view returns(address, uint256, uint256, uint256, uint256, uint256, uint256, address){\n        return(reserve, deposits, premiumDeposit, getAaveLiquidityIndex(),\n                getReserveNormalizedIncome(), getATokenBalance(),\n                getUnclaimedInterest(), getATokenAddress());\n    }\n}",
  "sourcePath": "/home/smeee/projects/slashing_insurance/contracts/contracts/PremiumGeneratorAaveV2.sol",
  "compiler": {
    "name": "solc",
    "version": "0.8.9+commit.e5eed63a.Emscripten.clang"
  },
  "schemaVersion": "3.4.7",
  "updatedAt": "2023-06-05T18:27:36.059Z",
  "devdoc": {
    "author": "smeee This is a contract for lossless insurance premiums using Aave v2 Aave is used to generate interest for insurance applications Beneficiaries deposit tokens into PremiumGenerator which deposit them into Aave lending protocol The interest earned is directed to the reserve associated with the PremiumGenerator Beneficiaries can claim their funds (and terminate their policy) at any time. Functions deposit(), withdraw() and withdrawInterest() handle Aave interaction.*",
    "kind": "dev",
    "methods": {
      "_getATokenBalance(address)": {
        "details": "Returns the balance of aToken for the given aToken address.",
        "params": {
          "_aTokenAddress": "The address of the aToken contract."
        },
        "returns": {
          "_0": "The balance of aToken."
        }
      },
      "constructor": {
        "details": "Constructor."
      },
      "deposit(uint256)": {
        "details": "Allows a user to deposit funds for a specific validator index.",
        "params": {
          "_validatorIndex": "The index of the validator."
        }
      },
      "getATokenAddress()": {
        "details": "Returns the address of the Aave aToken associated with the WETH reserve.",
        "returns": {
          "_0": "The address of the aToken."
        }
      },
      "getATokenBalance()": {
        "details": "Returns the balance of aToken held by the contract.",
        "returns": {
          "_0": "The balance of aToken."
        }
      },
      "getAaveLiquidityIndex()": {
        "details": "Returns the Aave liquidity index of the reserve.",
        "returns": {
          "liquidityIndex": "The Aave liquidity index of the reserve."
        }
      },
      "getLendingPoolAddress()": {
        "details": "Returns the address of the Aave lending pool.",
        "returns": {
          "poolAddr": "The address of the lending pool."
        }
      },
      "getPoolInfo()": {
        "returns": {
          "_0": "reserve address of reserve",
          "_1": "deposits amount of ETH/WETH deposited in contract",
          "_2": "premiumDeposit amount of ETH required for a deposit",
          "_3": "liquidityIndex reserve's liquidity index",
          "_4": "normalizedIncome reserve's normalized income",
          "_5": "aTokenBalance Pool balance of aToken for the asset",
          "_6": "unclaimedInterest accrued interest that has not yet been claimed",
          "_7": "aTokenAddress address of Aave's aToken for asset"
        }
      },
      "getReserveNormalizedIncome()": {
        "details": "Returns the normalized income of the reserve.",
        "returns": {
          "_0": "The normalized income of the reserve."
        }
      },
      "getUnclaimedInterest()": {
        "details": "Returns the amount of unclaimed interest for the contract from the specified aToken.",
        "returns": {
          "_0": "unclaimed The amount of unclaimed interest."
        }
      },
      "setReserve(address)": {
        "details": "Sets the reserve address.Only the multi-signature wallet is allowed to call this function.This function can only be called once to set the reserve address.",
        "params": {
          "_reserve": "The address of the reserve contract."
        }
      },
      "withdraw(uint256)": {
        "details": "Allows a user to withdraw funds for a specific validator index.",
        "params": {
          "_validatorIndex": "The index of the validator."
        }
      },
      "withdrawInterest()": {
        "details": "Allows the contract to withdraw interest in the form of aTokens to the reserve.",
        "returns": {
          "_0": "The amount of interest claimed."
        }
      }
    },
    "title": "PremiumGenerator contract",
    "version": 1
  },
  "userdoc": {
    "kind": "user",
    "methods": {
      "getPoolInfo()": {
        "notice": "Returns asset specific pool information"
      }
    },
    "version": 1
  }
}