{
  "contractName": "PremiumGeneratorCore",
  "abi": [
    {
      "inputs": [
        {
          "internalType": "address",
          "name": "_multiSig",
          "type": "address"
        },
        {
          "internalType": "address",
          "name": "_wethGatewayAddr",
          "type": "address"
        },
        {
          "internalType": "uint256",
          "name": "_premiumDeposit",
          "type": "uint256"
        }
      ],
      "stateMutability": "nonpayable",
      "type": "constructor"
    },
    {
      "inputs": [],
      "name": "deposits",
      "outputs": [
        {
          "internalType": "uint256",
          "name": "",
          "type": "uint256"
        }
      ],
      "stateMutability": "view",
      "type": "function"
    },
    {
      "inputs": [],
      "name": "interestWithdrawn",
      "outputs": [
        {
          "internalType": "uint256",
          "name": "",
          "type": "uint256"
        }
      ],
      "stateMutability": "view",
      "type": "function"
    },
    {
      "inputs": [],
      "name": "multiSig",
      "outputs": [
        {
          "internalType": "address",
          "name": "",
          "type": "address"
        }
      ],
      "stateMutability": "view",
      "type": "function"
    },
    {
      "inputs": [],
      "name": "premiumDeposit",
      "outputs": [
        {
          "internalType": "uint256",
          "name": "",
          "type": "uint256"
        }
      ],
      "stateMutability": "view",
      "type": "function"
    },
    {
      "inputs": [],
      "name": "reserve",
      "outputs": [
        {
          "internalType": "address",
          "name": "",
          "type": "address"
        }
      ],
      "stateMutability": "view",
      "type": "function"
    },
    {
      "inputs": [
        {
          "internalType": "uint256",
          "name": "_premiumDeposit",
          "type": "uint256"
        }
      ],
      "name": "setPremiumDeposit",
      "outputs": [],
      "stateMutability": "nonpayable",
      "type": "function"
    },
    {
      "inputs": [
        {
          "internalType": "address",
          "name": "_reserve",
          "type": "address"
        }
      ],
      "name": "setReserve",
      "outputs": [],
      "stateMutability": "nonpayable",
      "type": "function"
    },
    {
      "inputs": [],
      "name": "getClaimedInterest",
      "outputs": [
        {
          "internalType": "uint256",
          "name": "",
          "type": "uint256"
        }
      ],
      "stateMutability": "view",
      "type": "function"
    },
    {
      "inputs": [
        {
          "internalType": "address",
          "name": "_aTokenAddress",
          "type": "address"
        }
      ],
      "name": "_getATokenBalance",
      "outputs": [
        {
          "internalType": "uint256",
          "name": "",
          "type": "uint256"
        }
      ],
      "stateMutability": "view",
      "type": "function"
    }
  ],
  "bytecode": "0x60e060405234801561001057600080fd5b5060405162000a0638038062000a06833981810160405281019061003491906101ff565b60016000819055508273ffffffffffffffffffffffffffffffffffffffff1660c08173ffffffffffffffffffffffffffffffffffffffff1681525050806003819055508173ffffffffffffffffffffffffffffffffffffffff1660808173ffffffffffffffffffffffffffffffffffffffff168152505060805173ffffffffffffffffffffffffffffffffffffffff1663affa88176040518163ffffffff1660e01b815260040160206040518083038186803b1580156100f357600080fd5b505afa158015610107573d6000803e3d6000fd5b505050506040513d601f19601f8201168201806040525081019061012b9190610252565b73ffffffffffffffffffffffffffffffffffffffff1660a08173ffffffffffffffffffffffffffffffffffffffff168152505050505061027f565b600080fd5b600073ffffffffffffffffffffffffffffffffffffffff82169050919050565b60006101968261016b565b9050919050565b6101a68161018b565b81146101b157600080fd5b50565b6000815190506101c38161019d565b92915050565b6000819050919050565b6101dc816101c9565b81146101e757600080fd5b50565b6000815190506101f9816101d3565b92915050565b60008060006060848603121561021857610217610166565b5b6000610226868287016101b4565b9350506020610237868287016101b4565b9250506040610248868287016101ea565b9150509250925092565b60006020828403121561026857610267610166565b5b6000610276848285016101b4565b91505092915050565b60805160a05160c05161074f620002b760003960008181610265015281816102ec015261032d0152600050506000505061074f6000f3fe608060405234801561001057600080fd5b50600436106100935760003560e01c806336e0004a1161006657806336e0004a1461012057806339dcacfe1461013e5780639cecc80a1461015c578063c62be1f114610178578063cd3293de1461019657610093565b806305ddb019146100985780631219a7f5146100b65780631ba69005146100e6578063323a5e0b14610102575b600080fd5b6100a06101b4565b6040516100ad91906104c0565b60405180910390f35b6100d060048036038101906100cb919061053e565b6101ba565b6040516100dd91906104c0565b60405180910390f35b61010060048036038101906100fb9190610597565b61024c565b005b61010a6102e4565b60405161011791906104c0565b60405180910390f35b6101286102ea565b60405161013591906105d3565b60405180910390f35b61014661030e565b60405161015391906104c0565b60405180910390f35b6101766004803603810190610171919061053e565b610314565b005b610180610477565b60405161018d91906104c0565b60405180910390f35b61019e610481565b6040516101ab91906105d3565b60405180910390f35b60035481565b60008173ffffffffffffffffffffffffffffffffffffffff166370a08231306040518263ffffffff1660e01b81526004016101f591906105d3565b60206040518083038186803b15801561020d57600080fd5b505afa158015610221573d6000803e3d6000fd5b505050506040513d601f19601f820116820180604052508101906102459190610603565b9050919050565b3373ffffffffffffffffffffffffffffffffffffffff167f000000000000000000000000000000000000000000000000000000000000000073ffffffffffffffffffffffffffffffffffffffff16146102da576040517f08c379a00000000000000000000000000000000000000000000000000000000081526004016102d19061068d565b60405180910390fd5b8060038190555050565b60025481565b7f000000000000000000000000000000000000000000000000000000000000000081565b60015481565b3373ffffffffffffffffffffffffffffffffffffffff167f000000000000000000000000000000000000000000000000000000000000000073ffffffffffffffffffffffffffffffffffffffff16146103a2576040517f08c379a00000000000000000000000000000000000000000000000000000000081526004016103999061068d565b60405180910390fd5b600073ffffffffffffffffffffffffffffffffffffffff16600460009054906101000a900473ffffffffffffffffffffffffffffffffffffffff1673ffffffffffffffffffffffffffffffffffffffff1614610433576040517f08c379a000000000000000000000000000000000000000000000000000000000815260040161042a906106f9565b60405180910390fd5b80600460006101000a81548173ffffffffffffffffffffffffffffffffffffffff021916908373ffffffffffffffffffffffffffffffffffffffff16021790555050565b6000600154905090565b600460009054906101000a900473ffffffffffffffffffffffffffffffffffffffff1681565b6000819050919050565b6104ba816104a7565b82525050565b60006020820190506104d560008301846104b1565b92915050565b600080fd5b600073ffffffffffffffffffffffffffffffffffffffff82169050919050565b600061050b826104e0565b9050919050565b61051b81610500565b811461052657600080fd5b50565b60008135905061053881610512565b92915050565b600060208284031215610554576105536104db565b5b600061056284828501610529565b91505092915050565b610574816104a7565b811461057f57600080fd5b50565b6000813590506105918161056b565b92915050565b6000602082840312156105ad576105ac6104db565b5b60006105bb84828501610582565b91505092915050565b6105cd81610500565b82525050565b60006020820190506105e860008301846105c4565b92915050565b6000815190506105fd8161056b565b92915050565b600060208284031215610619576106186104db565b5b6000610627848285016105ee565b91505092915050565b600082825260208201905092915050565b7f6e6f7420746865206f776e657200000000000000000000000000000000000000600082015250565b6000610677600d83610630565b915061068282610641565b602082019050919050565b600060208201905081810360008301526106a68161066a565b9050919050565b7f7265736572766520616c72656164792073657400000000000000000000000000600082015250565b60006106e3601383610630565b91506106ee826106ad565b602082019050919050565b60006020820190508181036000830152610712816106d6565b905091905056fea26469706673582212209fda20cdc3aae99ac094861ad264c3c23d6d39169dd3a6c04cad78377c18783e64736f6c63430008090033",
  "immutableReferences": {
    "1475": [
      {
        "length": 32,
        "start": 613
      },
      {
        "length": 32,
        "start": 748
      },
      {
        "length": 32,
        "start": 813
      }
    ]
  },
  "source": "// SPDX-License-Identifier: MIT\npragma solidity 0.8.9;\n\nimport { IERC20} from './interfaces/other/IERC20.sol';\nimport { IWETHGateway} from './interfaces/aave/IWETHGateway.sol';\nimport { SafeERC20 } from './libraries/SafeERC20.sol';\nimport { IReserve} from './interfaces/protocol/IReserve.sol';\nimport \"@openzeppelin/contracts/security/ReentrancyGuard.sol\";\n\n/**\n * @title PremiumGenerator contract\n * @author smeee\n * This is a contract for lossless insurance premiums using Aave v3\n\n   Aave is used to generate interest for insurance applications\n\n   Beneficiaries deposit tokens into PremiumGenerator which deposit\n   them into Aave lending protocol\n\n   The interest earned is directed to the reserve associated with\n   the PremiumGenerator\n\n   Beneficiaries can claim their funds (and terminate their policy) at any time.\n\n   Functions withdraw() and withdrawInterest() directly call the aave Pool\n\n   Deposits are done through the Reserve contract to minimize approvals for ERC20's\n\n * @dev To be covered by a proxy contract\n * @dev deposits, withdraws, withdrawInterest controlled by the Reserve contract\n **/\n\ncontract PremiumGeneratorCore is ReentrancyGuard {\n    using SafeERC20 for IERC20;\n\n    uint public interestWithdrawn;\n    uint public deposits;\n    uint public premiumDeposit;\n\n    //address immutable lendingPoolAddressesProviderAddr;\n    //address immutable dataProviderAddr;\n    address immutable wethGatewayAddr;\n    address immutable wethAddress;\n    address public reserve;\n    address immutable public multiSig;\n\n\n    /**\n    * @dev Only tokens that are on the accepted list can be passed\n    * to functions marked by this modifier.\n    **/\n    modifier correctValue(){\n        require(msg.value == premiumDeposit, \"value sent must be equal to premium deposit\");\n        _;\n    }\n\n    /**\n    * @dev Only Reserve can call functions marked by this modifier.\n    **/\n    modifier onlyReserve(){\n        require(reserve == msg.sender, \"not the owner\");\n        _;\n    }\n\n     /**\n  * @dev Only MultiSig can call functions marked by this modifier.\n  **/\n  modifier onlyMultiSig(){\n      require(multiSig == msg.sender, \"not the owner\");\n      _;\n  }\n\n    /**\n   * @dev Constructor.\n   */\n    constructor (\n        address _multiSig,\n        address _wethGatewayAddr,\n        uint _premiumDeposit\n    ){\n        multiSig = _multiSig;\n        premiumDeposit = _premiumDeposit;\n        wethGatewayAddr = _wethGatewayAddr;\n        wethAddress = IWETHGateway(wethGatewayAddr).getWETHAddress();\n        //lendingPoolAddressesProviderAddr = _lendingPoolAddressesProviderAddr;\n        //dataProviderAddr = _dataProviderAddr;\n    }\n\n    /**\n    * @notice Only called by PoolTracker.\n    * @dev Function updates total deposits.\n    * @param _poolAddr aave lending pool address\n    **/\n    function _deposit(address _poolAddr, uint _validatorIndex) internal correctValue{\n        deposits += premiumDeposit;\n        IWETHGateway(wethGatewayAddr).depositETH{value: msg.value}(_poolAddr, address(this), 0);\n        IReserve(reserve).addBeneficiary(msg.sender, _validatorIndex);\n    }\n\n    /**\n    * @notice Only called by PoolTracker.\n    * @dev Function updates total deposits.\n    * @param _poolAddr aave lending pool address\n    **/\n    function _reserveDeposit(address _poolAddr) internal {\n        IWETHGateway(wethGatewayAddr).depositETH{value: msg.value}(_poolAddr, reserve, 0);\n    }\n\n    /**\n    * @notice Only called by Beneficiary reserve tokens for beneficiary.\n    * @param _poolAddr aave lending pool address\n    * @param _aTokenAddress aave atoken address for aWETH\n    **/\n    function _withdraw(address _poolAddr, address _aTokenAddress, uint _validatorIndex) internal {\n        deposits -= premiumDeposit;\n        IERC20(_aTokenAddress).safeApprove(wethGatewayAddr, 0);\n        IERC20(_aTokenAddress).safeApprove(wethGatewayAddr, premiumDeposit);\n        IWETHGateway(wethGatewayAddr).withdrawETH(_poolAddr, premiumDeposit, msg.sender);\n        IReserve(reserve).withdrawBeneficiary(msg.sender, _validatorIndex);\n    }\n\n    /**\n    * @dev Function claims amount of interest for reserve. Calls Aave pools exchanging this\n    * contracts aTokens for reserve tokens for interestEarned amount.\n    * @param _aTokenAddress aave atoken address for aWETH\n    **/\n    function _withdrawInterest(address _aTokenAddress) internal returns(uint256){\n        uint256 aTokenBalance = IERC20(_aTokenAddress).balanceOf(address(this));\n        uint256 interestEarned = aTokenBalance - deposits;\n        if(interestEarned > 0){\n            IERC20(_aTokenAddress).safeTransfer(reserve, interestEarned);\n        }\n        return interestEarned;\n    }\n\n    /**\n    * @notice Only called by Reserve.\n    * @dev Function claims interest for reserve. Calls Aave pools exchanging this\n    * contracts aTokens for reserve tokens for interestEarned amount.\n    **/\n    function setPremiumDeposit(uint _premiumDeposit)external onlyMultiSig {\n        premiumDeposit = _premiumDeposit;\n    }\n\n    /**\n    * @param _reserve address of reserve.\n    **/\n    function setReserve(address _reserve) external onlyMultiSig {\n        require(reserve == address(0), \"reserve already set\");\n        reserve = _reserve;\n    }\n\n\n    /**\n    * @return unclaimedInterest accrued interest that has not yet been claimed\n    **/\n    function _getUnclaimedInterest(address _aTokenAddress) internal view returns (uint256){\n        uint256 aTokenBalance = IERC20(_aTokenAddress).balanceOf(address(this));\n        return aTokenBalance - deposits;\n    }\n\n    /**\n    * @return claimedInterest interest that has been claimed (no longer in contract)\n    **/\n    function getClaimedInterest() public view returns (uint256){\n        return interestWithdrawn;\n    }\n\n    /**\n    * @return aTokenBalance Pool balance of aToken for the asset\n    **/\n    function _getATokenBalance(address _aTokenAddress) public view returns (uint256){\n        return IERC20(_aTokenAddress).balanceOf(address(this));\n    }\n}",
  "sourcePath": "/home/smeee/projects/slashing_insurance/contracts/contracts/PremiumGeneratorCore.sol",
  "compiler": {
    "name": "solc",
    "version": "0.8.9+commit.e5eed63a.Emscripten.clang"
  },
  "schemaVersion": "3.4.7",
  "updatedAt": "2023-05-20T20:15:55.566Z",
  "devdoc": {
    "author": "smeee This is a contract for lossless insurance premiums using Aave v3 Aave is used to generate interest for insurance applications Beneficiaries deposit tokens into PremiumGenerator which deposit them into Aave lending protocol The interest earned is directed to the reserve associated with the PremiumGenerator Beneficiaries can claim their funds (and terminate their policy) at any time. Functions withdraw() and withdrawInterest() directly call the aave Pool Deposits are done through the Reserve contract to minimize approvals for ERC20's",
    "details": "To be covered by a proxy contractdeposits, withdraws, withdrawInterest controlled by the Reserve contract*",
    "kind": "dev",
    "methods": {
      "_getATokenBalance(address)": {
        "returns": {
          "_0": "aTokenBalance Pool balance of aToken for the asset*"
        }
      },
      "constructor": {
        "details": "Constructor."
      },
      "getClaimedInterest()": {
        "returns": {
          "_0": "claimedInterest interest that has been claimed (no longer in contract)*"
        }
      },
      "setPremiumDeposit(uint256)": {
        "details": "Function claims interest for reserve. Calls Aave pools exchanging this contracts aTokens for reserve tokens for interestEarned amount.*"
      },
      "setReserve(address)": {
        "params": {
          "_reserve": "address of reserve.*"
        }
      }
    },
    "title": "PremiumGenerator contract",
    "version": 1
  },
  "userdoc": {
    "kind": "user",
    "methods": {
      "setPremiumDeposit(uint256)": {
        "notice": "Only called by Reserve."
      }
    },
    "version": 1
  }
}