{
  "contractName": "PremiumGeneratorAaveV2",
  "abi": [
    {
      "inputs": [
        {
          "internalType": "address",
          "name": "_lendingPoolAddressesProviderAddr",
          "type": "address"
        },
        {
          "internalType": "address",
          "name": "_dataProviderAddr",
          "type": "address"
        },
        {
          "internalType": "address",
          "name": "_multiSig",
          "type": "address"
        },
        {
          "internalType": "address",
          "name": "_wethGatewayAddr",
          "type": "address"
        },
        {
          "internalType": "uint256",
          "name": "_premiumDeposit",
          "type": "uint256"
        }
      ],
      "stateMutability": "nonpayable",
      "type": "constructor"
    },
    {
      "inputs": [
        {
          "internalType": "address",
          "name": "_aTokenAddress",
          "type": "address"
        }
      ],
      "name": "_getATokenBalance",
      "outputs": [
        {
          "internalType": "uint256",
          "name": "",
          "type": "uint256"
        }
      ],
      "stateMutability": "view",
      "type": "function",
      "constant": true
    },
    {
      "inputs": [],
      "name": "deposits",
      "outputs": [
        {
          "internalType": "uint256",
          "name": "",
          "type": "uint256"
        }
      ],
      "stateMutability": "view",
      "type": "function",
      "constant": true
    },
    {
      "inputs": [],
      "name": "getClaimedInterest",
      "outputs": [
        {
          "internalType": "uint256",
          "name": "",
          "type": "uint256"
        }
      ],
      "stateMutability": "view",
      "type": "function",
      "constant": true
    },
    {
      "inputs": [],
      "name": "interestWithdrawn",
      "outputs": [
        {
          "internalType": "uint256",
          "name": "",
          "type": "uint256"
        }
      ],
      "stateMutability": "view",
      "type": "function",
      "constant": true
    },
    {
      "inputs": [],
      "name": "multiSig",
      "outputs": [
        {
          "internalType": "address",
          "name": "",
          "type": "address"
        }
      ],
      "stateMutability": "view",
      "type": "function",
      "constant": true
    },
    {
      "inputs": [],
      "name": "premiumDeposit",
      "outputs": [
        {
          "internalType": "uint256",
          "name": "",
          "type": "uint256"
        }
      ],
      "stateMutability": "view",
      "type": "function",
      "constant": true
    },
    {
      "inputs": [],
      "name": "reserve",
      "outputs": [
        {
          "internalType": "address",
          "name": "",
          "type": "address"
        }
      ],
      "stateMutability": "view",
      "type": "function",
      "constant": true
    },
    {
      "inputs": [
        {
          "internalType": "uint256",
          "name": "_premiumDeposit",
          "type": "uint256"
        }
      ],
      "name": "setPremiumDeposit",
      "outputs": [],
      "stateMutability": "nonpayable",
      "type": "function"
    },
    {
      "inputs": [
        {
          "internalType": "address",
          "name": "_reserve",
          "type": "address"
        }
      ],
      "name": "setReserve",
      "outputs": [],
      "stateMutability": "nonpayable",
      "type": "function"
    },
    {
      "inputs": [
        {
          "internalType": "uint256",
          "name": "_validatorIndex",
          "type": "uint256"
        }
      ],
      "name": "deposit",
      "outputs": [],
      "stateMutability": "payable",
      "type": "function",
      "payable": true
    },
    {
      "inputs": [
        {
          "internalType": "uint256",
          "name": "_validatorIndex",
          "type": "uint256"
        }
      ],
      "name": "withdraw",
      "outputs": [],
      "stateMutability": "nonpayable",
      "type": "function"
    },
    {
      "inputs": [],
      "name": "withdrawInterest",
      "outputs": [
        {
          "internalType": "uint256",
          "name": "",
          "type": "uint256"
        }
      ],
      "stateMutability": "nonpayable",
      "type": "function"
    },
    {
      "inputs": [],
      "name": "getLendingPoolAddress",
      "outputs": [
        {
          "internalType": "address",
          "name": "poolAddr",
          "type": "address"
        }
      ],
      "stateMutability": "view",
      "type": "function",
      "constant": true
    },
    {
      "inputs": [],
      "name": "getATokenAddress",
      "outputs": [
        {
          "internalType": "address",
          "name": "",
          "type": "address"
        }
      ],
      "stateMutability": "view",
      "type": "function",
      "constant": true
    },
    {
      "inputs": [],
      "name": "getUnclaimedInterest",
      "outputs": [
        {
          "internalType": "uint256",
          "name": "",
          "type": "uint256"
        }
      ],
      "stateMutability": "view",
      "type": "function",
      "constant": true
    },
    {
      "inputs": [],
      "name": "getATokenBalance",
      "outputs": [
        {
          "internalType": "uint256",
          "name": "",
          "type": "uint256"
        }
      ],
      "stateMutability": "view",
      "type": "function",
      "constant": true
    },
    {
      "inputs": [],
      "name": "getReserveNormalizedIncome",
      "outputs": [
        {
          "internalType": "uint256",
          "name": "",
          "type": "uint256"
        }
      ],
      "stateMutability": "view",
      "type": "function",
      "constant": true
    },
    {
      "inputs": [],
      "name": "getAaveLiquidityIndex",
      "outputs": [
        {
          "internalType": "uint256",
          "name": "liquidityIndex",
          "type": "uint256"
        }
      ],
      "stateMutability": "view",
      "type": "function",
      "constant": true
    },
    {
      "inputs": [],
      "name": "getPoolInfo",
      "outputs": [
        {
          "internalType": "address",
          "name": "",
          "type": "address"
        },
        {
          "internalType": "uint256",
          "name": "",
          "type": "uint256"
        },
        {
          "internalType": "uint256",
          "name": "",
          "type": "uint256"
        },
        {
          "internalType": "uint256",
          "name": "",
          "type": "uint256"
        },
        {
          "internalType": "uint256",
          "name": "",
          "type": "uint256"
        },
        {
          "internalType": "uint256",
          "name": "",
          "type": "uint256"
        },
        {
          "internalType": "uint256",
          "name": "",
          "type": "uint256"
        },
        {
          "internalType": "uint256",
          "name": "",
          "type": "uint256"
        },
        {
          "internalType": "uint256",
          "name": "",
          "type": "uint256"
        },
        {
          "internalType": "address",
          "name": "",
          "type": "address"
        }
      ],
      "stateMutability": "view",
      "type": "function",
      "constant": true
    }
  ],
  "bytecode": "0x6101206040523480156200001257600080fd5b506040516200248938038062002489833981810160405281019062000038919062000285565b82828260016000819055508273ffffffffffffffffffffffffffffffffffffffff1660c08173ffffffffffffffffffffffffffffffffffffffff1681525050806003819055508173ffffffffffffffffffffffffffffffffffffffff1660808173ffffffffffffffffffffffffffffffffffffffff168152505060805173ffffffffffffffffffffffffffffffffffffffff1663affa88176040518163ffffffff1660e01b815260040160206040518083038186803b158015620000fb57600080fd5b505afa15801562000110573d6000803e3d6000fd5b505050506040513d601f19601f820116820180604052508101906200013691906200030d565b73ffffffffffffffffffffffffffffffffffffffff1660a08173ffffffffffffffffffffffffffffffffffffffff16815250505050508473ffffffffffffffffffffffffffffffffffffffff1660e08173ffffffffffffffffffffffffffffffffffffffff16815250508373ffffffffffffffffffffffffffffffffffffffff166101008173ffffffffffffffffffffffffffffffffffffffff168152505050505050506200033f565b600080fd5b600073ffffffffffffffffffffffffffffffffffffffff82169050919050565b60006200021282620001e5565b9050919050565b620002248162000205565b81146200023057600080fd5b50565b600081519050620002448162000219565b92915050565b6000819050919050565b6200025f816200024a565b81146200026b57600080fd5b50565b6000815190506200027f8162000254565b92915050565b600080600080600060a08688031215620002a457620002a3620001e0565b5b6000620002b48882890162000233565b9550506020620002c78882890162000233565b9450506040620002da8882890162000233565b9350506060620002ed8882890162000233565b925050608062000300888289016200026e565b9150509295509295909350565b600060208284031215620003265762000325620001e0565b5b6000620003368482850162000233565b91505092915050565b60805160a05160c05160e051610100516120c6620003c3600039600081816105b3015261094d01526000818161081c0152610a240152600081816106cf015281816107f00152610b8a0152600081816105ef015281816109890152610ae0015260008181610f3901528181610f8501528181610fcf015261115301526120c66000f3fe6080604052600436106101125760003560e01c806336e0004a116100a057806396c2614c1161006457806396c2614c146103885780639cecc80a146103b3578063b6b55f25146103dc578063c62be1f1146103f8578063cd3293de1461042357610112565b806336e0004a146102a857806339dcacfe146102d35780635f36a742146102fe57806360246c8814610329578063828997561461035d57610112565b806313cdbcfe116100e757806313cdbcfe146101d55780631ba6900514610200578063233641fa146102295780632e1a7d4d14610254578063323a5e0b1461027d57610112565b806263750c14610117578062c2d1431461014257806305ddb0191461016d5780631219a7f514610198575b600080fd5b34801561012357600080fd5b5061012c61044e565b604051610139919061162e565b60405180910390f35b34801561014e57600080fd5b506101576104fb565b604051610164919061162e565b60405180910390f35b34801561017957600080fd5b50610182610517565b60405161018f919061162e565b60405180910390f35b3480156101a457600080fd5b506101bf60048036038101906101ba91906116ac565b61051d565b6040516101cc919061162e565b60405180910390f35b3480156101e157600080fd5b506101ea6105af565b6040516101f7919061162e565b60405180910390f35b34801561020c57600080fd5b5061022760048036038101906102229190611705565b6106b6565b005b34801561023557600080fd5b5061023e61074e565b60405161024b919061162e565b60405180910390f35b34801561026057600080fd5b5061027b60048036038101906102769190611705565b61076a565b005b34801561028957600080fd5b506102926107e8565b60405161029f919061162e565b60405180910390f35b3480156102b457600080fd5b506102bd6107ee565b6040516102ca9190611741565b60405180910390f35b3480156102df57600080fd5b506102e8610812565b6040516102f5919061162e565b60405180910390f35b34801561030a57600080fd5b50610313610818565b6040516103209190611741565b60405180910390f35b34801561033557600080fd5b5061033e6108bd565b6040516103549a9998979695949392919061175c565b60405180910390f35b34801561036957600080fd5b50610372610948565b60405161037f9190611741565b60405180910390f35b34801561039457600080fd5b5061039d610a1f565b6040516103aa919061162e565b60405180910390f35b3480156103bf57600080fd5b506103da60048036038101906103d591906116ac565b610b71565b005b6103f660048036038101906103f19190611705565b610cd4565b005b34801561040457600080fd5b5061040d610d44565b60405161041a919061162e565b60405180910390f35b34801561042f57600080fd5b50610438610d4e565b6040516104459190611741565b60405180910390f35b60003373ffffffffffffffffffffffffffffffffffffffff16600460009054906101000a900473ffffffffffffffffffffffffffffffffffffffff1673ffffffffffffffffffffffffffffffffffffffff16146104e0576040517f08c379a00000000000000000000000000000000000000000000000000000000081526004016104d790611855565b60405180910390fd5b60006104ea610948565b90506104f581610d74565b91505090565b600080610506610948565b90506105118161051d565b91505090565b60035481565b60008173ffffffffffffffffffffffffffffffffffffffff166370a08231306040518263ffffffff1660e01b81526004016105589190611741565b60206040518083038186803b15801561057057600080fd5b505afa158015610584573d6000803e3d6000fd5b505050506040513d601f19601f820116820180604052508101906105a8919061188a565b9050919050565b60007f000000000000000000000000000000000000000000000000000000000000000073ffffffffffffffffffffffffffffffffffffffff166335ea6a757f00000000000000000000000000000000000000000000000000000000000000006040518263ffffffff1660e01b815260040161062a9190611741565b6101406040518083038186803b15801561064357600080fd5b505afa158015610657573d6000803e3d6000fd5b505050506040513d601f19601f8201168201806040525081019061067b91906118f4565b909192939495969798509091929394959697509091929394959650909192939495509091929394509091929350909192509050508091505090565b3373ffffffffffffffffffffffffffffffffffffffff167f000000000000000000000000000000000000000000000000000000000000000073ffffffffffffffffffffffffffffffffffffffff1614610744576040517f08c379a000000000000000000000000000000000000000000000000000000000815260040161073b90611855565b60405180910390fd5b8060038190555050565b600080610759610948565b905061076481610e75565b91505090565b600260005414156107b0576040517f08c379a00000000000000000000000000000000000000000000000000000000081526004016107a790611a1f565b60405180910390fd5b600260008190555060006107c2610948565b905060006107ce610818565b90506107db818385610f19565b5050600160008190555050565b60025481565b7f000000000000000000000000000000000000000000000000000000000000000081565b60015481565b60007f000000000000000000000000000000000000000000000000000000000000000073ffffffffffffffffffffffffffffffffffffffff16630261bf8b6040518163ffffffff1660e01b815260040160206040518083038186803b15801561088057600080fd5b505afa158015610894573d6000803e3d6000fd5b505050506040513d601f19601f820116820180604052508101906108b89190611a54565b905090565b600080600080600080600080600080600460009054906101000a900473ffffffffffffffffffffffffffffffffffffffff166001546002546003546109006105af565b610908610a1f565b6109106104fb565b610918610d44565b61092061074e565b610928610948565b995099509950995099509950995099509950995090919293949596979899565b6000807f000000000000000000000000000000000000000000000000000000000000000073ffffffffffffffffffffffffffffffffffffffff1663d2493b6c7f00000000000000000000000000000000000000000000000000000000000000006040518263ffffffff1660e01b81526004016109c49190611741565b60606040518083038186803b1580156109dc57600080fd5b505afa1580156109f0573d6000803e3d6000fd5b505050506040513d601f19601f82011682018060405250810190610a149190611a81565b505090508091505090565b6000807f000000000000000000000000000000000000000000000000000000000000000073ffffffffffffffffffffffffffffffffffffffff16630261bf8b6040518163ffffffff1660e01b815260040160206040518083038186803b158015610a8857600080fd5b505afa158015610a9c573d6000803e3d6000fd5b505050506040513d601f19601f82011682018060405250810190610ac09190611a54565b90508073ffffffffffffffffffffffffffffffffffffffff1663d15e00537f00000000000000000000000000000000000000000000000000000000000000006040518263ffffffff1660e01b8152600401610b1b9190611741565b60206040518083038186803b158015610b3357600080fd5b505afa158015610b47573d6000803e3d6000fd5b505050506040513d601f19601f82011682018060405250810190610b6b919061188a565b91505090565b3373ffffffffffffffffffffffffffffffffffffffff167f000000000000000000000000000000000000000000000000000000000000000073ffffffffffffffffffffffffffffffffffffffff1614610bff576040517f08c379a0000000000000000000000000000000000000000000000000000000008152600401610bf690611855565b60405180910390fd5b600073ffffffffffffffffffffffffffffffffffffffff16600460009054906101000a900473ffffffffffffffffffffffffffffffffffffffff1673ffffffffffffffffffffffffffffffffffffffff1614610c90576040517f08c379a0000000000000000000000000000000000000000000000000000000008152600401610c8790611b20565b60405180910390fd5b80600460006101000a81548173ffffffffffffffffffffffffffffffffffffffff021916908373ffffffffffffffffffffffffffffffffffffffff16021790555050565b60026000541415610d1a576040517f08c379a0000000000000000000000000000000000000000000000000000000008152600401610d1190611a1f565b60405180910390fd5b60026000819055506000610d2c610818565b9050610d3881836110f2565b50600160008190555050565b6000600154905090565b600460009054906101000a900473ffffffffffffffffffffffffffffffffffffffff1681565b6000808273ffffffffffffffffffffffffffffffffffffffff166370a08231306040518263ffffffff1660e01b8152600401610db09190611741565b60206040518083038186803b158015610dc857600080fd5b505afa158015610ddc573d6000803e3d6000fd5b505050506040513d601f19601f82011682018060405250810190610e00919061188a565b9050600060025482610e129190611b6f565b90506000811115610e6b57610e6a600460009054906101000a900473ffffffffffffffffffffffffffffffffffffffff16828673ffffffffffffffffffffffffffffffffffffffff166112759092919063ffffffff16565b5b8092505050919050565b6000808273ffffffffffffffffffffffffffffffffffffffff166370a08231306040518263ffffffff1660e01b8152600401610eb19190611741565b60206040518083038186803b158015610ec957600080fd5b505afa158015610edd573d6000803e3d6000fd5b505050506040513d601f19601f82011682018060405250810190610f01919061188a565b905060025481610f119190611b6f565b915050919050565b60035460026000828254610f2d9190611b6f565b92505081905550610f807f000000000000000000000000000000000000000000000000000000000000000060008473ffffffffffffffffffffffffffffffffffffffff166112fb9092919063ffffffff16565b610fcd7f00000000000000000000000000000000000000000000000000000000000000006003548473ffffffffffffffffffffffffffffffffffffffff166112fb9092919063ffffffff16565b7f000000000000000000000000000000000000000000000000000000000000000073ffffffffffffffffffffffffffffffffffffffff166380500d2084600354336040518463ffffffff1660e01b815260040161102c93929190611ba3565b600060405180830381600087803b15801561104657600080fd5b505af115801561105a573d6000803e3d6000fd5b50505050600460009054906101000a900473ffffffffffffffffffffffffffffffffffffffff1673ffffffffffffffffffffffffffffffffffffffff1663ecb61ea133836040518363ffffffff1660e01b81526004016110bb929190611bda565b600060405180830381600087803b1580156110d557600080fd5b505af11580156110e9573d6000803e3d6000fd5b50505050505050565b6003543414611136576040517f08c379a000000000000000000000000000000000000000000000000000000000815260040161112d90611c75565b60405180910390fd5b6003546002600082825461114a9190611c95565b925050819055507f000000000000000000000000000000000000000000000000000000000000000073ffffffffffffffffffffffffffffffffffffffff1663474cf53d34843060006040518563ffffffff1660e01b81526004016111b093929190611d3e565b6000604051808303818588803b1580156111c957600080fd5b505af11580156111dd573d6000803e3d6000fd5b5050505050600460009054906101000a900473ffffffffffffffffffffffffffffffffffffffff1673ffffffffffffffffffffffffffffffffffffffff166396074e7033836040518363ffffffff1660e01b815260040161123f929190611bda565b600060405180830381600087803b15801561125957600080fd5b505af115801561126d573d6000803e3d6000fd5b505050505050565b6112f68363a9059cbb60e01b8484604051602401611294929190611bda565b604051602081830303815290604052907bffffffffffffffffffffffffffffffffffffffffffffffffffffffff19166020820180517bffffffffffffffffffffffffffffffffffffffffffffffffffffffff8381831617835250505050611459565b505050565b6000811480611394575060008373ffffffffffffffffffffffffffffffffffffffff1663dd62ed3e30856040518363ffffffff1660e01b8152600401611342929190611d75565b60206040518083038186803b15801561135a57600080fd5b505afa15801561136e573d6000803e3d6000fd5b505050506040513d601f19601f82011682018060405250810190611392919061188a565b145b6113d3576040517f08c379a00000000000000000000000000000000000000000000000000000000081526004016113ca90611e10565b60405180910390fd5b6114548363095ea7b360e01b84846040516024016113f2929190611bda565b604051602081830303815290604052907bffffffffffffffffffffffffffffffffffffffffffffffffffffffff19166020820180517bffffffffffffffffffffffffffffffffffffffffffffffffffffffff8381831617835250505050611459565b505050565b6114788273ffffffffffffffffffffffffffffffffffffffff166115ca565b6114b7576040517f08c379a00000000000000000000000000000000000000000000000000000000081526004016114ae90611e7c565b60405180910390fd5b6000808373ffffffffffffffffffffffffffffffffffffffff16836040516114df9190611f16565b6000604051808303816000865af19150503d806000811461151c576040519150601f19603f3d011682016040523d82523d6000602084013e611521565b606091505b509150915081611566576040517f08c379a000000000000000000000000000000000000000000000000000000000815260040161155d90611f79565b60405180910390fd5b6000815111156115c457808060200190518101906115849190611fd1565b6115c3576040517f08c379a00000000000000000000000000000000000000000000000000000000081526004016115ba90612070565b60405180910390fd5b5b50505050565b60008060007fc5d2460186f7233c927e7db2dcc703c0e500b653ca82273b7bfad8045d85a47060001b9050833f915080821415801561160c57506000801b8214155b92505050919050565b6000819050919050565b61162881611615565b82525050565b6000602082019050611643600083018461161f565b92915050565b600080fd5b600073ffffffffffffffffffffffffffffffffffffffff82169050919050565b60006116798261164e565b9050919050565b6116898161166e565b811461169457600080fd5b50565b6000813590506116a681611680565b92915050565b6000602082840312156116c2576116c1611649565b5b60006116d084828501611697565b91505092915050565b6116e281611615565b81146116ed57600080fd5b50565b6000813590506116ff816116d9565b92915050565b60006020828403121561171b5761171a611649565b5b6000611729848285016116f0565b91505092915050565b61173b8161166e565b82525050565b60006020820190506117566000830184611732565b92915050565b600061014082019050611772600083018d611732565b61177f602083018c61161f565b61178c604083018b61161f565b611799606083018a61161f565b6117a6608083018961161f565b6117b360a083018861161f565b6117c060c083018761161f565b6117cd60e083018661161f565b6117db61010083018561161f565b6117e9610120830184611732565b9b9a5050505050505050505050565b600082825260208201905092915050565b7f6e6f7420746865206f776e657200000000000000000000000000000000000000600082015250565b600061183f600d836117f8565b915061184a82611809565b602082019050919050565b6000602082019050818103600083015261186e81611832565b9050919050565b600081519050611884816116d9565b92915050565b6000602082840312156118a05761189f611649565b5b60006118ae84828501611875565b91505092915050565b600064ffffffffff82169050919050565b6118d1816118b7565b81146118dc57600080fd5b50565b6000815190506118ee816118c8565b92915050565b6000806000806000806000806000806101408b8d03121561191857611917611649565b5b60006119268d828e01611875565b9a505060206119378d828e01611875565b99505060406119488d828e01611875565b98505060606119598d828e01611875565b975050608061196a8d828e01611875565b96505060a061197b8d828e01611875565b95505060c061198c8d828e01611875565b94505060e061199d8d828e01611875565b9350506101006119af8d828e01611875565b9250506101206119c18d828e016118df565b9150509295989b9194979a5092959850565b7f5265656e7472616e637947756172643a207265656e7472616e742063616c6c00600082015250565b6000611a09601f836117f8565b9150611a14826119d3565b602082019050919050565b60006020820190508181036000830152611a38816119fc565b9050919050565b600081519050611a4e81611680565b92915050565b600060208284031215611a6a57611a69611649565b5b6000611a7884828501611a3f565b91505092915050565b600080600060608486031215611a9a57611a99611649565b5b6000611aa886828701611a3f565b9350506020611ab986828701611a3f565b9250506040611aca86828701611a3f565b9150509250925092565b7f7265736572766520616c72656164792073657400000000000000000000000000600082015250565b6000611b0a6013836117f8565b9150611b1582611ad4565b602082019050919050565b60006020820190508181036000830152611b3981611afd565b9050919050565b7f4e487b7100000000000000000000000000000000000000000000000000000000600052601160045260246000fd5b6000611b7a82611615565b9150611b8583611615565b925082821015611b9857611b97611b40565b5b828203905092915050565b6000606082019050611bb86000830186611732565b611bc5602083018561161f565b611bd26040830184611732565b949350505050565b6000604082019050611bef6000830185611732565b611bfc602083018461161f565b9392505050565b7f76616c75652073656e74206d75737420626520657175616c20746f207072656d60008201527f69756d206465706f736974000000000000000000000000000000000000000000602082015250565b6000611c5f602b836117f8565b9150611c6a82611c03565b604082019050919050565b60006020820190508181036000830152611c8e81611c52565b9050919050565b6000611ca082611615565b9150611cab83611615565b9250827fffffffffffffffffffffffffffffffffffffffffffffffffffffffffffffffff03821115611ce057611cdf611b40565b5b828201905092915050565b6000819050919050565b600061ffff82169050919050565b6000819050919050565b6000611d28611d23611d1e84611ceb565b611d03565b611cf5565b9050919050565b611d3881611d0d565b82525050565b6000606082019050611d536000830186611732565b611d606020830185611732565b611d6d6040830184611d2f565b949350505050565b6000604082019050611d8a6000830185611732565b611d976020830184611732565b9392505050565b7f5361666545524332303a20617070726f76652066726f6d206e6f6e2d7a65726f60008201527f20746f206e6f6e2d7a65726f20616c6c6f77616e636500000000000000000000602082015250565b6000611dfa6036836117f8565b9150611e0582611d9e565b604082019050919050565b60006020820190508181036000830152611e2981611ded565b9050919050565b7f5361666545524332303a2063616c6c20746f206e6f6e2d636f6e747261637400600082015250565b6000611e66601f836117f8565b9150611e7182611e30565b602082019050919050565b60006020820190508181036000830152611e9581611e59565b9050919050565b600081519050919050565b600081905092915050565b60005b83811015611ed0578082015181840152602081019050611eb5565b83811115611edf576000848401525b50505050565b6000611ef082611e9c565b611efa8185611ea7565b9350611f0a818560208601611eb2565b80840191505092915050565b6000611f228284611ee5565b915081905092915050565b7f5361666545524332303a206c6f772d6c6576656c2063616c6c206661696c6564600082015250565b6000611f636020836117f8565b9150611f6e82611f2d565b602082019050919050565b60006020820190508181036000830152611f9281611f56565b9050919050565b60008115159050919050565b611fae81611f99565b8114611fb957600080fd5b50565b600081519050611fcb81611fa5565b92915050565b600060208284031215611fe757611fe6611649565b5b6000611ff584828501611fbc565b91505092915050565b7f5361666545524332303a204552433230206f7065726174696f6e20646964206e60008201527f6f74207375636365656400000000000000000000000000000000000000000000602082015250565b600061205a602a836117f8565b915061206582611ffe565b604082019050919050565b600060208201905081810360008301526120898161204d565b905091905056fea26469706673582212203a93cfe5baddae12197e528686616810bfff1b6da63d370aa1ef485c26c1730164736f6c63430008090033",
  "immutableReferences": {
    "931": [
      {
        "length": 32,
        "start": 2076
      },
      {
        "length": 32,
        "start": 2596
      }
    ],
    "933": [
      {
        "length": 32,
        "start": 1459
      },
      {
        "length": 32,
        "start": 2381
      }
    ],
    "1469": [
      {
        "length": 32,
        "start": 3897
      },
      {
        "length": 32,
        "start": 3973
      },
      {
        "length": 32,
        "start": 4047
      },
      {
        "length": 32,
        "start": 4435
      }
    ],
    "1471": [
      {
        "length": 32,
        "start": 1519
      },
      {
        "length": 32,
        "start": 2441
      },
      {
        "length": 32,
        "start": 2784
      }
    ],
    "1475": [
      {
        "length": 32,
        "start": 1743
      },
      {
        "length": 32,
        "start": 2032
      },
      {
        "length": 32,
        "start": 2954
      }
    ]
  },
  "source": "// SPDX-License-Identifier: MIT\npragma solidity 0.8.9;\n\nimport { ILendingPool} from './interfaces/aave/ILendingPool.sol';\nimport { ILendingPoolAddressesProvider} from './interfaces/aave/ILendingPoolAddressesProvider.sol';\nimport { IProtocolDataProvider } from './interfaces/aave/IProtocolDataProvider.sol';\nimport { PremiumGeneratorCore } from './PremiumGeneratorCore.sol';\nimport \"@openzeppelin/contracts/security/ReentrancyGuard.sol\";\n\n/**\n * @title PremiumGenerator contract\n * @author smeee\n * This is a contract for lossless insurance premiums using Aave v3\n\n   Aave is used to generate interest for insurance applications\n\n   Beneficiaries deposit tokens into PremiumGenerator which deposit\n   them into Aave lending protocol\n\n   The interest earned is directed to the reserve associated with\n   the PremiumGenerator\n\n   Beneficiaries can claim their funds (and terminate their policy) at any time.\n\n   Functions withdraw() and withdrawInterest() directly call the aave Pool\n\n * @dev To be covered by a proxy contract\n * @dev deposits, withdraws, withdrawInterest controlled by the Reserve contract\n **/\n\ncontract PremiumGeneratorAaveV2 is ReentrancyGuard, PremiumGeneratorCore{\n\n    address immutable lendingPoolAddressesProviderAddr;\n    address immutable dataProviderAddr;\n\n    /**\n   * @dev Constructor.\n   */\n    constructor (\n        //address _premiumDeposit,\n        address _lendingPoolAddressesProviderAddr,\n        address _dataProviderAddr,\n        //address _reserve,\n        address _multiSig,\n        address _wethGatewayAddr,\n        uint _premiumDeposit\n    )PremiumGeneratorCore(\n        _multiSig,\n        _wethGatewayAddr,\n        _premiumDeposit\n    ){\n        lendingPoolAddressesProviderAddr = _lendingPoolAddressesProviderAddr;\n        dataProviderAddr = _dataProviderAddr;\n    }\n\n    /**\n    * @dev Function updates total deposits.\n    **/\n    function deposit(uint _validatorIndex) external payable nonReentrant {\n        address poolAddr = getLendingPoolAddress();\n        _deposit(poolAddr, _validatorIndex);\n    }\n\n    /**\n    * @notice Only called by Beneficiary reserve tokens for beneficiary.\n    **/\n    function withdraw(uint _validatorIndex) external nonReentrant {\n        address aTokenAddress = getATokenAddress();\n        address poolAddr = getLendingPoolAddress();\n        _withdraw(poolAddr, aTokenAddress, _validatorIndex);\n    }\n\n    /**\n    * @dev Function claims interest for reserve. Calls Aave pools exchanging this\n    * contracts aTokens for reserve tokens for interestEarned amount.\n    **/\n    function withdrawInterest()external onlyReserve returns(uint256){\n        address aTokenAddress = getATokenAddress();\n        return _withdrawInterest(aTokenAddress);\n    }\n\n    /**\n    * @return poolAddr AAVE lending pool address\n    **/\n    function getLendingPoolAddress() public view returns(address poolAddr){\n        return ILendingPoolAddressesProvider(lendingPoolAddressesProviderAddr).getLendingPool();\n    }\n\n    /**\n    * @return aTokenAddress address of Aave's aToken for asset\n    **/\n    function getATokenAddress() public view returns(address){\n        (address aTokenAddress,,) = IProtocolDataProvider(dataProviderAddr).getReserveTokensAddresses(wethAddress);\n        return aTokenAddress;\n    }\n\n     /**\n    * @return unclaimedInterest accrued interest that has not yet been claimed\n    **/\n    function getUnclaimedInterest() public view returns (uint256){\n        address aTokenAddress = getATokenAddress();\n        return _getUnclaimedInterest(aTokenAddress);\n    }\n\n    /**\n    * @return aTokenBalance Pool balance of aToken for the asset\n    **/\n    function getATokenBalance() public view returns (uint256){\n        address aTokenAddress = getATokenAddress();\n        return _getATokenBalance(aTokenAddress);\n    }\n\n    /**\n    * @return normalizedIncome reserve's normalized income\n    */\n    function getReserveNormalizedIncome() public view returns(uint256){\n        address lendingPoolAddr = ILendingPoolAddressesProvider(lendingPoolAddressesProviderAddr).getLendingPool();\n        return ILendingPool(lendingPoolAddr).getReserveNormalizedIncome(wethAddress);\n    }\n\n    /**\n    * @return liquidityIndex reserve's liquidity index\n    */\n    function getAaveLiquidityIndex() public view returns(uint256 liquidityIndex){\n        (,,,,,,,liquidityIndex,,) = IProtocolDataProvider(dataProviderAddr).getReserveData(wethAddress);\n    }\n\n    /**\n    * @notice Returns asset specific pool information\n    * @return reserve address of reserve\n    * @return interestWithdrawn amount of interest withdrawn\n    * @return deposits amount of ETH/WETH deposited in contract\n    * @return premiumDeposit amount of ETH required for a deposit\n    * @return liquidityIndex reserve's liquidity index\n    * @return normalizedIncome reserve's normalized income\n    * @return aTokenBalance Pool balance of aToken for the asset\n    * @return claimedInterest interest that has been claimed (no longer in contract)\n    * @return unclaimedInterest accrued interest that has not yet been claimed\n    * @return aTokenAddress address of Aave's aToken for asset\n    */\n    function getPoolInfo() external view returns(address, uint256, uint256, uint256, uint256, uint256, uint256, uint256, uint256, address){\n        return(reserve, interestWithdrawn, deposits, premiumDeposit, getAaveLiquidityIndex(),\n                getReserveNormalizedIncome(), getATokenBalance(), getClaimedInterest(),\n                getUnclaimedInterest(), getATokenAddress());\n    }\n}",
  "sourcePath": "/home/smeee/projects/slashing_insurance/contracts/contracts/PremiumGeneratorAaveV2.sol",
  "compiler": {
    "name": "solc",
    "version": "0.8.9+commit.e5eed63a.Emscripten.clang"
  },
  "schemaVersion": "3.4.7",
  "updatedAt": "2023-05-21T01:21:52.030Z",
  "networkType": "ethereum",
  "devdoc": {
    "author": "smeee This is a contract for lossless insurance premiums using Aave v3 Aave is used to generate interest for insurance applications Beneficiaries deposit tokens into PremiumGenerator which deposit them into Aave lending protocol The interest earned is directed to the reserve associated with the PremiumGenerator Beneficiaries can claim their funds (and terminate their policy) at any time. Functions withdraw() and withdrawInterest() directly call the aave Pool",
    "details": "To be covered by a proxy contractdeposits, withdraws, withdrawInterest controlled by the Reserve contract*",
    "kind": "dev",
    "methods": {
      "_getATokenBalance(address)": {
        "returns": {
          "_0": "aTokenBalance Pool balance of aToken for the asset*"
        }
      },
      "constructor": {
        "details": "Constructor."
      },
      "deposit(uint256)": {
        "details": "Function updates total deposits.*"
      },
      "getATokenAddress()": {
        "returns": {
          "_0": "aTokenAddress address of Aave's aToken for asset*"
        }
      },
      "getATokenBalance()": {
        "returns": {
          "_0": "aTokenBalance Pool balance of aToken for the asset*"
        }
      },
      "getAaveLiquidityIndex()": {
        "returns": {
          "liquidityIndex": "reserve's liquidity index"
        }
      },
      "getClaimedInterest()": {
        "returns": {
          "_0": "claimedInterest interest that has been claimed (no longer in contract)*"
        }
      },
      "getLendingPoolAddress()": {
        "returns": {
          "poolAddr": "AAVE lending pool address*"
        }
      },
      "getPoolInfo()": {
        "returns": {
          "_0": "reserve address of reserve",
          "_1": "interestWithdrawn amount of interest withdrawn",
          "_2": "deposits amount of ETH/WETH deposited in contract",
          "_3": "premiumDeposit amount of ETH required for a deposit",
          "_4": "liquidityIndex reserve's liquidity index",
          "_5": "normalizedIncome reserve's normalized income",
          "_6": "aTokenBalance Pool balance of aToken for the asset",
          "_7": "claimedInterest interest that has been claimed (no longer in contract)",
          "_8": "unclaimedInterest accrued interest that has not yet been claimed",
          "_9": "aTokenAddress address of Aave's aToken for asset"
        }
      },
      "getReserveNormalizedIncome()": {
        "returns": {
          "_0": "normalizedIncome reserve's normalized income"
        }
      },
      "getUnclaimedInterest()": {
        "returns": {
          "_0": "unclaimedInterest accrued interest that has not yet been claimed*"
        }
      },
      "setPremiumDeposit(uint256)": {
        "details": "Function claims interest for reserve. Calls Aave pools exchanging this contracts aTokens for reserve tokens for interestEarned amount.*"
      },
      "setReserve(address)": {
        "params": {
          "_reserve": "address of reserve.*"
        }
      },
      "withdrawInterest()": {
        "details": "Function claims interest for reserve. Calls Aave pools exchanging this contracts aTokens for reserve tokens for interestEarned amount.*"
      }
    },
    "title": "PremiumGenerator contract",
    "version": 1
  },
  "userdoc": {
    "kind": "user",
    "methods": {
      "getPoolInfo()": {
        "notice": "Returns asset specific pool information"
      },
      "setPremiumDeposit(uint256)": {
        "notice": "Only called by Reserve."
      },
      "withdraw(uint256)": {
        "notice": "Only called by Beneficiary reserve tokens for beneficiary.*"
      }
    },
    "version": 1
  }
}