{
  "contractName": "PremiumGeneratorAaveV3",
  "abi": [
    {
      "inputs": [
        {
          "internalType": "address",
          "name": "_poolAddressesProviderAddr",
          "type": "address"
        },
        {
          "internalType": "address",
          "name": "_multiSig",
          "type": "address"
        },
        {
          "internalType": "address",
          "name": "_wethGatewayAddr",
          "type": "address"
        },
        {
          "internalType": "uint256",
          "name": "_premiumDeposit",
          "type": "uint256"
        }
      ],
      "stateMutability": "nonpayable",
      "type": "constructor"
    },
    {
      "inputs": [
        {
          "internalType": "address",
          "name": "_aTokenAddress",
          "type": "address"
        }
      ],
      "name": "_getATokenBalance",
      "outputs": [
        {
          "internalType": "uint256",
          "name": "",
          "type": "uint256"
        }
      ],
      "stateMutability": "view",
      "type": "function"
    },
    {
      "inputs": [],
      "name": "deposits",
      "outputs": [
        {
          "internalType": "uint256",
          "name": "",
          "type": "uint256"
        }
      ],
      "stateMutability": "view",
      "type": "function"
    },
    {
      "inputs": [],
      "name": "getClaimedInterest",
      "outputs": [
        {
          "internalType": "uint256",
          "name": "",
          "type": "uint256"
        }
      ],
      "stateMutability": "view",
      "type": "function"
    },
    {
      "inputs": [],
      "name": "interestWithdrawn",
      "outputs": [
        {
          "internalType": "uint256",
          "name": "",
          "type": "uint256"
        }
      ],
      "stateMutability": "view",
      "type": "function"
    },
    {
      "inputs": [],
      "name": "multiSig",
      "outputs": [
        {
          "internalType": "address",
          "name": "",
          "type": "address"
        }
      ],
      "stateMutability": "view",
      "type": "function"
    },
    {
      "inputs": [],
      "name": "premiumDeposit",
      "outputs": [
        {
          "internalType": "uint256",
          "name": "",
          "type": "uint256"
        }
      ],
      "stateMutability": "view",
      "type": "function"
    },
    {
      "inputs": [],
      "name": "reserve",
      "outputs": [
        {
          "internalType": "address",
          "name": "",
          "type": "address"
        }
      ],
      "stateMutability": "view",
      "type": "function"
    },
    {
      "inputs": [
        {
          "internalType": "uint256",
          "name": "_premiumDeposit",
          "type": "uint256"
        }
      ],
      "name": "setPremiumDeposit",
      "outputs": [],
      "stateMutability": "nonpayable",
      "type": "function"
    },
    {
      "inputs": [
        {
          "internalType": "address",
          "name": "_reserve",
          "type": "address"
        }
      ],
      "name": "setReserve",
      "outputs": [],
      "stateMutability": "nonpayable",
      "type": "function"
    },
    {
      "inputs": [
        {
          "internalType": "uint256",
          "name": "_validatorIndex",
          "type": "uint256"
        }
      ],
      "name": "deposit",
      "outputs": [],
      "stateMutability": "payable",
      "type": "function"
    },
    {
      "inputs": [
        {
          "internalType": "uint256",
          "name": "_validatorIndex",
          "type": "uint256"
        }
      ],
      "name": "withdraw",
      "outputs": [],
      "stateMutability": "nonpayable",
      "type": "function"
    },
    {
      "inputs": [],
      "name": "withdrawInterest",
      "outputs": [
        {
          "internalType": "uint256",
          "name": "",
          "type": "uint256"
        }
      ],
      "stateMutability": "nonpayable",
      "type": "function"
    },
    {
      "inputs": [],
      "name": "getLendingPoolAddress",
      "outputs": [
        {
          "internalType": "address",
          "name": "poolAddr",
          "type": "address"
        }
      ],
      "stateMutability": "view",
      "type": "function"
    },
    {
      "inputs": [],
      "name": "getATokenAddress",
      "outputs": [
        {
          "internalType": "address",
          "name": "aTokenAddress",
          "type": "address"
        }
      ],
      "stateMutability": "view",
      "type": "function"
    },
    {
      "inputs": [],
      "name": "getUnclaimedInterest",
      "outputs": [
        {
          "internalType": "uint256",
          "name": "",
          "type": "uint256"
        }
      ],
      "stateMutability": "view",
      "type": "function"
    },
    {
      "inputs": [],
      "name": "getStats",
      "outputs": [
        {
          "internalType": "uint256",
          "name": "",
          "type": "uint256"
        }
      ],
      "stateMutability": "view",
      "type": "function"
    },
    {
      "inputs": [],
      "name": "getATokenBalance",
      "outputs": [
        {
          "internalType": "uint256",
          "name": "",
          "type": "uint256"
        }
      ],
      "stateMutability": "view",
      "type": "function"
    },
    {
      "inputs": [],
      "name": "getReserveNormalizedIncome",
      "outputs": [
        {
          "internalType": "uint256",
          "name": "",
          "type": "uint256"
        }
      ],
      "stateMutability": "view",
      "type": "function"
    },
    {
      "inputs": [],
      "name": "getAaveLiquidityIndex",
      "outputs": [
        {
          "internalType": "uint256",
          "name": "liquidityIndex",
          "type": "uint256"
        }
      ],
      "stateMutability": "view",
      "type": "function"
    },
    {
      "inputs": [],
      "name": "getPoolInfo",
      "outputs": [
        {
          "internalType": "address",
          "name": "",
          "type": "address"
        },
        {
          "internalType": "uint256",
          "name": "",
          "type": "uint256"
        },
        {
          "internalType": "uint256",
          "name": "",
          "type": "uint256"
        },
        {
          "internalType": "uint256",
          "name": "",
          "type": "uint256"
        },
        {
          "internalType": "uint256",
          "name": "",
          "type": "uint256"
        },
        {
          "internalType": "uint256",
          "name": "",
          "type": "uint256"
        },
        {
          "internalType": "uint256",
          "name": "",
          "type": "uint256"
        },
        {
          "internalType": "uint256",
          "name": "",
          "type": "uint256"
        },
        {
          "internalType": "uint256",
          "name": "",
          "type": "uint256"
        },
        {
          "internalType": "address",
          "name": "",
          "type": "address"
        }
      ],
      "stateMutability": "view",
      "type": "function"
    }
  ],
  "bytecode": "0x6101006040523480156200001257600080fd5b506040516200272d3803806200272d83398181016040528101906200003891906200024f565b82828260016000819055508273ffffffffffffffffffffffffffffffffffffffff1660c08173ffffffffffffffffffffffffffffffffffffffff1681525050806003819055508173ffffffffffffffffffffffffffffffffffffffff1660808173ffffffffffffffffffffffffffffffffffffffff168152505060805173ffffffffffffffffffffffffffffffffffffffff1663affa88176040518163ffffffff1660e01b815260040160206040518083038186803b158015620000fb57600080fd5b505afa15801562000110573d6000803e3d6000fd5b505050506040513d601f19601f82011682018060405250810190620001369190620002c1565b73ffffffffffffffffffffffffffffffffffffffff1660a08173ffffffffffffffffffffffffffffffffffffffff16815250505050508373ffffffffffffffffffffffffffffffffffffffff1660e08173ffffffffffffffffffffffffffffffffffffffff168152505050505050620002f3565b600080fd5b600073ffffffffffffffffffffffffffffffffffffffff82169050919050565b6000620001dc82620001af565b9050919050565b620001ee81620001cf565b8114620001fa57600080fd5b50565b6000815190506200020e81620001e3565b92915050565b6000819050919050565b620002298162000214565b81146200023557600080fd5b50565b60008151905062000249816200021e565b92915050565b600080600080608085870312156200026c576200026b620001aa565b5b60006200027c87828801620001fd565b94505060206200028f87828801620001fd565b9350506040620002a287828801620001fd565b9250506060620002b58782880162000238565b91505092959194509250565b600060208284031215620002da57620002d9620001aa565b5b6000620002ea84828501620001fd565b91505092915050565b60805160a05160c05160e0516123ba62000373600039600081816105ea015281816108b4015281816109e50152610b3d015260008181610767015281816108880152610ca30152600081816106a601528181610aa10152610bf9015260008181611082015281816110ce01528181611118015261129c01526123ba6000f3fe60806040526004361061011d5760003560e01c806339dcacfe116100a05780639cecc80a116100645780639cecc80a146103be578063b6b55f25146103e7578063c59d484714610403578063c62be1f11461042e578063cd3293de146104595761011d565b806339dcacfe146102de5780635f36a7421461030957806360246c8814610334578063828997561461036857806396c2614c146103935761011d565b80631ba69005116100e75780631ba690051461020b578063233641fa146102345780632e1a7d4d1461025f578063323a5e0b1461028857806336e0004a146102b35761011d565b806263750c14610122578062c2d1431461014d57806305ddb019146101785780631219a7f5146101a357806313cdbcfe146101e0575b600080fd5b34801561012e57600080fd5b50610137610484565b6040516101449190611777565b60405180910390f35b34801561015957600080fd5b50610162610531565b60405161016f9190611777565b60405180910390f35b34801561018457600080fd5b5061018d61054d565b60405161019a9190611777565b60405180910390f35b3480156101af57600080fd5b506101ca60048036038101906101c591906117ff565b610553565b6040516101d79190611777565b60405180910390f35b3480156101ec57600080fd5b506101f56105e5565b6040516102029190611777565b60405180910390f35b34801561021757600080fd5b50610232600480360381019061022d9190611858565b61074e565b005b34801561024057600080fd5b506102496107e6565b6040516102569190611777565b60405180910390f35b34801561026b57600080fd5b5061028660048036038101906102819190611858565b610802565b005b34801561029457600080fd5b5061029d610880565b6040516102aa9190611777565b60405180910390f35b3480156102bf57600080fd5b506102c8610886565b6040516102d59190611894565b60405180910390f35b3480156102ea57600080fd5b506102f36108aa565b6040516103009190611777565b60405180910390f35b34801561031557600080fd5b5061031e6108b0565b60405161032b9190611894565b60405180910390f35b34801561034057600080fd5b50610349610955565b60405161035f9a999897969594939291906118af565b60405180910390f35b34801561037457600080fd5b5061037d6109e0565b60405161038a9190611894565b60405180910390f35b34801561039f57600080fd5b506103a8610b38565b6040516103b59190611777565b60405180910390f35b3480156103ca57600080fd5b506103e560048036038101906103e091906117ff565b610c8a565b005b61040160048036038101906103fc9190611858565b610ded565b005b34801561040f57600080fd5b50610418610e5d565b6040516104259190611777565b60405180910390f35b34801561043a57600080fd5b50610443610e79565b6040516104509190611777565b60405180910390f35b34801561046557600080fd5b5061046e610e83565b60405161047b9190611894565b60405180910390f35b60003373ffffffffffffffffffffffffffffffffffffffff16600460009054906101000a900473ffffffffffffffffffffffffffffffffffffffff1673ffffffffffffffffffffffffffffffffffffffff1614610516576040517f08c379a000000000000000000000000000000000000000000000000000000000815260040161050d906119a8565b60405180910390fd5b60006105206109e0565b905061052b81610ea9565b91505090565b60008061053c6109e0565b905061054781610553565b91505090565b60035481565b60008173ffffffffffffffffffffffffffffffffffffffff166370a08231306040518263ffffffff1660e01b815260040161058e9190611894565b60206040518083038186803b1580156105a657600080fd5b505afa1580156105ba573d6000803e3d6000fd5b505050506040513d601f19601f820116820180604052508101906105de91906119dd565b9050919050565b6000807f000000000000000000000000000000000000000000000000000000000000000073ffffffffffffffffffffffffffffffffffffffff1663026b1d5f6040518163ffffffff1660e01b815260040160206040518083038186803b15801561064e57600080fd5b505afa158015610662573d6000803e3d6000fd5b505050506040513d601f19601f820116820180604052508101906106869190611a1f565b90508073ffffffffffffffffffffffffffffffffffffffff166335ea6a757f00000000000000000000000000000000000000000000000000000000000000006040518263ffffffff1660e01b81526004016106e19190611894565b6101e06040518083038186803b1580156106fa57600080fd5b505afa15801561070e573d6000803e3d6000fd5b505050506040513d601f19601f820116820180604052508101906107329190611d3c565b602001516fffffffffffffffffffffffffffffffff1691505090565b3373ffffffffffffffffffffffffffffffffffffffff167f000000000000000000000000000000000000000000000000000000000000000073ffffffffffffffffffffffffffffffffffffffff16146107dc576040517f08c379a00000000000000000000000000000000000000000000000000000000081526004016107d3906119a8565b60405180910390fd5b8060038190555050565b6000806107f16109e0565b90506107fc81610faa565b91505090565b60026000541415610848576040517f08c379a000000000000000000000000000000000000000000000000000000000815260040161083f90611db6565b60405180910390fd5b6002600081905550600061085a6109e0565b905060006108666108b0565b9050610873818385611062565b5050600160008190555050565b60025481565b7f000000000000000000000000000000000000000000000000000000000000000081565b60015481565b60007f000000000000000000000000000000000000000000000000000000000000000073ffffffffffffffffffffffffffffffffffffffff1663026b1d5f6040518163ffffffff1660e01b815260040160206040518083038186803b15801561091857600080fd5b505afa15801561092c573d6000803e3d6000fd5b505050506040513d601f19601f820116820180604052508101906109509190611a1f565b905090565b600080600080600080600080600080600460009054906101000a900473ffffffffffffffffffffffffffffffffffffffff166001546002546003546109986105e5565b6109a0610b38565b6109a8610531565b6109b0610e79565b6109b86107e6565b6109c06109e0565b995099509950995099509950995099509950995090919293949596979899565b6000807f000000000000000000000000000000000000000000000000000000000000000073ffffffffffffffffffffffffffffffffffffffff1663026b1d5f6040518163ffffffff1660e01b815260040160206040518083038186803b158015610a4957600080fd5b505afa158015610a5d573d6000803e3d6000fd5b505050506040513d601f19601f82011682018060405250810190610a819190611a1f565b90508073ffffffffffffffffffffffffffffffffffffffff166335ea6a757f00000000000000000000000000000000000000000000000000000000000000006040518263ffffffff1660e01b8152600401610adc9190611894565b6101e06040518083038186803b158015610af557600080fd5b505afa158015610b09573d6000803e3d6000fd5b505050506040513d601f19601f82011682018060405250810190610b2d9190611d3c565b610100015191505090565b6000807f000000000000000000000000000000000000000000000000000000000000000073ffffffffffffffffffffffffffffffffffffffff1663026b1d5f6040518163ffffffff1660e01b815260040160206040518083038186803b158015610ba157600080fd5b505afa158015610bb5573d6000803e3d6000fd5b505050506040513d601f19601f82011682018060405250810190610bd99190611a1f565b90508073ffffffffffffffffffffffffffffffffffffffff1663d15e00537f00000000000000000000000000000000000000000000000000000000000000006040518263ffffffff1660e01b8152600401610c349190611894565b60206040518083038186803b158015610c4c57600080fd5b505afa158015610c60573d6000803e3d6000fd5b505050506040513d601f19601f82011682018060405250810190610c8491906119dd565b91505090565b3373ffffffffffffffffffffffffffffffffffffffff167f000000000000000000000000000000000000000000000000000000000000000073ffffffffffffffffffffffffffffffffffffffff1614610d18576040517f08c379a0000000000000000000000000000000000000000000000000000000008152600401610d0f906119a8565b60405180910390fd5b600073ffffffffffffffffffffffffffffffffffffffff16600460009054906101000a900473ffffffffffffffffffffffffffffffffffffffff1673ffffffffffffffffffffffffffffffffffffffff1614610da9576040517f08c379a0000000000000000000000000000000000000000000000000000000008152600401610da090611e22565b60405180910390fd5b80600460006101000a81548173ffffffffffffffffffffffffffffffffffffffff021916908373ffffffffffffffffffffffffffffffffffffffff16021790555050565b60026000541415610e33576040517f08c379a0000000000000000000000000000000000000000000000000000000008152600401610e2a90611db6565b60405180910390fd5b60026000819055506000610e456108b0565b9050610e51818361123b565b50600160008190555050565b600080610e686109e0565b9050610e7381610faa565b91505090565b6000600154905090565b600460009054906101000a900473ffffffffffffffffffffffffffffffffffffffff1681565b6000808273ffffffffffffffffffffffffffffffffffffffff166370a08231306040518263ffffffff1660e01b8152600401610ee59190611894565b60206040518083038186803b158015610efd57600080fd5b505afa158015610f11573d6000803e3d6000fd5b505050506040513d601f19601f82011682018060405250810190610f3591906119dd565b9050600060025482610f479190611e71565b90506000811115610fa057610f9f600460009054906101000a900473ffffffffffffffffffffffffffffffffffffffff16828673ffffffffffffffffffffffffffffffffffffffff166113be9092919063ffffffff16565b5b8092505050919050565b6000808273ffffffffffffffffffffffffffffffffffffffff166370a08231306040518263ffffffff1660e01b8152600401610fe69190611894565b60206040518083038186803b158015610ffe57600080fd5b505afa158015611012573d6000803e3d6000fd5b505050506040513d601f19601f8201168201806040525081019061103691906119dd565b9050600081141561104b57600091505061105d565b600254816110599190611e71565b9150505b919050565b600354600260008282546110769190611e71565b925050819055506110c97f000000000000000000000000000000000000000000000000000000000000000060008473ffffffffffffffffffffffffffffffffffffffff166114449092919063ffffffff16565b6111167f00000000000000000000000000000000000000000000000000000000000000006003548473ffffffffffffffffffffffffffffffffffffffff166114449092919063ffffffff16565b7f000000000000000000000000000000000000000000000000000000000000000073ffffffffffffffffffffffffffffffffffffffff166380500d2084600354336040518463ffffffff1660e01b815260040161117593929190611ea5565b600060405180830381600087803b15801561118f57600080fd5b505af11580156111a3573d6000803e3d6000fd5b50505050600460009054906101000a900473ffffffffffffffffffffffffffffffffffffffff1673ffffffffffffffffffffffffffffffffffffffff1663ecb61ea133836040518363ffffffff1660e01b8152600401611204929190611edc565b600060405180830381600087803b15801561121e57600080fd5b505af1158015611232573d6000803e3d6000fd5b50505050505050565b600354341461127f576040517f08c379a000000000000000000000000000000000000000000000000000000000815260040161127690611f77565b60405180910390fd5b600354600260008282546112939190611f97565b925050819055507f000000000000000000000000000000000000000000000000000000000000000073ffffffffffffffffffffffffffffffffffffffff1663474cf53d34843060006040518563ffffffff1660e01b81526004016112f993929190612032565b6000604051808303818588803b15801561131257600080fd5b505af1158015611326573d6000803e3d6000fd5b5050505050600460009054906101000a900473ffffffffffffffffffffffffffffffffffffffff1673ffffffffffffffffffffffffffffffffffffffff166396074e7033836040518363ffffffff1660e01b8152600401611388929190611edc565b600060405180830381600087803b1580156113a257600080fd5b505af11580156113b6573d6000803e3d6000fd5b505050505050565b61143f8363a9059cbb60e01b84846040516024016113dd929190611edc565b604051602081830303815290604052907bffffffffffffffffffffffffffffffffffffffffffffffffffffffff19166020820180517bffffffffffffffffffffffffffffffffffffffffffffffffffffffff83818316178352505050506115a2565b505050565b60008114806114dd575060008373ffffffffffffffffffffffffffffffffffffffff1663dd62ed3e30856040518363ffffffff1660e01b815260040161148b929190612069565b60206040518083038186803b1580156114a357600080fd5b505afa1580156114b7573d6000803e3d6000fd5b505050506040513d601f19601f820116820180604052508101906114db91906119dd565b145b61151c576040517f08c379a000000000000000000000000000000000000000000000000000000000815260040161151390612104565b60405180910390fd5b61159d8363095ea7b360e01b848460405160240161153b929190611edc565b604051602081830303815290604052907bffffffffffffffffffffffffffffffffffffffffffffffffffffffff19166020820180517bffffffffffffffffffffffffffffffffffffffffffffffffffffffff83818316178352505050506115a2565b505050565b6115c18273ffffffffffffffffffffffffffffffffffffffff16611713565b611600576040517f08c379a00000000000000000000000000000000000000000000000000000000081526004016115f790612170565b60405180910390fd5b6000808373ffffffffffffffffffffffffffffffffffffffff1683604051611628919061220a565b6000604051808303816000865af19150503d8060008114611665576040519150601f19603f3d011682016040523d82523d6000602084013e61166a565b606091505b5091509150816116af576040517f08c379a00000000000000000000000000000000000000000000000000000000081526004016116a69061226d565b60405180910390fd5b60008151111561170d57808060200190518101906116cd91906122c5565b61170c576040517f08c379a000000000000000000000000000000000000000000000000000000000815260040161170390612364565b60405180910390fd5b5b50505050565b60008060007fc5d2460186f7233c927e7db2dcc703c0e500b653ca82273b7bfad8045d85a47060001b9050833f915080821415801561175557506000801b8214155b92505050919050565b6000819050919050565b6117718161175e565b82525050565b600060208201905061178c6000830184611768565b92915050565b6000604051905090565b600080fd5b600073ffffffffffffffffffffffffffffffffffffffff82169050919050565b60006117cc826117a1565b9050919050565b6117dc816117c1565b81146117e757600080fd5b50565b6000813590506117f9816117d3565b92915050565b6000602082840312156118155761181461179c565b5b6000611823848285016117ea565b91505092915050565b6118358161175e565b811461184057600080fd5b50565b6000813590506118528161182c565b92915050565b60006020828403121561186e5761186d61179c565b5b600061187c84828501611843565b91505092915050565b61188e816117c1565b82525050565b60006020820190506118a96000830184611885565b92915050565b6000610140820190506118c5600083018d611885565b6118d2602083018c611768565b6118df604083018b611768565b6118ec606083018a611768565b6118f96080830189611768565b61190660a0830188611768565b61191360c0830187611768565b61192060e0830186611768565b61192e610100830185611768565b61193c610120830184611885565b9b9a5050505050505050505050565b600082825260208201905092915050565b7f6e6f7420746865206f776e657200000000000000000000000000000000000000600082015250565b6000611992600d8361194b565b915061199d8261195c565b602082019050919050565b600060208201905081810360008301526119c181611985565b9050919050565b6000815190506119d78161182c565b92915050565b6000602082840312156119f3576119f261179c565b5b6000611a01848285016119c8565b91505092915050565b600081519050611a19816117d3565b92915050565b600060208284031215611a3557611a3461179c565b5b6000611a4384828501611a0a565b91505092915050565b600080fd5b6000601f19601f8301169050919050565b7f4e487b7100000000000000000000000000000000000000000000000000000000600052604160045260246000fd5b611a9a82611a51565b810181811067ffffffffffffffff82111715611ab957611ab8611a62565b5b80604052505050565b6000611acc611792565b9050611ad88282611a91565b919050565b600060208284031215611af357611af2611a4c565b5b611afd6020611ac2565b90506000611b0d848285016119c8565b60008301525092915050565b60006fffffffffffffffffffffffffffffffff82169050919050565b611b3e81611b19565b8114611b4957600080fd5b50565b600081519050611b5b81611b35565b92915050565b600064ffffffffff82169050919050565b611b7b81611b61565b8114611b8657600080fd5b50565b600081519050611b9881611b72565b92915050565b600061ffff82169050919050565b611bb581611b9e565b8114611bc057600080fd5b50565b600081519050611bd281611bac565b92915050565b60006101e08284031215611bef57611bee611a4c565b5b611bfa6101e0611ac2565b90506000611c0a84828501611add565b6000830152506020611c1e84828501611b4c565b6020830152506040611c3284828501611b4c565b6040830152506060611c4684828501611b4c565b6060830152506080611c5a84828501611b4c565b60808301525060a0611c6e84828501611b4c565b60a08301525060c0611c8284828501611b89565b60c08301525060e0611c9684828501611bc3565b60e083015250610100611cab84828501611a0a565b61010083015250610120611cc184828501611a0a565b61012083015250610140611cd784828501611a0a565b61014083015250610160611ced84828501611a0a565b61016083015250610180611d0384828501611b4c565b610180830152506101a0611d1984828501611b4c565b6101a0830152506101c0611d2f84828501611b4c565b6101c08301525092915050565b60006101e08284031215611d5357611d5261179c565b5b6000611d6184828501611bd8565b91505092915050565b7f5265656e7472616e637947756172643a207265656e7472616e742063616c6c00600082015250565b6000611da0601f8361194b565b9150611dab82611d6a565b602082019050919050565b60006020820190508181036000830152611dcf81611d93565b9050919050565b7f7265736572766520616c72656164792073657400000000000000000000000000600082015250565b6000611e0c60138361194b565b9150611e1782611dd6565b602082019050919050565b60006020820190508181036000830152611e3b81611dff565b9050919050565b7f4e487b7100000000000000000000000000000000000000000000000000000000600052601160045260246000fd5b6000611e7c8261175e565b9150611e878361175e565b925082821015611e9a57611e99611e42565b5b828203905092915050565b6000606082019050611eba6000830186611885565b611ec76020830185611768565b611ed46040830184611885565b949350505050565b6000604082019050611ef16000830185611885565b611efe6020830184611768565b9392505050565b7f76616c75652073656e74206d75737420626520657175616c20746f207072656d60008201527f69756d206465706f736974000000000000000000000000000000000000000000602082015250565b6000611f61602b8361194b565b9150611f6c82611f05565b604082019050919050565b60006020820190508181036000830152611f9081611f54565b9050919050565b6000611fa28261175e565b9150611fad8361175e565b9250827fffffffffffffffffffffffffffffffffffffffffffffffffffffffffffffffff03821115611fe257611fe1611e42565b5b828201905092915050565b6000819050919050565b6000819050919050565b600061201c61201761201284611fed565b611ff7565b611b9e565b9050919050565b61202c81612001565b82525050565b60006060820190506120476000830186611885565b6120546020830185611885565b6120616040830184612023565b949350505050565b600060408201905061207e6000830185611885565b61208b6020830184611885565b9392505050565b7f5361666545524332303a20617070726f76652066726f6d206e6f6e2d7a65726f60008201527f20746f206e6f6e2d7a65726f20616c6c6f77616e636500000000000000000000602082015250565b60006120ee60368361194b565b91506120f982612092565b604082019050919050565b6000602082019050818103600083015261211d816120e1565b9050919050565b7f5361666545524332303a2063616c6c20746f206e6f6e2d636f6e747261637400600082015250565b600061215a601f8361194b565b915061216582612124565b602082019050919050565b600060208201905081810360008301526121898161214d565b9050919050565b600081519050919050565b600081905092915050565b60005b838110156121c45780820151818401526020810190506121a9565b838111156121d3576000848401525b50505050565b60006121e482612190565b6121ee818561219b565b93506121fe8185602086016121a6565b80840191505092915050565b600061221682846121d9565b915081905092915050565b7f5361666545524332303a206c6f772d6c6576656c2063616c6c206661696c6564600082015250565b600061225760208361194b565b915061226282612221565b602082019050919050565b600060208201905081810360008301526122868161224a565b9050919050565b60008115159050919050565b6122a28161228d565b81146122ad57600080fd5b50565b6000815190506122bf81612299565b92915050565b6000602082840312156122db576122da61179c565b5b60006122e9848285016122b0565b91505092915050565b7f5361666545524332303a204552433230206f7065726174696f6e20646964206e60008201527f6f74207375636365656400000000000000000000000000000000000000000000602082015250565b600061234e602a8361194b565b9150612359826122f2565b604082019050919050565b6000602082019050818103600083015261237d81612341565b905091905056fea26469706673582212208a8aea48c88faedf74f11595e3b0912f56caedb7ecebfb34fb210222909325f764736f6c63430008090033",
  "immutableReferences": {
    "311": [
      {
        "length": 32,
        "start": 1514
      },
      {
        "length": 32,
        "start": 2228
      },
      {
        "length": 32,
        "start": 2533
      },
      {
        "length": 32,
        "start": 2877
      }
    ],
    "595": [
      {
        "length": 32,
        "start": 4226
      },
      {
        "length": 32,
        "start": 4302
      },
      {
        "length": 32,
        "start": 4376
      },
      {
        "length": 32,
        "start": 4764
      }
    ],
    "597": [
      {
        "length": 32,
        "start": 1702
      },
      {
        "length": 32,
        "start": 2721
      },
      {
        "length": 32,
        "start": 3065
      }
    ],
    "601": [
      {
        "length": 32,
        "start": 1895
      },
      {
        "length": 32,
        "start": 2184
      },
      {
        "length": 32,
        "start": 3235
      }
    ]
  },
  "source": "// SPDX-License-Identifier: MIT\npragma solidity 0.8.9;\n\nimport { IPool} from './interfaces/aave/IPool.sol';\nimport { IPoolAddressesProvider} from './interfaces/aave/IPoolAddressesProvider.sol';\nimport { PremiumGeneratorCore } from './PremiumGeneratorCore.sol';\nimport \"@openzeppelin/contracts/security/ReentrancyGuard.sol\";\n\n/**\n * @title PremiumGenerator contract\n * @author smeee\n * This is a contract for lossless insurance premiums using Aave v3\n\n   Aave is used to generate interest for insurance applications\n\n   Beneficiaries deposit tokens into PremiumGenerator which deposit\n   them into Aave lending protocol\n\n   The interest earned is directed to the reserve associated with\n   the PremiumGenerator\n\n   Beneficiaries can claim their funds (and terminate their policy) at any time.\n\n   Functions withdraw() and withdrawInterest() directly call the aave Pool\n\n   Deposits are done through the Reserve contract to minimize approvals for ERC20's\n\n * @dev To be covered by a proxy contract\n * @dev deposits, withdraws, withdrawInterest controlled by the Reserve contract\n **/\n\ncontract PremiumGeneratorAaveV3 is ReentrancyGuard, PremiumGeneratorCore {\n\n    address immutable poolAddressesProviderAddr;\n\n    /**\n   * @dev Constructor.\n   */\n    constructor(\n        address _poolAddressesProviderAddr,\n        address _multiSig,\n        address _wethGatewayAddr,\n        uint _premiumDeposit\n    ) PremiumGeneratorCore(\n        _multiSig,\n        _wethGatewayAddr,\n        _premiumDeposit\n    ){\n        poolAddressesProviderAddr = _poolAddressesProviderAddr;\n    }\n\n    /**\n    * @notice Only called by non-beneficiaries\n    * @dev Function updates total deposits.\n    **/\n    function deposit(uint _validatorIndex) nonReentrant external payable{\n        address poolAddr = getLendingPoolAddress();\n        _deposit(poolAddr, _validatorIndex);\n    }\n\n    /**\n    * @notice Only called by Beneficiary reserve tokens for beneficiary.\n    **/\n    function withdraw(uint _validatorIndex) external nonReentrant {\n        address aTokenAddress = getATokenAddress();\n        address poolAddr = getLendingPoolAddress();\n        _withdraw(poolAddr, aTokenAddress, _validatorIndex);\n    }\n\n    /**\n    * @dev Function claims interest for reserve. Calls Aave pools exchanging this\n    * contracts aTokens for reserve tokens for interestEarned amount.\n    **/\n    function withdrawInterest()external onlyReserve returns(uint256){\n        address aTokenAddress = getATokenAddress();\n        return _withdrawInterest(aTokenAddress);\n    }\n\n\n    /**\n    * @return poolAddr AAVE lending pool address\n    **/\n    function getLendingPoolAddress() public view returns(address poolAddr){\n        return IPoolAddressesProvider(poolAddressesProviderAddr).getPool();\n    }\n\n    /**\n    * @return aTokenAddress address of Aave's V3 aToken for aWETH\n    **/\n    function getATokenAddress() public view returns(address aTokenAddress){\n        address poolAddr = IPoolAddressesProvider(poolAddressesProviderAddr).getPool();\n        return IPool(poolAddr).getReserveData(wethAddress).aTokenAddress;\n    }\n\n    /**\n    * @return unclaimedInterest accrued interest that has not yet been claimed\n    **/\n    function getUnclaimedInterest() public view returns (uint256){\n        address aTokenAddress = getATokenAddress();\n        return _getUnclaimedInterest(aTokenAddress);\n    }\n\n    function getStats() public view returns (uint256){\n        address aTokenAddress = getATokenAddress();\n        return _getUnclaimedInterest(aTokenAddress);\n    }\n\n    /**\n    * @return aTokenBalance Pool balance of aToken for the asset\n    **/\n    function getATokenBalance() public view returns (uint256){\n        address aTokenAddress = getATokenAddress();\n        return _getATokenBalance(aTokenAddress);\n    }\n\n    /**\n    * @return normalizedIncome reserve's normalized income\n    */\n    function getReserveNormalizedIncome() public view returns(uint256){\n        address poolAddr = IPoolAddressesProvider(poolAddressesProviderAddr).getPool();\n        return IPool(poolAddr).getReserveNormalizedIncome(wethAddress);\n    }\n\n    /**\n    * @return liquidityIndex reserve's liquidity index\n    */\n    function getAaveLiquidityIndex() public view returns(uint256 liquidityIndex){\n        address poolAddr = IPoolAddressesProvider(poolAddressesProviderAddr).getPool();\n        liquidityIndex = IPool(poolAddr).getReserveData(wethAddress).liquidityIndex;\n    }\n\n    /**\n    * @notice Returns asset specific pool information\n    * @return reserve address of reserve\n    * @return interestWithdrawn amount of interest withdrawn\n    * @return deposits amount of ETH/WETH deposited in contract\n    * @return premiumDeposit amount of ETH required for a deposit\n    * @return liquidityIndex reserve's liquidity index\n    * @return normalizedIncome reserve's normalized income\n    * @return aTokenBalance Pool balance of aToken for the asset\n    * @return claimedInterest interest that has been claimed (no longer in contract)\n    * @return unclaimedInterest accrued interest that has not yet been claimed\n    * @return aTokenAddress address of Aave's aToken for asset\n    */\n    function getPoolInfo() external view returns(address, uint256, uint256, uint256, uint256, uint256, uint256, uint256, uint256, address){\n        return(reserve, interestWithdrawn, deposits, premiumDeposit, getAaveLiquidityIndex(),\n                getReserveNormalizedIncome(), getATokenBalance(), getClaimedInterest(),\n                getUnclaimedInterest(), getATokenAddress());\n    }\n}",
  "sourcePath": "/home/smeee/projects/slashing_insurance/contracts/contracts/PremiumGeneratorAaveV3.sol",
  "compiler": {
    "name": "solc",
    "version": "0.8.9+commit.e5eed63a.Emscripten.clang"
  },
  "schemaVersion": "3.4.7",
  "updatedAt": "2023-06-04T01:38:37.744Z",
  "devdoc": {
    "author": "smeee This is a contract for lossless insurance premiums using Aave v3 Aave is used to generate interest for insurance applications Beneficiaries deposit tokens into PremiumGenerator which deposit them into Aave lending protocol The interest earned is directed to the reserve associated with the PremiumGenerator Beneficiaries can claim their funds (and terminate their policy) at any time. Functions withdraw() and withdrawInterest() directly call the aave Pool Deposits are done through the Reserve contract to minimize approvals for ERC20's",
    "details": "To be covered by a proxy contractdeposits, withdraws, withdrawInterest controlled by the Reserve contract*",
    "kind": "dev",
    "methods": {
      "_getATokenBalance(address)": {
        "returns": {
          "_0": "aTokenBalance Pool balance of aToken for the asset*"
        }
      },
      "constructor": {
        "details": "Constructor."
      },
      "deposit(uint256)": {
        "details": "Function updates total deposits.*"
      },
      "getATokenAddress()": {
        "returns": {
          "aTokenAddress": "address of Aave's V3 aToken for aWETH*"
        }
      },
      "getATokenBalance()": {
        "returns": {
          "_0": "aTokenBalance Pool balance of aToken for the asset*"
        }
      },
      "getAaveLiquidityIndex()": {
        "returns": {
          "liquidityIndex": "reserve's liquidity index"
        }
      },
      "getClaimedInterest()": {
        "returns": {
          "_0": "claimedInterest interest that has been claimed (no longer in contract)*"
        }
      },
      "getLendingPoolAddress()": {
        "returns": {
          "poolAddr": "AAVE lending pool address*"
        }
      },
      "getPoolInfo()": {
        "returns": {
          "_0": "reserve address of reserve",
          "_1": "interestWithdrawn amount of interest withdrawn",
          "_2": "deposits amount of ETH/WETH deposited in contract",
          "_3": "premiumDeposit amount of ETH required for a deposit",
          "_4": "liquidityIndex reserve's liquidity index",
          "_5": "normalizedIncome reserve's normalized income",
          "_6": "aTokenBalance Pool balance of aToken for the asset",
          "_7": "claimedInterest interest that has been claimed (no longer in contract)",
          "_8": "unclaimedInterest accrued interest that has not yet been claimed",
          "_9": "aTokenAddress address of Aave's aToken for asset"
        }
      },
      "getReserveNormalizedIncome()": {
        "returns": {
          "_0": "normalizedIncome reserve's normalized income"
        }
      },
      "getUnclaimedInterest()": {
        "returns": {
          "_0": "unclaimedInterest accrued interest that has not yet been claimed*"
        }
      },
      "setPremiumDeposit(uint256)": {
        "details": "Function claims interest for reserve. Calls Aave pools exchanging this contracts aTokens for reserve tokens for interestEarned amount.*"
      },
      "setReserve(address)": {
        "params": {
          "_reserve": "address of reserve.*"
        }
      },
      "withdrawInterest()": {
        "details": "Function claims interest for reserve. Calls Aave pools exchanging this contracts aTokens for reserve tokens for interestEarned amount.*"
      }
    },
    "title": "PremiumGenerator contract",
    "version": 1
  },
  "userdoc": {
    "kind": "user",
    "methods": {
      "deposit(uint256)": {
        "notice": "Only called by non-beneficiaries"
      },
      "getPoolInfo()": {
        "notice": "Returns asset specific pool information"
      },
      "setPremiumDeposit(uint256)": {
        "notice": "Only called by Reserve."
      },
      "withdraw(uint256)": {
        "notice": "Only called by Beneficiary reserve tokens for beneficiary.*"
      }
    },
    "version": 1
  }
}