{
  "contractName": "ProtocolDataProviderMock",
  "abi": [
    {
      "inputs": [
        {
          "internalType": "address",
          "name": "_aWETH",
          "type": "address"
        }
      ],
      "stateMutability": "nonpayable",
      "type": "constructor"
    },
    {
      "inputs": [
        {
          "internalType": "address",
          "name": "_asset",
          "type": "address"
        }
      ],
      "name": "getReserveData",
      "outputs": [
        {
          "internalType": "uint256",
          "name": "availableLiquidity",
          "type": "uint256"
        },
        {
          "internalType": "uint256",
          "name": "totalStableDebt",
          "type": "uint256"
        },
        {
          "internalType": "uint256",
          "name": "totalVariableDebt",
          "type": "uint256"
        },
        {
          "internalType": "uint256",
          "name": "liquidityRate",
          "type": "uint256"
        },
        {
          "internalType": "uint256",
          "name": "variableBorrowRate",
          "type": "uint256"
        },
        {
          "internalType": "uint256",
          "name": "stableBorrowRate",
          "type": "uint256"
        },
        {
          "internalType": "uint256",
          "name": "averageStableBorrowRate",
          "type": "uint256"
        },
        {
          "internalType": "uint256",
          "name": "liquidityIndex",
          "type": "uint256"
        },
        {
          "internalType": "uint256",
          "name": "variableBorrowIndex",
          "type": "uint256"
        },
        {
          "internalType": "uint40",
          "name": "lastUpdateTimestamp",
          "type": "uint40"
        }
      ],
      "stateMutability": "view",
      "type": "function"
    },
    {
      "inputs": [
        {
          "internalType": "address",
          "name": "_asset",
          "type": "address"
        }
      ],
      "name": "getReserveTokensAddresses",
      "outputs": [
        {
          "internalType": "address",
          "name": "",
          "type": "address"
        },
        {
          "internalType": "address",
          "name": "",
          "type": "address"
        },
        {
          "internalType": "address",
          "name": "",
          "type": "address"
        }
      ],
      "stateMutability": "view",
      "type": "function"
    }
  ],
  "bytecode": "0x608060405234801561001057600080fd5b5060405161041f38038061041f833981810160405281019061003291906100db565b806000806101000a81548173ffffffffffffffffffffffffffffffffffffffff021916908373ffffffffffffffffffffffffffffffffffffffff16021790555050610108565b600080fd5b600073ffffffffffffffffffffffffffffffffffffffff82169050919050565b60006100a88261007d565b9050919050565b6100b88161009d565b81146100c357600080fd5b50565b6000815190506100d5816100af565b92915050565b6000602082840312156100f1576100f0610078565b5b60006100ff848285016100c6565b91505092915050565b610308806101176000396000f3fe608060405234801561001057600080fd5b50600436106100365760003560e01c806335ea6a751461003b578063d2493b6c14610074575b600080fd5b6100556004803603810190610050919061018a565b6100a6565b60405161006b9a999897969594939291906101f0565b60405180910390f35b61008e6004803603810190610089919061018a565b6100ee565b60405161009d9392919061029b565b60405180910390f35b600080600080600080600080600080309a50600099506000985060009750600096506000955060009450600093506104d2925060009150600090509193959799509193959799565b600080600030935060008054906101000a900473ffffffffffffffffffffffffffffffffffffffff166000809250925092509193909250565b600080fd5b600073ffffffffffffffffffffffffffffffffffffffff82169050919050565b60006101578261012c565b9050919050565b6101678161014c565b811461017257600080fd5b50565b6000813590506101848161015e565b92915050565b6000602082840312156101a05761019f610127565b5b60006101ae84828501610175565b91505092915050565b6000819050919050565b6101ca816101b7565b82525050565b600064ffffffffff82169050919050565b6101ea816101d0565b82525050565b600061014082019050610206600083018d6101c1565b610213602083018c6101c1565b610220604083018b6101c1565b61022d606083018a6101c1565b61023a60808301896101c1565b61024760a08301886101c1565b61025460c08301876101c1565b61026160e08301866101c1565b61026f6101008301856101c1565b61027d6101208301846101e1565b9b9a5050505050505050505050565b6102958161014c565b82525050565b60006060820190506102b0600083018661028c565b6102bd602083018561028c565b6102ca604083018461028c565b94935050505056fea264697066735822122016f5e9c0d9e9b69f36a57bcdffc5238d578e983a470d85578bbe444fbc7bf9b464736f6c63430008090033",
  "immutableReferences": {},
  "source": "// SPDX-License-Identifier: AGPL-3.0\npragma solidity 0.8.9;\n\ncontract ProtocolDataProviderMock {\n  address aWETH;\n\n  constructor(address _aWETH) {\n    aWETH = _aWETH;\n  }\n\n  function getReserveData(address _asset) external view returns (uint256 availableLiquidity, uint256 totalStableDebt, uint256 totalVariableDebt, uint256 liquidityRate, uint256 variableBorrowRate, uint256 stableBorrowRate, uint256 averageStableBorrowRate, uint256 liquidityIndex, uint256 variableBorrowIndex, uint40 lastUpdateTimestamp){\n    _asset = address(this);\n    availableLiquidity = 0;\n    totalStableDebt =0;\n    totalVariableDebt = 0;\n    liquidityRate = 0;\n    variableBorrowRate = 0;\n    stableBorrowRate = 0;\n    averageStableBorrowRate = 0;\n    liquidityIndex = 1234;\n    variableBorrowIndex = 0;\n    lastUpdateTimestamp = 0;\n}\nfunction getReserveTokensAddresses(address _asset) external view returns(address, address, address) {\n  _asset = address(this);\n  return (aWETH, address(0), address(0));\n}\n\n}",
  "sourcePath": "/home/smeee/projects/slashing_insurance/contracts/test/ProtocolDataProviderMock.sol",
  "compiler": {
    "name": "solc",
    "version": "0.8.9+commit.e5eed63a.Emscripten.clang"
  },
  "schemaVersion": "3.4.7",
  "updatedAt": "2023-05-21T01:21:52.041Z",
  "networkType": "ethereum",
  "devdoc": {
    "kind": "dev",
    "methods": {},
    "version": 1
  },
  "userdoc": {
    "kind": "user",
    "methods": {},
    "version": 1
  }
}