{
  "contractName": "Reserve",
  "abi": [
    {
      "inputs": [
        {
          "internalType": "address",
          "name": "_multiSig",
          "type": "address"
        },
        {
          "internalType": "address",
          "name": "_generatorPool",
          "type": "address"
        },
        {
          "internalType": "address",
          "name": "_wethGatewayAddr",
          "type": "address"
        },
        {
          "internalType": "uint256",
          "name": "_minimumProvide",
          "type": "uint256"
        },
        {
          "internalType": "uint256",
          "name": "_minimumReserve",
          "type": "uint256"
        },
        {
          "internalType": "uint256",
          "name": "_maxClaim",
          "type": "uint256"
        },
        {
          "internalType": "address",
          "name": "_oracle",
          "type": "address"
        },
        {
          "internalType": "address",
          "name": "_oracleGateway",
          "type": "address"
        }
      ],
      "stateMutability": "nonpayable",
      "type": "constructor"
    },
    {
      "anonymous": false,
      "inputs": [
        {
          "indexed": false,
          "internalType": "uint256",
          "name": "validatorIndex",
          "type": "uint256"
        },
        {
          "indexed": false,
          "internalType": "address",
          "name": "withdrawAddress",
          "type": "address"
        }
      ],
      "name": "AcceptClaim",
      "type": "event"
    },
    {
      "anonymous": false,
      "inputs": [
        {
          "indexed": false,
          "internalType": "uint256",
          "name": "validatorIndex",
          "type": "uint256"
        },
        {
          "indexed": false,
          "internalType": "address",
          "name": "withdrawAddress",
          "type": "address"
        }
      ],
      "name": "AddBeneficiary",
      "type": "event"
    },
    {
      "anonymous": false,
      "inputs": [
        {
          "indexed": false,
          "internalType": "uint256",
          "name": "validatorIndex",
          "type": "uint256"
        },
        {
          "indexed": false,
          "internalType": "address",
          "name": "withdrawAddress",
          "type": "address"
        }
      ],
      "name": "ApproveApplication",
      "type": "event"
    },
    {
      "anonymous": false,
      "inputs": [
        {
          "indexed": false,
          "internalType": "uint256",
          "name": "validatorIndex",
          "type": "uint256"
        },
        {
          "indexed": false,
          "internalType": "address",
          "name": "withdrawAddress",
          "type": "address"
        },
        {
          "indexed": false,
          "internalType": "uint8",
          "name": "reason",
          "type": "uint8"
        }
      ],
      "name": "DenyApplication",
      "type": "event"
    },
    {
      "anonymous": false,
      "inputs": [
        {
          "indexed": false,
          "internalType": "uint256",
          "name": "validatorIndex",
          "type": "uint256"
        },
        {
          "indexed": false,
          "internalType": "address",
          "name": "withdrawAddress",
          "type": "address"
        },
        {
          "indexed": false,
          "internalType": "uint8",
          "name": "reason",
          "type": "uint8"
        }
      ],
      "name": "DenyClaim",
      "type": "event"
    },
    {
      "anonymous": false,
      "inputs": [
        {
          "indexed": false,
          "internalType": "uint256",
          "name": "validatorIndex",
          "type": "uint256"
        }
      ],
      "name": "MakeClaim",
      "type": "event"
    },
    {
      "anonymous": false,
      "inputs": [
        {
          "indexed": false,
          "internalType": "address",
          "name": "beneficiary",
          "type": "address"
        },
        {
          "indexed": false,
          "internalType": "uint256",
          "name": "amount",
          "type": "uint256"
        },
        {
          "indexed": false,
          "internalType": "uint8",
          "name": "result",
          "type": "uint8"
        }
      ],
      "name": "ProcessClaim",
      "type": "event"
    },
    {
      "anonymous": false,
      "inputs": [
        {
          "indexed": false,
          "internalType": "address",
          "name": "depositor",
          "type": "address"
        },
        {
          "indexed": false,
          "internalType": "uint256",
          "name": "ethAmount",
          "type": "uint256"
        }
      ],
      "name": "ProvideInsurance",
      "type": "event"
    },
    {
      "anonymous": false,
      "inputs": [
        {
          "indexed": false,
          "internalType": "uint256",
          "name": "validatorIndex",
          "type": "uint256"
        },
        {
          "indexed": false,
          "internalType": "address",
          "name": "withdrawAddress",
          "type": "address"
        }
      ],
      "name": "WithdrawBeneficiary",
      "type": "event"
    },
    {
      "anonymous": false,
      "inputs": [
        {
          "indexed": false,
          "internalType": "address",
          "name": "depositor",
          "type": "address"
        },
        {
          "indexed": false,
          "internalType": "uint256",
          "name": "ethAmount",
          "type": "uint256"
        },
        {
          "indexed": false,
          "internalType": "uint256",
          "name": "sliETHAmount",
          "type": "uint256"
        }
      ],
      "name": "WithdrawInsurance",
      "type": "event"
    },
    {
      "stateMutability": "payable",
      "type": "fallback"
    },
    {
      "inputs": [],
      "name": "APPLY_WINDOW",
      "outputs": [
        {
          "internalType": "uint256",
          "name": "",
          "type": "uint256"
        }
      ],
      "stateMutability": "view",
      "type": "function"
    },
    {
      "inputs": [],
      "name": "WAIT_PERIOD",
      "outputs": [
        {
          "internalType": "uint256",
          "name": "",
          "type": "uint256"
        }
      ],
      "stateMutability": "view",
      "type": "function"
    },
    {
      "inputs": [],
      "name": "generatorPool",
      "outputs": [
        {
          "internalType": "address",
          "name": "",
          "type": "address"
        }
      ],
      "stateMutability": "view",
      "type": "function"
    },
    {
      "inputs": [],
      "name": "maxClaim",
      "outputs": [
        {
          "internalType": "uint256",
          "name": "",
          "type": "uint256"
        }
      ],
      "stateMutability": "view",
      "type": "function"
    },
    {
      "inputs": [],
      "name": "minimumProvide",
      "outputs": [
        {
          "internalType": "uint256",
          "name": "",
          "type": "uint256"
        }
      ],
      "stateMutability": "view",
      "type": "function"
    },
    {
      "inputs": [],
      "name": "minimumReserve",
      "outputs": [
        {
          "internalType": "uint256",
          "name": "",
          "type": "uint256"
        }
      ],
      "stateMutability": "view",
      "type": "function"
    },
    {
      "inputs": [],
      "name": "multiSig",
      "outputs": [
        {
          "internalType": "address",
          "name": "",
          "type": "address"
        }
      ],
      "stateMutability": "view",
      "type": "function"
    },
    {
      "inputs": [],
      "name": "oracleGateway",
      "outputs": [
        {
          "internalType": "address",
          "name": "",
          "type": "address"
        }
      ],
      "stateMutability": "view",
      "type": "function"
    },
    {
      "stateMutability": "payable",
      "type": "receive"
    },
    {
      "inputs": [],
      "name": "provideInsurance",
      "outputs": [],
      "stateMutability": "payable",
      "type": "function"
    },
    {
      "inputs": [
        {
          "internalType": "uint256",
          "name": "_sliETHAmount",
          "type": "uint256"
        }
      ],
      "name": "withdrawInsurance",
      "outputs": [],
      "stateMutability": "nonpayable",
      "type": "function"
    },
    {
      "inputs": [
        {
          "internalType": "uint256",
          "name": "_validatorIndex",
          "type": "uint256"
        }
      ],
      "name": "applyForCoverage",
      "outputs": [],
      "stateMutability": "nonpayable",
      "type": "function"
    },
    {
      "inputs": [
        {
          "internalType": "address",
          "name": "_withdrawAddress",
          "type": "address"
        },
        {
          "internalType": "uint256",
          "name": "_validatorIndex",
          "type": "uint256"
        }
      ],
      "name": "addBeneficiary",
      "outputs": [],
      "stateMutability": "nonpayable",
      "type": "function"
    },
    {
      "inputs": [
        {
          "internalType": "uint256",
          "name": "_validatorIndex",
          "type": "uint256"
        },
        {
          "internalType": "uint8",
          "name": "_slashed",
          "type": "uint8"
        },
        {
          "internalType": "address",
          "name": "_withdrawAddress",
          "type": "address"
        },
        {
          "internalType": "uint256",
          "name": "_loss",
          "type": "uint256"
        }
      ],
      "name": "oracleResponse",
      "outputs": [],
      "stateMutability": "nonpayable",
      "type": "function"
    },
    {
      "inputs": [
        {
          "internalType": "uint256",
          "name": "_validatorIndex",
          "type": "uint256"
        }
      ],
      "name": "makeClaim",
      "outputs": [],
      "stateMutability": "nonpayable",
      "type": "function"
    },
    {
      "inputs": [
        {
          "internalType": "uint256",
          "name": "_validatorIndex",
          "type": "uint256"
        }
      ],
      "name": "payClaim",
      "outputs": [],
      "stateMutability": "nonpayable",
      "type": "function"
    },
    {
      "inputs": [
        {
          "internalType": "uint256",
          "name": "_validatorIndex",
          "type": "uint256"
        }
      ],
      "name": "denyClaim",
      "outputs": [],
      "stateMutability": "nonpayable",
      "type": "function"
    },
    {
      "inputs": [
        {
          "internalType": "uint256",
          "name": "_validatorIndex",
          "type": "uint256"
        }
      ],
      "name": "pauseClaim",
      "outputs": [],
      "stateMutability": "nonpayable",
      "type": "function"
    },
    {
      "inputs": [
        {
          "internalType": "uint256",
          "name": "_validatorIndex",
          "type": "uint256"
        }
      ],
      "name": "unpauseClaim",
      "outputs": [],
      "stateMutability": "nonpayable",
      "type": "function"
    },
    {
      "inputs": [
        {
          "internalType": "uint256",
          "name": "_validatorIndex",
          "type": "uint256"
        }
      ],
      "name": "resetClaim",
      "outputs": [],
      "stateMutability": "nonpayable",
      "type": "function"
    },
    {
      "inputs": [
        {
          "internalType": "address",
          "name": "_withdrawAddress",
          "type": "address"
        },
        {
          "internalType": "uint256",
          "name": "_validatorIndex",
          "type": "uint256"
        }
      ],
      "name": "withdrawBeneficiary",
      "outputs": [],
      "stateMutability": "nonpayable",
      "type": "function"
    },
    {
      "inputs": [],
      "name": "getSlashingInsuranceETHAddress",
      "outputs": [
        {
          "internalType": "address",
          "name": "",
          "type": "address"
        }
      ],
      "stateMutability": "view",
      "type": "function"
    },
    {
      "inputs": [
        {
          "internalType": "address",
          "name": "_depositor",
          "type": "address"
        }
      ],
      "name": "getSlashingInsuranceETHBalance",
      "outputs": [
        {
          "internalType": "uint256",
          "name": "",
          "type": "uint256"
        }
      ],
      "stateMutability": "view",
      "type": "function"
    },
    {
      "inputs": [
        {
          "internalType": "address",
          "name": "_withdrawAddress",
          "type": "address"
        }
      ],
      "name": "getDepositorValidatorIds",
      "outputs": [
        {
          "internalType": "uint256[]",
          "name": "",
          "type": "uint256[]"
        }
      ],
      "stateMutability": "view",
      "type": "function"
    },
    {
      "inputs": [],
      "name": "getReserveATokenBalance",
      "outputs": [
        {
          "internalType": "uint256",
          "name": "",
          "type": "uint256"
        }
      ],
      "stateMutability": "view",
      "type": "function"
    },
    {
      "inputs": [],
      "name": "getProtocolBalance",
      "outputs": [
        {
          "internalType": "uint256",
          "name": "",
          "type": "uint256"
        }
      ],
      "stateMutability": "view",
      "type": "function"
    },
    {
      "inputs": [],
      "name": "getSliETHTotalSupply",
      "outputs": [
        {
          "internalType": "uint256",
          "name": "",
          "type": "uint256"
        }
      ],
      "stateMutability": "view",
      "type": "function"
    },
    {
      "inputs": [],
      "name": "getSliETHConversion",
      "outputs": [
        {
          "internalType": "uint256",
          "name": "",
          "type": "uint256"
        }
      ],
      "stateMutability": "view",
      "type": "function"
    },
    {
      "inputs": [
        {
          "internalType": "uint256",
          "name": "_validatorIndex",
          "type": "uint256"
        }
      ],
      "name": "getBeneficiaryStatus",
      "outputs": [
        {
          "internalType": "enum ReserveStorage.Status",
          "name": "status",
          "type": "uint8"
        }
      ],
      "stateMutability": "view",
      "type": "function"
    },
    {
      "inputs": [
        {
          "internalType": "uint256",
          "name": "_validatorIndex",
          "type": "uint256"
        }
      ],
      "name": "getValidatorWithdrawAddress",
      "outputs": [
        {
          "internalType": "address",
          "name": "withdrawAddress",
          "type": "address"
        }
      ],
      "stateMutability": "view",
      "type": "function"
    },
    {
      "inputs": [
        {
          "internalType": "uint256",
          "name": "_validatorIndex",
          "type": "uint256"
        }
      ],
      "name": "getBeneficiaryInfo",
      "outputs": [
        {
          "components": [
            {
              "internalType": "enum ReserveStorage.Status",
              "name": "status",
              "type": "uint8"
            },
            {
              "internalType": "address",
              "name": "withdrawAddress",
              "type": "address"
            },
            {
              "internalType": "uint256",
              "name": "claimTimestamp",
              "type": "uint256"
            },
            {
              "internalType": "uint256",
              "name": "applyTimestamp",
              "type": "uint256"
            },
            {
              "internalType": "uint256",
              "name": "loss",
              "type": "uint256"
            }
          ],
          "internalType": "struct ReserveStorage.Beneficiary",
          "name": "",
          "type": "tuple"
        }
      ],
      "stateMutability": "view",
      "type": "function"
    }
  ],
  "bytecode": "0x6101006040523480156200001257600080fd5b5060405162007337380380620073378339818101604052810190620000389190620002b3565b8787878787878787878787878787878760016000819055508773ffffffffffffffffffffffffffffffffffffffff1660c08173ffffffffffffffffffffffffffffffffffffffff16815250508673ffffffffffffffffffffffffffffffffffffffff1660a08173ffffffffffffffffffffffffffffffffffffffff16815250508573ffffffffffffffffffffffffffffffffffffffff1660808173ffffffffffffffffffffffffffffffffffffffff168152505084600581905550836006819055508260078190555081600160006101000a81548173ffffffffffffffffffffffffffffffffffffffff021916908373ffffffffffffffffffffffffffffffffffffffff16021790555080600260006101000a81548173ffffffffffffffffffffffffffffffffffffffff021916908373ffffffffffffffffffffffffffffffffffffffff16021790555050505050505050505050505050505050604051620001a19062000200565b604051809103906000f080158015620001be573d6000803e3d6000fd5b5073ffffffffffffffffffffffffffffffffffffffff1660e08173ffffffffffffffffffffffffffffffffffffffff168152505050505050505050506200037c565b6125578062004de083390190565b600080fd5b600073ffffffffffffffffffffffffffffffffffffffff82169050919050565b6000620002408262000213565b9050919050565b620002528162000233565b81146200025e57600080fd5b50565b600081519050620002728162000247565b92915050565b6000819050919050565b6200028d8162000278565b81146200029957600080fd5b50565b600081519050620002ad8162000282565b92915050565b600080600080600080600080610100898b031215620002d757620002d66200020e565b5b6000620002e78b828c0162000261565b9850506020620002fa8b828c0162000261565b97505060406200030d8b828c0162000261565b9650506060620003208b828c016200029c565b9550506080620003338b828c016200029c565b94505060a0620003468b828c016200029c565b93505060c0620003598b828c0162000261565b92505060e06200036c8b828c0162000261565b9150509295985092959890939650565b60805160a05160c05160e05161499e62000442600039600081816107ac015281816117e301528181611f070152818161200801526120e80152600081816109c701528181610fcc01528181611007015281816112ae015261197d01526000818161083b01528181610d8d01528181610ec601528181611ccd01528181612394015281816124cc0152818161262101528181612d5601528181612e8f0152612fc70152600081816108db01528181612df901528181612e450152612f2f015261499e6000f3fe6080604052600436106101d15760003560e01c80635a903d26116100f7578063a5ac9a0211610095578063d4938db311610064578063d4938db31461066f578063d70356cc1461069a578063dc0e5d4b146106c3578063ecb61ea1146106ee576101e0565b8063a5ac9a02146105c3578063b6c5039f146105ee578063bfdb89bc14610619578063c1810f6614610644576101e0565b806384ac35eb116100d157806384ac35eb1461050b57806396074e70146105345780639b7abde71461055d578063a0580d881461059a576101e0565b80635a903d261461045457806373be409e14610491578063787191b6146104ce576101e0565b806333e5c43d1161016f57806344c506d51161013e57806344c506d5146103ae578063486da2ca146103d7578063518655e314610400578063576d22a214610429576101e0565b806333e5c43d1461030457806336e0004a1461032f5780633985a42e1461035a5780633c1e7c5614610383576101e0565b806314e7c922116101ab57806314e7c9221461026757806317ea277314610292578063189df97d1461029c5780632907242f146102c7576101e0565b806303010419146101ea5780631077f06c1461021357806311918cb11461023c576101e0565b366101e0576101de610717565b005b6101e8610717565b005b3480156101f657600080fd5b50610211600480360381019061020c9190613415565b6109ae565b005b34801561021f57600080fd5b5061023a60048036038101906102359190613415565b610b7d565b005b34801561024857600080fd5b50610251610d88565b60405161025e9190613451565b60405180910390f35b34801561027357600080fd5b5061027c610eba565b6040516102899190613451565b60405180910390f35b61029a610717565b005b3480156102a857600080fd5b506102b1610f7c565b6040516102be9190613451565b60405180910390f35b3480156102d357600080fd5b506102ee60048036038101906102e99190613415565b610f83565b6040516102fb91906134ad565b60405180910390f35b34801561031057600080fd5b50610319610fc3565b6040516103269190613451565b60405180910390f35b34801561033b57600080fd5b50610344610fca565b60405161035191906134ad565b60405180910390f35b34801561036657600080fd5b50610381600480360381019061037c9190613415565b610fee565b005b34801561038f57600080fd5b50610398611131565b6040516103a59190613451565b60405180910390f35b3480156103ba57600080fd5b506103d560048036038101906103d0919061352d565b611137565b005b3480156103e357600080fd5b506103fe60048036038101906103f99190613415565b611295565b005b34801561040c57600080fd5b5061042760048036038101906104229190613415565b611463565b005b34801561043557600080fd5b5061043e6117df565b60405161044b91906134ad565b60405180910390f35b34801561046057600080fd5b5061047b60048036038101906104769190613594565b611807565b604051610488919061367f565b60405180910390f35b34801561049d57600080fd5b506104b860048036038101906104b39190613415565b61189e565b6040516104c59190613718565b60405180910390f35b3480156104da57600080fd5b506104f560048036038101906104f09190613594565b6118cb565b6040516105029190613451565b60405180910390f35b34801561051757600080fd5b50610532600480360381019061052d9190613415565b611964565b005b34801561054057600080fd5b5061055b60048036038101906105569190613733565b611b32565b005b34801561056957600080fd5b50610584600480360381019061057f9190613415565b611dd9565b60405161059191906137f9565b60405180910390f35b3480156105a657600080fd5b506105c160048036038101906105bc9190613415565b611eb5565b005b3480156105cf57600080fd5b506105d86120e4565b6040516105e59190613451565b60405180910390f35b3480156105fa57600080fd5b50610603612189565b6040516106109190613451565b60405180910390f35b34801561062557600080fd5b5061062e61218f565b60405161063b9190613451565b60405180910390f35b34801561065057600080fd5b5061065961221b565b60405161066691906134ad565b60405180910390f35b34801561067b57600080fd5b50610684612241565b6040516106919190613451565b60405180910390f35b3480156106a657600080fd5b506106c160048036038101906106bc9190613415565b612247565b005b3480156106cf57600080fd5b506106d86124ca565b6040516106e591906134ad565b60405180910390f35b3480156106fa57600080fd5b5061071560048036038101906107109190613733565b6124ee565b005b6002600054141561075d576040517f08c379a000000000000000000000000000000000000000000000000000000000815260040161075490613871565b60405180910390fd5b60026000819055506005543410156107aa576040517f08c379a00000000000000000000000000000000000000000000000000000000081526004016107a190613903565b60405180910390fd5b7f000000000000000000000000000000000000000000000000000000000000000073ffffffffffffffffffffffffffffffffffffffff166340c10f1933346040518363ffffffff1660e01b8152600401610805929190613923565b600060405180830381600087803b15801561081f57600080fd5b505af1158015610833573d6000803e3d6000fd5b5050505060007f000000000000000000000000000000000000000000000000000000000000000073ffffffffffffffffffffffffffffffffffffffff16635f36a7426040518163ffffffff1660e01b815260040160206040518083038186803b15801561089f57600080fd5b505afa1580156108b3573d6000803e3d6000fd5b505050506040513d601f19601f820116820180604052508101906108d79190613961565b90507f000000000000000000000000000000000000000000000000000000000000000073ffffffffffffffffffffffffffffffffffffffff1663474cf53d34833060006040518563ffffffff1660e01b8152600401610938939291906139e1565b6000604051808303818588803b15801561095157600080fd5b505af1158015610965573d6000803e3d6000fd5b50505050507f3bdedc0452d6c06ae4c6d0ead53d5e507668cea240d7159cc0d90b9d83ed4dda333460405161099b929190613923565b60405180910390a1506001600081905550565b3373ffffffffffffffffffffffffffffffffffffffff167f000000000000000000000000000000000000000000000000000000000000000073ffffffffffffffffffffffffffffffffffffffff1614610a3c576040517f08c379a0000000000000000000000000000000000000000000000000000000008152600401610a3390613a64565b60405180910390fd5b8060056007811115610a5157610a506136a1565b5b6003600083815260200190815260200160002060000160009054906101000a900460ff166007811115610a8757610a866136a1565b5b14610ac7576040517f08c379a0000000000000000000000000000000000000000000000000000000008152600401610abe90613ad0565b60405180910390fd5b60076003600084815260200190815260200160002060000160006101000a81548160ff02191690836007811115610b0157610b006136a1565b5b02179055507f86c33d4cf6eac3e0f0cdffaeb6caf7eb4e20a7239225f6423025a664068115416003600084815260200190815260200160002060000160019054906101000a900473ffffffffffffffffffffffffffffffffffffffff1660006002604051610b7193929190613b5c565b60405180910390a15050565b33818173ffffffffffffffffffffffffffffffffffffffff166003600083815260200190815260200160002060000160019054906101000a900473ffffffffffffffffffffffffffffffffffffffff1673ffffffffffffffffffffffffffffffffffffffff1614610c23576040517f08c379a0000000000000000000000000000000000000000000000000000000008152600401610c1a90613bdf565b60405180910390fd5b8260016007811115610c3857610c376136a1565b5b6003600083815260200190815260200160002060000160009054906101000a900460ff166007811115610c6e57610c6d6136a1565b5b14610cae576040517f08c379a0000000000000000000000000000000000000000000000000000000008152600401610ca590613c4b565b60405180910390fd5b600260009054906101000a900473ffffffffffffffffffffffffffffffffffffffff1673ffffffffffffffffffffffffffffffffffffffff166332d59b2a610cf58661272c565b6040518263ffffffff1660e01b8152600401610d119190613cf3565b600060405180830381600087803b158015610d2b57600080fd5b505af1158015610d3f573d6000803e3d6000fd5b5050505060046003600086815260200190815260200160002060000160006101000a81548160ff02191690836007811115610d7d57610d7c6136a1565b5b021790555050505050565b6000807f000000000000000000000000000000000000000000000000000000000000000073ffffffffffffffffffffffffffffffffffffffff1663828997566040518163ffffffff1660e01b815260040160206040518083038186803b158015610df157600080fd5b505afa158015610e05573d6000803e3d6000fd5b505050506040513d601f19601f82011682018060405250810190610e299190613961565b90508073ffffffffffffffffffffffffffffffffffffffff166370a08231306040518263ffffffff1660e01b8152600401610e6491906134ad565b60206040518083038186803b158015610e7c57600080fd5b505afa158015610e90573d6000803e3d6000fd5b505050506040513d601f19601f82011682018060405250810190610eb49190613d2a565b91505090565b6000610ec4610d88565b7f000000000000000000000000000000000000000000000000000000000000000073ffffffffffffffffffffffffffffffffffffffff1663233641fa6040518163ffffffff1660e01b815260040160206040518083038186803b158015610f2a57600080fd5b505afa158015610f3e573d6000803e3d6000fd5b505050506040513d601f19601f82011682018060405250810190610f629190613d2a565b47610f6d9190613d86565b610f779190613d86565b905090565b6201518081565b60006003600083815260200190815260200160002060000160019054906101000a900473ffffffffffffffffffffffffffffffffffffffff169050919050565b6202a30081565b7f000000000000000000000000000000000000000000000000000000000000000081565b3373ffffffffffffffffffffffffffffffffffffffff167f000000000000000000000000000000000000000000000000000000000000000073ffffffffffffffffffffffffffffffffffffffff161461107c576040517f08c379a000000000000000000000000000000000000000000000000000000000815260040161107390613a64565b60405180910390fd5b60016003600083815260200190815260200160002060000160006101000a81548160ff021916908360078111156110b6576110b56136a1565b5b02179055507f86c33d4cf6eac3e0f0cdffaeb6caf7eb4e20a7239225f6423025a664068115416003600083815260200190815260200160002060000160019054906101000a900473ffffffffffffffffffffffffffffffffffffffff166000600460405161112693929190613e17565b60405180910390a150565b60055481565b3373ffffffffffffffffffffffffffffffffffffffff16600160009054906101000a900473ffffffffffffffffffffffffffffffffffffffff1673ffffffffffffffffffffffffffffffffffffffff16146111c7576040517f08c379a00000000000000000000000000000000000000000000000000000000081526004016111be90613e9a565b60405180910390fd5b600460078111156111db576111da6136a1565b5b6003600086815260200190815260200160002060000160009054906101000a900460ff166007811115611211576112106136a1565b5b1415611228576112238484848461288d565b61128e565b6002600781111561123c5761123b6136a1565b5b6003600086815260200190815260200160002060000160009054906101000a900460ff166007811115611272576112716136a1565b5b141561128857611283848484612b4e565b61128d565b61128f565b5b5b50505050565b3373ffffffffffffffffffffffffffffffffffffffff167f000000000000000000000000000000000000000000000000000000000000000073ffffffffffffffffffffffffffffffffffffffff1614611323576040517f08c379a000000000000000000000000000000000000000000000000000000000815260040161131a90613a64565b60405180910390fd5b80600780811115611337576113366136a1565b5b6003600083815260200190815260200160002060000160009054906101000a900460ff16600781111561136d5761136c6136a1565b5b146113ad576040517f08c379a00000000000000000000000000000000000000000000000000000000081526004016113a490613f06565b60405180910390fd5b60056003600084815260200190815260200160002060000160006101000a81548160ff021916908360078111156113e7576113e66136a1565b5b02179055507f86c33d4cf6eac3e0f0cdffaeb6caf7eb4e20a7239225f6423025a664068115416003600084815260200190815260200160002060000160019054906101000a900473ffffffffffffffffffffffffffffffffffffffff166000600360405161145793929190613f61565b60405180910390a15050565b806000806007811115611479576114786136a1565b5b6003600084815260200190815260200160002060000160009054906101000a900460ff1660078111156114af576114ae6136a1565b5b148061159f5750600360078111156114ca576114c96136a1565b5b6003600084815260200190815260200160002060000160009054906101000a900460ff166007811115611500576114ff6136a1565b5b14801561156e57503373ffffffffffffffffffffffffffffffffffffffff166003600084815260200190815260200160002060000160019054906101000a900473ffffffffffffffffffffffffffffffffffffffff1673ffffffffffffffffffffffffffffffffffffffff16145b801561159e57506202a300600360008481526020019081526020016000206002015461159a9190613d86565b4210155b5b9050806115e1576040517f08c379a00000000000000000000000000000000000000000000000000000000081526004016115d890613fe4565b60405180910390fd5b600260009054906101000a900473ffffffffffffffffffffffffffffffffffffffff1673ffffffffffffffffffffffffffffffffffffffff166332d59b2a6116288561272c565b6040518263ffffffff1660e01b81526004016116449190613cf3565b600060405180830381600087803b15801561165e57600080fd5b505af1158015611672573d6000803e3d6000fd5b505050506040518060a0016040528060026007811115611695576116946136a1565b5b81526020013373ffffffffffffffffffffffffffffffffffffffff168152602001600081526020016000815260200160008152506003600085815260200190815260200160002060008201518160000160006101000a81548160ff02191690836007811115611707576117066136a1565b5b021790555060208201518160000160016101000a81548173ffffffffffffffffffffffffffffffffffffffff021916908373ffffffffffffffffffffffffffffffffffffffff160217905550604082015181600101556060820151816002015560808201518160030155905050600460003373ffffffffffffffffffffffffffffffffffffffff1673ffffffffffffffffffffffffffffffffffffffff168152602001908152602001600020839080600181540180825580915050600190039060005260206000200160009091909190915055505050565b60007f0000000000000000000000000000000000000000000000000000000000000000905090565b6060600460008373ffffffffffffffffffffffffffffffffffffffff1673ffffffffffffffffffffffffffffffffffffffff16815260200190815260200160002080548060200260200160405190810160405280929190818152602001828054801561189257602002820191906000526020600020905b81548152602001906001019080831161187e575b50505050509050919050565b60006003600083815260200190815260200160002060000160009054906101000a900460ff169050919050565b60006118d56117df565b73ffffffffffffffffffffffffffffffffffffffff166370a08231836040518263ffffffff1660e01b815260040161190d91906134ad565b60206040518083038186803b15801561192557600080fd5b505afa158015611939573d6000803e3d6000fd5b505050506040513d601f19601f8201168201806040525081019061195d9190613d2a565b9050919050565b3373ffffffffffffffffffffffffffffffffffffffff167f000000000000000000000000000000000000000000000000000000000000000073ffffffffffffffffffffffffffffffffffffffff16146119f2576040517f08c379a00000000000000000000000000000000000000000000000000000000081526004016119e990613a64565b60405180910390fd5b80600780811115611a0657611a056136a1565b5b6003600083815260200190815260200160002060000160009054906101000a900460ff166007811115611a3c57611a3b6136a1565b5b14611a7c576040517f08c379a0000000000000000000000000000000000000000000000000000000008152600401611a7390613f06565b60405180910390fd5b60066003600084815260200190815260200160002060000160006101000a81548160ff02191690836007811115611ab657611ab56136a1565b5b02179055507f86c33d4cf6eac3e0f0cdffaeb6caf7eb4e20a7239225f6423025a664068115416003600084815260200190815260200160002060000160019054906101000a900473ffffffffffffffffffffffffffffffffffffffff1660006001604051611b269392919061403f565b60405180910390a15050565b8060036007811115611b4757611b466136a1565b5b6003600083815260200190815260200160002060000160009054906101000a900460ff166007811115611b7d57611b7c6136a1565b5b14611bbd576040517f08c379a0000000000000000000000000000000000000000000000000000000008152600401611bb4906140c2565b60405180910390fd5b82828173ffffffffffffffffffffffffffffffffffffffff166003600083815260200190815260200160002060000160019054906101000a900473ffffffffffffffffffffffffffffffffffffffff1673ffffffffffffffffffffffffffffffffffffffff1614611c63576040517f08c379a0000000000000000000000000000000000000000000000000000000008152600401611c5a90614154565b60405180910390fd5b836202a3006003600083815260200190815260200160002060020154611c899190613d86565b421115611ccb576040517f08c379a0000000000000000000000000000000000000000000000000000000008152600401611cc2906141c0565b60405180910390fd5b7f000000000000000000000000000000000000000000000000000000000000000073ffffffffffffffffffffffffffffffffffffffff163373ffffffffffffffffffffffffffffffffffffffff1614611d59576040517f08c379a0000000000000000000000000000000000000000000000000000000008152600401611d509061422c565b60405180910390fd5b60016003600087815260200190815260200160002060000160006101000a81548160ff02191690836007811115611d9357611d926136a1565b5b02179055507f75e6e73ef8edbfceb972a418434926af5690d2300337b5aee75d234e694311118587604051611dc992919061424c565b60405180910390a1505050505050565b611de1613383565b600360008381526020019081526020016000206040518060a00160405290816000820160009054906101000a900460ff166007811115611e2457611e236136a1565b5b6007811115611e3657611e356136a1565b5b81526020016000820160019054906101000a900473ffffffffffffffffffffffffffffffffffffffff1673ffffffffffffffffffffffffffffffffffffffff1673ffffffffffffffffffffffffffffffffffffffff16815260200160018201548152602001600282015481526020016003820154815250509050919050565b60026000541415611efb576040517f08c379a0000000000000000000000000000000000000000000000000000000008152600401611ef290613871565b60405180910390fd5b600260008190555060007f000000000000000000000000000000000000000000000000000000000000000073ffffffffffffffffffffffffffffffffffffffff1663d5bda32d836040518263ffffffff1660e01b8152600401611f5e9190613451565b60206040518083038186803b158015611f7657600080fd5b505afa158015611f8a573d6000803e3d6000fd5b505050506040513d601f19601f82011682018060405250810190611fae9190613d2a565b905080611fb9610eba565b611fc39190614275565b60065410612006576040517f08c379a0000000000000000000000000000000000000000000000000000000008152600401611ffd9061431b565b60405180910390fd5b7f000000000000000000000000000000000000000000000000000000000000000073ffffffffffffffffffffffffffffffffffffffff16639dc29fac33846040518363ffffffff1660e01b8152600401612061929190613923565b600060405180830381600087803b15801561207b57600080fd5b505af115801561208f573d6000803e3d6000fd5b5050505061209d3382612d35565b7f84ace38dc519117233d1be602392092fc4cdb791d59d4ade8db1b73d22a1b99f3382846040516120d09392919061433b565b60405180910390a150600160008190555050565b60007f000000000000000000000000000000000000000000000000000000000000000073ffffffffffffffffffffffffffffffffffffffff1663f0197e1a6040518163ffffffff1660e01b815260040160206040518083038186803b15801561214c57600080fd5b505afa158015612160573d6000803e3d6000fd5b505050506040513d601f19601f820116820180604052508101906121849190613d2a565b905090565b60065481565b60006121996117df565b73ffffffffffffffffffffffffffffffffffffffff166318160ddd6040518163ffffffff1660e01b815260040160206040518083038186803b1580156121de57600080fd5b505afa1580156121f2573d6000803e3d6000fd5b505050506040513d601f19601f820116820180604052508101906122169190613d2a565b905090565b600260009054906101000a900473ffffffffffffffffffffffffffffffffffffffff1681565b60075481565b806005600781111561225c5761225b6136a1565b5b6003600083815260200190815260200160002060000160009054906101000a900460ff166007811115612292576122916136a1565b5b146122d2576040517f08c379a00000000000000000000000000000000000000000000000000000000081526004016122c990613ad0565b60405180910390fd5b816201518060036000838152602001908152602001600020600101546122f89190613d86565b42101561233a576040517f08c379a0000000000000000000000000000000000000000000000000000000008152600401612331906143e4565b60405180910390fd5b60006003600085815260200190815260200160002060000160019054906101000a900473ffffffffffffffffffffffffffffffffffffffff16905060006003600086815260200190815260200160002060030154905060007f000000000000000000000000000000000000000000000000000000000000000073ffffffffffffffffffffffffffffffffffffffff166305ddb0196040518163ffffffff1660e01b815260040160206040518083038186803b1580156123f857600080fd5b505afa15801561240c573d6000803e3d6000fd5b505050506040513d601f19601f820116820180604052508101906124309190613d2a565b8261243b9190613d86565b90506124478382612d35565b60066003600088815260200190815260200160002060000160006101000a81548160ff02191690836007811115612481576124806136a1565b5b02179055507f86c33d4cf6eac3e0f0cdffaeb6caf7eb4e20a7239225f6423025a66406811541838360006040516124ba93929190614435565b60405180910390a1505050505050565b7f000000000000000000000000000000000000000000000000000000000000000081565b81818173ffffffffffffffffffffffffffffffffffffffff166003600083815260200190815260200160002060000160019054906101000a900473ffffffffffffffffffffffffffffffffffffffff1673ffffffffffffffffffffffffffffffffffffffff1614612594576040517f08c379a000000000000000000000000000000000000000000000000000000000815260040161258b90613bdf565b60405180910390fd5b82600160078111156125a9576125a86136a1565b5b6003600083815260200190815260200160002060000160009054906101000a900460ff1660078111156125df576125de6136a1565b5b1461261f576040517f08c379a000000000000000000000000000000000000000000000000000000000815260040161261690613c4b565b60405180910390fd5b7f000000000000000000000000000000000000000000000000000000000000000073ffffffffffffffffffffffffffffffffffffffff163373ffffffffffffffffffffffffffffffffffffffff16146126ad576040517f08c379a00000000000000000000000000000000000000000000000000000000081526004016126a49061422c565b60405180910390fd5b60006003600086815260200190815260200160002060000160006101000a81548160ff021916908360078111156126e7576126e66136a1565b5b02179055507f6c120324200e3395fa899969762464b667f9fc1d7e81c3471b90d215cc077e54848660405161271d92919061424c565b60405180910390a15050505050565b60606000821415612774576040518060400160405280600181526020017f30000000000000000000000000000000000000000000000000000000000000008152509050612888565b600082905060005b600082146127a657808061278f9061446c565b915050600a8261279f91906144e4565b915061277c565b60008167ffffffffffffffff8111156127c2576127c1614515565b5b6040519080825280601f01601f1916602001820160405280156127f45781602001600182028036833780820191505090505b5090505b600085146128815760018261280d9190614275565b9150600a8561281c9190614544565b60306128289190613d86565b60f81b81838151811061283e5761283d614575565b5b60200101907effffffffffffffffffffffffffffffffffffffffffffffffffffffffffffff1916908160001a905350600a8561287a91906144e4565b94506127f8565b8093505050505b919050565b8173ffffffffffffffffffffffffffffffffffffffff166003600086815260200190815260200160002060000160019054906101000a900473ffffffffffffffffffffffffffffffffffffffff1673ffffffffffffffffffffffffffffffffffffffff16146129765760016003600086815260200190815260200160002060000160006101000a81548160ff021916908360078111156129305761292f6136a1565b5b02179055507f246892a0b72c59463eccffe6f35d69b87418c0a947d521e09b5493a7401efa2684836000604051612969939291906145a4565b60405180910390a1612b48565b60008360ff1614806129885750600081145b15612a0d5760016003600086815260200190815260200160002060000160006101000a81548160ff021916908360078111156129c7576129c66136a1565b5b02179055507f246892a0b72c59463eccffe6f35d69b87418c0a947d521e09b5493a7401efa2684836001604051612a00939291906145db565b60405180910390a1612b47565b600754811115612a975760076003600086815260200190815260200160002060000160006101000a81548160ff02191690836007811115612a5157612a506136a1565b5b02179055507f246892a0b72c59463eccffe6f35d69b87418c0a947d521e09b5493a7401efa2684836002604051612a8a93929190614612565b60405180910390a1612b10565b60056003600086815260200190815260200160002060000160006101000a81548160ff02191690836007811115612ad157612ad06136a1565b5b02179055507fb0521091930bd66fcf40b38982cc461208539f2cc476213ba6528a02ed9d0b088483604051612b0792919061424c565b60405180910390a15b4260036000868152602001908152602001600020600101819055508060036000868152602001908152602001600020600301819055505b5b50505050565b8073ffffffffffffffffffffffffffffffffffffffff166003600085815260200190815260200160002060000160019054906101000a900473ffffffffffffffffffffffffffffffffffffffff1673ffffffffffffffffffffffffffffffffffffffff16141580612bc2575060018260ff16145b15612c9d5760006003600085815260200190815260200160002060000160016101000a81548173ffffffffffffffffffffffffffffffffffffffff021916908373ffffffffffffffffffffffffffffffffffffffff16021790555060006003600085815260200190815260200160002060000160006101000a81548160ff02191690836007811115612c5757612c566136a1565b5b02179055507ff4cbf660b9bf86ae341996b23cc16c5a30d67188f77a1ec65deec0167392507983826000604051612c90939291906145a4565b60405180910390a1612d30565b600380600085815260200190815260200160002060000160006101000a81548160ff02191690836007811115612cd657612cd56136a1565b5b02179055504260036000858152602001908152602001600020600201819055507f3a17f9fc3552f1447f9b42179b1021cd4fa12f2e9de107610d91b447a410107c8382604051612d2792919061424c565b60405180910390a15b505050565b6000612d3f610d88565b905081811015612d5257612d51612fc3565b5b60007f000000000000000000000000000000000000000000000000000000000000000073ffffffffffffffffffffffffffffffffffffffff1663828997566040518163ffffffff1660e01b815260040160206040518083038186803b158015612dba57600080fd5b505afa158015612dce573d6000803e3d6000fd5b505050506040513d601f19601f82011682018060405250810190612df29190613961565b9050612e407f000000000000000000000000000000000000000000000000000000000000000060008373ffffffffffffffffffffffffffffffffffffffff166130699092919063ffffffff16565b612e8b7f0000000000000000000000000000000000000000000000000000000000000000848373ffffffffffffffffffffffffffffffffffffffff166130699092919063ffffffff16565b60007f000000000000000000000000000000000000000000000000000000000000000073ffffffffffffffffffffffffffffffffffffffff16635f36a7426040518163ffffffff1660e01b815260040160206040518083038186803b158015612ef357600080fd5b505afa158015612f07573d6000803e3d6000fd5b505050506040513d601f19601f82011682018060405250810190612f2b9190613961565b90507f000000000000000000000000000000000000000000000000000000000000000073ffffffffffffffffffffffffffffffffffffffff166380500d208286886040518463ffffffff1660e01b8152600401612f8a93929190614649565b600060405180830381600087803b158015612fa457600080fd5b505af1158015612fb8573d6000803e3d6000fd5b505050505050505050565b60007f000000000000000000000000000000000000000000000000000000000000000073ffffffffffffffffffffffffffffffffffffffff166263750c6040518163ffffffff1660e01b8152600401602060405180830381600087803b15801561302c57600080fd5b505af1158015613040573d6000803e3d6000fd5b505050506040513d601f19601f820116820180604052508101906130649190613d2a565b905050565b6000811480613102575060008373ffffffffffffffffffffffffffffffffffffffff1663dd62ed3e30856040518363ffffffff1660e01b81526004016130b0929190614680565b60206040518083038186803b1580156130c857600080fd5b505afa1580156130dc573d6000803e3d6000fd5b505050506040513d601f19601f820116820180604052508101906131009190613d2a565b145b613141576040517f08c379a00000000000000000000000000000000000000000000000000000000081526004016131389061471b565b60405180910390fd5b6131c28363095ea7b360e01b8484604051602401613160929190613923565b604051602081830303815290604052907bffffffffffffffffffffffffffffffffffffffffffffffffffffffff19166020820180517bffffffffffffffffffffffffffffffffffffffffffffffffffffffff83818316178352505050506131c7565b505050565b6131e68273ffffffffffffffffffffffffffffffffffffffff16613338565b613225576040517f08c379a000000000000000000000000000000000000000000000000000000000815260040161321c90614787565b60405180910390fd5b6000808373ffffffffffffffffffffffffffffffffffffffff168360405161324d91906147ee565b6000604051808303816000865af19150503d806000811461328a576040519150601f19603f3d011682016040523d82523d6000602084013e61328f565b606091505b5091509150816132d4576040517f08c379a00000000000000000000000000000000000000000000000000000000081526004016132cb90614851565b60405180910390fd5b60008151111561333257808060200190518101906132f291906148a9565b613331576040517f08c379a000000000000000000000000000000000000000000000000000000000815260040161332890614948565b60405180910390fd5b5b50505050565b60008060007fc5d2460186f7233c927e7db2dcc703c0e500b653ca82273b7bfad8045d85a47060001b9050833f915080821415801561337a57506000801b8214155b92505050919050565b6040518060a00160405280600060078111156133a2576133a16136a1565b5b8152602001600073ffffffffffffffffffffffffffffffffffffffff1681526020016000815260200160008152602001600081525090565b600080fd5b6000819050919050565b6133f2816133df565b81146133fd57600080fd5b50565b60008135905061340f816133e9565b92915050565b60006020828403121561342b5761342a6133da565b5b600061343984828501613400565b91505092915050565b61344b816133df565b82525050565b60006020820190506134666000830184613442565b92915050565b600073ffffffffffffffffffffffffffffffffffffffff82169050919050565b60006134978261346c565b9050919050565b6134a78161348c565b82525050565b60006020820190506134c2600083018461349e565b92915050565b600060ff82169050919050565b6134de816134c8565b81146134e957600080fd5b50565b6000813590506134fb816134d5565b92915050565b61350a8161348c565b811461351557600080fd5b50565b60008135905061352781613501565b92915050565b60008060008060808587031215613547576135466133da565b5b600061355587828801613400565b9450506020613566878288016134ec565b935050604061357787828801613518565b925050606061358887828801613400565b91505092959194509250565b6000602082840312156135aa576135a96133da565b5b60006135b884828501613518565b91505092915050565b600081519050919050565b600082825260208201905092915050565b6000819050602082019050919050565b6135f6816133df565b82525050565b600061360883836135ed565b60208301905092915050565b6000602082019050919050565b600061362c826135c1565b61363681856135cc565b9350613641836135dd565b8060005b8381101561367257815161365988826135fc565b975061366483613614565b925050600181019050613645565b5085935050505092915050565b600060208201905081810360008301526136998184613621565b905092915050565b7f4e487b7100000000000000000000000000000000000000000000000000000000600052602160045260246000fd5b600881106136e1576136e06136a1565b5b50565b60008190506136f2826136d0565b919050565b6000613702826136e4565b9050919050565b613712816136f7565b82525050565b600060208201905061372d6000830184613709565b92915050565b6000806040838503121561374a576137496133da565b5b600061375885828601613518565b925050602061376985828601613400565b9150509250929050565b61377c816136f7565b82525050565b61378b8161348c565b82525050565b60a0820160008201516137a76000850182613773565b5060208201516137ba6020850182613782565b5060408201516137cd60408501826135ed565b5060608201516137e060608501826135ed565b5060808201516137f360808501826135ed565b50505050565b600060a08201905061380e6000830184613791565b92915050565b600082825260208201905092915050565b7f5265656e7472616e637947756172643a207265656e7472616e742063616c6c00600082015250565b600061385b601f83613814565b915061386682613825565b602082019050919050565b6000602082019050818103600083015261388a8161384e565b9050919050565b7f76616c7565206d7573742062652067726561746572207468616e206d696e696d60008201527f756d000000000000000000000000000000000000000000000000000000000000602082015250565b60006138ed602283613814565b91506138f882613891565b604082019050919050565b6000602082019050818103600083015261391c816138e0565b9050919050565b6000604082019050613938600083018561349e565b6139456020830184613442565b9392505050565b60008151905061395b81613501565b92915050565b600060208284031215613977576139766133da565b5b60006139858482850161394c565b91505092915050565b6000819050919050565b600061ffff82169050919050565b6000819050919050565b60006139cb6139c66139c18461398e565b6139a6565b613998565b9050919050565b6139db816139b0565b82525050565b60006060820190506139f6600083018661349e565b613a03602083018561349e565b613a1060408301846139d2565b949350505050565b7f6e6f7420746865206d756c746953696700000000000000000000000000000000600082015250565b6000613a4e601083613814565b9150613a5982613a18565b602082019050919050565b60006020820190508181036000830152613a7d81613a41565b9050919050565b7f6e6f20636c61696d2070656e64696e6700000000000000000000000000000000600082015250565b6000613aba601083613814565b9150613ac582613a84565b602082019050919050565b60006020820190508181036000830152613ae981613aad565b9050919050565b6000613b0b613b06613b018461398e565b6139a6565b6133df565b9050919050565b613b1b81613af0565b82525050565b6000819050919050565b6000613b46613b41613b3c84613b21565b6139a6565b6134c8565b9050919050565b613b5681613b2b565b82525050565b6000606082019050613b71600083018661349e565b613b7e6020830185613b12565b613b8b6040830184613b4d565b949350505050565b7f77697468647261774164647265737320646f6573206e6f74206d617463680000600082015250565b6000613bc9601e83613814565b9150613bd482613b93565b602082019050919050565b60006020820190508181036000830152613bf881613bbc565b9050919050565b7f62656e6566696369617279206e6f742061637469766500000000000000000000600082015250565b6000613c35601683613814565b9150613c4082613bff565b602082019050919050565b60006020820190508181036000830152613c6481613c28565b9050919050565b600081519050919050565b60005b83811015613c94578082015181840152602081019050613c79565b83811115613ca3576000848401525b50505050565b6000601f19601f8301169050919050565b6000613cc582613c6b565b613ccf8185613814565b9350613cdf818560208601613c76565b613ce881613ca9565b840191505092915050565b60006020820190508181036000830152613d0d8184613cba565b905092915050565b600081519050613d24816133e9565b92915050565b600060208284031215613d4057613d3f6133da565b5b6000613d4e84828501613d15565b91505092915050565b7f4e487b7100000000000000000000000000000000000000000000000000000000600052601160045260246000fd5b6000613d91826133df565b9150613d9c836133df565b9250827fffffffffffffffffffffffffffffffffffffffffffffffffffffffffffffffff03821115613dd157613dd0613d57565b5b828201905092915050565b6000819050919050565b6000613e01613dfc613df784613ddc565b6139a6565b6134c8565b9050919050565b613e1181613de6565b82525050565b6000606082019050613e2c600083018661349e565b613e396020830185613b12565b613e466040830184613e08565b949350505050565b7f6e6f7420746865206f7261636c65000000000000000000000000000000000000600082015250565b6000613e84600e83613814565b9150613e8f82613e4e565b602082019050919050565b60006020820190508181036000830152613eb381613e77565b9050919050565b7f6e6f20636c61696d207061757365640000000000000000000000000000000000600082015250565b6000613ef0600f83613814565b9150613efb82613eba565b602082019050919050565b60006020820190508181036000830152613f1f81613ee3565b9050919050565b6000819050919050565b6000613f4b613f46613f4184613f26565b6139a6565b6134c8565b9050919050565b613f5b81613f30565b82525050565b6000606082019050613f76600083018661349e565b613f836020830185613b12565b613f906040830184613f52565b949350505050565b7f6e6f7420656c696769626c6520746f206170706c790000000000000000000000600082015250565b6000613fce601583613814565b9150613fd982613f98565b602082019050919050565b60006020820190508181036000830152613ffd81613fc1565b9050919050565b6000819050919050565b600061402961402461401f84614004565b6139a6565b6134c8565b9050919050565b6140398161400e565b82525050565b6000606082019050614054600083018661349e565b6140616020830185613b12565b61406e6040830184614030565b949350505050565b7f62656e6566696369617279206973206e6f7420617070726f7665640000000000600082015250565b60006140ac601b83613814565b91506140b782614076565b602082019050919050565b600060208201905081810360008301526140db8161409f565b9050919050565b7f6d7573742073656e642074782066726f6d2076616c696461746f72207769746860008201527f6472617741646472657373000000000000000000000000000000000000000000602082015250565b600061413e602b83613814565b9150614149826140e2565b604082019050919050565b6000602082019050818103600083015261416d81614131565b9050919050565b7f4f757473696465206170706c792077696e646f77000000000000000000000000600082015250565b60006141aa601483613814565b91506141b582614174565b602082019050919050565b600060208201905081810360008301526141d98161419d565b9050919050565b7f73656e646572206973206e6f7420706f6f6c0000000000000000000000000000600082015250565b6000614216601283613814565b9150614221826141e0565b602082019050919050565b6000602082019050818103600083015261424581614209565b9050919050565b60006040820190506142616000830185613442565b61426e602083018461349e565b9392505050565b6000614280826133df565b915061428b836133df565b92508282101561429e5761429d613d57565b5b828203905092915050565b7f7265736572766520696e73756666696369656e7420746f20776974686472617760008201527f20696e737572616e636500000000000000000000000000000000000000000000602082015250565b6000614305602a83613814565b9150614310826142a9565b604082019050919050565b60006020820190508181036000830152614334816142f8565b9050919050565b6000606082019050614350600083018661349e565b61435d6020830185613442565b61436a6040830184613442565b949350505050565b7f43616e6e6f7420776974686472617720636c61696d20756e74696c2074696d6560008201527f6f75742070617373656400000000000000000000000000000000000000000000602082015250565b60006143ce602a83613814565b91506143d982614372565b604082019050919050565b600060208201905081810360008301526143fd816143c1565b9050919050565b600061441f61441a6144158461398e565b6139a6565b6134c8565b9050919050565b61442f81614404565b82525050565b600060608201905061444a600083018661349e565b6144576020830185613442565b6144646040830184614426565b949350505050565b6000614477826133df565b91507fffffffffffffffffffffffffffffffffffffffffffffffffffffffffffffffff8214156144aa576144a9613d57565b5b600182019050919050565b7f4e487b7100000000000000000000000000000000000000000000000000000000600052601260045260246000fd5b60006144ef826133df565b91506144fa836133df565b92508261450a576145096144b5565b5b828204905092915050565b7f4e487b7100000000000000000000000000000000000000000000000000000000600052604160045260246000fd5b600061454f826133df565b915061455a836133df565b92508261456a576145696144b5565b5b828206905092915050565b7f4e487b7100000000000000000000000000000000000000000000000000000000600052603260045260246000fd5b60006060820190506145b96000830186613442565b6145c6602083018561349e565b6145d36040830184614426565b949350505050565b60006060820190506145f06000830186613442565b6145fd602083018561349e565b61460a6040830184614030565b949350505050565b60006060820190506146276000830186613442565b614634602083018561349e565b6146416040830184613b4d565b949350505050565b600060608201905061465e600083018661349e565b61466b6020830185613442565b614678604083018461349e565b949350505050565b6000604082019050614695600083018561349e565b6146a2602083018461349e565b9392505050565b7f5361666545524332303a20617070726f76652066726f6d206e6f6e2d7a65726f60008201527f20746f206e6f6e2d7a65726f20616c6c6f77616e636500000000000000000000602082015250565b6000614705603683613814565b9150614710826146a9565b604082019050919050565b60006020820190508181036000830152614734816146f8565b9050919050565b7f5361666545524332303a2063616c6c20746f206e6f6e2d636f6e747261637400600082015250565b6000614771601f83613814565b915061477c8261473b565b602082019050919050565b600060208201905081810360008301526147a081614764565b9050919050565b600081519050919050565b600081905092915050565b60006147c8826147a7565b6147d281856147b2565b93506147e2818560208601613c76565b80840191505092915050565b60006147fa82846147bd565b915081905092915050565b7f5361666545524332303a206c6f772d6c6576656c2063616c6c206661696c6564600082015250565b600061483b602083613814565b915061484682614805565b602082019050919050565b6000602082019050818103600083015261486a8161482e565b9050919050565b60008115159050919050565b61488681614871565b811461489157600080fd5b50565b6000815190506148a38161487d565b92915050565b6000602082840312156148bf576148be6133da565b5b60006148cd84828501614894565b91505092915050565b7f5361666545524332303a204552433230206f7065726174696f6e20646964206e60008201527f6f74207375636365656400000000000000000000000000000000000000000000602082015250565b6000614932602a83613814565b915061493d826148d6565b604082019050919050565b6000602082019050818103600083015261496181614925565b905091905056fea2646970667358221220f28950d0832913aa384a7f4c8995d5aed381cc6de812927132de35a7520749cd64736f6c6343000809003360806040523480156200001157600080fd5b506040518060400160405280601681526020017f536c617368696e6720496e737572616e636520455448000000000000000000008152506040518060400160405280600681526020017f736c694554480000000000000000000000000000000000000000000000000000815250816003908051906020019062000096929190620000f9565b508060049080519060200190620000af929190620000f9565b50505033600660006101000a81548173ffffffffffffffffffffffffffffffffffffffff021916908373ffffffffffffffffffffffffffffffffffffffff1602179055506200020e565b8280546200010790620001d8565b90600052602060002090601f0160209004810192826200012b576000855562000177565b82601f106200014657805160ff191683800117855562000177565b8280016001018555821562000177579182015b828111156200017657825182559160200191906001019062000159565b5b5090506200018691906200018a565b5090565b5b80821115620001a55760008160009055506001016200018b565b5090565b7f4e487b7100000000000000000000000000000000000000000000000000000000600052602260045260246000fd5b60006002820490506001821680620001f157607f821691505b60208210811415620002085762000207620001a9565b5b50919050565b612339806200021e6000396000f3fe6080604052600436106101025760003560e01c806371f56f1111610095578063a9059cbb11610064578063a9059cbb1461037a578063cb765c1d146103b7578063d5bda32d146103e2578063dd62ed3e1461041f578063f0197e1a1461045c57610109565b806371f56f11146102ac57806395d89b41146102e95780639dc29fac14610314578063a457c2d71461033d57610109565b8063313ce567116100d1578063313ce567146101de578063395093511461020957806340c10f191461024657806370a082311461026f57610109565b806306fdde031461010e578063095ea7b31461013957806318160ddd1461017657806323b872dd146101a157610109565b3661010957005b600080fd5b34801561011a57600080fd5b50610123610487565b6040516101309190611641565b60405180910390f35b34801561014557600080fd5b50610160600480360381019061015b91906116fc565b610519565b60405161016d9190611757565b60405180910390f35b34801561018257600080fd5b5061018b610537565b6040516101989190611781565b60405180910390f35b3480156101ad57600080fd5b506101c860048036038101906101c3919061179c565b610541565b6040516101d59190611757565b60405180910390f35b3480156101ea57600080fd5b506101f3610639565b604051610200919061180b565b60405180910390f35b34801561021557600080fd5b50610230600480360381019061022b91906116fc565b610642565b60405161023d9190611757565b60405180910390f35b34801561025257600080fd5b5061026d600480360381019061026891906116fc565b6106ee565b005b34801561027b57600080fd5b5061029660048036038101906102919190611826565b61082f565b6040516102a39190611781565b60405180910390f35b3480156102b857600080fd5b506102d360048036038101906102ce9190611853565b610877565b6040516102e09190611781565b60405180910390f35b3480156102f557600080fd5b506102fe610912565b60405161030b9190611641565b60405180910390f35b34801561032057600080fd5b5061033b600480360381019061033691906116fc565b6109a4565b005b34801561034957600080fd5b50610364600480360381019061035f91906116fc565b610b30565b6040516103719190611757565b60405180910390f35b34801561038657600080fd5b506103a1600480360381019061039c91906116fc565b610c1b565b6040516103ae9190611757565b60405180910390f35b3480156103c357600080fd5b506103cc610c39565b6040516103d99190611781565b60405180910390f35b3480156103ee57600080fd5b5061040960048036038101906104049190611853565b610ce0565b6040516104169190611781565b60405180910390f35b34801561042b57600080fd5b5061044660048036038101906104419190611880565b610d2d565b6040516104539190611781565b60405180910390f35b34801561046857600080fd5b50610471610db4565b60405161047e9190611781565b60405180910390f35b606060038054610496906118ef565b80601f01602080910402602001604051908101604052809291908181526020018280546104c2906118ef565b801561050f5780601f106104e45761010080835404028352916020019161050f565b820191906000526020600020905b8154815290600101906020018083116104f257829003601f168201915b5050505050905090565b600061052d610526610e13565b8484610e1b565b6001905092915050565b6000600254905090565b600061054e848484610fe6565b6000600160008673ffffffffffffffffffffffffffffffffffffffff1673ffffffffffffffffffffffffffffffffffffffff1681526020019081526020016000206000610599610e13565b73ffffffffffffffffffffffffffffffffffffffff1673ffffffffffffffffffffffffffffffffffffffff16815260200190815260200160002054905082811015610619576040517f08c379a000000000000000000000000000000000000000000000000000000000815260040161061090611993565b60405180910390fd5b61062d85610625610e13565b858403610e1b565b60019150509392505050565b60006012905090565b60006106e461064f610e13565b84846001600061065d610e13565b73ffffffffffffffffffffffffffffffffffffffff1673ffffffffffffffffffffffffffffffffffffffff16815260200190815260200160002060008873ffffffffffffffffffffffffffffffffffffffff1673ffffffffffffffffffffffffffffffffffffffff168152602001908152602001600020546106df91906119e2565b610e1b565b6001905092915050565b3373ffffffffffffffffffffffffffffffffffffffff16600660009054906101000a900473ffffffffffffffffffffffffffffffffffffffff1673ffffffffffffffffffffffffffffffffffffffff161461077e576040517f08c379a000000000000000000000000000000000000000000000000000000000815260040161077590611a84565b60405180910390fd5b600061078982610877565b9050600081116107ce576040517f08c379a00000000000000000000000000000000000000000000000000000000081526004016107c590611af0565b60405180910390fd5b6107d88382611267565b8273ffffffffffffffffffffffffffffffffffffffff167f6155cfd0fd028b0ca77e8495a60cbe563e8bce8611f0aad6fedbdaafc05d44a282844260405161082293929190611b10565b60405180910390a2505050565b60008060008373ffffffffffffffffffffffffffffffffffffffff1673ffffffffffffffffffffffffffffffffffffffff168152602001908152602001600020549050919050565b60008082610883610c39565b61088d9190611b47565b90506000610899610537565b905060008114156108ae57839250505061090d565b600082116108f1576040517f08c379a00000000000000000000000000000000000000000000000000000000081526004016108e890611c13565b60405180910390fd5b8181856108fe9190611c33565b6109089190611cbc565b925050505b919050565b606060048054610921906118ef565b80601f016020809104026020016040519081016040528092919081815260200182805461094d906118ef565b801561099a5780601f1061096f5761010080835404028352916020019161099a565b820191906000526020600020905b81548152906001019060200180831161097d57829003601f168201915b5050505050905090565b3373ffffffffffffffffffffffffffffffffffffffff16600660009054906101000a900473ffffffffffffffffffffffffffffffffffffffff1673ffffffffffffffffffffffffffffffffffffffff1614610a34576040517f08c379a0000000000000000000000000000000000000000000000000000000008152600401610a2b90611a84565b60405180910390fd5b60008111610a77576040517f08c379a0000000000000000000000000000000000000000000000000000000008152600401610a6e90611d39565b60405180910390fd5b80610a818361082f565b1015610ac2576040517f08c379a0000000000000000000000000000000000000000000000000000000008152600401610ab990611da5565b60405180910390fd5b6000610acd82610ce0565b9050610ad983836113c7565b3373ffffffffffffffffffffffffffffffffffffffff167f19783b34589160c168487dc7f9c51ae0bcefe67a47d6708fba90f6ce0366d3d1838342604051610b2393929190611b10565b60405180910390a2505050565b60008060016000610b3f610e13565b73ffffffffffffffffffffffffffffffffffffffff1673ffffffffffffffffffffffffffffffffffffffff16815260200190815260200160002060008573ffffffffffffffffffffffffffffffffffffffff1673ffffffffffffffffffffffffffffffffffffffff16815260200190815260200160002054905082811015610bfc576040517f08c379a0000000000000000000000000000000000000000000000000000000008152600401610bf390611e37565b60405180910390fd5b610c10610c07610e13565b85858403610e1b565b600191505092915050565b6000610c2f610c28610e13565b8484610fe6565b6001905092915050565b6000600660009054906101000a900473ffffffffffffffffffffffffffffffffffffffff1673ffffffffffffffffffffffffffffffffffffffff166314e7c9226040518163ffffffff1660e01b815260040160206040518083038186803b158015610ca357600080fd5b505afa158015610cb7573d6000803e3d6000fd5b505050506040513d601f19601f82011682018060405250810190610cdb9190611e6c565b905090565b600080610ceb610c39565b90506000610cf7610537565b90506000811415610d0c578392505050610d28565b808285610d199190611c33565b610d239190611cbc565b925050505b919050565b6000600160008473ffffffffffffffffffffffffffffffffffffffff1673ffffffffffffffffffffffffffffffffffffffff16815260200190815260200160002060008373ffffffffffffffffffffffffffffffffffffffff1673ffffffffffffffffffffffffffffffffffffffff16815260200190815260200160002054905092915050565b600080610dbf610c39565b90506000610dcb610537565b90506000811480610ddc5750600082145b15610dec57600092505050610e10565b8082670de0b6b3a7640000610e019190611c33565b610e0b9190611cbc565b925050505b90565b600033905090565b600073ffffffffffffffffffffffffffffffffffffffff168373ffffffffffffffffffffffffffffffffffffffff161415610e8b576040517f08c379a0000000000000000000000000000000000000000000000000000000008152600401610e8290611f0b565b60405180910390fd5b600073ffffffffffffffffffffffffffffffffffffffff168273ffffffffffffffffffffffffffffffffffffffff161415610efb576040517f08c379a0000000000000000000000000000000000000000000000000000000008152600401610ef290611f9d565b60405180910390fd5b80600160008573ffffffffffffffffffffffffffffffffffffffff1673ffffffffffffffffffffffffffffffffffffffff16815260200190815260200160002060008473ffffffffffffffffffffffffffffffffffffffff1673ffffffffffffffffffffffffffffffffffffffff168152602001908152602001600020819055508173ffffffffffffffffffffffffffffffffffffffff168373ffffffffffffffffffffffffffffffffffffffff167f8c5be1e5ebec7d5bd14f71427d1e84f3dd0314c0f7b2291e5b200ac8c7c3b92583604051610fd99190611781565b60405180910390a3505050565b600073ffffffffffffffffffffffffffffffffffffffff168373ffffffffffffffffffffffffffffffffffffffff161415611056576040517f08c379a000000000000000000000000000000000000000000000000000000000815260040161104d9061202f565b60405180910390fd5b600073ffffffffffffffffffffffffffffffffffffffff168273ffffffffffffffffffffffffffffffffffffffff1614156110c6576040517f08c379a00000000000000000000000000000000000000000000000000000000081526004016110bd906120c1565b60405180910390fd5b6110d183838361159e565b60008060008573ffffffffffffffffffffffffffffffffffffffff1673ffffffffffffffffffffffffffffffffffffffff16815260200190815260200160002054905081811015611157576040517f08c379a000000000000000000000000000000000000000000000000000000000815260040161114e90612153565b60405180910390fd5b8181036000808673ffffffffffffffffffffffffffffffffffffffff1673ffffffffffffffffffffffffffffffffffffffff16815260200190815260200160002081905550816000808573ffffffffffffffffffffffffffffffffffffffff1673ffffffffffffffffffffffffffffffffffffffff16815260200190815260200160002060008282546111ea91906119e2565b925050819055508273ffffffffffffffffffffffffffffffffffffffff168473ffffffffffffffffffffffffffffffffffffffff167fddf252ad1be2c89b69c2b068fc378daa952ba7f163c4a11628f55a4df523b3ef8460405161124e9190611781565b60405180910390a36112618484846115a3565b50505050565b600073ffffffffffffffffffffffffffffffffffffffff168273ffffffffffffffffffffffffffffffffffffffff1614156112d7576040517f08c379a00000000000000000000000000000000000000000000000000000000081526004016112ce906121bf565b60405180910390fd5b6112e36000838361159e565b80600260008282546112f591906119e2565b92505081905550806000808473ffffffffffffffffffffffffffffffffffffffff1673ffffffffffffffffffffffffffffffffffffffff168152602001908152602001600020600082825461134a91906119e2565b925050819055508173ffffffffffffffffffffffffffffffffffffffff16600073ffffffffffffffffffffffffffffffffffffffff167fddf252ad1be2c89b69c2b068fc378daa952ba7f163c4a11628f55a4df523b3ef836040516113af9190611781565b60405180910390a36113c3600083836115a3565b5050565b600073ffffffffffffffffffffffffffffffffffffffff168273ffffffffffffffffffffffffffffffffffffffff161415611437576040517f08c379a000000000000000000000000000000000000000000000000000000000815260040161142e90612251565b60405180910390fd5b6114438260008361159e565b60008060008473ffffffffffffffffffffffffffffffffffffffff1673ffffffffffffffffffffffffffffffffffffffff168152602001908152602001600020549050818110156114c9576040517f08c379a00000000000000000000000000000000000000000000000000000000081526004016114c0906122e3565b60405180910390fd5b8181036000808573ffffffffffffffffffffffffffffffffffffffff1673ffffffffffffffffffffffffffffffffffffffff1681526020019081526020016000208190555081600260008282546115209190611b47565b92505081905550600073ffffffffffffffffffffffffffffffffffffffff168373ffffffffffffffffffffffffffffffffffffffff167fddf252ad1be2c89b69c2b068fc378daa952ba7f163c4a11628f55a4df523b3ef846040516115859190611781565b60405180910390a3611599836000846115a3565b505050565b505050565b505050565b600081519050919050565b600082825260208201905092915050565b60005b838110156115e25780820151818401526020810190506115c7565b838111156115f1576000848401525b50505050565b6000601f19601f8301169050919050565b6000611613826115a8565b61161d81856115b3565b935061162d8185602086016115c4565b611636816115f7565b840191505092915050565b6000602082019050818103600083015261165b8184611608565b905092915050565b600080fd5b600073ffffffffffffffffffffffffffffffffffffffff82169050919050565b600061169382611668565b9050919050565b6116a381611688565b81146116ae57600080fd5b50565b6000813590506116c08161169a565b92915050565b6000819050919050565b6116d9816116c6565b81146116e457600080fd5b50565b6000813590506116f6816116d0565b92915050565b6000806040838503121561171357611712611663565b5b6000611721858286016116b1565b9250506020611732858286016116e7565b9150509250929050565b60008115159050919050565b6117518161173c565b82525050565b600060208201905061176c6000830184611748565b92915050565b61177b816116c6565b82525050565b60006020820190506117966000830184611772565b92915050565b6000806000606084860312156117b5576117b4611663565b5b60006117c3868287016116b1565b93505060206117d4868287016116b1565b92505060406117e5868287016116e7565b9150509250925092565b600060ff82169050919050565b611805816117ef565b82525050565b600060208201905061182060008301846117fc565b92915050565b60006020828403121561183c5761183b611663565b5b600061184a848285016116b1565b91505092915050565b60006020828403121561186957611868611663565b5b6000611877848285016116e7565b91505092915050565b6000806040838503121561189757611896611663565b5b60006118a5858286016116b1565b92505060206118b6858286016116b1565b9150509250929050565b7f4e487b7100000000000000000000000000000000000000000000000000000000600052602260045260246000fd5b6000600282049050600182168061190757607f821691505b6020821081141561191b5761191a6118c0565b5b50919050565b7f45524332303a207472616e7366657220616d6f756e742065786365656473206160008201527f6c6c6f77616e6365000000000000000000000000000000000000000000000000602082015250565b600061197d6028836115b3565b915061198882611921565b604082019050919050565b600060208201905081810360008301526119ac81611970565b9050919050565b7f4e487b7100000000000000000000000000000000000000000000000000000000600052601160045260246000fd5b60006119ed826116c6565b91506119f8836116c6565b9250827fffffffffffffffffffffffffffffffffffffffffffffffffffffffffffffffff03821115611a2d57611a2c6119b3565b5b828201905092915050565b7f6e6f7420746865206f776e657200000000000000000000000000000000000000600082015250565b6000611a6e600d836115b3565b9150611a7982611a38565b602082019050919050565b60006020820190508181036000830152611a9d81611a61565b9050919050565b7f496e76616c696420746f6b656e206d696e7420616d6f756e7400000000000000600082015250565b6000611ada6019836115b3565b9150611ae582611aa4565b602082019050919050565b60006020820190508181036000830152611b0981611acd565b9050919050565b6000606082019050611b256000830186611772565b611b326020830185611772565b611b3f6040830184611772565b949350505050565b6000611b52826116c6565b9150611b5d836116c6565b925082821015611b7057611b6f6119b3565b5b828203905092915050565b7f43616e6e6f742063616c63756c61746520736c6945544820746f6b656e20616d60008201527f6f756e74207768696c6520726573657276652062616c616e6365206973207a6560208201527f726f000000000000000000000000000000000000000000000000000000000000604082015250565b6000611bfd6042836115b3565b9150611c0882611b7b565b606082019050919050565b60006020820190508181036000830152611c2c81611bf0565b9050919050565b6000611c3e826116c6565b9150611c49836116c6565b9250817fffffffffffffffffffffffffffffffffffffffffffffffffffffffffffffffff0483118215151615611c8257611c816119b3565b5b828202905092915050565b7f4e487b7100000000000000000000000000000000000000000000000000000000600052601260045260246000fd5b6000611cc7826116c6565b9150611cd2836116c6565b925082611ce257611ce1611c8d565b5b828204905092915050565b7f496e76616c696420746f6b656e206275726e20616d6f756e7400000000000000600082015250565b6000611d236019836115b3565b9150611d2e82611ced565b602082019050919050565b60006020820190508181036000830152611d5281611d16565b9050919050565b7f496e73756666696369656e7420736c694554482062616c616e63650000000000600082015250565b6000611d8f601b836115b3565b9150611d9a82611d59565b602082019050919050565b60006020820190508181036000830152611dbe81611d82565b9050919050565b7f45524332303a2064656372656173656420616c6c6f77616e63652062656c6f7760008201527f207a65726f000000000000000000000000000000000000000000000000000000602082015250565b6000611e216025836115b3565b9150611e2c82611dc5565b604082019050919050565b60006020820190508181036000830152611e5081611e14565b9050919050565b600081519050611e66816116d0565b92915050565b600060208284031215611e8257611e81611663565b5b6000611e9084828501611e57565b91505092915050565b7f45524332303a20617070726f76652066726f6d20746865207a65726f2061646460008201527f7265737300000000000000000000000000000000000000000000000000000000602082015250565b6000611ef56024836115b3565b9150611f0082611e99565b604082019050919050565b60006020820190508181036000830152611f2481611ee8565b9050919050565b7f45524332303a20617070726f766520746f20746865207a65726f20616464726560008201527f7373000000000000000000000000000000000000000000000000000000000000602082015250565b6000611f876022836115b3565b9150611f9282611f2b565b604082019050919050565b60006020820190508181036000830152611fb681611f7a565b9050919050565b7f45524332303a207472616e736665722066726f6d20746865207a65726f20616460008201527f6472657373000000000000000000000000000000000000000000000000000000602082015250565b60006120196025836115b3565b915061202482611fbd565b604082019050919050565b600060208201905081810360008301526120488161200c565b9050919050565b7f45524332303a207472616e7366657220746f20746865207a65726f206164647260008201527f6573730000000000000000000000000000000000000000000000000000000000602082015250565b60006120ab6023836115b3565b91506120b68261204f565b604082019050919050565b600060208201905081810360008301526120da8161209e565b9050919050565b7f45524332303a207472616e7366657220616d6f756e742065786365656473206260008201527f616c616e63650000000000000000000000000000000000000000000000000000602082015250565b600061213d6026836115b3565b9150612148826120e1565b604082019050919050565b6000602082019050818103600083015261216c81612130565b9050919050565b7f45524332303a206d696e7420746f20746865207a65726f206164647265737300600082015250565b60006121a9601f836115b3565b91506121b482612173565b602082019050919050565b600060208201905081810360008301526121d88161219c565b9050919050565b7f45524332303a206275726e2066726f6d20746865207a65726f2061646472657360008201527f7300000000000000000000000000000000000000000000000000000000000000602082015250565b600061223b6021836115b3565b9150612246826121df565b604082019050919050565b6000602082019050818103600083015261226a8161222e565b9050919050565b7f45524332303a206275726e20616d6f756e7420657863656564732062616c616e60008201527f6365000000000000000000000000000000000000000000000000000000000000602082015250565b60006122cd6022836115b3565b91506122d882612271565b604082019050919050565b600060208201905081810360008301526122fc816122c0565b905091905056fea2646970667358221220450ffd241f2df82c72305670ed3c39f1d6a8bd9e83bc51acafebffbc9cb46c5464736f6c63430008090033",
  "immutableReferences": {
    "2052": [
      {
        "length": 32,
        "start": 1964
      },
      {
        "length": 32,
        "start": 6115
      },
      {
        "length": 32,
        "start": 7943
      },
      {
        "length": 32,
        "start": 8200
      },
      {
        "length": 32,
        "start": 8424
      }
    ],
    "3051": [
      {
        "length": 32,
        "start": 2267
      },
      {
        "length": 32,
        "start": 11769
      },
      {
        "length": 32,
        "start": 11845
      },
      {
        "length": 32,
        "start": 12079
      }
    ],
    "3094": [
      {
        "length": 32,
        "start": 2107
      },
      {
        "length": 32,
        "start": 3469
      },
      {
        "length": 32,
        "start": 3782
      },
      {
        "length": 32,
        "start": 7373
      },
      {
        "length": 32,
        "start": 9108
      },
      {
        "length": 32,
        "start": 9420
      },
      {
        "length": 32,
        "start": 9761
      },
      {
        "length": 32,
        "start": 11606
      },
      {
        "length": 32,
        "start": 11919
      },
      {
        "length": 32,
        "start": 12231
      }
    ],
    "3096": [
      {
        "length": 32,
        "start": 2503
      },
      {
        "length": 32,
        "start": 4044
      },
      {
        "length": 32,
        "start": 4103
      },
      {
        "length": 32,
        "start": 4782
      },
      {
        "length": 32,
        "start": 6525
      }
    ]
  },
  "source": "// SPDX-License-Identifier: MIT\npragma solidity 0.8.9;\n\n\nimport {SafeERC20} from \"./libraries/SafeERC20.sol\";\nimport {IERC20} from \"./interfaces/other/IERC20.sol\";\nimport {IWETHGateway} from \"./interfaces/aave/IWETHGateway.sol\";\nimport {IPremiumGenerator} from \"./interfaces/protocol/IPremiumGenerator.sol\";\nimport { IOracleGateway } from \"./interfaces/protocol/IOracleGateway.sol\";\nimport {SlashingInsuranceETH} from \"./SlashingInsuranceETH.sol\";\nimport { Authenticator } from \"./Authenticator.sol\";\nimport \"@openzeppelin/contracts/security/ReentrancyGuard.sol\";\nimport \"@openzeppelin/contracts/utils/Strings.sol\";\n\n//AAVE V2\nimport {ILendingPool} from \"./interfaces/aave/ILendingPool.sol\";\nimport {ILendingPoolAddressesProvider} from \"./interfaces/aave/ILendingPoolAddressesProvider.sol\";\nimport {IProtocolDataProvider} from \"./interfaces/aave/IProtocolDataProvider.sol\";\n\n\n/**\n * @title Reserve\n * @author SLI\n * @notice Ethereum Slashing Insurance (SLI) Reserve contract\n *\n * This is a proof of concept contract for lossless Ethereum slashing insurance\n *\n * Lossless because premiums are refundable, when the insurance\n * agreement is terminated.\n *\n * Aave v2 is used to generate interest from beneficiary premium deposits\n * Premium is returned to beneficiary when Policy terminated (validator\n * exits from staking, no longer wants insurance, or claim is paid).\n * Interest is accrued in the Reserve to cover validator slashing claims.\n *\n * Chainlink Functions is used as an oracle to access the validator stats\n * such as slashing, loss, and withdrawal credentials associated with a\n * validator Id.\n *\n * Claims Fund is funded by sliETH.\n *\n * Reserve contract controls deposit calls to Aave for funds held in Reserve.\n *\n * @dev Deposits, withdraws, and claims for Aave Pools\n **/\ncontract Reserve is ReentrancyGuard, Authenticator{\n    using SafeERC20 for IERC20;\n\n    SlashingInsuranceETH immutable sliETH;\n\n    event DenyApplication(uint validatorIndex,address withdrawAddress,uint8 reason);\n    event ApproveApplication( uint validatorIndex, address withdrawAddress);\n    event ProvideInsurance(address depositor, uint ethAmount);\n    event WithdrawInsurance(address depositor, uint ethAmount, uint sliETHAmount);\n    event DenyClaim(uint validatorIndex,address withdrawAddress,uint8 reason);\n    event AcceptClaim(uint validatorIndex,address withdrawAddress);\n    event AddBeneficiary(uint validatorIndex, address withdrawAddress);\n    event WithdrawBeneficiary(uint validatorIndex, address withdrawAddress);\n    event MakeClaim(uint validatorIndex);\n    event ProcessClaim(address beneficiary, uint amount, uint8 result);\n\n    /**\n     * @dev Constructor.\n     */\n    constructor(\n        address _multiSig,\n        address _generatorPool,\n        address _wethGatewayAddr,\n        uint _minimumProvide,\n        uint _minimumReserve,\n        uint _maxClaim,\n        address _oracle,\n        address _oracleGateway\n    ) Authenticator(\n        _multiSig,\n        _generatorPool,\n        _wethGatewayAddr,\n        _minimumProvide,\n        _minimumReserve,\n        _maxClaim,\n        _oracle,\n        _oracleGateway\n    ){\n        sliETH = new SlashingInsuranceETH();\n    }\n\n    /**\n     * @dev Receive function that allows receiving ETH and automatically provides insurance coverage.\n     *\n     * Requirements:\n     * None.\n     *\n     * Modifiers:\n     * None.\n     *\n     *\n     */\n    receive() external payable {\n        provideInsurance();\n    }\n\n    /**\n     * @dev Fallback function that allows receiving ETH and automatically provides insurance coverage.\n     *\n     * Requirements:\n     * None.\n     *\n     * Modifiers:\n     * None.\n     *\n     *\n     */\n    fallback() external payable {\n        provideInsurance();\n    }\n\n    /**\n    * @dev Provides insurance coverage by depositing ETH and minting sliETH tokens.\n    *\n    * Events:\n    *   - ProvideInsurance: emitted after the insurance coverage is successfully provided.\n    * Requirements:\n    *   - The value must be greater than or equal to the minimum required amount.\n    * Modifiers:\n    *   - nonReentrant: prevents reentrancy issues during the function execution.\n    *\n    *\n    */\n    function provideInsurance() public payable nonReentrant {\n        require(\n            msg.value >= minimumProvide,\n            \"value must be greater than minimum\"\n        );\n        sliETH.mint(msg.sender, msg.value);\n        address aaveLendingPool = IPremiumGenerator(generatorPool).getLendingPoolAddress();\n        IWETHGateway(wethGatewayAddr).depositETH{value: msg.value}(aaveLendingPool, address(this), 0);\n        emit ProvideInsurance(msg.sender, msg.value);\n    }\n\n    /**\n     * @dev Withdraws insurance coverage by swapping a specified amount of sliETH tokens for ETH.\n     * @param _sliETHAmount The amount of sliETH tokens to swap for ETH.\n     *\n     * Events:\n     * - WithdrawInsurance: emitted after the insurance coverage is successfully withdrawn.\n     *\n     * Requirements:\n     * - The reserve must have sufficient funds to cover the requested ETH amount.\n     *\n     * Modifiers:\n     * - nonReentrant: prevents reentrancy issues during the function execution.\n     *\n     *\n     */\n    function withdrawInsurance(uint _sliETHAmount) external nonReentrant {\n        uint requestedETH = sliETH.getETHValue(_sliETHAmount);\n        require(\n            minimumReserve < (getProtocolBalance() - requestedETH),\n            \"reserve insufficient to withdraw insurance\"\n        );\n        sliETH.burn(msg.sender, _sliETHAmount);\n        _processOutflow(msg.sender, requestedETH);\n        emit WithdrawInsurance(msg.sender, requestedETH, _sliETHAmount);\n    }\n\n    /**\n     * @dev Processes outflow of ETH by withdrawing from Aave pools and transferring it to the specified recipient.\n     * @param _to The address to transfer the requested ETH.\n     * @param requestedETH The amount of ETH to be transferred.\n     *\n     * Requirements:\n     * - Sufficient aToken balance must be available to cover the requestedETH amount.\n     *\n     * Modifiers:\n     * None.\n     *\n     *\n     */\n    function _processOutflow(address _to, uint requestedETH) internal {\n        //harvest aave pools for outflow\n        uint aTokenBalance = getReserveATokenBalance();\n        if(aTokenBalance < requestedETH){\n            _harvestInterest();\n        }\n\n        address aTokenAddress = IPremiumGenerator(generatorPool)\n            .getATokenAddress();\n        IERC20(aTokenAddress).safeApprove(wethGatewayAddr, 0);\n        IERC20(aTokenAddress).safeApprove(wethGatewayAddr, requestedETH);\n        address aaveLendingPool = IPremiumGenerator(generatorPool)\n            .getLendingPoolAddress();\n        IWETHGateway(wethGatewayAddr).withdrawETH(\n            aaveLendingPool,\n            requestedETH,\n            _to\n        );\n    }\n\n    /**\n     * @dev Allows a validator to apply for insurance coverage.\n     * @param _validatorIndex The index of the validator applying for coverage.\n     *\n     * Requirements:\n     * - Only validators with designated Status can call this function.\n     *\n     * Modifiers:\n     * - onlyApply: restricts the function to be called only by the designated Status.\n     *\n     *\n     */\n    function applyForCoverage(\n        uint _validatorIndex\n    ) external onlyApply(_validatorIndex) {\n        IOracleGateway(oracleGateway).callOracle(Strings.toString(_validatorIndex));\n        beneficiaries[_validatorIndex] = Beneficiary(\n            Status.AWAIT_ORACLE_ADD,\n            msg.sender,\n            0,\n            0,\n            0\n        );\n        depositors[msg.sender].push(_validatorIndex);\n    }\n\n    /**\n     * @dev Adds a beneficiary for a specific validator to receive insurance payouts.\n     * @param _withdrawAddress The address to which the insurance payouts will be sent.\n     * @param _validatorIndex The index of the validator for which the beneficiary is being added.\n     *\n     * Requirements:\n     * - Only an approved address can call this function for the specified validator.\n     * - Only the beneficiary can add a beneficiary.\n     * - The function can only be called within the apply window.\n     * - The caller must be a valid pool contract.\n     *\n     * Modifiers:\n     * - onlyAddApproved: restricts the function to be called only by an approved address for the validator.\n     * - onlyBeneficiary: restricts the function to be called by the beneficiary.\n     * - onlyInApplyWindow: restricts the function to be called only within the apply window.\n     * - onlyPools: restricts the function to be called only by a valid pool contract.\n     *\n     *\n     */\n    function addBeneficiary(\n        address _withdrawAddress,\n        uint _validatorIndex\n    )\n        external\n        onlyAddApproved(_validatorIndex)\n        onlyBeneficiary(_withdrawAddress, _validatorIndex)\n        onlyInApplyWindow(_validatorIndex)\n        onlyPools\n    {\n        beneficiaries[_validatorIndex].status = Status.ACTIVE;\n        emit AddBeneficiary(_validatorIndex, _withdrawAddress);\n    }\n\n    /**\n     * @dev Handles the response from the oracle regarding a validator's insurance claim or beneficiary addition.\n     * @param _validatorIndex The index of the validator for which the oracle response is received.\n     * @param _slashed The status indicating whether the validator has been slashed (1) or not slashed (0).\n     * @param _withdrawAddress The address to which the insurance payouts will be sent.\n     * @param _loss The amount of loss incurred by the validator (in wei).\n     *\n     * Requirements:\n     * - Only the oracle contract can call this function.\n     *\n     * Modifiers:\n     * - onlyOracle: restricts the function to be called only by the oracle contract.\n     *\n     *\n     */\n    function oracleResponse(\n        uint _validatorIndex,\n        uint8 _slashed,\n        address _withdrawAddress,\n        uint _loss\n    ) external onlyOracle {\n        if (beneficiaries[_validatorIndex].status == Status.AWAIT_ORACLE_CLAIM) {\n            _oracleClaimResponse(_validatorIndex, _slashed, _withdrawAddress, _loss);\n        }\n        else if (beneficiaries[_validatorIndex].status == Status.AWAIT_ORACLE_ADD) {\n            _oracleAddBeneResponse(_validatorIndex, _slashed, _withdrawAddress);\n        }\n        else{\n            return;\n        }\n    }\n\n    /**\n     * @dev Handles the oracle response for adding a beneficiary for a validator.\n     * @param _validatorIndex The index of the validator for which the oracle response is received.\n     * @param _slashed The status indicating whether the validator has been slashed (1) or not slashed (0).\n     * @param _withdrawAddress The address to which the insurance payouts will be sent.\n     *\n     * Requirements:\n     * None.\n     *\n     * Modifiers:\n     * None.\n     *\n     *\n     */\n    function _oracleAddBeneResponse(\n        uint _validatorIndex,\n        uint8 _slashed,\n        address _withdrawAddress\n    ) internal {\n        //check withdraw address with oracle reponse\n        //check validator is active with oracle response\n        if (\n            beneficiaries[_validatorIndex].withdrawAddress != _withdrawAddress ||\n            _slashed == 1\n        ) {\n            beneficiaries[_validatorIndex].withdrawAddress = address(0);\n            beneficiaries[_validatorIndex].status = Status.NOT_ACTIVE;\n            emit DenyApplication(\n                _validatorIndex,\n                _withdrawAddress,\n                0 //address not correct or validator slashed\n            );\n        }\n        else {\n            beneficiaries[_validatorIndex].status = Status.ORACLE_ADD_APPROVE;\n            beneficiaries[_validatorIndex].applyTimestamp = block.timestamp;\n            emit ApproveApplication(_validatorIndex, _withdrawAddress);\n        }\n    }\n\n    /**\n     * @dev Handles the oracle response for a validator's insurance claim.\n     * @param _validatorIndex The index of the validator for which the oracle response is received.\n     * @param _slashed The status indicating whether the validator has been slashed (1) or not slashed (0).\n     * @param _withdrawAddress The address to which the insurance payouts will be sent.\n     * @param _loss The amount of loss incurred by the validator (in wei).\n     *\n     * Requirements:\n     * None.\n     *\n     * Modifiers:\n     * None.\n     *\n     *\n     */\n    function _oracleClaimResponse(\n        uint _validatorIndex,\n        uint8 _slashed,\n        address _withdrawAddress,\n        uint _loss\n    ) internal {\n        //check withdraw address with oracle reponse\n        if (\n            beneficiaries[_validatorIndex].withdrawAddress != _withdrawAddress\n        ) {\n            beneficiaries[_validatorIndex].status = Status.ACTIVE;\n            emit DenyClaim(\n                _validatorIndex,\n                _withdrawAddress,\n                0//\"withdrawAddress incorrect\"\n            );\n        }\n        //check if slashed\n        else if (_slashed == 0 || _loss == 0) {\n            beneficiaries[_validatorIndex].status = Status.ACTIVE;\n            emit DenyClaim(\n                _validatorIndex,\n                _withdrawAddress,\n                1//\"not slashed\"\n            );\n        }\n        else {\n            if(_loss > maxClaim){\n                beneficiaries[_validatorIndex].status = Status.CLAIM_PAUSED;\n                emit DenyClaim(\n                _validatorIndex,\n                _withdrawAddress,\n                2//exceeds max claim and has to be reviewed\n            );\n            }\n            else{\n                beneficiaries[_validatorIndex].status = Status.CLAIM_WAIT_PERIOD;\n                emit AcceptClaim(_validatorIndex, _withdrawAddress);\n            }\n            beneficiaries[_validatorIndex].claimTimestamp = block.timestamp;\n            beneficiaries[_validatorIndex].loss = _loss;\n        }\n    }\n\n    /**\n     * @dev Initiates an insurance claim for a specific validator.\n     * @param _validatorIndex The index of the validator for which the claim is being made.\n     *\n     * Requirements:\n     * - The claim must be made from the beneficiary's withdraw address.\n     * - The beneficiary must be active for the specified validator.\n     *\n     * Modifiers:\n     * - fromWithdrawAddress: restricts the function to be called only from the beneficiary's withdraw address.\n     * - onlyActiveBeneficiary: restricts the function to be called only by an active beneficiary for the validator.\n     *\n     *\n     */\n    function makeClaim(\n        uint _validatorIndex\n    )\n        public\n        fromWithdrawAddress(msg.sender, _validatorIndex)\n        onlyActiveBeneficiary(_validatorIndex)\n    {\n        IOracleGateway(oracleGateway).callOracle(Strings.toString(_validatorIndex));\n        beneficiaries[_validatorIndex].status = Status.AWAIT_ORACLE_CLAIM;\n    }\n\n    /**\n     * @dev Pays out an insurance claim for a specific validator.\n     * @param _validatorIndex The index of the validator for which the claim is being paid.\n     *\n     * Requirements:\n     * - The validator Status must = CLAIM_WAIT_PERIOD.\n     * - The timeout period must have passed.\n     *\n     * Modifiers:\n     * - onlyWaitPeriod: restricts the function to be called only for validators with Status = CLAIM_WAIT_PERIOD.\n     * - onlyTimeoutPassed: restricts the function to be called only after the timeout period has passed.\n     *\n     *\n     */\n    function payClaim(\n        uint _validatorIndex\n    )\n        external\n        onlyWaitPeriod(_validatorIndex)\n        onlyTimeoutPassed(_validatorIndex)\n    {\n        address withdrawAddress = beneficiaries[_validatorIndex]\n            .withdrawAddress;\n        uint loss = beneficiaries[_validatorIndex].loss;\n        uint payout = loss + IPremiumGenerator(generatorPool).premiumDeposit();\n        _processOutflow(\n            withdrawAddress,\n            payout\n        );\n        beneficiaries[_validatorIndex].status = Status.CLOSED;\n        emit ProcessClaim(\n            withdrawAddress,\n            loss,\n            0//approve\n            );\n    }\n\n    /**\n     * @dev Denies an insurance claim for a specific validator (for malicious activity).\n     * @param _validatorIndex The index of the validator for which the claim is being denied.\n     *\n     * Requirements:\n     * - The function can only be called by a multi-signature account.\n     * - The claim must be in the paused state.\n     *\n     * Modifiers:\n     * - onlyMultiSig: restricts the function to be called only by a multi-signature account.\n     * - onlyPausedClaim: restricts the function to be called only for validators with paused claims.\n     *\n     *\n     */\n    function denyClaim(\n        uint _validatorIndex\n    ) public onlyMultiSig onlyPausedClaim(_validatorIndex) {\n        beneficiaries[_validatorIndex].status = Status.CLOSED;\n        emit ProcessClaim(\n            beneficiaries[_validatorIndex].withdrawAddress,\n            0,\n            1//deny\n        );\n    }\n\n    /**\n     * @dev Pauses an insurance claim for a specific validator.\n     * @param _validatorIndex The index of the validator for which the claim is being paused.\n     *\n     * Requirements:\n     * - The function can only be called by a multi-signature account.\n     * - The claim must be in the wait period.\n     *\n     * Modifiers:\n     * - onlyMultiSig: restricts the function to be called only by a multi-signature account.\n     * - onlyWaitPeriod: restricts the function to be called only for validators in the wait period.\n     *\n     *\n     */\n    function pauseClaim(\n        uint _validatorIndex\n    ) public onlyMultiSig onlyWaitPeriod(_validatorIndex) {\n        beneficiaries[_validatorIndex].status = Status.CLAIM_PAUSED;\n        emit ProcessClaim(\n            beneficiaries[_validatorIndex].withdrawAddress,\n            0,\n            2//pause\n        );\n    }\n\n    /**\n     * @dev Unpauses an insurance claim for a specific validator.\n     * @param _validatorIndex The index of the validator for which the claim is being unpaused.\n     *\n     * Requirements:\n     * - The function can only be called by a multi-signature account.\n     * - The claim must be in the paused state.\n     *\n     * Modifiers:\n     * - onlyMultiSig: restricts the function to be called only by a multi-signature account.\n     * - onlyPausedClaim: restricts the function to be called only for validators with paused claims.\n     *\n     *\n     */\n    function unpauseClaim(\n        uint _validatorIndex\n    )\n        public\n        onlyMultiSig\n        onlyPausedClaim(_validatorIndex)\n    {\n        beneficiaries[_validatorIndex].status = Status.CLAIM_WAIT_PERIOD;\n        emit ProcessClaim(\n            beneficiaries[_validatorIndex].withdrawAddress,\n            0,\n            3//\"unpause\"\n        );\n    }\n\n    /**\n     * @dev Resets the status of an insurance claim for a specific validator.\n     * @param _validatorIndex The index of the validator for which the claim is being reset.\n     *\n     * Requirements:\n     * - The function can only be called by a multi-signature account.\n     *\n     * Modifiers:\n     * - onlyMultiSig: restricts the function to be called only by a multi-signature account.\n     *\n     *\n     */\n    function resetClaim(\n        uint _validatorIndex\n    ) public onlyMultiSig {\n        beneficiaries[_validatorIndex].status = Status.ACTIVE;\n        emit ProcessClaim(\n            beneficiaries[_validatorIndex].withdrawAddress,\n            0,\n            4//\"reset\"\n        );\n    }\n\n    /**\n     * @dev Withdraws a beneficiary from the insurance coverage for a specific validator.\n     * @param _withdrawAddress The withdraw address of the beneficiary.\n     * @param _validatorIndex The index of the validator for which the beneficiary is being withdrawn.\n     *\n     * Requirements:\n     * - The withdraw address must match the beneficiary's withdraw address for the validator.\n     * - The beneficiary must be active for the specified validator.\n     * - The caller must be a generator pool\n     *\n     * Modifiers:\n     * - fromWithdrawAddress: withdraw address must match the beneficiary's withdraw address for the validator.\n     * - onlyActiveBeneficiary: restricts the function to be called only by an active beneficiary for the validator.\n     * - onlyPools: restricts the function to be called only by specific pools.\n     *\n     *\n     */\n    function withdrawBeneficiary(\n        address _withdrawAddress,\n        uint _validatorIndex\n    )\n        external\n        fromWithdrawAddress(_withdrawAddress, _validatorIndex)\n        onlyActiveBeneficiary(_validatorIndex)\n        onlyPools\n    {\n        beneficiaries[_validatorIndex].status = Status.NOT_ACTIVE;\n        emit WithdrawBeneficiary(_validatorIndex, _withdrawAddress);\n    }\n\n    /**\n     * @dev Harvests the accumulated interest from the premium generator contract.\n     *\n     */\n    function _harvestInterest() internal {\n        uint256 amount = IPremiumGenerator(generatorPool).withdrawInterest();\n    }\n\n    /**\n     * @dev Retrieves the address of the SLIETH token contract.\n     *\n     * @return The address of the SLIETH token contract.\n     */\n    function getSlashingInsuranceETHAddress() public view returns (address) {\n        return address(sliETH);\n    }\n\n    /**\n     * @dev Retrieves the balance of SLIETH tokens for a specific depositor.\n     * @param _depositor The address of the depositor.\n     *\n     * @return The balance of SLIETH tokens for the specified depositor.\n     */\n    function getSlashingInsuranceETHBalance(\n        address _depositor\n    ) public view returns (uint) {\n        return IERC20(getSlashingInsuranceETHAddress()).balanceOf(_depositor);\n    }\n\n    /**\n     * @dev Retrieves the validator IDs associated with a specific withdraw address.\n     * @param _withdrawAddress The address of the withdraw address.\n     *\n     * @return An array of validator IDs associated with the specified withdraw address.\n     */\n    function getDepositorValidatorIds(address _withdrawAddress) public view returns(uint[] memory){\n        return depositors[_withdrawAddress];\n    }\n\n    /**\n     * @dev Retrieves the balance of aTokens in the reserve.\n     *\n     * @return The balance of aTokens in the reserve.\n     */\n    function getReserveATokenBalance() public view returns (uint) {\n        address aTokenAddress = IPremiumGenerator(generatorPool)\n                .getATokenAddress();\n\n        return IERC20(aTokenAddress).balanceOf(address(this));\n    }\n\n    /**\n     * @dev Retrieves the total balance of the protocol, including ETH balance, unclaimed interest, and aTokens in the reserve.\n     *\n     * @return The total balance of the protocol.\n     */\n    function getProtocolBalance() public view returns (uint) {\n        return (\n            address(this).balance +\n            IPremiumGenerator(generatorPool).getUnclaimedInterest() +\n            getReserveATokenBalance()\n        );\n    }\n\n    /**\n     * @dev Retrieves the total supply of SLIETH tokens.\n     *\n     * @return The total supply of SLIETH tokens.\n     */\n    function getSliETHTotalSupply() public view returns (uint) {\n        return IERC20(getSlashingInsuranceETHAddress()).totalSupply();\n    }\n\n    /**\n     * @dev Retrieves the conversion rate between SLIETH and ETH.\n     *\n     * @return The conversion rate between SLIETH and ETH.\n     */\n    function getSliETHConversion() public view returns (uint256) {\n        return sliETH.getETHValuePerSliETH();\n    }\n\n    /**\n     * @dev Retrieves the status of a beneficiary for a specific validator index.\n     * @param _validatorIndex The index of the validator.\n     *\n     * @return status The status of the beneficiary.\n     */\n    function getBeneficiaryStatus(\n        uint _validatorIndex\n    ) public view returns (Status status) {\n        status = beneficiaries[_validatorIndex].status;\n    }\n\n    /**\n     * @dev Retrieves the withdraw address associated with a specific validator index.\n     * @param _validatorIndex The index of the validator.\n     *\n     * @return withdrawAddress The withdraw address associated with the validator.\n     */\n    function getValidatorWithdrawAddress(\n        uint _validatorIndex\n    ) public view returns (address withdrawAddress) {\n        withdrawAddress = beneficiaries[_validatorIndex].withdrawAddress;\n    }\n\n    /**\n     * @dev Retrieves the information of a beneficiary for a specific validator index.\n     * @param _validatorIndex The index of the validator.\n     *\n     * @return The beneficiary information.\n     */\n    function getBeneficiaryInfo(\n        uint _validatorIndex\n    ) public view returns (Beneficiary memory) {\n        return beneficiaries[_validatorIndex];\n    }\n}",
  "sourcePath": "/home/smeee/projects/slashing_insurance/contracts/contracts/Reserve.sol",
  "compiler": {
    "name": "solc",
    "version": "0.8.9+commit.e5eed63a.Emscripten.clang"
  },
  "schemaVersion": "3.4.7",
  "updatedAt": "2023-06-05T18:27:36.077Z",
  "devdoc": {
    "author": "SLI",
    "details": "Deposits, withdraws, and claims for Aave Pools*",
    "kind": "dev",
    "methods": {
      "addBeneficiary(address,uint256)": {
        "details": "Adds a beneficiary for a specific validator to receive insurance payouts.",
        "params": {
          "_validatorIndex": "The index of the validator for which the beneficiary is being added. Requirements: - Only an approved address can call this function for the specified validator. - Only the beneficiary can add a beneficiary. - The function can only be called within the apply window. - The caller must be a valid pool contract. Modifiers: - onlyAddApproved: restricts the function to be called only by an approved address for the validator. - onlyBeneficiary: restricts the function to be called by the beneficiary. - onlyInApplyWindow: restricts the function to be called only within the apply window. - onlyPools: restricts the function to be called only by a valid pool contract.",
          "_withdrawAddress": "The address to which the insurance payouts will be sent."
        }
      },
      "applyForCoverage(uint256)": {
        "details": "Allows a validator to apply for insurance coverage.",
        "params": {
          "_validatorIndex": "The index of the validator applying for coverage. Requirements: - Only validators with designated Status can call this function. Modifiers: - onlyApply: restricts the function to be called only by the designated Status."
        }
      },
      "constructor": {
        "details": "Constructor."
      },
      "denyClaim(uint256)": {
        "details": "Denies an insurance claim for a specific validator (for malicious activity).",
        "params": {
          "_validatorIndex": "The index of the validator for which the claim is being denied. Requirements: - The function can only be called by a multi-signature account. - The claim must be in the paused state. Modifiers: - onlyMultiSig: restricts the function to be called only by a multi-signature account. - onlyPausedClaim: restricts the function to be called only for validators with paused claims."
        }
      },
      "getBeneficiaryInfo(uint256)": {
        "details": "Retrieves the information of a beneficiary for a specific validator index.",
        "params": {
          "_validatorIndex": "The index of the validator."
        },
        "returns": {
          "_0": "The beneficiary information."
        }
      },
      "getBeneficiaryStatus(uint256)": {
        "details": "Retrieves the status of a beneficiary for a specific validator index.",
        "params": {
          "_validatorIndex": "The index of the validator."
        },
        "returns": {
          "status": "The status of the beneficiary."
        }
      },
      "getDepositorValidatorIds(address)": {
        "details": "Retrieves the validator IDs associated with a specific withdraw address.",
        "params": {
          "_withdrawAddress": "The address of the withdraw address."
        },
        "returns": {
          "_0": "An array of validator IDs associated with the specified withdraw address."
        }
      },
      "getProtocolBalance()": {
        "details": "Retrieves the total balance of the protocol, including ETH balance, unclaimed interest, and aTokens in the reserve.",
        "returns": {
          "_0": "The total balance of the protocol."
        }
      },
      "getReserveATokenBalance()": {
        "details": "Retrieves the balance of aTokens in the reserve.",
        "returns": {
          "_0": "The balance of aTokens in the reserve."
        }
      },
      "getSlashingInsuranceETHAddress()": {
        "details": "Retrieves the address of the SLIETH token contract.",
        "returns": {
          "_0": "The address of the SLIETH token contract."
        }
      },
      "getSlashingInsuranceETHBalance(address)": {
        "details": "Retrieves the balance of SLIETH tokens for a specific depositor.",
        "params": {
          "_depositor": "The address of the depositor."
        },
        "returns": {
          "_0": "The balance of SLIETH tokens for the specified depositor."
        }
      },
      "getSliETHConversion()": {
        "details": "Retrieves the conversion rate between SLIETH and ETH.",
        "returns": {
          "_0": "The conversion rate between SLIETH and ETH."
        }
      },
      "getSliETHTotalSupply()": {
        "details": "Retrieves the total supply of SLIETH tokens.",
        "returns": {
          "_0": "The total supply of SLIETH tokens."
        }
      },
      "getValidatorWithdrawAddress(uint256)": {
        "details": "Retrieves the withdraw address associated with a specific validator index.",
        "params": {
          "_validatorIndex": "The index of the validator."
        },
        "returns": {
          "withdrawAddress": "The withdraw address associated with the validator."
        }
      },
      "makeClaim(uint256)": {
        "details": "Initiates an insurance claim for a specific validator.",
        "params": {
          "_validatorIndex": "The index of the validator for which the claim is being made. Requirements: - The claim must be made from the beneficiary's withdraw address. - The beneficiary must be active for the specified validator. Modifiers: - fromWithdrawAddress: restricts the function to be called only from the beneficiary's withdraw address. - onlyActiveBeneficiary: restricts the function to be called only by an active beneficiary for the validator."
        }
      },
      "oracleResponse(uint256,uint8,address,uint256)": {
        "details": "Handles the response from the oracle regarding a validator's insurance claim or beneficiary addition.",
        "params": {
          "_loss": "The amount of loss incurred by the validator (in wei). Requirements: - Only the oracle contract can call this function. Modifiers: - onlyOracle: restricts the function to be called only by the oracle contract.",
          "_slashed": "The status indicating whether the validator has been slashed (1) or not slashed (0).",
          "_validatorIndex": "The index of the validator for which the oracle response is received.",
          "_withdrawAddress": "The address to which the insurance payouts will be sent."
        }
      },
      "pauseClaim(uint256)": {
        "details": "Pauses an insurance claim for a specific validator.",
        "params": {
          "_validatorIndex": "The index of the validator for which the claim is being paused. Requirements: - The function can only be called by a multi-signature account. - The claim must be in the wait period. Modifiers: - onlyMultiSig: restricts the function to be called only by a multi-signature account. - onlyWaitPeriod: restricts the function to be called only for validators in the wait period."
        }
      },
      "payClaim(uint256)": {
        "details": "Pays out an insurance claim for a specific validator.",
        "params": {
          "_validatorIndex": "The index of the validator for which the claim is being paid. Requirements: - The validator Status must = CLAIM_WAIT_PERIOD. - The timeout period must have passed. Modifiers: - onlyWaitPeriod: restricts the function to be called only for validators with Status = CLAIM_WAIT_PERIOD. - onlyTimeoutPassed: restricts the function to be called only after the timeout period has passed."
        }
      },
      "provideInsurance()": {
        "details": "Provides insurance coverage by depositing ETH and minting sliETH tokens. Events:   - ProvideInsurance: emitted after the insurance coverage is successfully provided. Requirements:   - The value must be greater than or equal to the minimum required amount. Modifiers:   - nonReentrant: prevents reentrancy issues during the function execution."
      },
      "resetClaim(uint256)": {
        "details": "Resets the status of an insurance claim for a specific validator.",
        "params": {
          "_validatorIndex": "The index of the validator for which the claim is being reset. Requirements: - The function can only be called by a multi-signature account. Modifiers: - onlyMultiSig: restricts the function to be called only by a multi-signature account."
        }
      },
      "unpauseClaim(uint256)": {
        "details": "Unpauses an insurance claim for a specific validator.",
        "params": {
          "_validatorIndex": "The index of the validator for which the claim is being unpaused. Requirements: - The function can only be called by a multi-signature account. - The claim must be in the paused state. Modifiers: - onlyMultiSig: restricts the function to be called only by a multi-signature account. - onlyPausedClaim: restricts the function to be called only for validators with paused claims."
        }
      },
      "withdrawBeneficiary(address,uint256)": {
        "details": "Withdraws a beneficiary from the insurance coverage for a specific validator.",
        "params": {
          "_validatorIndex": "The index of the validator for which the beneficiary is being withdrawn. Requirements: - The withdraw address must match the beneficiary's withdraw address for the validator. - The beneficiary must be active for the specified validator. - The caller must be a generator pool Modifiers: - fromWithdrawAddress: withdraw address must match the beneficiary's withdraw address for the validator. - onlyActiveBeneficiary: restricts the function to be called only by an active beneficiary for the validator. - onlyPools: restricts the function to be called only by specific pools.",
          "_withdrawAddress": "The withdraw address of the beneficiary."
        }
      },
      "withdrawInsurance(uint256)": {
        "details": "Withdraws insurance coverage by swapping a specified amount of sliETH tokens for ETH.",
        "params": {
          "_sliETHAmount": "The amount of sliETH tokens to swap for ETH. Events: - WithdrawInsurance: emitted after the insurance coverage is successfully withdrawn. Requirements: - The reserve must have sufficient funds to cover the requested ETH amount. Modifiers: - nonReentrant: prevents reentrancy issues during the function execution."
        }
      }
    },
    "title": "Reserve",
    "version": 1
  },
  "userdoc": {
    "kind": "user",
    "methods": {},
    "notice": "Ethereum Slashing Insurance (SLI) Reserve contract This is a proof of concept contract for lossless Ethereum slashing insurance Lossless because premiums are refundable, when the insurance agreement is terminated. Aave v2 is used to generate interest from beneficiary premium deposits Premium is returned to beneficiary when Policy terminated (validator exits from staking, no longer wants insurance, or claim is paid). Interest is accrued in the Reserve to cover validator slashing claims. Chainlink Functions is used as an oracle to access the validator stats such as slashing, loss, and withdrawal credentials associated with a validator Id. Claims Fund is funded by sliETH. Reserve contract controls deposit calls to Aave for funds held in Reserve.",
    "version": 1
  }
}