{
  "contractName": "Reserve",
  "abi": [
    {
      "inputs": [
        {
          "internalType": "address",
          "name": "_multiSig",
          "type": "address"
        },
        {
          "internalType": "address",
          "name": "_generatorPool",
          "type": "address"
        },
        {
          "internalType": "address",
          "name": "_wethGatewayAddr",
          "type": "address"
        },
        {
          "internalType": "uint256",
          "name": "_minimumProvide",
          "type": "uint256"
        },
        {
          "internalType": "uint256",
          "name": "_minimumReserve",
          "type": "uint256"
        },
        {
          "internalType": "uint256",
          "name": "_maxClaim",
          "type": "uint256"
        },
        {
          "internalType": "address",
          "name": "_oracle",
          "type": "address"
        },
        {
          "internalType": "address",
          "name": "_oracleGateway",
          "type": "address"
        }
      ],
      "stateMutability": "nonpayable",
      "type": "constructor"
    },
    {
      "anonymous": false,
      "inputs": [
        {
          "indexed": false,
          "internalType": "uint256",
          "name": "validatorIndex",
          "type": "uint256"
        },
        {
          "indexed": false,
          "internalType": "address",
          "name": "withdrawAddress",
          "type": "address"
        }
      ],
      "name": "AcceptClaim",
      "type": "event"
    },
    {
      "anonymous": false,
      "inputs": [
        {
          "indexed": false,
          "internalType": "uint256",
          "name": "validatorIndex",
          "type": "uint256"
        },
        {
          "indexed": false,
          "internalType": "address",
          "name": "withdrawAddress",
          "type": "address"
        }
      ],
      "name": "AddBeneficiary",
      "type": "event"
    },
    {
      "anonymous": false,
      "inputs": [
        {
          "indexed": false,
          "internalType": "uint256",
          "name": "validatorIndex",
          "type": "uint256"
        },
        {
          "indexed": false,
          "internalType": "address",
          "name": "withdrawAddress",
          "type": "address"
        }
      ],
      "name": "ApproveApplication",
      "type": "event"
    },
    {
      "anonymous": false,
      "inputs": [
        {
          "indexed": false,
          "internalType": "uint256",
          "name": "validatorIndex",
          "type": "uint256"
        },
        {
          "indexed": false,
          "internalType": "address",
          "name": "withdrawAddress",
          "type": "address"
        },
        {
          "indexed": false,
          "internalType": "uint8",
          "name": "reason",
          "type": "uint8"
        }
      ],
      "name": "DenyApplication",
      "type": "event"
    },
    {
      "anonymous": false,
      "inputs": [
        {
          "indexed": false,
          "internalType": "uint256",
          "name": "validatorIndex",
          "type": "uint256"
        },
        {
          "indexed": false,
          "internalType": "address",
          "name": "withdrawAddress",
          "type": "address"
        },
        {
          "indexed": false,
          "internalType": "uint8",
          "name": "reason",
          "type": "uint8"
        }
      ],
      "name": "DenyClaim",
      "type": "event"
    },
    {
      "anonymous": false,
      "inputs": [
        {
          "indexed": false,
          "internalType": "uint256",
          "name": "validatorIndex",
          "type": "uint256"
        }
      ],
      "name": "MakeClaim",
      "type": "event"
    },
    {
      "anonymous": false,
      "inputs": [
        {
          "indexed": false,
          "internalType": "address",
          "name": "beneficiary",
          "type": "address"
        },
        {
          "indexed": false,
          "internalType": "uint256",
          "name": "amount",
          "type": "uint256"
        },
        {
          "indexed": false,
          "internalType": "uint8",
          "name": "result",
          "type": "uint8"
        }
      ],
      "name": "ProcessClaim",
      "type": "event"
    },
    {
      "anonymous": false,
      "inputs": [
        {
          "indexed": false,
          "internalType": "address",
          "name": "depositor",
          "type": "address"
        },
        {
          "indexed": false,
          "internalType": "uint256",
          "name": "ethAmount",
          "type": "uint256"
        }
      ],
      "name": "ProvideInsurance",
      "type": "event"
    },
    {
      "anonymous": false,
      "inputs": [
        {
          "indexed": false,
          "internalType": "uint256",
          "name": "validatorIndex",
          "type": "uint256"
        },
        {
          "indexed": false,
          "internalType": "address",
          "name": "withdrawAddress",
          "type": "address"
        }
      ],
      "name": "WithdrawBeneficiary",
      "type": "event"
    },
    {
      "anonymous": false,
      "inputs": [
        {
          "indexed": false,
          "internalType": "address",
          "name": "depositor",
          "type": "address"
        },
        {
          "indexed": false,
          "internalType": "uint256",
          "name": "ethAmount",
          "type": "uint256"
        },
        {
          "indexed": false,
          "internalType": "uint256",
          "name": "sliETHAmount",
          "type": "uint256"
        }
      ],
      "name": "WithdrawInsurance",
      "type": "event"
    },
    {
      "stateMutability": "payable",
      "type": "fallback",
      "payable": true
    },
    {
      "inputs": [],
      "name": "APPLY_WINDOW",
      "outputs": [
        {
          "internalType": "uint256",
          "name": "",
          "type": "uint256"
        }
      ],
      "stateMutability": "view",
      "type": "function",
      "constant": true
    },
    {
      "inputs": [],
      "name": "WAIT_PERIOD",
      "outputs": [
        {
          "internalType": "uint256",
          "name": "",
          "type": "uint256"
        }
      ],
      "stateMutability": "view",
      "type": "function",
      "constant": true
    },
    {
      "inputs": [],
      "name": "generatorPool",
      "outputs": [
        {
          "internalType": "address",
          "name": "",
          "type": "address"
        }
      ],
      "stateMutability": "view",
      "type": "function",
      "constant": true
    },
    {
      "inputs": [],
      "name": "maxClaim",
      "outputs": [
        {
          "internalType": "uint256",
          "name": "",
          "type": "uint256"
        }
      ],
      "stateMutability": "view",
      "type": "function",
      "constant": true
    },
    {
      "inputs": [],
      "name": "minimumProvide",
      "outputs": [
        {
          "internalType": "uint256",
          "name": "",
          "type": "uint256"
        }
      ],
      "stateMutability": "view",
      "type": "function",
      "constant": true
    },
    {
      "inputs": [],
      "name": "minimumReserve",
      "outputs": [
        {
          "internalType": "uint256",
          "name": "",
          "type": "uint256"
        }
      ],
      "stateMutability": "view",
      "type": "function",
      "constant": true
    },
    {
      "inputs": [],
      "name": "multiSig",
      "outputs": [
        {
          "internalType": "address",
          "name": "",
          "type": "address"
        }
      ],
      "stateMutability": "view",
      "type": "function",
      "constant": true
    },
    {
      "inputs": [],
      "name": "oracleGateway",
      "outputs": [
        {
          "internalType": "address",
          "name": "",
          "type": "address"
        }
      ],
      "stateMutability": "view",
      "type": "function",
      "constant": true
    },
    {
      "stateMutability": "payable",
      "type": "receive",
      "payable": true
    },
    {
      "inputs": [],
      "name": "provideInsurance",
      "outputs": [],
      "stateMutability": "payable",
      "type": "function",
      "payable": true
    },
    {
      "inputs": [
        {
          "internalType": "uint256",
          "name": "_sliETHAmount",
          "type": "uint256"
        }
      ],
      "name": "withdrawInsurance",
      "outputs": [],
      "stateMutability": "nonpayable",
      "type": "function"
    },
    {
      "inputs": [
        {
          "internalType": "uint256",
          "name": "_validatorIndex",
          "type": "uint256"
        }
      ],
      "name": "applyForCoverage",
      "outputs": [],
      "stateMutability": "nonpayable",
      "type": "function"
    },
    {
      "inputs": [
        {
          "internalType": "address",
          "name": "_withdrawAddress",
          "type": "address"
        },
        {
          "internalType": "uint256",
          "name": "_validatorIndex",
          "type": "uint256"
        }
      ],
      "name": "addBeneficiary",
      "outputs": [],
      "stateMutability": "nonpayable",
      "type": "function"
    },
    {
      "inputs": [
        {
          "internalType": "uint256",
          "name": "_validatorIndex",
          "type": "uint256"
        },
        {
          "internalType": "uint8",
          "name": "_slashed",
          "type": "uint8"
        },
        {
          "internalType": "address",
          "name": "_withdrawAddress",
          "type": "address"
        },
        {
          "internalType": "uint256",
          "name": "_loss",
          "type": "uint256"
        }
      ],
      "name": "oracleResponse",
      "outputs": [],
      "stateMutability": "nonpayable",
      "type": "function"
    },
    {
      "inputs": [
        {
          "internalType": "uint256",
          "name": "_validatorIndex",
          "type": "uint256"
        }
      ],
      "name": "makeClaim",
      "outputs": [],
      "stateMutability": "nonpayable",
      "type": "function"
    },
    {
      "inputs": [
        {
          "internalType": "uint256",
          "name": "_validatorIndex",
          "type": "uint256"
        }
      ],
      "name": "payClaim",
      "outputs": [],
      "stateMutability": "nonpayable",
      "type": "function"
    },
    {
      "inputs": [
        {
          "internalType": "uint256",
          "name": "_validatorIndex",
          "type": "uint256"
        }
      ],
      "name": "denyClaim",
      "outputs": [],
      "stateMutability": "nonpayable",
      "type": "function"
    },
    {
      "inputs": [
        {
          "internalType": "uint256",
          "name": "_validatorIndex",
          "type": "uint256"
        }
      ],
      "name": "pauseClaim",
      "outputs": [],
      "stateMutability": "nonpayable",
      "type": "function"
    },
    {
      "inputs": [
        {
          "internalType": "uint256",
          "name": "_validatorIndex",
          "type": "uint256"
        }
      ],
      "name": "unpauseClaim",
      "outputs": [],
      "stateMutability": "nonpayable",
      "type": "function"
    },
    {
      "inputs": [
        {
          "internalType": "uint256",
          "name": "_validatorIndex",
          "type": "uint256"
        }
      ],
      "name": "resetClaim",
      "outputs": [],
      "stateMutability": "nonpayable",
      "type": "function"
    },
    {
      "inputs": [
        {
          "internalType": "address",
          "name": "_withdrawAddress",
          "type": "address"
        },
        {
          "internalType": "uint256",
          "name": "_validatorIndex",
          "type": "uint256"
        }
      ],
      "name": "withdrawBeneficiary",
      "outputs": [],
      "stateMutability": "nonpayable",
      "type": "function"
    },
    {
      "inputs": [],
      "name": "getSlashingInsuranceETHAddress",
      "outputs": [
        {
          "internalType": "address",
          "name": "",
          "type": "address"
        }
      ],
      "stateMutability": "view",
      "type": "function",
      "constant": true
    },
    {
      "inputs": [
        {
          "internalType": "address",
          "name": "_depositor",
          "type": "address"
        }
      ],
      "name": "getSlashingInsuranceETHBalance",
      "outputs": [
        {
          "internalType": "uint256",
          "name": "",
          "type": "uint256"
        }
      ],
      "stateMutability": "view",
      "type": "function",
      "constant": true
    },
    {
      "inputs": [
        {
          "internalType": "address",
          "name": "_withdrawAddress",
          "type": "address"
        }
      ],
      "name": "getDepositorValidatorIds",
      "outputs": [
        {
          "internalType": "uint256[]",
          "name": "",
          "type": "uint256[]"
        }
      ],
      "stateMutability": "view",
      "type": "function",
      "constant": true
    },
    {
      "inputs": [],
      "name": "getReserveATokenBalance",
      "outputs": [
        {
          "internalType": "uint256",
          "name": "",
          "type": "uint256"
        }
      ],
      "stateMutability": "view",
      "type": "function",
      "constant": true
    },
    {
      "inputs": [],
      "name": "getProtocolBalance",
      "outputs": [
        {
          "internalType": "uint256",
          "name": "",
          "type": "uint256"
        }
      ],
      "stateMutability": "view",
      "type": "function",
      "constant": true
    },
    {
      "inputs": [],
      "name": "getSliETHTotalSupply",
      "outputs": [
        {
          "internalType": "uint256",
          "name": "",
          "type": "uint256"
        }
      ],
      "stateMutability": "view",
      "type": "function",
      "constant": true
    },
    {
      "inputs": [],
      "name": "getSliETHConversion",
      "outputs": [
        {
          "internalType": "uint256",
          "name": "",
          "type": "uint256"
        }
      ],
      "stateMutability": "view",
      "type": "function",
      "constant": true
    },
    {
      "inputs": [
        {
          "internalType": "uint256",
          "name": "_validatorIndex",
          "type": "uint256"
        }
      ],
      "name": "getBeneficiaryStatus",
      "outputs": [
        {
          "internalType": "enum ReserveStorage.Status",
          "name": "status",
          "type": "uint8"
        }
      ],
      "stateMutability": "view",
      "type": "function",
      "constant": true
    },
    {
      "inputs": [
        {
          "internalType": "uint256",
          "name": "_validatorIndex",
          "type": "uint256"
        }
      ],
      "name": "getValidatorWithdrawAddress",
      "outputs": [
        {
          "internalType": "address",
          "name": "withdrawAddress",
          "type": "address"
        }
      ],
      "stateMutability": "view",
      "type": "function",
      "constant": true
    },
    {
      "inputs": [
        {
          "internalType": "uint256",
          "name": "_validatorIndex",
          "type": "uint256"
        }
      ],
      "name": "getBeneficiaryInfo",
      "outputs": [
        {
          "components": [
            {
              "internalType": "enum ReserveStorage.Status",
              "name": "status",
              "type": "uint8"
            },
            {
              "internalType": "address",
              "name": "withdrawAddress",
              "type": "address"
            },
            {
              "internalType": "uint256",
              "name": "claimTimestamp",
              "type": "uint256"
            },
            {
              "internalType": "uint256",
              "name": "applyTimestamp",
              "type": "uint256"
            },
            {
              "internalType": "uint256",
              "name": "loss",
              "type": "uint256"
            }
          ],
          "internalType": "struct ReserveStorage.Beneficiary",
          "name": "",
          "type": "tuple"
        }
      ],
      "stateMutability": "view",
      "type": "function",
      "constant": true
    }
  ],
  "bytecode": "0x6101006040523480156200001257600080fd5b50604051620073d8380380620073d88339818101604052810190620000389190620002b3565b8787878787878787878787878787878760016000819055508773ffffffffffffffffffffffffffffffffffffffff1660c08173ffffffffffffffffffffffffffffffffffffffff16815250508673ffffffffffffffffffffffffffffffffffffffff1660a08173ffffffffffffffffffffffffffffffffffffffff16815250508573ffffffffffffffffffffffffffffffffffffffff1660808173ffffffffffffffffffffffffffffffffffffffff168152505084600581905550836006819055508260078190555081600160006101000a81548173ffffffffffffffffffffffffffffffffffffffff021916908373ffffffffffffffffffffffffffffffffffffffff16021790555080600260006101000a81548173ffffffffffffffffffffffffffffffffffffffff021916908373ffffffffffffffffffffffffffffffffffffffff16021790555050505050505050505050505050505050604051620001a19062000200565b604051809103906000f080158015620001be573d6000803e3d6000fd5b5073ffffffffffffffffffffffffffffffffffffffff1660e08173ffffffffffffffffffffffffffffffffffffffff168152505050505050505050506200037c565b6125578062004e8183390190565b600080fd5b600073ffffffffffffffffffffffffffffffffffffffff82169050919050565b6000620002408262000213565b9050919050565b620002528162000233565b81146200025e57600080fd5b50565b600081519050620002728162000247565b92915050565b6000819050919050565b6200028d8162000278565b81146200029957600080fd5b50565b600081519050620002ad8162000282565b92915050565b600080600080600080600080610100898b031215620002d757620002d66200020e565b5b6000620002e78b828c0162000261565b9850506020620002fa8b828c0162000261565b97505060406200030d8b828c0162000261565b9650506060620003208b828c016200029c565b9550506080620003338b828c016200029c565b94505060a0620003468b828c016200029c565b93505060c0620003598b828c0162000261565b92505060e06200036c8b828c0162000261565b9150509295985092959890939650565b60805160a05160c05160e051614a466200043b600039600081816107ac015281816117e301528181611fdb015281816120dc01526121bc0152600081816109c701528181610fcc01528181611007015281816112ae015261197d01526000818161083b01528181610d8d01528181610ec601528181611d1a015281816125080152818161265d01528181612d9201528181612ecb01526130030152600081816108db01528181612e3501528181612e810152612f6b0152614a466000f3fe6080604052600436106101d15760003560e01c80635a903d26116100f7578063a5ac9a0211610095578063d4938db311610064578063d4938db31461066f578063d70356cc1461069a578063dc0e5d4b146106c3578063ecb61ea1146106ee576101e0565b8063a5ac9a02146105c3578063b6c5039f146105ee578063bfdb89bc14610619578063c1810f6614610644576101e0565b806384ac35eb116100d157806384ac35eb1461050b57806396074e70146105345780639b7abde71461055d578063a0580d881461059a576101e0565b80635a903d261461045457806373be409e14610491578063787191b6146104ce576101e0565b806333e5c43d1161016f57806344c506d51161013e57806344c506d5146103ae578063486da2ca146103d7578063518655e314610400578063576d22a214610429576101e0565b806333e5c43d1461030457806336e0004a1461032f5780633985a42e1461035a5780633c1e7c5614610383576101e0565b806314e7c922116101ab57806314e7c9221461026757806317ea277314610292578063189df97d1461029c5780632907242f146102c7576101e0565b806303010419146101ea5780631077f06c1461021357806311918cb11461023c576101e0565b366101e0576101de610717565b005b6101e8610717565b005b3480156101f657600080fd5b50610211600480360381019061020c9190613451565b6109ae565b005b34801561021f57600080fd5b5061023a60048036038101906102359190613451565b610b7d565b005b34801561024857600080fd5b50610251610d88565b60405161025e919061348d565b60405180910390f35b34801561027357600080fd5b5061027c610eba565b604051610289919061348d565b60405180910390f35b61029a610717565b005b3480156102a857600080fd5b506102b1610f7c565b6040516102be919061348d565b60405180910390f35b3480156102d357600080fd5b506102ee60048036038101906102e99190613451565b610f83565b6040516102fb91906134e9565b60405180910390f35b34801561031057600080fd5b50610319610fc3565b604051610326919061348d565b60405180910390f35b34801561033b57600080fd5b50610344610fca565b60405161035191906134e9565b60405180910390f35b34801561036657600080fd5b50610381600480360381019061037c9190613451565b610fee565b005b34801561038f57600080fd5b50610398611131565b6040516103a5919061348d565b60405180910390f35b3480156103ba57600080fd5b506103d560048036038101906103d09190613569565b611137565b005b3480156103e357600080fd5b506103fe60048036038101906103f99190613451565b611295565b005b34801561040c57600080fd5b5061042760048036038101906104229190613451565b611463565b005b34801561043557600080fd5b5061043e6117df565b60405161044b91906134e9565b60405180910390f35b34801561046057600080fd5b5061047b600480360381019061047691906135d0565b611807565b60405161048891906136bb565b60405180910390f35b34801561049d57600080fd5b506104b860048036038101906104b39190613451565b61189e565b6040516104c59190613754565b60405180910390f35b3480156104da57600080fd5b506104f560048036038101906104f091906135d0565b6118cb565b604051610502919061348d565b60405180910390f35b34801561051757600080fd5b50610532600480360381019061052d9190613451565b611964565b005b34801561054057600080fd5b5061055b6004803603810190610556919061376f565b611b32565b005b34801561056957600080fd5b50610584600480360381019061057f9190613451565b611ead565b6040516105919190613835565b60405180910390f35b3480156105a657600080fd5b506105c160048036038101906105bc9190613451565b611f89565b005b3480156105cf57600080fd5b506105d86121b8565b6040516105e5919061348d565b60405180910390f35b3480156105fa57600080fd5b5061060361225d565b604051610610919061348d565b60405180910390f35b34801561062557600080fd5b5061062e612263565b60405161063b919061348d565b60405180910390f35b34801561065057600080fd5b506106596122ef565b60405161066691906134e9565b60405180910390f35b34801561067b57600080fd5b50610684612315565b604051610691919061348d565b60405180910390f35b3480156106a657600080fd5b506106c160048036038101906106bc9190613451565b61231b565b005b3480156106cf57600080fd5b506106d8612506565b6040516106e591906134e9565b60405180910390f35b3480156106fa57600080fd5b506107156004803603810190610710919061376f565b61252a565b005b6002600054141561075d576040517f08c379a0000000000000000000000000000000000000000000000000000000008152600401610754906138ad565b60405180910390fd5b60026000819055506005543410156107aa576040517f08c379a00000000000000000000000000000000000000000000000000000000081526004016107a19061393f565b60405180910390fd5b7f000000000000000000000000000000000000000000000000000000000000000073ffffffffffffffffffffffffffffffffffffffff166340c10f1933346040518363ffffffff1660e01b815260040161080592919061395f565b600060405180830381600087803b15801561081f57600080fd5b505af1158015610833573d6000803e3d6000fd5b5050505060007f000000000000000000000000000000000000000000000000000000000000000073ffffffffffffffffffffffffffffffffffffffff16635f36a7426040518163ffffffff1660e01b815260040160206040518083038186803b15801561089f57600080fd5b505afa1580156108b3573d6000803e3d6000fd5b505050506040513d601f19601f820116820180604052508101906108d7919061399d565b90507f000000000000000000000000000000000000000000000000000000000000000073ffffffffffffffffffffffffffffffffffffffff1663474cf53d34833060006040518563ffffffff1660e01b815260040161093893929190613a1d565b6000604051808303818588803b15801561095157600080fd5b505af1158015610965573d6000803e3d6000fd5b50505050507f3bdedc0452d6c06ae4c6d0ead53d5e507668cea240d7159cc0d90b9d83ed4dda333460405161099b92919061395f565b60405180910390a1506001600081905550565b3373ffffffffffffffffffffffffffffffffffffffff167f000000000000000000000000000000000000000000000000000000000000000073ffffffffffffffffffffffffffffffffffffffff1614610a3c576040517f08c379a0000000000000000000000000000000000000000000000000000000008152600401610a3390613aa0565b60405180910390fd5b8060056007811115610a5157610a506136dd565b5b6003600083815260200190815260200160002060000160009054906101000a900460ff166007811115610a8757610a866136dd565b5b14610ac7576040517f08c379a0000000000000000000000000000000000000000000000000000000008152600401610abe90613b0c565b60405180910390fd5b60076003600084815260200190815260200160002060000160006101000a81548160ff02191690836007811115610b0157610b006136dd565b5b02179055507f86c33d4cf6eac3e0f0cdffaeb6caf7eb4e20a7239225f6423025a664068115416003600084815260200190815260200160002060000160019054906101000a900473ffffffffffffffffffffffffffffffffffffffff1660006002604051610b7193929190613b98565b60405180910390a15050565b33818173ffffffffffffffffffffffffffffffffffffffff166003600083815260200190815260200160002060000160019054906101000a900473ffffffffffffffffffffffffffffffffffffffff1673ffffffffffffffffffffffffffffffffffffffff1614610c23576040517f08c379a0000000000000000000000000000000000000000000000000000000008152600401610c1a90613c1b565b60405180910390fd5b8260016007811115610c3857610c376136dd565b5b6003600083815260200190815260200160002060000160009054906101000a900460ff166007811115610c6e57610c6d6136dd565b5b14610cae576040517f08c379a0000000000000000000000000000000000000000000000000000000008152600401610ca590613c87565b60405180910390fd5b600260009054906101000a900473ffffffffffffffffffffffffffffffffffffffff1673ffffffffffffffffffffffffffffffffffffffff166332d59b2a610cf586612768565b6040518263ffffffff1660e01b8152600401610d119190613d2f565b600060405180830381600087803b158015610d2b57600080fd5b505af1158015610d3f573d6000803e3d6000fd5b5050505060046003600086815260200190815260200160002060000160006101000a81548160ff02191690836007811115610d7d57610d7c6136dd565b5b021790555050505050565b6000807f000000000000000000000000000000000000000000000000000000000000000073ffffffffffffffffffffffffffffffffffffffff1663828997566040518163ffffffff1660e01b815260040160206040518083038186803b158015610df157600080fd5b505afa158015610e05573d6000803e3d6000fd5b505050506040513d601f19601f82011682018060405250810190610e29919061399d565b90508073ffffffffffffffffffffffffffffffffffffffff166370a08231306040518263ffffffff1660e01b8152600401610e6491906134e9565b60206040518083038186803b158015610e7c57600080fd5b505afa158015610e90573d6000803e3d6000fd5b505050506040513d601f19601f82011682018060405250810190610eb49190613d66565b91505090565b6000610ec4610d88565b7f000000000000000000000000000000000000000000000000000000000000000073ffffffffffffffffffffffffffffffffffffffff1663233641fa6040518163ffffffff1660e01b815260040160206040518083038186803b158015610f2a57600080fd5b505afa158015610f3e573d6000803e3d6000fd5b505050506040513d601f19601f82011682018060405250810190610f629190613d66565b47610f6d9190613dc2565b610f779190613dc2565b905090565b6212750081565b60006003600083815260200190815260200160002060000160019054906101000a900473ffffffffffffffffffffffffffffffffffffffff169050919050565b6202a30081565b7f000000000000000000000000000000000000000000000000000000000000000081565b3373ffffffffffffffffffffffffffffffffffffffff167f000000000000000000000000000000000000000000000000000000000000000073ffffffffffffffffffffffffffffffffffffffff161461107c576040517f08c379a000000000000000000000000000000000000000000000000000000000815260040161107390613aa0565b60405180910390fd5b60016003600083815260200190815260200160002060000160006101000a81548160ff021916908360078111156110b6576110b56136dd565b5b02179055507f86c33d4cf6eac3e0f0cdffaeb6caf7eb4e20a7239225f6423025a664068115416003600083815260200190815260200160002060000160019054906101000a900473ffffffffffffffffffffffffffffffffffffffff166000600460405161112693929190613e53565b60405180910390a150565b60055481565b3373ffffffffffffffffffffffffffffffffffffffff16600160009054906101000a900473ffffffffffffffffffffffffffffffffffffffff1673ffffffffffffffffffffffffffffffffffffffff16146111c7576040517f08c379a00000000000000000000000000000000000000000000000000000000081526004016111be90613ed6565b60405180910390fd5b600460078111156111db576111da6136dd565b5b6003600086815260200190815260200160002060000160009054906101000a900460ff166007811115611211576112106136dd565b5b141561122857611223848484846128c9565b61128e565b6002600781111561123c5761123b6136dd565b5b6003600086815260200190815260200160002060000160009054906101000a900460ff166007811115611272576112716136dd565b5b141561128857611283848484612b8a565b61128d565b61128f565b5b5b50505050565b3373ffffffffffffffffffffffffffffffffffffffff167f000000000000000000000000000000000000000000000000000000000000000073ffffffffffffffffffffffffffffffffffffffff1614611323576040517f08c379a000000000000000000000000000000000000000000000000000000000815260040161131a90613aa0565b60405180910390fd5b80600780811115611337576113366136dd565b5b6003600083815260200190815260200160002060000160009054906101000a900460ff16600781111561136d5761136c6136dd565b5b146113ad576040517f08c379a00000000000000000000000000000000000000000000000000000000081526004016113a490613f42565b60405180910390fd5b60056003600084815260200190815260200160002060000160006101000a81548160ff021916908360078111156113e7576113e66136dd565b5b02179055507f86c33d4cf6eac3e0f0cdffaeb6caf7eb4e20a7239225f6423025a664068115416003600084815260200190815260200160002060000160019054906101000a900473ffffffffffffffffffffffffffffffffffffffff166000600360405161145793929190613f9d565b60405180910390a15050565b806000806007811115611479576114786136dd565b5b6003600084815260200190815260200160002060000160009054906101000a900460ff1660078111156114af576114ae6136dd565b5b148061159f5750600360078111156114ca576114c96136dd565b5b6003600084815260200190815260200160002060000160009054906101000a900460ff166007811115611500576114ff6136dd565b5b14801561156e57503373ffffffffffffffffffffffffffffffffffffffff166003600084815260200190815260200160002060000160019054906101000a900473ffffffffffffffffffffffffffffffffffffffff1673ffffffffffffffffffffffffffffffffffffffff16145b801561159e57506202a300600360008481526020019081526020016000206002015461159a9190613dc2565b4210155b5b9050806115e1576040517f08c379a00000000000000000000000000000000000000000000000000000000081526004016115d890614020565b60405180910390fd5b600260009054906101000a900473ffffffffffffffffffffffffffffffffffffffff1673ffffffffffffffffffffffffffffffffffffffff166332d59b2a61162885612768565b6040518263ffffffff1660e01b81526004016116449190613d2f565b600060405180830381600087803b15801561165e57600080fd5b505af1158015611672573d6000803e3d6000fd5b505050506040518060a0016040528060026007811115611695576116946136dd565b5b81526020013373ffffffffffffffffffffffffffffffffffffffff168152602001600081526020016000815260200160008152506003600085815260200190815260200160002060008201518160000160006101000a81548160ff02191690836007811115611707576117066136dd565b5b021790555060208201518160000160016101000a81548173ffffffffffffffffffffffffffffffffffffffff021916908373ffffffffffffffffffffffffffffffffffffffff160217905550604082015181600101556060820151816002015560808201518160030155905050600460003373ffffffffffffffffffffffffffffffffffffffff1673ffffffffffffffffffffffffffffffffffffffff168152602001908152602001600020839080600181540180825580915050600190039060005260206000200160009091909190915055505050565b60007f0000000000000000000000000000000000000000000000000000000000000000905090565b6060600460008373ffffffffffffffffffffffffffffffffffffffff1673ffffffffffffffffffffffffffffffffffffffff16815260200190815260200160002080548060200260200160405190810160405280929190818152602001828054801561189257602002820191906000526020600020905b81548152602001906001019080831161187e575b50505050509050919050565b60006003600083815260200190815260200160002060000160009054906101000a900460ff169050919050565b60006118d56117df565b73ffffffffffffffffffffffffffffffffffffffff166370a08231836040518263ffffffff1660e01b815260040161190d91906134e9565b60206040518083038186803b15801561192557600080fd5b505afa158015611939573d6000803e3d6000fd5b505050506040513d601f19601f8201168201806040525081019061195d9190613d66565b9050919050565b3373ffffffffffffffffffffffffffffffffffffffff167f000000000000000000000000000000000000000000000000000000000000000073ffffffffffffffffffffffffffffffffffffffff16146119f2576040517f08c379a00000000000000000000000000000000000000000000000000000000081526004016119e990613aa0565b60405180910390fd5b80600780811115611a0657611a056136dd565b5b6003600083815260200190815260200160002060000160009054906101000a900460ff166007811115611a3c57611a3b6136dd565b5b14611a7c576040517f08c379a0000000000000000000000000000000000000000000000000000000008152600401611a7390613f42565b60405180910390fd5b60066003600084815260200190815260200160002060000160006101000a81548160ff02191690836007811115611ab657611ab56136dd565b5b02179055507f86c33d4cf6eac3e0f0cdffaeb6caf7eb4e20a7239225f6423025a664068115416003600084815260200190815260200160002060000160019054906101000a900473ffffffffffffffffffffffffffffffffffffffff1660006001604051611b269392919061407b565b60405180910390a15050565b611b3a610eba565b806006541115611b7f576040517f08c379a0000000000000000000000000000000000000000000000000000000008152600401611b76906140fe565b60405180910390fd5b8160036007811115611b9457611b936136dd565b5b6003600083815260200190815260200160002060000160009054906101000a900460ff166007811115611bca57611bc96136dd565b5b14611c0a576040517f08c379a0000000000000000000000000000000000000000000000000000000008152600401611c019061416a565b60405180910390fd5b83838173ffffffffffffffffffffffffffffffffffffffff166003600083815260200190815260200160002060000160019054906101000a900473ffffffffffffffffffffffffffffffffffffffff1673ffffffffffffffffffffffffffffffffffffffff1614611cb0576040517f08c379a0000000000000000000000000000000000000000000000000000000008152600401611ca7906141fc565b60405180910390fd5b846202a3006003600083815260200190815260200160002060020154611cd69190613dc2565b421115611d18576040517f08c379a0000000000000000000000000000000000000000000000000000000008152600401611d0f90614268565b60405180910390fd5b7f000000000000000000000000000000000000000000000000000000000000000073ffffffffffffffffffffffffffffffffffffffff163373ffffffffffffffffffffffffffffffffffffffff1614611da6576040517f08c379a0000000000000000000000000000000000000000000000000000000008152600401611d9d906142d4565b60405180910390fd5b6040518060a0016040528060016007811115611dc557611dc46136dd565b5b81526020018873ffffffffffffffffffffffffffffffffffffffff168152602001600081526020016000815260200160008152506003600088815260200190815260200160002060008201518160000160006101000a81548160ff02191690836007811115611e3757611e366136dd565b5b021790555060208201518160000160016101000a81548173ffffffffffffffffffffffffffffffffffffffff021916908373ffffffffffffffffffffffffffffffffffffffff16021790555060408201518160010155606082015181600201556080820151816003015590505050505050505050565b611eb56133bf565b600360008381526020019081526020016000206040518060a00160405290816000820160009054906101000a900460ff166007811115611ef857611ef76136dd565b5b6007811115611f0a57611f096136dd565b5b81526020016000820160019054906101000a900473ffffffffffffffffffffffffffffffffffffffff1673ffffffffffffffffffffffffffffffffffffffff1673ffffffffffffffffffffffffffffffffffffffff16815260200160018201548152602001600282015481526020016003820154815250509050919050565b60026000541415611fcf576040517f08c379a0000000000000000000000000000000000000000000000000000000008152600401611fc6906138ad565b60405180910390fd5b600260008190555060007f000000000000000000000000000000000000000000000000000000000000000073ffffffffffffffffffffffffffffffffffffffff1663d5bda32d836040518263ffffffff1660e01b8152600401612032919061348d565b60206040518083038186803b15801561204a57600080fd5b505afa15801561205e573d6000803e3d6000fd5b505050506040513d601f19601f820116820180604052508101906120829190613d66565b90508061208d610eba565b61209791906142f4565b600654106120da576040517f08c379a00000000000000000000000000000000000000000000000000000000081526004016120d19061439a565b60405180910390fd5b7f000000000000000000000000000000000000000000000000000000000000000073ffffffffffffffffffffffffffffffffffffffff16639dc29fac33846040518363ffffffff1660e01b815260040161213592919061395f565b600060405180830381600087803b15801561214f57600080fd5b505af1158015612163573d6000803e3d6000fd5b505050506121713382612d71565b7f84ace38dc519117233d1be602392092fc4cdb791d59d4ade8db1b73d22a1b99f3382846040516121a4939291906143ba565b60405180910390a150600160008190555050565b60007f000000000000000000000000000000000000000000000000000000000000000073ffffffffffffffffffffffffffffffffffffffff1663f0197e1a6040518163ffffffff1660e01b815260040160206040518083038186803b15801561222057600080fd5b505afa158015612234573d6000803e3d6000fd5b505050506040513d601f19601f820116820180604052508101906122589190613d66565b905090565b60065481565b600061226d6117df565b73ffffffffffffffffffffffffffffffffffffffff166318160ddd6040518163ffffffff1660e01b815260040160206040518083038186803b1580156122b257600080fd5b505afa1580156122c6573d6000803e3d6000fd5b505050506040513d601f19601f820116820180604052508101906122ea9190613d66565b905090565b600260009054906101000a900473ffffffffffffffffffffffffffffffffffffffff1681565b60075481565b80600560078111156123305761232f6136dd565b5b6003600083815260200190815260200160002060000160009054906101000a900460ff166007811115612366576123656136dd565b5b146123a6576040517f08c379a000000000000000000000000000000000000000000000000000000000815260040161239d90613b0c565b60405180910390fd5b816212750060036000838152602001908152602001600020600101546123cc9190613dc2565b42101561240e576040517f08c379a000000000000000000000000000000000000000000000000000000000815260040161240590614463565b60405180910390fd5b60006003600085815260200190815260200160002060000160019054906101000a900473ffffffffffffffffffffffffffffffffffffffff169050600060036000868152602001908152602001600020600301549050612484826003600088815260200190815260200160002060030154612d71565b60066003600087815260200190815260200160002060000160006101000a81548160ff021916908360078111156124be576124bd6136dd565b5b02179055507f86c33d4cf6eac3e0f0cdffaeb6caf7eb4e20a7239225f6423025a66406811541828260006040516124f7939291906144b4565b60405180910390a15050505050565b7f000000000000000000000000000000000000000000000000000000000000000081565b81818173ffffffffffffffffffffffffffffffffffffffff166003600083815260200190815260200160002060000160019054906101000a900473ffffffffffffffffffffffffffffffffffffffff1673ffffffffffffffffffffffffffffffffffffffff16146125d0576040517f08c379a00000000000000000000000000000000000000000000000000000000081526004016125c790613c1b565b60405180910390fd5b82600160078111156125e5576125e46136dd565b5b6003600083815260200190815260200160002060000160009054906101000a900460ff16600781111561261b5761261a6136dd565b5b1461265b576040517f08c379a000000000000000000000000000000000000000000000000000000000815260040161265290613c87565b60405180910390fd5b7f000000000000000000000000000000000000000000000000000000000000000073ffffffffffffffffffffffffffffffffffffffff163373ffffffffffffffffffffffffffffffffffffffff16146126e9576040517f08c379a00000000000000000000000000000000000000000000000000000000081526004016126e0906142d4565b60405180910390fd5b60006003600086815260200190815260200160002060000160006101000a81548160ff02191690836007811115612723576127226136dd565b5b02179055507f6c120324200e3395fa899969762464b667f9fc1d7e81c3471b90d215cc077e5484866040516127599291906144eb565b60405180910390a15050505050565b606060008214156127b0576040518060400160405280600181526020017f300000000000000000000000000000000000000000000000000000000000000081525090506128c4565b600082905060005b600082146127e25780806127cb90614514565b915050600a826127db919061458c565b91506127b8565b60008167ffffffffffffffff8111156127fe576127fd6145bd565b5b6040519080825280601f01601f1916602001820160405280156128305781602001600182028036833780820191505090505b5090505b600085146128bd5760018261284991906142f4565b9150600a8561285891906145ec565b60306128649190613dc2565b60f81b81838151811061287a5761287961461d565b5b60200101907effffffffffffffffffffffffffffffffffffffffffffffffffffffffffffff1916908160001a905350600a856128b6919061458c565b9450612834565b8093505050505b919050565b8173ffffffffffffffffffffffffffffffffffffffff166003600086815260200190815260200160002060000160019054906101000a900473ffffffffffffffffffffffffffffffffffffffff1673ffffffffffffffffffffffffffffffffffffffff16146129b25760016003600086815260200190815260200160002060000160006101000a81548160ff0219169083600781111561296c5761296b6136dd565b5b02179055507f246892a0b72c59463eccffe6f35d69b87418c0a947d521e09b5493a7401efa26848360006040516129a59392919061464c565b60405180910390a1612b84565b60008360ff1614806129c45750600081145b15612a495760016003600086815260200190815260200160002060000160006101000a81548160ff02191690836007811115612a0357612a026136dd565b5b02179055507f246892a0b72c59463eccffe6f35d69b87418c0a947d521e09b5493a7401efa2684836001604051612a3c93929190614683565b60405180910390a1612b83565b600754811115612ad35760076003600086815260200190815260200160002060000160006101000a81548160ff02191690836007811115612a8d57612a8c6136dd565b5b02179055507f246892a0b72c59463eccffe6f35d69b87418c0a947d521e09b5493a7401efa2684836002604051612ac6939291906146ba565b60405180910390a1612b4c565b60056003600086815260200190815260200160002060000160006101000a81548160ff02191690836007811115612b0d57612b0c6136dd565b5b02179055507fb0521091930bd66fcf40b38982cc461208539f2cc476213ba6528a02ed9d0b088483604051612b439291906144eb565b60405180910390a15b4260036000868152602001908152602001600020600101819055508060036000868152602001908152602001600020600301819055505b5b50505050565b8073ffffffffffffffffffffffffffffffffffffffff166003600085815260200190815260200160002060000160019054906101000a900473ffffffffffffffffffffffffffffffffffffffff1673ffffffffffffffffffffffffffffffffffffffff16141580612bfe575060018260ff16145b15612cd95760006003600085815260200190815260200160002060000160016101000a81548173ffffffffffffffffffffffffffffffffffffffff021916908373ffffffffffffffffffffffffffffffffffffffff16021790555060006003600085815260200190815260200160002060000160006101000a81548160ff02191690836007811115612c9357612c926136dd565b5b02179055507ff4cbf660b9bf86ae341996b23cc16c5a30d67188f77a1ec65deec0167392507983826000604051612ccc9392919061464c565b60405180910390a1612d6c565b600380600085815260200190815260200160002060000160006101000a81548160ff02191690836007811115612d1257612d116136dd565b5b02179055504260036000858152602001908152602001600020600201819055507f3a17f9fc3552f1447f9b42179b1021cd4fa12f2e9de107610d91b447a410107c8382604051612d639291906144eb565b60405180910390a15b505050565b6000612d7b610d88565b905081811015612d8e57612d8d612fff565b5b60007f000000000000000000000000000000000000000000000000000000000000000073ffffffffffffffffffffffffffffffffffffffff1663828997566040518163ffffffff1660e01b815260040160206040518083038186803b158015612df657600080fd5b505afa158015612e0a573d6000803e3d6000fd5b505050506040513d601f19601f82011682018060405250810190612e2e919061399d565b9050612e7c7f000000000000000000000000000000000000000000000000000000000000000060008373ffffffffffffffffffffffffffffffffffffffff166130a59092919063ffffffff16565b612ec77f0000000000000000000000000000000000000000000000000000000000000000848373ffffffffffffffffffffffffffffffffffffffff166130a59092919063ffffffff16565b60007f000000000000000000000000000000000000000000000000000000000000000073ffffffffffffffffffffffffffffffffffffffff16635f36a7426040518163ffffffff1660e01b815260040160206040518083038186803b158015612f2f57600080fd5b505afa158015612f43573d6000803e3d6000fd5b505050506040513d601f19601f82011682018060405250810190612f67919061399d565b90507f000000000000000000000000000000000000000000000000000000000000000073ffffffffffffffffffffffffffffffffffffffff166380500d208286886040518463ffffffff1660e01b8152600401612fc6939291906146f1565b600060405180830381600087803b158015612fe057600080fd5b505af1158015612ff4573d6000803e3d6000fd5b505050505050505050565b60007f000000000000000000000000000000000000000000000000000000000000000073ffffffffffffffffffffffffffffffffffffffff166263750c6040518163ffffffff1660e01b8152600401602060405180830381600087803b15801561306857600080fd5b505af115801561307c573d6000803e3d6000fd5b505050506040513d601f19601f820116820180604052508101906130a09190613d66565b905050565b600081148061313e575060008373ffffffffffffffffffffffffffffffffffffffff1663dd62ed3e30856040518363ffffffff1660e01b81526004016130ec929190614728565b60206040518083038186803b15801561310457600080fd5b505afa158015613118573d6000803e3d6000fd5b505050506040513d601f19601f8201168201806040525081019061313c9190613d66565b145b61317d576040517f08c379a0000000000000000000000000000000000000000000000000000000008152600401613174906147c3565b60405180910390fd5b6131fe8363095ea7b360e01b848460405160240161319c92919061395f565b604051602081830303815290604052907bffffffffffffffffffffffffffffffffffffffffffffffffffffffff19166020820180517bffffffffffffffffffffffffffffffffffffffffffffffffffffffff8381831617835250505050613203565b505050565b6132228273ffffffffffffffffffffffffffffffffffffffff16613374565b613261576040517f08c379a00000000000000000000000000000000000000000000000000000000081526004016132589061482f565b60405180910390fd5b6000808373ffffffffffffffffffffffffffffffffffffffff16836040516132899190614896565b6000604051808303816000865af19150503d80600081146132c6576040519150601f19603f3d011682016040523d82523d6000602084013e6132cb565b606091505b509150915081613310576040517f08c379a0000000000000000000000000000000000000000000000000000000008152600401613307906148f9565b60405180910390fd5b60008151111561336e578080602001905181019061332e9190614951565b61336d576040517f08c379a0000000000000000000000000000000000000000000000000000000008152600401613364906149f0565b60405180910390fd5b5b50505050565b60008060007fc5d2460186f7233c927e7db2dcc703c0e500b653ca82273b7bfad8045d85a47060001b9050833f91508082141580156133b657506000801b8214155b92505050919050565b6040518060a00160405280600060078111156133de576133dd6136dd565b5b8152602001600073ffffffffffffffffffffffffffffffffffffffff1681526020016000815260200160008152602001600081525090565b600080fd5b6000819050919050565b61342e8161341b565b811461343957600080fd5b50565b60008135905061344b81613425565b92915050565b60006020828403121561346757613466613416565b5b60006134758482850161343c565b91505092915050565b6134878161341b565b82525050565b60006020820190506134a2600083018461347e565b92915050565b600073ffffffffffffffffffffffffffffffffffffffff82169050919050565b60006134d3826134a8565b9050919050565b6134e3816134c8565b82525050565b60006020820190506134fe60008301846134da565b92915050565b600060ff82169050919050565b61351a81613504565b811461352557600080fd5b50565b60008135905061353781613511565b92915050565b613546816134c8565b811461355157600080fd5b50565b6000813590506135638161353d565b92915050565b6000806000806080858703121561358357613582613416565b5b60006135918782880161343c565b94505060206135a287828801613528565b93505060406135b387828801613554565b92505060606135c48782880161343c565b91505092959194509250565b6000602082840312156135e6576135e5613416565b5b60006135f484828501613554565b91505092915050565b600081519050919050565b600082825260208201905092915050565b6000819050602082019050919050565b6136328161341b565b82525050565b60006136448383613629565b60208301905092915050565b6000602082019050919050565b6000613668826135fd565b6136728185613608565b935061367d83613619565b8060005b838110156136ae5781516136958882613638565b97506136a083613650565b925050600181019050613681565b5085935050505092915050565b600060208201905081810360008301526136d5818461365d565b905092915050565b7f4e487b7100000000000000000000000000000000000000000000000000000000600052602160045260246000fd5b6008811061371d5761371c6136dd565b5b50565b600081905061372e8261370c565b919050565b600061373e82613720565b9050919050565b61374e81613733565b82525050565b60006020820190506137696000830184613745565b92915050565b6000806040838503121561378657613785613416565b5b600061379485828601613554565b92505060206137a58582860161343c565b9150509250929050565b6137b881613733565b82525050565b6137c7816134c8565b82525050565b60a0820160008201516137e360008501826137af565b5060208201516137f660208501826137be565b5060408201516138096040850182613629565b50606082015161381c6060850182613629565b50608082015161382f6080850182613629565b50505050565b600060a08201905061384a60008301846137cd565b92915050565b600082825260208201905092915050565b7f5265656e7472616e637947756172643a207265656e7472616e742063616c6c00600082015250565b6000613897601f83613850565b91506138a282613861565b602082019050919050565b600060208201905081810360008301526138c68161388a565b9050919050565b7f76616c7565206d7573742062652067726561746572207468616e206d696e696d60008201527f756d000000000000000000000000000000000000000000000000000000000000602082015250565b6000613929602283613850565b9150613934826138cd565b604082019050919050565b600060208201905081810360008301526139588161391c565b9050919050565b600060408201905061397460008301856134da565b613981602083018461347e565b9392505050565b6000815190506139978161353d565b92915050565b6000602082840312156139b3576139b2613416565b5b60006139c184828501613988565b91505092915050565b6000819050919050565b600061ffff82169050919050565b6000819050919050565b6000613a07613a026139fd846139ca565b6139e2565b6139d4565b9050919050565b613a17816139ec565b82525050565b6000606082019050613a3260008301866134da565b613a3f60208301856134da565b613a4c6040830184613a0e565b949350505050565b7f6e6f7420746865206d756c746953696700000000000000000000000000000000600082015250565b6000613a8a601083613850565b9150613a9582613a54565b602082019050919050565b60006020820190508181036000830152613ab981613a7d565b9050919050565b7f6e6f20636c61696d2070656e64696e6700000000000000000000000000000000600082015250565b6000613af6601083613850565b9150613b0182613ac0565b602082019050919050565b60006020820190508181036000830152613b2581613ae9565b9050919050565b6000613b47613b42613b3d846139ca565b6139e2565b61341b565b9050919050565b613b5781613b2c565b82525050565b6000819050919050565b6000613b82613b7d613b7884613b5d565b6139e2565b613504565b9050919050565b613b9281613b67565b82525050565b6000606082019050613bad60008301866134da565b613bba6020830185613b4e565b613bc76040830184613b89565b949350505050565b7f77697468647261774164647265737320646f6573206e6f74206d617463680000600082015250565b6000613c05601e83613850565b9150613c1082613bcf565b602082019050919050565b60006020820190508181036000830152613c3481613bf8565b9050919050565b7f62656e6566696369617279206e6f742061637469766500000000000000000000600082015250565b6000613c71601683613850565b9150613c7c82613c3b565b602082019050919050565b60006020820190508181036000830152613ca081613c64565b9050919050565b600081519050919050565b60005b83811015613cd0578082015181840152602081019050613cb5565b83811115613cdf576000848401525b50505050565b6000601f19601f8301169050919050565b6000613d0182613ca7565b613d0b8185613850565b9350613d1b818560208601613cb2565b613d2481613ce5565b840191505092915050565b60006020820190508181036000830152613d498184613cf6565b905092915050565b600081519050613d6081613425565b92915050565b600060208284031215613d7c57613d7b613416565b5b6000613d8a84828501613d51565b91505092915050565b7f4e487b7100000000000000000000000000000000000000000000000000000000600052601160045260246000fd5b6000613dcd8261341b565b9150613dd88361341b565b9250827fffffffffffffffffffffffffffffffffffffffffffffffffffffffffffffffff03821115613e0d57613e0c613d93565b5b828201905092915050565b6000819050919050565b6000613e3d613e38613e3384613e18565b6139e2565b613504565b9050919050565b613e4d81613e22565b82525050565b6000606082019050613e6860008301866134da565b613e756020830185613b4e565b613e826040830184613e44565b949350505050565b7f6e6f7420746865206f7261636c65000000000000000000000000000000000000600082015250565b6000613ec0600e83613850565b9150613ecb82613e8a565b602082019050919050565b60006020820190508181036000830152613eef81613eb3565b9050919050565b7f6e6f20636c61696d207061757365640000000000000000000000000000000000600082015250565b6000613f2c600f83613850565b9150613f3782613ef6565b602082019050919050565b60006020820190508181036000830152613f5b81613f1f565b9050919050565b6000819050919050565b6000613f87613f82613f7d84613f62565b6139e2565b613504565b9050919050565b613f9781613f6c565b82525050565b6000606082019050613fb260008301866134da565b613fbf6020830185613b4e565b613fcc6040830184613f8e565b949350505050565b7f6e6f7420656c696769626c6520746f206170706c790000000000000000000000600082015250565b600061400a601583613850565b915061401582613fd4565b602082019050919050565b6000602082019050818103600083015261403981613ffd565b9050919050565b6000819050919050565b600061406561406061405b84614040565b6139e2565b613504565b9050919050565b6140758161404a565b82525050565b600060608201905061409060008301866134da565b61409d6020830185613b4e565b6140aa604083018461406c565b949350505050565b7f6d696e696d756d2072657365727665206e6f74206d6574000000000000000000600082015250565b60006140e8601783613850565b91506140f3826140b2565b602082019050919050565b60006020820190508181036000830152614117816140db565b9050919050565b7f62656e6566696369617279206973206e6f7420617070726f7665640000000000600082015250565b6000614154601b83613850565b915061415f8261411e565b602082019050919050565b6000602082019050818103600083015261418381614147565b9050919050565b7f6d7573742073656e642074782066726f6d2076616c696461746f72207769746860008201527f6472617741646472657373000000000000000000000000000000000000000000602082015250565b60006141e6602b83613850565b91506141f18261418a565b604082019050919050565b60006020820190508181036000830152614215816141d9565b9050919050565b7f4f757473696465206170706c792077696e646f77000000000000000000000000600082015250565b6000614252601483613850565b915061425d8261421c565b602082019050919050565b6000602082019050818103600083015261428181614245565b9050919050565b7f73656e646572206973206e6f7420706f6f6c0000000000000000000000000000600082015250565b60006142be601283613850565b91506142c982614288565b602082019050919050565b600060208201905081810360008301526142ed816142b1565b9050919050565b60006142ff8261341b565b915061430a8361341b565b92508282101561431d5761431c613d93565b5b828203905092915050565b7f7265736572766520696e73756666696369656e7420746f20776974686472617760008201527f20696e737572616e636500000000000000000000000000000000000000000000602082015250565b6000614384602a83613850565b915061438f82614328565b604082019050919050565b600060208201905081810360008301526143b381614377565b9050919050565b60006060820190506143cf60008301866134da565b6143dc602083018561347e565b6143e9604083018461347e565b949350505050565b7f43616e6e6f7420776974686472617720636c61696d20756e74696c2074696d6560008201527f6f75742070617373656400000000000000000000000000000000000000000000602082015250565b600061444d602a83613850565b9150614458826143f1565b604082019050919050565b6000602082019050818103600083015261447c81614440565b9050919050565b600061449e614499614494846139ca565b6139e2565b613504565b9050919050565b6144ae81614483565b82525050565b60006060820190506144c960008301866134da565b6144d6602083018561347e565b6144e360408301846144a5565b949350505050565b6000604082019050614500600083018561347e565b61450d60208301846134da565b9392505050565b600061451f8261341b565b91507fffffffffffffffffffffffffffffffffffffffffffffffffffffffffffffffff82141561455257614551613d93565b5b600182019050919050565b7f4e487b7100000000000000000000000000000000000000000000000000000000600052601260045260246000fd5b60006145978261341b565b91506145a28361341b565b9250826145b2576145b161455d565b5b828204905092915050565b7f4e487b7100000000000000000000000000000000000000000000000000000000600052604160045260246000fd5b60006145f78261341b565b91506146028361341b565b9250826146125761461161455d565b5b828206905092915050565b7f4e487b7100000000000000000000000000000000000000000000000000000000600052603260045260246000fd5b6000606082019050614661600083018661347e565b61466e60208301856134da565b61467b60408301846144a5565b949350505050565b6000606082019050614698600083018661347e565b6146a560208301856134da565b6146b2604083018461406c565b949350505050565b60006060820190506146cf600083018661347e565b6146dc60208301856134da565b6146e96040830184613b89565b949350505050565b600060608201905061470660008301866134da565b614713602083018561347e565b61472060408301846134da565b949350505050565b600060408201905061473d60008301856134da565b61474a60208301846134da565b9392505050565b7f5361666545524332303a20617070726f76652066726f6d206e6f6e2d7a65726f60008201527f20746f206e6f6e2d7a65726f20616c6c6f77616e636500000000000000000000602082015250565b60006147ad603683613850565b91506147b882614751565b604082019050919050565b600060208201905081810360008301526147dc816147a0565b9050919050565b7f5361666545524332303a2063616c6c20746f206e6f6e2d636f6e747261637400600082015250565b6000614819601f83613850565b9150614824826147e3565b602082019050919050565b600060208201905081810360008301526148488161480c565b9050919050565b600081519050919050565b600081905092915050565b60006148708261484f565b61487a818561485a565b935061488a818560208601613cb2565b80840191505092915050565b60006148a28284614865565b915081905092915050565b7f5361666545524332303a206c6f772d6c6576656c2063616c6c206661696c6564600082015250565b60006148e3602083613850565b91506148ee826148ad565b602082019050919050565b60006020820190508181036000830152614912816148d6565b9050919050565b60008115159050919050565b61492e81614919565b811461493957600080fd5b50565b60008151905061494b81614925565b92915050565b60006020828403121561496757614966613416565b5b60006149758482850161493c565b91505092915050565b7f5361666545524332303a204552433230206f7065726174696f6e20646964206e60008201527f6f74207375636365656400000000000000000000000000000000000000000000602082015250565b60006149da602a83613850565b91506149e58261497e565b604082019050919050565b60006020820190508181036000830152614a09816149cd565b905091905056fea2646970667358221220a1bf61814e196fa4536a46ace4a30a227d48416b9ae06d0ef13616134398f0ad64736f6c6343000809003360806040523480156200001157600080fd5b506040518060400160405280601681526020017f536c617368696e6720496e737572616e636520455448000000000000000000008152506040518060400160405280600681526020017f736c694554480000000000000000000000000000000000000000000000000000815250816003908051906020019062000096929190620000f9565b508060049080519060200190620000af929190620000f9565b50505033600660006101000a81548173ffffffffffffffffffffffffffffffffffffffff021916908373ffffffffffffffffffffffffffffffffffffffff1602179055506200020e565b8280546200010790620001d8565b90600052602060002090601f0160209004810192826200012b576000855562000177565b82601f106200014657805160ff191683800117855562000177565b8280016001018555821562000177579182015b828111156200017657825182559160200191906001019062000159565b5b5090506200018691906200018a565b5090565b5b80821115620001a55760008160009055506001016200018b565b5090565b7f4e487b7100000000000000000000000000000000000000000000000000000000600052602260045260246000fd5b60006002820490506001821680620001f157607f821691505b60208210811415620002085762000207620001a9565b5b50919050565b612339806200021e6000396000f3fe6080604052600436106101025760003560e01c806371f56f1111610095578063a9059cbb11610064578063a9059cbb1461037a578063cb765c1d146103b7578063d5bda32d146103e2578063dd62ed3e1461041f578063f0197e1a1461045c57610109565b806371f56f11146102ac57806395d89b41146102e95780639dc29fac14610314578063a457c2d71461033d57610109565b8063313ce567116100d1578063313ce567146101de578063395093511461020957806340c10f191461024657806370a082311461026f57610109565b806306fdde031461010e578063095ea7b31461013957806318160ddd1461017657806323b872dd146101a157610109565b3661010957005b600080fd5b34801561011a57600080fd5b50610123610487565b6040516101309190611641565b60405180910390f35b34801561014557600080fd5b50610160600480360381019061015b91906116fc565b610519565b60405161016d9190611757565b60405180910390f35b34801561018257600080fd5b5061018b610537565b6040516101989190611781565b60405180910390f35b3480156101ad57600080fd5b506101c860048036038101906101c3919061179c565b610541565b6040516101d59190611757565b60405180910390f35b3480156101ea57600080fd5b506101f3610639565b604051610200919061180b565b60405180910390f35b34801561021557600080fd5b50610230600480360381019061022b91906116fc565b610642565b60405161023d9190611757565b60405180910390f35b34801561025257600080fd5b5061026d600480360381019061026891906116fc565b6106ee565b005b34801561027b57600080fd5b5061029660048036038101906102919190611826565b61082f565b6040516102a39190611781565b60405180910390f35b3480156102b857600080fd5b506102d360048036038101906102ce9190611853565b610877565b6040516102e09190611781565b60405180910390f35b3480156102f557600080fd5b506102fe610912565b60405161030b9190611641565b60405180910390f35b34801561032057600080fd5b5061033b600480360381019061033691906116fc565b6109a4565b005b34801561034957600080fd5b50610364600480360381019061035f91906116fc565b610b30565b6040516103719190611757565b60405180910390f35b34801561038657600080fd5b506103a1600480360381019061039c91906116fc565b610c1b565b6040516103ae9190611757565b60405180910390f35b3480156103c357600080fd5b506103cc610c39565b6040516103d99190611781565b60405180910390f35b3480156103ee57600080fd5b5061040960048036038101906104049190611853565b610ce0565b6040516104169190611781565b60405180910390f35b34801561042b57600080fd5b5061044660048036038101906104419190611880565b610d2d565b6040516104539190611781565b60405180910390f35b34801561046857600080fd5b50610471610db4565b60405161047e9190611781565b60405180910390f35b606060038054610496906118ef565b80601f01602080910402602001604051908101604052809291908181526020018280546104c2906118ef565b801561050f5780601f106104e45761010080835404028352916020019161050f565b820191906000526020600020905b8154815290600101906020018083116104f257829003601f168201915b5050505050905090565b600061052d610526610e13565b8484610e1b565b6001905092915050565b6000600254905090565b600061054e848484610fe6565b6000600160008673ffffffffffffffffffffffffffffffffffffffff1673ffffffffffffffffffffffffffffffffffffffff1681526020019081526020016000206000610599610e13565b73ffffffffffffffffffffffffffffffffffffffff1673ffffffffffffffffffffffffffffffffffffffff16815260200190815260200160002054905082811015610619576040517f08c379a000000000000000000000000000000000000000000000000000000000815260040161061090611993565b60405180910390fd5b61062d85610625610e13565b858403610e1b565b60019150509392505050565b60006012905090565b60006106e461064f610e13565b84846001600061065d610e13565b73ffffffffffffffffffffffffffffffffffffffff1673ffffffffffffffffffffffffffffffffffffffff16815260200190815260200160002060008873ffffffffffffffffffffffffffffffffffffffff1673ffffffffffffffffffffffffffffffffffffffff168152602001908152602001600020546106df91906119e2565b610e1b565b6001905092915050565b3373ffffffffffffffffffffffffffffffffffffffff16600660009054906101000a900473ffffffffffffffffffffffffffffffffffffffff1673ffffffffffffffffffffffffffffffffffffffff161461077e576040517f08c379a000000000000000000000000000000000000000000000000000000000815260040161077590611a84565b60405180910390fd5b600061078982610877565b9050600081116107ce576040517f08c379a00000000000000000000000000000000000000000000000000000000081526004016107c590611af0565b60405180910390fd5b6107d88382611267565b8273ffffffffffffffffffffffffffffffffffffffff167f6155cfd0fd028b0ca77e8495a60cbe563e8bce8611f0aad6fedbdaafc05d44a282844260405161082293929190611b10565b60405180910390a2505050565b60008060008373ffffffffffffffffffffffffffffffffffffffff1673ffffffffffffffffffffffffffffffffffffffff168152602001908152602001600020549050919050565b60008082610883610c39565b61088d9190611b47565b90506000610899610537565b905060008114156108ae57839250505061090d565b600082116108f1576040517f08c379a00000000000000000000000000000000000000000000000000000000081526004016108e890611c13565b60405180910390fd5b8181856108fe9190611c33565b6109089190611cbc565b925050505b919050565b606060048054610921906118ef565b80601f016020809104026020016040519081016040528092919081815260200182805461094d906118ef565b801561099a5780601f1061096f5761010080835404028352916020019161099a565b820191906000526020600020905b81548152906001019060200180831161097d57829003601f168201915b5050505050905090565b3373ffffffffffffffffffffffffffffffffffffffff16600660009054906101000a900473ffffffffffffffffffffffffffffffffffffffff1673ffffffffffffffffffffffffffffffffffffffff1614610a34576040517f08c379a0000000000000000000000000000000000000000000000000000000008152600401610a2b90611a84565b60405180910390fd5b60008111610a77576040517f08c379a0000000000000000000000000000000000000000000000000000000008152600401610a6e90611d39565b60405180910390fd5b80610a818361082f565b1015610ac2576040517f08c379a0000000000000000000000000000000000000000000000000000000008152600401610ab990611da5565b60405180910390fd5b6000610acd82610ce0565b9050610ad983836113c7565b3373ffffffffffffffffffffffffffffffffffffffff167f19783b34589160c168487dc7f9c51ae0bcefe67a47d6708fba90f6ce0366d3d1838342604051610b2393929190611b10565b60405180910390a2505050565b60008060016000610b3f610e13565b73ffffffffffffffffffffffffffffffffffffffff1673ffffffffffffffffffffffffffffffffffffffff16815260200190815260200160002060008573ffffffffffffffffffffffffffffffffffffffff1673ffffffffffffffffffffffffffffffffffffffff16815260200190815260200160002054905082811015610bfc576040517f08c379a0000000000000000000000000000000000000000000000000000000008152600401610bf390611e37565b60405180910390fd5b610c10610c07610e13565b85858403610e1b565b600191505092915050565b6000610c2f610c28610e13565b8484610fe6565b6001905092915050565b6000600660009054906101000a900473ffffffffffffffffffffffffffffffffffffffff1673ffffffffffffffffffffffffffffffffffffffff166314e7c9226040518163ffffffff1660e01b815260040160206040518083038186803b158015610ca357600080fd5b505afa158015610cb7573d6000803e3d6000fd5b505050506040513d601f19601f82011682018060405250810190610cdb9190611e6c565b905090565b600080610ceb610c39565b90506000610cf7610537565b90506000811415610d0c578392505050610d28565b808285610d199190611c33565b610d239190611cbc565b925050505b919050565b6000600160008473ffffffffffffffffffffffffffffffffffffffff1673ffffffffffffffffffffffffffffffffffffffff16815260200190815260200160002060008373ffffffffffffffffffffffffffffffffffffffff1673ffffffffffffffffffffffffffffffffffffffff16815260200190815260200160002054905092915050565b600080610dbf610c39565b90506000610dcb610537565b90506000811480610ddc5750600082145b15610dec57600092505050610e10565b8082670de0b6b3a7640000610e019190611c33565b610e0b9190611cbc565b925050505b90565b600033905090565b600073ffffffffffffffffffffffffffffffffffffffff168373ffffffffffffffffffffffffffffffffffffffff161415610e8b576040517f08c379a0000000000000000000000000000000000000000000000000000000008152600401610e8290611f0b565b60405180910390fd5b600073ffffffffffffffffffffffffffffffffffffffff168273ffffffffffffffffffffffffffffffffffffffff161415610efb576040517f08c379a0000000000000000000000000000000000000000000000000000000008152600401610ef290611f9d565b60405180910390fd5b80600160008573ffffffffffffffffffffffffffffffffffffffff1673ffffffffffffffffffffffffffffffffffffffff16815260200190815260200160002060008473ffffffffffffffffffffffffffffffffffffffff1673ffffffffffffffffffffffffffffffffffffffff168152602001908152602001600020819055508173ffffffffffffffffffffffffffffffffffffffff168373ffffffffffffffffffffffffffffffffffffffff167f8c5be1e5ebec7d5bd14f71427d1e84f3dd0314c0f7b2291e5b200ac8c7c3b92583604051610fd99190611781565b60405180910390a3505050565b600073ffffffffffffffffffffffffffffffffffffffff168373ffffffffffffffffffffffffffffffffffffffff161415611056576040517f08c379a000000000000000000000000000000000000000000000000000000000815260040161104d9061202f565b60405180910390fd5b600073ffffffffffffffffffffffffffffffffffffffff168273ffffffffffffffffffffffffffffffffffffffff1614156110c6576040517f08c379a00000000000000000000000000000000000000000000000000000000081526004016110bd906120c1565b60405180910390fd5b6110d183838361159e565b60008060008573ffffffffffffffffffffffffffffffffffffffff1673ffffffffffffffffffffffffffffffffffffffff16815260200190815260200160002054905081811015611157576040517f08c379a000000000000000000000000000000000000000000000000000000000815260040161114e90612153565b60405180910390fd5b8181036000808673ffffffffffffffffffffffffffffffffffffffff1673ffffffffffffffffffffffffffffffffffffffff16815260200190815260200160002081905550816000808573ffffffffffffffffffffffffffffffffffffffff1673ffffffffffffffffffffffffffffffffffffffff16815260200190815260200160002060008282546111ea91906119e2565b925050819055508273ffffffffffffffffffffffffffffffffffffffff168473ffffffffffffffffffffffffffffffffffffffff167fddf252ad1be2c89b69c2b068fc378daa952ba7f163c4a11628f55a4df523b3ef8460405161124e9190611781565b60405180910390a36112618484846115a3565b50505050565b600073ffffffffffffffffffffffffffffffffffffffff168273ffffffffffffffffffffffffffffffffffffffff1614156112d7576040517f08c379a00000000000000000000000000000000000000000000000000000000081526004016112ce906121bf565b60405180910390fd5b6112e36000838361159e565b80600260008282546112f591906119e2565b92505081905550806000808473ffffffffffffffffffffffffffffffffffffffff1673ffffffffffffffffffffffffffffffffffffffff168152602001908152602001600020600082825461134a91906119e2565b925050819055508173ffffffffffffffffffffffffffffffffffffffff16600073ffffffffffffffffffffffffffffffffffffffff167fddf252ad1be2c89b69c2b068fc378daa952ba7f163c4a11628f55a4df523b3ef836040516113af9190611781565b60405180910390a36113c3600083836115a3565b5050565b600073ffffffffffffffffffffffffffffffffffffffff168273ffffffffffffffffffffffffffffffffffffffff161415611437576040517f08c379a000000000000000000000000000000000000000000000000000000000815260040161142e90612251565b60405180910390fd5b6114438260008361159e565b60008060008473ffffffffffffffffffffffffffffffffffffffff1673ffffffffffffffffffffffffffffffffffffffff168152602001908152602001600020549050818110156114c9576040517f08c379a00000000000000000000000000000000000000000000000000000000081526004016114c0906122e3565b60405180910390fd5b8181036000808573ffffffffffffffffffffffffffffffffffffffff1673ffffffffffffffffffffffffffffffffffffffff1681526020019081526020016000208190555081600260008282546115209190611b47565b92505081905550600073ffffffffffffffffffffffffffffffffffffffff168373ffffffffffffffffffffffffffffffffffffffff167fddf252ad1be2c89b69c2b068fc378daa952ba7f163c4a11628f55a4df523b3ef846040516115859190611781565b60405180910390a3611599836000846115a3565b505050565b505050565b505050565b600081519050919050565b600082825260208201905092915050565b60005b838110156115e25780820151818401526020810190506115c7565b838111156115f1576000848401525b50505050565b6000601f19601f8301169050919050565b6000611613826115a8565b61161d81856115b3565b935061162d8185602086016115c4565b611636816115f7565b840191505092915050565b6000602082019050818103600083015261165b8184611608565b905092915050565b600080fd5b600073ffffffffffffffffffffffffffffffffffffffff82169050919050565b600061169382611668565b9050919050565b6116a381611688565b81146116ae57600080fd5b50565b6000813590506116c08161169a565b92915050565b6000819050919050565b6116d9816116c6565b81146116e457600080fd5b50565b6000813590506116f6816116d0565b92915050565b6000806040838503121561171357611712611663565b5b6000611721858286016116b1565b9250506020611732858286016116e7565b9150509250929050565b60008115159050919050565b6117518161173c565b82525050565b600060208201905061176c6000830184611748565b92915050565b61177b816116c6565b82525050565b60006020820190506117966000830184611772565b92915050565b6000806000606084860312156117b5576117b4611663565b5b60006117c3868287016116b1565b93505060206117d4868287016116b1565b92505060406117e5868287016116e7565b9150509250925092565b600060ff82169050919050565b611805816117ef565b82525050565b600060208201905061182060008301846117fc565b92915050565b60006020828403121561183c5761183b611663565b5b600061184a848285016116b1565b91505092915050565b60006020828403121561186957611868611663565b5b6000611877848285016116e7565b91505092915050565b6000806040838503121561189757611896611663565b5b60006118a5858286016116b1565b92505060206118b6858286016116b1565b9150509250929050565b7f4e487b7100000000000000000000000000000000000000000000000000000000600052602260045260246000fd5b6000600282049050600182168061190757607f821691505b6020821081141561191b5761191a6118c0565b5b50919050565b7f45524332303a207472616e7366657220616d6f756e742065786365656473206160008201527f6c6c6f77616e6365000000000000000000000000000000000000000000000000602082015250565b600061197d6028836115b3565b915061198882611921565b604082019050919050565b600060208201905081810360008301526119ac81611970565b9050919050565b7f4e487b7100000000000000000000000000000000000000000000000000000000600052601160045260246000fd5b60006119ed826116c6565b91506119f8836116c6565b9250827fffffffffffffffffffffffffffffffffffffffffffffffffffffffffffffffff03821115611a2d57611a2c6119b3565b5b828201905092915050565b7f6e6f7420746865206f776e657200000000000000000000000000000000000000600082015250565b6000611a6e600d836115b3565b9150611a7982611a38565b602082019050919050565b60006020820190508181036000830152611a9d81611a61565b9050919050565b7f496e76616c696420746f6b656e206d696e7420616d6f756e7400000000000000600082015250565b6000611ada6019836115b3565b9150611ae582611aa4565b602082019050919050565b60006020820190508181036000830152611b0981611acd565b9050919050565b6000606082019050611b256000830186611772565b611b326020830185611772565b611b3f6040830184611772565b949350505050565b6000611b52826116c6565b9150611b5d836116c6565b925082821015611b7057611b6f6119b3565b5b828203905092915050565b7f43616e6e6f742063616c63756c61746520736c6945544820746f6b656e20616d60008201527f6f756e74207768696c6520726573657276652062616c616e6365206973207a6560208201527f726f000000000000000000000000000000000000000000000000000000000000604082015250565b6000611bfd6042836115b3565b9150611c0882611b7b565b606082019050919050565b60006020820190508181036000830152611c2c81611bf0565b9050919050565b6000611c3e826116c6565b9150611c49836116c6565b9250817fffffffffffffffffffffffffffffffffffffffffffffffffffffffffffffffff0483118215151615611c8257611c816119b3565b5b828202905092915050565b7f4e487b7100000000000000000000000000000000000000000000000000000000600052601260045260246000fd5b6000611cc7826116c6565b9150611cd2836116c6565b925082611ce257611ce1611c8d565b5b828204905092915050565b7f496e76616c696420746f6b656e206275726e20616d6f756e7400000000000000600082015250565b6000611d236019836115b3565b9150611d2e82611ced565b602082019050919050565b60006020820190508181036000830152611d5281611d16565b9050919050565b7f496e73756666696369656e7420736c694554482062616c616e63650000000000600082015250565b6000611d8f601b836115b3565b9150611d9a82611d59565b602082019050919050565b60006020820190508181036000830152611dbe81611d82565b9050919050565b7f45524332303a2064656372656173656420616c6c6f77616e63652062656c6f7760008201527f207a65726f000000000000000000000000000000000000000000000000000000602082015250565b6000611e216025836115b3565b9150611e2c82611dc5565b604082019050919050565b60006020820190508181036000830152611e5081611e14565b9050919050565b600081519050611e66816116d0565b92915050565b600060208284031215611e8257611e81611663565b5b6000611e9084828501611e57565b91505092915050565b7f45524332303a20617070726f76652066726f6d20746865207a65726f2061646460008201527f7265737300000000000000000000000000000000000000000000000000000000602082015250565b6000611ef56024836115b3565b9150611f0082611e99565b604082019050919050565b60006020820190508181036000830152611f2481611ee8565b9050919050565b7f45524332303a20617070726f766520746f20746865207a65726f20616464726560008201527f7373000000000000000000000000000000000000000000000000000000000000602082015250565b6000611f876022836115b3565b9150611f9282611f2b565b604082019050919050565b60006020820190508181036000830152611fb681611f7a565b9050919050565b7f45524332303a207472616e736665722066726f6d20746865207a65726f20616460008201527f6472657373000000000000000000000000000000000000000000000000000000602082015250565b60006120196025836115b3565b915061202482611fbd565b604082019050919050565b600060208201905081810360008301526120488161200c565b9050919050565b7f45524332303a207472616e7366657220746f20746865207a65726f206164647260008201527f6573730000000000000000000000000000000000000000000000000000000000602082015250565b60006120ab6023836115b3565b91506120b68261204f565b604082019050919050565b600060208201905081810360008301526120da8161209e565b9050919050565b7f45524332303a207472616e7366657220616d6f756e742065786365656473206260008201527f616c616e63650000000000000000000000000000000000000000000000000000602082015250565b600061213d6026836115b3565b9150612148826120e1565b604082019050919050565b6000602082019050818103600083015261216c81612130565b9050919050565b7f45524332303a206d696e7420746f20746865207a65726f206164647265737300600082015250565b60006121a9601f836115b3565b91506121b482612173565b602082019050919050565b600060208201905081810360008301526121d88161219c565b9050919050565b7f45524332303a206275726e2066726f6d20746865207a65726f2061646472657360008201527f7300000000000000000000000000000000000000000000000000000000000000602082015250565b600061223b6021836115b3565b9150612246826121df565b604082019050919050565b6000602082019050818103600083015261226a8161222e565b9050919050565b7f45524332303a206275726e20616d6f756e7420657863656564732062616c616e60008201527f6365000000000000000000000000000000000000000000000000000000000000602082015250565b60006122cd6022836115b3565b91506122d882612271565b604082019050919050565b600060208201905081810360008301526122fc816122c0565b905091905056fea2646970667358221220979fda24cdb3e8c632674edc54658edb43d59711b2735fc3a3e459cb98263d9b64736f6c63430008090033",
  "immutableReferences": {
    "1231": [
      {
        "length": 32,
        "start": 1964
      },
      {
        "length": 32,
        "start": 6115
      },
      {
        "length": 32,
        "start": 8155
      },
      {
        "length": 32,
        "start": 8412
      },
      {
        "length": 32,
        "start": 8636
      }
    ],
    "2203": [
      {
        "length": 32,
        "start": 2267
      },
      {
        "length": 32,
        "start": 11829
      },
      {
        "length": 32,
        "start": 11905
      },
      {
        "length": 32,
        "start": 12139
      }
    ],
    "2246": [
      {
        "length": 32,
        "start": 2107
      },
      {
        "length": 32,
        "start": 3469
      },
      {
        "length": 32,
        "start": 3782
      },
      {
        "length": 32,
        "start": 7450
      },
      {
        "length": 32,
        "start": 9480
      },
      {
        "length": 32,
        "start": 9821
      },
      {
        "length": 32,
        "start": 11666
      },
      {
        "length": 32,
        "start": 11979
      },
      {
        "length": 32,
        "start": 12291
      }
    ],
    "2248": [
      {
        "length": 32,
        "start": 2503
      },
      {
        "length": 32,
        "start": 4044
      },
      {
        "length": 32,
        "start": 4103
      },
      {
        "length": 32,
        "start": 4782
      },
      {
        "length": 32,
        "start": 6525
      }
    ]
  },
  "source": "// SPDX-License-Identifier: MIT\npragma solidity 0.8.9;\n\n\nimport {SafeERC20} from \"./libraries/SafeERC20.sol\";\nimport {IERC20} from \"./interfaces/other/IERC20.sol\";\nimport {IWETHGateway} from \"./interfaces/aave/IWETHGateway.sol\";\nimport {IPremiumGenerator} from \"./interfaces/protocol/IPremiumGenerator.sol\";\nimport { IOracleGateway } from \"./interfaces/protocol/IOracleGateway.sol\";\nimport {SlashingInsuranceETH} from \"./SlashingInsuranceETH.sol\";\nimport { Authenticator } from \"./Authenticator.sol\";\nimport \"@openzeppelin/contracts/security/ReentrancyGuard.sol\";\nimport \"@openzeppelin/contracts/utils/Strings.sol\";\n\n//AAVE V2\nimport {ILendingPool} from \"./interfaces/aave/ILendingPool.sol\";\nimport {ILendingPoolAddressesProvider} from \"./interfaces/aave/ILendingPoolAddressesProvider.sol\";\nimport {IProtocolDataProvider} from \"./interfaces/aave/IProtocolDataProvider.sol\";\n\n\n/**\n * @title Ethereum Slashing Insurance (SLI) Reserve contract\n * @author smeee\n * @notice Main point of interaction with SLI Protocol\n * This is a proof of concept starter contract for lossless insurance\n *\n * Aave v2 is used to generate interest from premium deposits\n * Premium is returned to beneficiary after the\n *\n * PoolTracker contract controls deposit calls to Aave to make\n * approvals needed only once per token. Calls JustCause Pools for\n * withdrawals and claims\n *\n * Controls Owner/Contributor NFT creation and updates for deposits/withdrawals\n *\n * Controls JustCause Pool creation with proxy contracts\n *\n * @dev Deposits, withdraws, and claims for Aave Pools\n * @dev Generate ERC721 token\n **/\n\ncontract Reserve is ReentrancyGuard, Authenticator{\n    using SafeERC20 for IERC20;\n\n    SlashingInsuranceETH immutable sliETH;\n\n    event DenyApplication(uint validatorIndex,address withdrawAddress,uint8 reason);\n    event ApproveApplication( uint validatorIndex, address withdrawAddress);\n    event ProvideInsurance(address depositor, uint ethAmount);\n    event WithdrawInsurance(address depositor, uint ethAmount, uint sliETHAmount);\n    event DenyClaim(uint validatorIndex,address withdrawAddress,uint8 reason);\n    event AcceptClaim(uint validatorIndex,address withdrawAddress);\n    event AddBeneficiary(uint validatorIndex, address withdrawAddress);\n    event WithdrawBeneficiary(uint validatorIndex, address withdrawAddress);\n    event MakeClaim(uint validatorIndex);\n    event ProcessClaim(address beneficiary, uint amount, uint8 result);\n\n    /**\n     * @dev Constructor.\n     */\n    constructor(\n        address _multiSig,\n        address _generatorPool,\n        address _wethGatewayAddr,\n        uint _minimumProvide,\n        uint _minimumReserve,\n        uint _maxClaim,\n        address _oracle,\n        address _oracleGateway\n    ) Authenticator(\n        _multiSig,\n        _generatorPool,\n        _wethGatewayAddr,\n        _minimumProvide,\n        _minimumReserve,\n        _maxClaim,\n        _oracle,\n        _oracleGateway\n    ){\n        sliETH = new SlashingInsuranceETH();\n    }\n\n    receive() external payable {\n        provideInsurance();\n    }\n\n    // Fallback function is called when msg.data is not empty\n    fallback() external payable {\n        provideInsurance();\n    }\n\n    function provideInsurance() public payable nonReentrant {\n        require(\n            msg.value >= minimumProvide,\n            \"value must be greater than minimum\"\n        );\n        sliETH.mint(msg.sender, msg.value);\n        address aaveLendingPool = IPremiumGenerator(generatorPool).getLendingPoolAddress();\n        IWETHGateway(wethGatewayAddr).depositETH{value: msg.value}(aaveLendingPool, address(this), 0);\n        emit ProvideInsurance(msg.sender, msg.value);\n    }\n\n    function withdrawInsurance(uint _sliETHAmount) external nonReentrant {\n        uint requestedETH = sliETH.getETHValue(_sliETHAmount);\n        require(\n            minimumReserve < (getProtocolBalance() - requestedETH),\n            \"reserve insufficient to withdraw insurance\"\n        );\n        sliETH.burn(msg.sender, _sliETHAmount);\n        _processOutflow(msg.sender, requestedETH);\n        emit WithdrawInsurance(msg.sender, requestedETH, _sliETHAmount);\n    }\n\n    function _processOutflow(address _to, uint requestedETH) internal {\n        //harvest aave pools for outflow\n        uint aTokenBalance = getReserveATokenBalance();\n        if(aTokenBalance < requestedETH){\n            _harvestInterest();\n        }\n\n        address aTokenAddress = IPremiumGenerator(generatorPool)\n            .getATokenAddress();\n        IERC20(aTokenAddress).safeApprove(wethGatewayAddr, 0);\n        IERC20(aTokenAddress).safeApprove(wethGatewayAddr, requestedETH);\n        address aaveLendingPool = IPremiumGenerator(generatorPool)\n            .getLendingPoolAddress();\n        IWETHGateway(wethGatewayAddr).withdrawETH(\n            aaveLendingPool,\n            requestedETH,\n            _to\n        );\n    }\n\n    /**\n     * @param _validatorIndex uint index of insured validator\n     **/\n    function applyForCoverage(\n        uint _validatorIndex\n    ) external onlyApply(_validatorIndex) {\n        IOracleGateway(oracleGateway).callOracle(Strings.toString(_validatorIndex));\n        beneficiaries[_validatorIndex] = Beneficiary(\n            Status.AWAIT_ORACLE_ADD,\n            msg.sender,\n            0,\n            0,\n            0\n        );\n        depositors[msg.sender].push(_validatorIndex);\n    }\n\n    /**\n     * @param _withdrawAddress address of beneficiary\n     * @param _validatorIndex uint index of insured validator\n     **/\n    function addBeneficiary(\n        address _withdrawAddress,\n        uint _validatorIndex\n    )\n        external\n        minimumReserveMet(getProtocolBalance())\n        onlyAddApproved(_validatorIndex)\n        onlyBeneficiary(_withdrawAddress, _validatorIndex)\n        onlyInApplyWindow(_validatorIndex)\n        onlyPools\n    {\n        beneficiaries[_validatorIndex] = Beneficiary(\n            Status.ACTIVE,\n            _withdrawAddress,\n            0,\n            0,\n            0\n        );\n    }\n\n    function oracleResponse(\n        uint _validatorIndex,\n        uint8 _slashed,\n        address _withdrawAddress,\n        uint _loss\n    ) external onlyOracle {\n        if (beneficiaries[_validatorIndex].status == Status.AWAIT_ORACLE_CLAIM) {\n            _oracleClaimResponse(_validatorIndex, _slashed, _withdrawAddress, _loss);\n        }\n        else if (beneficiaries[_validatorIndex].status == Status.AWAIT_ORACLE_ADD) {\n            _oracleAddBeneResponse(_validatorIndex, _slashed, _withdrawAddress);\n        }\n        else{\n            return;\n        }\n    }\n\n    function _oracleAddBeneResponse(\n        uint _validatorIndex,\n        uint8 _slashed,\n        address _withdrawAddress\n    ) internal {\n        //check withdraw address with oracle reponse\n        //check validator is active with oracle response\n        if (\n            beneficiaries[_validatorIndex].withdrawAddress != _withdrawAddress ||\n            _slashed == 1\n        ) {\n            beneficiaries[_validatorIndex].withdrawAddress = address(0);\n            beneficiaries[_validatorIndex].status = Status.NOT_ACTIVE;\n            emit DenyApplication(\n                _validatorIndex,\n                _withdrawAddress,\n                0 //address not correct or not set\n            );\n        }\n        else {\n            beneficiaries[_validatorIndex].status = Status.ORACLE_ADD_APPROVE;\n            beneficiaries[_validatorIndex].applyTimestamp = block.timestamp;\n            emit ApproveApplication(_validatorIndex, _withdrawAddress);\n        }\n    }\n\n    function _oracleClaimResponse(\n        uint _validatorIndex,\n        uint8 _slashed,\n        address _withdrawAddress,\n        uint _loss\n    ) internal {\n        //check withdraw address with oracle reponse\n        if (\n            beneficiaries[_validatorIndex].withdrawAddress != _withdrawAddress\n        ) {\n            beneficiaries[_validatorIndex].status = Status.ACTIVE;\n            emit DenyClaim(\n                _validatorIndex,\n                _withdrawAddress,\n                0//\"withdrawAddress incorrect\"\n            );\n        }\n        //check if slashed\n        else if (_slashed == 0 || _loss == 0) {\n            beneficiaries[_validatorIndex].status = Status.ACTIVE;\n            emit DenyClaim(\n                _validatorIndex,\n                _withdrawAddress,\n                1//\"not slashed\"\n            );\n        }\n        else {\n            if(_loss > maxClaim){\n                beneficiaries[_validatorIndex].status = Status.CLAIM_PAUSED;\n                emit DenyClaim(\n                _validatorIndex,\n                _withdrawAddress,\n                2//exceeds max claim and has to be reviewed\n            );\n            }\n            else{\n                beneficiaries[_validatorIndex].status = Status.CLAIM_WAIT_PERIOD;\n                emit AcceptClaim(_validatorIndex, _withdrawAddress);\n            }\n            beneficiaries[_validatorIndex].claimTimestamp = block.timestamp;\n            beneficiaries[_validatorIndex].loss = _loss;\n        }\n    }\n\n    function makeClaim(\n        uint _validatorIndex\n    )\n        public\n        fromWithdrawAddress(msg.sender, _validatorIndex)\n        onlyActiveBeneficiary(_validatorIndex)\n    {\n        IOracleGateway(oracleGateway).callOracle(Strings.toString(_validatorIndex));\n        beneficiaries[_validatorIndex].status = Status.AWAIT_ORACLE_CLAIM;\n    }\n\n    function payClaim(\n        uint _validatorIndex\n    )\n        external\n        onlyWaitPeriod(_validatorIndex)\n        onlyTimeoutPassed(_validatorIndex)\n    {\n        address withdrawAddress = beneficiaries[_validatorIndex]\n            .withdrawAddress;\n        uint loss = beneficiaries[_validatorIndex].loss;\n        _processOutflow(\n            withdrawAddress,\n            beneficiaries[_validatorIndex].loss\n        );\n        beneficiaries[_validatorIndex].status = Status.CLOSED;\n        emit ProcessClaim(\n            withdrawAddress,\n            loss,\n            0//approve\n            );\n    }\n\n    function denyClaim(\n        uint _validatorIndex\n    ) public onlyMultiSig onlyPausedClaim(_validatorIndex) {\n        beneficiaries[_validatorIndex].status = Status.CLOSED;\n        emit ProcessClaim(\n            beneficiaries[_validatorIndex].withdrawAddress,\n            0,\n            1//deny\n        );\n    }\n\n    function pauseClaim(\n        uint _validatorIndex\n    ) public onlyMultiSig onlyWaitPeriod(_validatorIndex) {\n        beneficiaries[_validatorIndex].status = Status.CLAIM_PAUSED;\n        emit ProcessClaim(\n            beneficiaries[_validatorIndex].withdrawAddress,\n            0,\n            2//pause\n        );\n    }\n\n    function unpauseClaim(\n        uint _validatorIndex\n    )\n        public\n        onlyMultiSig\n        onlyPausedClaim(_validatorIndex)\n    {\n        beneficiaries[_validatorIndex].status = Status.CLAIM_WAIT_PERIOD;\n        emit ProcessClaim(\n            beneficiaries[_validatorIndex].withdrawAddress,\n            0,\n            3//\"unpause\"\n        );\n    }\n\n    function resetClaim(\n        uint _validatorIndex\n    ) public onlyMultiSig {\n        beneficiaries[_validatorIndex].status = Status.ACTIVE;\n        emit ProcessClaim(\n            beneficiaries[_validatorIndex].withdrawAddress,\n            0,\n            4//\"reset\"\n        );\n    }\n\n    /**\n     * @dev Emit WithdrawDeposit\n     * @param _withdrawAddress address of beneficiary\n     * @param _validatorIndex uint index of insured validator\n     **/\n    function withdrawBeneficiary(\n        address _withdrawAddress,\n        uint _validatorIndex\n    )\n        external\n        fromWithdrawAddress(_withdrawAddress, _validatorIndex)\n        onlyActiveBeneficiary(_validatorIndex)\n        onlyPools\n    {\n        beneficiaries[_validatorIndex].status = Status.NOT_ACTIVE;\n        emit WithdrawBeneficiary(_validatorIndex, _withdrawAddress);\n    }\n\n    /**\n     * @dev Emit Claim\n     **/\n    function _harvestInterest() internal {\n        uint256 amount = IPremiumGenerator(generatorPool).withdrawInterest();\n    }\n\n    function getSlashingInsuranceETHAddress() public view returns (address) {\n        return address(sliETH);\n    }\n\n    function getSlashingInsuranceETHBalance(\n        address _depositor\n    ) public view returns (uint) {\n        return IERC20(getSlashingInsuranceETHAddress()).balanceOf(_depositor);\n    }\n\n    function getDepositorValidatorIds(address _withdrawAddress) public view returns(uint[] memory){\n        return depositors[_withdrawAddress];\n    }\n\n    function getReserveATokenBalance() public view returns (uint) {\n        address aTokenAddress = IPremiumGenerator(generatorPool)\n                .getATokenAddress();\n\n        return IERC20(aTokenAddress).balanceOf(address(this));\n    }\n\n    function getProtocolBalance() public view returns (uint) {\n        return (\n            address(this).balance +\n            IPremiumGenerator(generatorPool).getUnclaimedInterest() +\n            getReserveATokenBalance()\n        );\n    }\n\n    function getSliETHTotalSupply() public view returns (uint) {\n        return IERC20(getSlashingInsuranceETHAddress()).totalSupply();\n    }\n\n    function getSliETHConversion() public view returns (uint256) {\n        return sliETH.getETHValuePerSliETH();\n    }\n\n    function getBeneficiaryStatus(\n        uint _validatorIndex\n    ) public view returns (Status status) {\n        status = beneficiaries[_validatorIndex].status;\n    }\n\n    function getValidatorWithdrawAddress(\n        uint _validatorIndex\n    ) public view returns (address withdrawAddress) {\n        withdrawAddress = beneficiaries[_validatorIndex].withdrawAddress;\n    }\n\n    function getBeneficiaryInfo(\n        uint _validatorIndex\n    ) public view returns (Beneficiary memory) {\n        return beneficiaries[_validatorIndex];\n    }\n}",
  "sourcePath": "/home/smeee/projects/slashing_insurance/contracts/contracts/Reserve.sol",
  "compiler": {
    "name": "solc",
    "version": "0.8.9+commit.e5eed63a.Emscripten.clang"
  },
  "schemaVersion": "3.4.7",
  "updatedAt": "2023-05-30T18:30:52.773Z",
  "networkType": "ethereum",
  "devdoc": {
    "author": "smeee",
    "details": "Deposits, withdraws, and claims for Aave PoolsGenerate ERC721 token*",
    "kind": "dev",
    "methods": {
      "addBeneficiary(address,uint256)": {
        "params": {
          "_validatorIndex": "uint index of insured validator*",
          "_withdrawAddress": "address of beneficiary"
        }
      },
      "applyForCoverage(uint256)": {
        "params": {
          "_validatorIndex": "uint index of insured validator*"
        }
      },
      "constructor": {
        "details": "Constructor."
      },
      "withdrawBeneficiary(address,uint256)": {
        "details": "Emit WithdrawDeposit",
        "params": {
          "_validatorIndex": "uint index of insured validator*",
          "_withdrawAddress": "address of beneficiary"
        }
      }
    },
    "title": "Ethereum Slashing Insurance (SLI) Reserve contract",
    "version": 1
  },
  "userdoc": {
    "kind": "user",
    "methods": {},
    "notice": "Main point of interaction with SLI Protocol This is a proof of concept starter contract for lossless insurance Aave v2 is used to generate interest from premium deposits Premium is returned to beneficiary after the PoolTracker contract controls deposit calls to Aave to make approvals needed only once per token. Calls JustCause Pools for withdrawals and claims Controls Owner/Contributor NFT creation and updates for deposits/withdrawals Controls JustCause Pool creation with proxy contracts",
    "version": 1
  }
}