{
  "contractName": "Reserve",
  "abi": [
    {
      "inputs": [
        {
          "internalType": "address",
          "name": "_multiSig",
          "type": "address"
        },
        {
          "internalType": "address",
          "name": "_generatorPool",
          "type": "address"
        },
        {
          "internalType": "address",
          "name": "_wethGatewayAddr",
          "type": "address"
        },
        {
          "internalType": "uint256",
          "name": "_minimumProvide",
          "type": "uint256"
        },
        {
          "internalType": "uint256",
          "name": "_minimumReserve",
          "type": "uint256"
        },
        {
          "internalType": "uint256",
          "name": "_maxClaim",
          "type": "uint256"
        },
        {
          "internalType": "address",
          "name": "_oracle",
          "type": "address"
        }
      ],
      "stateMutability": "nonpayable",
      "type": "constructor"
    },
    {
      "anonymous": false,
      "inputs": [
        {
          "indexed": false,
          "internalType": "uint256",
          "name": "validatorIndex",
          "type": "uint256"
        },
        {
          "indexed": false,
          "internalType": "address",
          "name": "withdrawAddress",
          "type": "address"
        }
      ],
      "name": "AddBeneficiary",
      "type": "event"
    },
    {
      "anonymous": false,
      "inputs": [
        {
          "indexed": false,
          "internalType": "uint256",
          "name": "validatorIndex",
          "type": "uint256"
        },
        {
          "indexed": false,
          "internalType": "address",
          "name": "withdrawAddres",
          "type": "address"
        },
        {
          "indexed": false,
          "internalType": "string",
          "name": "reason",
          "type": "string"
        }
      ],
      "name": "DenyAddBeneficiary",
      "type": "event"
    },
    {
      "anonymous": false,
      "inputs": [
        {
          "indexed": false,
          "internalType": "address",
          "name": "pool",
          "type": "address"
        },
        {
          "indexed": false,
          "internalType": "uint256",
          "name": "amount",
          "type": "uint256"
        }
      ],
      "name": "Harvest",
      "type": "event"
    },
    {
      "anonymous": false,
      "inputs": [
        {
          "indexed": false,
          "internalType": "uint256",
          "name": "validatorIndex",
          "type": "uint256"
        }
      ],
      "name": "MakeClaim",
      "type": "event"
    },
    {
      "anonymous": false,
      "inputs": [
        {
          "indexed": false,
          "internalType": "address",
          "name": "beneficiary",
          "type": "address"
        },
        {
          "indexed": false,
          "internalType": "uint256",
          "name": "amount",
          "type": "uint256"
        },
        {
          "indexed": false,
          "internalType": "string",
          "name": "result",
          "type": "string"
        }
      ],
      "name": "ProcessClaim",
      "type": "event"
    },
    {
      "anonymous": false,
      "inputs": [
        {
          "indexed": false,
          "internalType": "uint256",
          "name": "validatorIndex",
          "type": "uint256"
        },
        {
          "indexed": false,
          "internalType": "address",
          "name": "withdrawAddres",
          "type": "address"
        }
      ],
      "name": "WithdrawBeneficiary",
      "type": "event"
    },
    {
      "stateMutability": "payable",
      "type": "fallback",
      "payable": true
    },
    {
      "inputs": [],
      "name": "WAIT_PERIOD",
      "outputs": [
        {
          "internalType": "uint256",
          "name": "",
          "type": "uint256"
        }
      ],
      "stateMutability": "view",
      "type": "function",
      "constant": true
    },
    {
      "inputs": [],
      "name": "maxClaim",
      "outputs": [
        {
          "internalType": "uint256",
          "name": "",
          "type": "uint256"
        }
      ],
      "stateMutability": "view",
      "type": "function",
      "constant": true
    },
    {
      "inputs": [],
      "name": "minimumProvide",
      "outputs": [
        {
          "internalType": "uint256",
          "name": "",
          "type": "uint256"
        }
      ],
      "stateMutability": "view",
      "type": "function",
      "constant": true
    },
    {
      "inputs": [],
      "name": "minimumReserve",
      "outputs": [
        {
          "internalType": "uint256",
          "name": "",
          "type": "uint256"
        }
      ],
      "stateMutability": "view",
      "type": "function",
      "constant": true
    },
    {
      "stateMutability": "payable",
      "type": "receive",
      "payable": true
    },
    {
      "inputs": [],
      "name": "provideInsurance",
      "outputs": [],
      "stateMutability": "payable",
      "type": "function",
      "payable": true
    },
    {
      "inputs": [
        {
          "internalType": "uint256",
          "name": "_sliETHAmount",
          "type": "uint256"
        }
      ],
      "name": "withdrawInsurance",
      "outputs": [],
      "stateMutability": "nonpayable",
      "type": "function"
    },
    {
      "inputs": [
        {
          "internalType": "uint256",
          "name": "_validatorIndex",
          "type": "uint256"
        }
      ],
      "name": "applyForCoverage",
      "outputs": [],
      "stateMutability": "nonpayable",
      "type": "function"
    },
    {
      "inputs": [
        {
          "internalType": "address",
          "name": "_withdrawAddress",
          "type": "address"
        },
        {
          "internalType": "uint256",
          "name": "_validatorIndex",
          "type": "uint256"
        }
      ],
      "name": "addBeneficiary",
      "outputs": [],
      "stateMutability": "nonpayable",
      "type": "function"
    },
    {
      "inputs": [
        {
          "internalType": "uint256",
          "name": "_validatorIndex",
          "type": "uint256"
        },
        {
          "internalType": "uint8",
          "name": "_slashed",
          "type": "uint8"
        },
        {
          "internalType": "address",
          "name": "_withdrawAddress",
          "type": "address"
        },
        {
          "internalType": "uint256",
          "name": "_loss",
          "type": "uint256"
        }
      ],
      "name": "oracleResponse",
      "outputs": [],
      "stateMutability": "nonpayable",
      "type": "function"
    },
    {
      "inputs": [
        {
          "internalType": "uint256",
          "name": "_validatorIndex",
          "type": "uint256"
        }
      ],
      "name": "makeClaim",
      "outputs": [],
      "stateMutability": "nonpayable",
      "type": "function"
    },
    {
      "inputs": [
        {
          "internalType": "uint256",
          "name": "_validatorIndex",
          "type": "uint256"
        }
      ],
      "name": "payClaim",
      "outputs": [],
      "stateMutability": "nonpayable",
      "type": "function"
    },
    {
      "inputs": [
        {
          "internalType": "uint256",
          "name": "_validatorIndex",
          "type": "uint256"
        }
      ],
      "name": "denyClaim",
      "outputs": [],
      "stateMutability": "nonpayable",
      "type": "function"
    },
    {
      "inputs": [
        {
          "internalType": "uint256",
          "name": "_validatorIndex",
          "type": "uint256"
        }
      ],
      "name": "pauseClaim",
      "outputs": [],
      "stateMutability": "nonpayable",
      "type": "function"
    },
    {
      "inputs": [
        {
          "internalType": "uint256",
          "name": "_validatorIndex",
          "type": "uint256"
        }
      ],
      "name": "unpauseClaim",
      "outputs": [],
      "stateMutability": "nonpayable",
      "type": "function"
    },
    {
      "inputs": [
        {
          "internalType": "uint256",
          "name": "_validatorIndex",
          "type": "uint256"
        }
      ],
      "name": "resetClaim",
      "outputs": [],
      "stateMutability": "nonpayable",
      "type": "function"
    },
    {
      "inputs": [
        {
          "internalType": "uint256",
          "name": "_requested",
          "type": "uint256"
        }
      ],
      "name": "getPremiumHarvestNeeded",
      "outputs": [
        {
          "internalType": "uint256",
          "name": "",
          "type": "uint256"
        }
      ],
      "stateMutability": "view",
      "type": "function",
      "constant": true
    },
    {
      "inputs": [
        {
          "internalType": "address",
          "name": "_withdrawAddress",
          "type": "address"
        },
        {
          "internalType": "uint256",
          "name": "_validatorIndex",
          "type": "uint256"
        }
      ],
      "name": "withdrawBeneficiary",
      "outputs": [],
      "stateMutability": "nonpayable",
      "type": "function"
    },
    {
      "inputs": [],
      "name": "getMultiSig",
      "outputs": [
        {
          "internalType": "address",
          "name": "",
          "type": "address"
        }
      ],
      "stateMutability": "view",
      "type": "function",
      "constant": true
    },
    {
      "inputs": [],
      "name": "getGeneratorPool",
      "outputs": [
        {
          "internalType": "address",
          "name": "",
          "type": "address"
        }
      ],
      "stateMutability": "view",
      "type": "function",
      "constant": true
    },
    {
      "inputs": [],
      "name": "getSlashingInsuranceETHAddress",
      "outputs": [
        {
          "internalType": "address",
          "name": "",
          "type": "address"
        }
      ],
      "stateMutability": "view",
      "type": "function",
      "constant": true
    },
    {
      "inputs": [
        {
          "internalType": "address",
          "name": "_depositor",
          "type": "address"
        }
      ],
      "name": "getSlashingInsuranceETHBalance",
      "outputs": [
        {
          "internalType": "uint256",
          "name": "",
          "type": "uint256"
        }
      ],
      "stateMutability": "view",
      "type": "function",
      "constant": true
    },
    {
      "inputs": [],
      "name": "getUnclaimedInterest",
      "outputs": [
        {
          "internalType": "uint256",
          "name": "",
          "type": "uint256"
        }
      ],
      "stateMutability": "view",
      "type": "function",
      "constant": true
    },
    {
      "inputs": [],
      "name": "getReserveATokenBalance",
      "outputs": [
        {
          "internalType": "uint256",
          "name": "",
          "type": "uint256"
        }
      ],
      "stateMutability": "view",
      "type": "function",
      "constant": true
    },
    {
      "inputs": [],
      "name": "getProtocolBalance",
      "outputs": [
        {
          "internalType": "uint256",
          "name": "",
          "type": "uint256"
        }
      ],
      "stateMutability": "view",
      "type": "function",
      "constant": true
    },
    {
      "inputs": [],
      "name": "getSliETHTotalSupply",
      "outputs": [
        {
          "internalType": "uint256",
          "name": "",
          "type": "uint256"
        }
      ],
      "stateMutability": "view",
      "type": "function",
      "constant": true
    },
    {
      "inputs": [],
      "name": "getSliETHConversion",
      "outputs": [
        {
          "internalType": "uint256",
          "name": "",
          "type": "uint256"
        }
      ],
      "stateMutability": "view",
      "type": "function",
      "constant": true
    },
    {
      "inputs": [
        {
          "internalType": "uint256",
          "name": "_validatorIndex",
          "type": "uint256"
        }
      ],
      "name": "getBeneficiaryStatus",
      "outputs": [
        {
          "internalType": "enum Reserve.Status",
          "name": "status",
          "type": "uint8"
        }
      ],
      "stateMutability": "view",
      "type": "function",
      "constant": true
    },
    {
      "inputs": [
        {
          "internalType": "uint256",
          "name": "_validatorIndex",
          "type": "uint256"
        }
      ],
      "name": "getValidatorWithdrawAddress",
      "outputs": [
        {
          "internalType": "address",
          "name": "withdrawAddress",
          "type": "address"
        }
      ],
      "stateMutability": "view",
      "type": "function",
      "constant": true
    },
    {
      "inputs": [
        {
          "internalType": "address",
          "name": "_pool",
          "type": "address"
        }
      ],
      "name": "isPool",
      "outputs": [
        {
          "internalType": "bool",
          "name": "",
          "type": "bool"
        }
      ],
      "stateMutability": "view",
      "type": "function",
      "constant": true
    }
  ],
  "bytecode": "0x60e06040523480156200001157600080fd5b50604051620077753803806200777583398181016040528101906200003791906200025d565b60016000819055508673ffffffffffffffffffffffffffffffffffffffff1660c08173ffffffffffffffffffffffffffffffffffffffff168152505085600360006101000a81548173ffffffffffffffffffffffffffffffffffffffff021916908373ffffffffffffffffffffffffffffffffffffffff1602179055508473ffffffffffffffffffffffffffffffffffffffff1660a08173ffffffffffffffffffffffffffffffffffffffff1681525050604051620000f690620001aa565b604051809103906000f08015801562000113573d6000803e3d6000fd5b5073ffffffffffffffffffffffffffffffffffffffff1660808173ffffffffffffffffffffffffffffffffffffffff168152505080600160006101000a81548173ffffffffffffffffffffffffffffffffffffffff021916908373ffffffffffffffffffffffffffffffffffffffff1602179055508360048190555082600581905550816006819055505050505050505062000310565b612557806200521e83390190565b600080fd5b600073ffffffffffffffffffffffffffffffffffffffff82169050919050565b6000620001ea82620001bd565b9050919050565b620001fc81620001dd565b81146200020857600080fd5b50565b6000815190506200021c81620001f1565b92915050565b6000819050919050565b620002378162000222565b81146200024357600080fd5b50565b60008151905062000257816200022c565b92915050565b600080600080600080600060e0888a0312156200027f576200027e620001b8565b5b60006200028f8a828b016200020b565b9750506020620002a28a828b016200020b565b9650506040620002b58a828b016200020b565b9550506060620002c88a828b0162000246565b9450506080620002db8a828b0162000246565b93505060a0620002ee8a828b0162000246565b92505060c0620003018a828b016200020b565b91505092959891949750929550565b60805160a05160c051614e916200038d6000396000818161095a01528181610f01015281816111a50152818161158501526116f80152600081816108a701528181612a7a01528181612ac60152612bb20152600081816107760152818161150301528181611bdf01528181611ce00152611d850152614e916000f3fe6080604052600436106101c65760003560e01c80635b16ebb7116100f757806396074e7011610095578063bfdb89bc11610064578063bfdb89bc14610639578063d4938db314610664578063d70356cc1461068f578063ecb61ea1146106b8576101d5565b806396074e7014610591578063a0580d88146105ba578063a5ac9a02146105e3578063b6c5039f1461060e576101d5565b8063787191b6116100d1578063787191b6146104c357806379bbbc171461050057806384ac35eb1461053d5780638e41f61014610566576101d5565b80635b16ebb71461041e57806366e992e51461045b57806373be409e14610486576101d5565b80632907242f1161016457806344c506d51161013e57806344c506d514610378578063486da2ca146103a1578063518655e3146103ca578063576d22a2146103f3576101d5565b80632907242f146102e75780633985a42e146103245780633c1e7c561461034d576101d5565b806314e7c922116101a057806314e7c9221461025c57806317ea277314610287578063189df97d14610291578063233641fa146102bc576101d5565b806303010419146101df5780631077f06c1461020857806311918cb114610231576101d5565b366101d5576101d36106e1565b005b6101dd6106e1565b005b3480156101eb57600080fd5b506102066004803603810190610201919061309e565b610941565b005b34801561021457600080fd5b5061022f600480360381019061022a919061309e565b610b0d565b005b34801561023d57600080fd5b50610246610c9a565b60405161025391906130da565b60405180910390f35b34801561026857600080fd5b50610271610dce565b60405161027e91906130da565b60405180910390f35b61028f6106e1565b005b34801561029d57600080fd5b506102a6610dfa565b6040516102b391906130da565b60405180910390f35b3480156102c857600080fd5b506102d1610e01565b6040516102de91906130da565b60405180910390f35b3480156102f357600080fd5b5061030e6004803603810190610309919061309e565b610ea8565b60405161031b9190613136565b60405180910390f35b34801561033057600080fd5b5061034b6004803603810190610346919061309e565b610ee8565b005b34801561035957600080fd5b50610362611028565b60405161036f91906130da565b60405180910390f35b34801561038457600080fd5b5061039f600480360381019061039a91906131b6565b61102e565b005b3480156103ad57600080fd5b506103c860048036038101906103c3919061309e565b61118c565b005b3480156103d657600080fd5b506103f160048036038101906103ec919061309e565b611357565b005b3480156103ff57600080fd5b506104086114ff565b6040516104159190613136565b60405180910390f35b34801561042a57600080fd5b506104456004803603810190610440919061321d565b611527565b6040516104529190613265565b60405180910390f35b34801561046757600080fd5b50610470611581565b60405161047d9190613136565b60405180910390f35b34801561049257600080fd5b506104ad60048036038101906104a8919061309e565b6115a9565b6040516104ba91906132f7565b60405180910390f35b3480156104cf57600080fd5b506104ea60048036038101906104e5919061321d565b6115d6565b6040516104f791906130da565b60405180910390f35b34801561050c57600080fd5b506105276004803603810190610522919061309e565b61166f565b60405161053491906130da565b60405180910390f35b34801561054957600080fd5b50610564600480360381019061055f919061309e565b6116df565b005b34801561057257600080fd5b5061057b6118aa565b6040516105889190613136565b60405180910390f35b34801561059d57600080fd5b506105b860048036038101906105b39190613312565b6118d4565b005b3480156105c657600080fd5b506105e160048036038101906105dc919061309e565b611b8d565b005b3480156105ef57600080fd5b506105f8611d81565b60405161060591906130da565b60405180910390f35b34801561061a57600080fd5b50610623611e26565b60405161063091906130da565b60405180910390f35b34801561064557600080fd5b5061064e611e2c565b60405161065b91906130da565b60405180910390f35b34801561067057600080fd5b50610679611eb8565b60405161068691906130da565b60405180910390f35b34801561069b57600080fd5b506106b660048036038101906106b1919061309e565b611ebe565b005b3480156106c457600080fd5b506106df60048036038101906106da9190613312565b6120a6565b005b60026000541415610727576040517f08c379a000000000000000000000000000000000000000000000000000000000815260040161071e906133af565b60405180910390fd5b6002600081905550600454341015610774576040517f08c379a000000000000000000000000000000000000000000000000000000000815260040161076b90613441565b60405180910390fd5b7f000000000000000000000000000000000000000000000000000000000000000073ffffffffffffffffffffffffffffffffffffffff166340c10f1933346040518363ffffffff1660e01b81526004016107cf929190613461565b600060405180830381600087803b1580156107e957600080fd5b505af11580156107fd573d6000803e3d6000fd5b505050506000600360009054906101000a900473ffffffffffffffffffffffffffffffffffffffff1673ffffffffffffffffffffffffffffffffffffffff16635f36a7426040518163ffffffff1660e01b815260040160206040518083038186803b15801561086b57600080fd5b505afa15801561087f573d6000803e3d6000fd5b505050506040513d601f19601f820116820180604052508101906108a3919061349f565b90507f000000000000000000000000000000000000000000000000000000000000000073ffffffffffffffffffffffffffffffffffffffff1663474cf53d34833060006040518563ffffffff1660e01b81526004016109049392919061351f565b6000604051808303818588803b15801561091d57600080fd5b505af1158015610931573d6000803e3d6000fd5b5050505050506001600081905550565b3373ffffffffffffffffffffffffffffffffffffffff167f000000000000000000000000000000000000000000000000000000000000000073ffffffffffffffffffffffffffffffffffffffff16146109cf576040517f08c379a00000000000000000000000000000000000000000000000000000000081526004016109c6906135a2565b60405180910390fd5b80600560078111156109e4576109e3613280565b5b6002600083815260200190815260200160002060000160009054906101000a900460ff166007811115610a1a57610a19613280565b5b14610a5a576040517f08c379a0000000000000000000000000000000000000000000000000000000008152600401610a519061360e565b60405180910390fd5b60076002600084815260200190815260200160002060000160006101000a81548160ff02191690836007811115610a9457610a93613280565b5b02179055507fae20919d7212403a76214cbef0ed06625ca2605ae5f405d50de89a29f14646716002600084815260200190815260200160002060000160019054906101000a900473ffffffffffffffffffffffffffffffffffffffff166000604051610b019291906136ab565b60405180910390a15050565b33818173ffffffffffffffffffffffffffffffffffffffff166002600083815260200190815260200160002060000160019054906101000a900473ffffffffffffffffffffffffffffffffffffffff1673ffffffffffffffffffffffffffffffffffffffff1614610bb3576040517f08c379a0000000000000000000000000000000000000000000000000000000008152600401610baa90613733565b60405180910390fd5b8260016007811115610bc857610bc7613280565b5b6002600083815260200190815260200160002060000160009054906101000a900460ff166007811115610bfe57610bfd613280565b5b14610c3e576040517f08c379a0000000000000000000000000000000000000000000000000000000008152600401610c359061379f565b60405180910390fd5b6000610c498561229e565b9050610c54816123ff565b60046002600087815260200190815260200160002060000160006101000a81548160ff02191690836007811115610c8e57610c8d613280565b5b02179055505050505050565b600080600360009054906101000a900473ffffffffffffffffffffffffffffffffffffffff1673ffffffffffffffffffffffffffffffffffffffff1663828997566040518163ffffffff1660e01b815260040160206040518083038186803b158015610d0557600080fd5b505afa158015610d19573d6000803e3d6000fd5b505050506040513d601f19601f82011682018060405250810190610d3d919061349f565b90508073ffffffffffffffffffffffffffffffffffffffff166370a08231306040518263ffffffff1660e01b8152600401610d789190613136565b60206040518083038186803b158015610d9057600080fd5b505afa158015610da4573d6000803e3d6000fd5b505050506040513d601f19601f82011682018060405250810190610dc891906137d4565b91505090565b6000610dd8610c9a565b610de0610e01565b47610deb9190613830565b610df59190613830565b905090565b6212750081565b6000600360009054906101000a900473ffffffffffffffffffffffffffffffffffffffff1673ffffffffffffffffffffffffffffffffffffffff1663233641fa6040518163ffffffff1660e01b815260040160206040518083038186803b158015610e6b57600080fd5b505afa158015610e7f573d6000803e3d6000fd5b505050506040513d601f19601f82011682018060405250810190610ea391906137d4565b905090565b60006002600083815260200190815260200160002060000160019054906101000a900473ffffffffffffffffffffffffffffffffffffffff169050919050565b3373ffffffffffffffffffffffffffffffffffffffff167f000000000000000000000000000000000000000000000000000000000000000073ffffffffffffffffffffffffffffffffffffffff1614610f76576040517f08c379a0000000000000000000000000000000000000000000000000000000008152600401610f6d906135a2565b60405180910390fd5b60016002600083815260200190815260200160002060000160006101000a81548160ff02191690836007811115610fb057610faf613280565b5b02179055507fae20919d7212403a76214cbef0ed06625ca2605ae5f405d50de89a29f14646716002600083815260200190815260200160002060000160019054906101000a900473ffffffffffffffffffffffffffffffffffffffff16600060405161101d9291906138d2565b60405180910390a150565b60045481565b3373ffffffffffffffffffffffffffffffffffffffff16600160009054906101000a900473ffffffffffffffffffffffffffffffffffffffff1673ffffffffffffffffffffffffffffffffffffffff16146110be576040517f08c379a00000000000000000000000000000000000000000000000000000000081526004016110b59061395a565b60405180910390fd5b600460078111156110d2576110d1613280565b5b6002600086815260200190815260200160002060000160009054906101000a900460ff16600781111561110857611107613280565b5b141561111f5761111a84848484612561565b611185565b6002600781111561113357611132613280565b5b6002600086815260200190815260200160002060000160009054906101000a900460ff16600781111561116957611168613280565b5b141561117f5761117a848484612823565b611184565b611186565b5b5b50505050565b3373ffffffffffffffffffffffffffffffffffffffff167f000000000000000000000000000000000000000000000000000000000000000073ffffffffffffffffffffffffffffffffffffffff161461121a576040517f08c379a0000000000000000000000000000000000000000000000000000000008152600401611211906135a2565b60405180910390fd5b8060078081111561122e5761122d613280565b5b6002600083815260200190815260200160002060000160009054906101000a900460ff16600781111561126457611263613280565b5b146112a4576040517f08c379a000000000000000000000000000000000000000000000000000000000815260040161129b906139c6565b60405180910390fd5b60056002600084815260200190815260200160002060000160006101000a81548160ff021916908360078111156112de576112dd613280565b5b02179055507fae20919d7212403a76214cbef0ed06625ca2605ae5f405d50de89a29f14646716002600084815260200190815260200160002060000160019054906101000a900473ffffffffffffffffffffffffffffffffffffffff16600060405161134b929190613a32565b60405180910390a15050565b80600073ffffffffffffffffffffffffffffffffffffffff166002600083815260200190815260200160002060000160019054906101000a900473ffffffffffffffffffffffffffffffffffffffff1673ffffffffffffffffffffffffffffffffffffffff16146113fd576040517f08c379a00000000000000000000000000000000000000000000000000000000081526004016113f490613aba565b60405180910390fd5b61140e6114098361229e565b6123ff565b60405180608001604052806002600781111561142d5761142c613280565b5b81526020013373ffffffffffffffffffffffffffffffffffffffff1681526020016000815260200160008152506002600084815260200190815260200160002060008201518160000160006101000a81548160ff0219169083600781111561149857611497613280565b5b021790555060208201518160000160016101000a81548173ffffffffffffffffffffffffffffffffffffffff021916908373ffffffffffffffffffffffffffffffffffffffff16021790555060408201518160010155606082015181600201559050505050565b60007f0000000000000000000000000000000000000000000000000000000000000000905090565b6000600360009054906101000a900473ffffffffffffffffffffffffffffffffffffffff1673ffffffffffffffffffffffffffffffffffffffff168273ffffffffffffffffffffffffffffffffffffffff16149050919050565b60007f0000000000000000000000000000000000000000000000000000000000000000905090565b60006002600083815260200190815260200160002060000160009054906101000a900460ff169050919050565b60006115e06114ff565b73ffffffffffffffffffffffffffffffffffffffff166370a08231836040518263ffffffff1660e01b81526004016116189190613136565b60206040518083038186803b15801561163057600080fd5b505afa158015611644573d6000803e3d6000fd5b505050506040513d601f19601f8201168201806040525081019061166891906137d4565b9050919050565b60008161167a610dce565b10156116bb576040517f08c379a00000000000000000000000000000000000000000000000000000000081526004016116b290613b4c565b60405180910390fd5b8147106116cb57600090506116da565b47826116d79190613b6c565b90505b919050565b3373ffffffffffffffffffffffffffffffffffffffff167f000000000000000000000000000000000000000000000000000000000000000073ffffffffffffffffffffffffffffffffffffffff161461176d576040517f08c379a0000000000000000000000000000000000000000000000000000000008152600401611764906135a2565b60405180910390fd5b8060078081111561178157611780613280565b5b6002600083815260200190815260200160002060000160009054906101000a900460ff1660078111156117b7576117b6613280565b5b146117f7576040517f08c379a00000000000000000000000000000000000000000000000000000000081526004016117ee906139c6565b60405180910390fd5b60066002600084815260200190815260200160002060000160006101000a81548160ff0219169083600781111561183157611830613280565b5b02179055507fae20919d7212403a76214cbef0ed06625ca2605ae5f405d50de89a29f14646716002600084815260200190815260200160002060000160019054906101000a900473ffffffffffffffffffffffffffffffffffffffff16600060405161189e929190613bec565b60405180910390a15050565b6000600360009054906101000a900473ffffffffffffffffffffffffffffffffffffffff16905090565b6118dc610dce565b6005541115611920576040517f08c379a000000000000000000000000000000000000000000000000000000000815260040161191790613c74565b60405180910390fd5b806003600781111561193557611934613280565b5b6002600083815260200190815260200160002060000160009054906101000a900460ff16600781111561196b5761196a613280565b5b146119ab576040517f08c379a00000000000000000000000000000000000000000000000000000000081526004016119a290613ce0565b60405180910390fd5b82828173ffffffffffffffffffffffffffffffffffffffff166002600083815260200190815260200160002060000160019054906101000a900473ffffffffffffffffffffffffffffffffffffffff1673ffffffffffffffffffffffffffffffffffffffff1614611a51576040517f08c379a0000000000000000000000000000000000000000000000000000000008152600401611a4890613d72565b60405180910390fd5b611a5a33611527565b611a99576040517f08c379a0000000000000000000000000000000000000000000000000000000008152600401611a9090613dde565b60405180910390fd5b604051806080016040528060016007811115611ab857611ab7613280565b5b81526020018673ffffffffffffffffffffffffffffffffffffffff1681526020016000815260200160008152506002600086815260200190815260200160002060008201518160000160006101000a81548160ff02191690836007811115611b2357611b22613280565b5b021790555060208201518160000160016101000a81548173ffffffffffffffffffffffffffffffffffffffff021916908373ffffffffffffffffffffffffffffffffffffffff16021790555060408201518160010155606082015181600201559050505050505050565b60026000541415611bd3576040517f08c379a0000000000000000000000000000000000000000000000000000000008152600401611bca906133af565b60405180910390fd5b600260008190555060007f000000000000000000000000000000000000000000000000000000000000000073ffffffffffffffffffffffffffffffffffffffff1663d5bda32d836040518263ffffffff1660e01b8152600401611c3691906130da565b60206040518083038186803b158015611c4e57600080fd5b505afa158015611c62573d6000803e3d6000fd5b505050506040513d601f19601f82011682018060405250810190611c8691906137d4565b905080611c91610dce565b611c9b9190613b6c565b60055410611cde576040517f08c379a0000000000000000000000000000000000000000000000000000000008152600401611cd590613e70565b60405180910390fd5b7f000000000000000000000000000000000000000000000000000000000000000073ffffffffffffffffffffffffffffffffffffffff16639dc29fac33846040518363ffffffff1660e01b8152600401611d39929190613461565b600060405180830381600087803b158015611d5357600080fd5b505af1158015611d67573d6000803e3d6000fd5b50505050611d7533826129b4565b50600160008190555050565b60007f000000000000000000000000000000000000000000000000000000000000000073ffffffffffffffffffffffffffffffffffffffff1663f0197e1a6040518163ffffffff1660e01b815260040160206040518083038186803b158015611de957600080fd5b505afa158015611dfd573d6000803e3d6000fd5b505050506040513d601f19601f82011682018060405250810190611e2191906137d4565b905090565b60055481565b6000611e366114ff565b73ffffffffffffffffffffffffffffffffffffffff166318160ddd6040518163ffffffff1660e01b815260040160206040518083038186803b158015611e7b57600080fd5b505afa158015611e8f573d6000803e3d6000fd5b505050506040513d601f19601f82011682018060405250810190611eb391906137d4565b905090565b60065481565b8060056007811115611ed357611ed2613280565b5b6002600083815260200190815260200160002060000160009054906101000a900460ff166007811115611f0957611f08613280565b5b14611f49576040517f08c379a0000000000000000000000000000000000000000000000000000000008152600401611f409061360e565b60405180910390fd5b81621275006002600083815260200190815260200160002060010154611f6f9190613830565b421015611fb1576040517f08c379a0000000000000000000000000000000000000000000000000000000008152600401611fa890613f02565b60405180910390fd5b60006002600085815260200190815260200160002060000160019054906101000a900473ffffffffffffffffffffffffffffffffffffffff1690506000600260008681526020019081526020016000206002015490506120278260026000888152602001908152602001600020600201546129b4565b60066002600087815260200190815260200160002060000160006101000a81548160ff0219169083600781111561206157612060613280565b5b02179055507fae20919d7212403a76214cbef0ed06625ca2605ae5f405d50de89a29f14646718282604051612097929190613f6e565b60405180910390a15050505050565b81818173ffffffffffffffffffffffffffffffffffffffff166002600083815260200190815260200160002060000160019054906101000a900473ffffffffffffffffffffffffffffffffffffffff1673ffffffffffffffffffffffffffffffffffffffff161461214c576040517f08c379a000000000000000000000000000000000000000000000000000000000815260040161214390613733565b60405180910390fd5b826001600781111561216157612160613280565b5b6002600083815260200190815260200160002060000160009054906101000a900460ff16600781111561219757612196613280565b5b146121d7576040517f08c379a00000000000000000000000000000000000000000000000000000000081526004016121ce9061379f565b60405180910390fd5b6121e033611527565b61221f576040517f08c379a000000000000000000000000000000000000000000000000000000000815260040161221690613dde565b60405180910390fd5b60036002600086815260200190815260200160002060000160006101000a81548160ff0219169083600781111561225957612258613280565b5b02179055507f6c120324200e3395fa899969762464b667f9fc1d7e81c3471b90d215cc077e54848660405161228f929190613faa565b60405180910390a15050505050565b606060008214156122e6576040518060400160405280600181526020017f300000000000000000000000000000000000000000000000000000000000000081525090506123fa565b600082905060005b6000821461231857808061230190613fd3565b915050600a82612311919061404b565b91506122ee565b60008167ffffffffffffffff8111156123345761233361407c565b5b6040519080825280601f01601f1916602001820160405280156123665781602001600182028036833780820191505090505b5090505b600085146123f35760018261237f9190613b6c565b9150600a8561238e91906140ab565b603061239a9190613830565b60f81b8183815181106123b0576123af6140dc565b5b60200101907effffffffffffffffffffffffffffffffffffffffffffffffffffffffffffff1916908160001a905350600a856123ec919061404b565b945061236a565b8093505050505b919050565b6000604051806105e001604052806105ba81526020016148a26105ba9139905060606000600167ffffffffffffffff81111561243e5761243d61407c565b5b60405190808252806020026020018201604052801561247157816020015b606081526020019060019003908161245c5790505b5090508381600081518110612489576124886140dc565b5b60200260200101819052506000610386905060006203d0909050600160009054906101000a900473ffffffffffffffffffffffffffffffffffffffff1673ffffffffffffffffffffffffffffffffffffffff16632771458986868686866040518663ffffffff1660e01b8152600401612506959493929190614336565b602060405180830381600087803b15801561252057600080fd5b505af1158015612534573d6000803e3d6000fd5b505050506040513d601f19601f8201168201806040525081019061255891906143d4565b50505050505050565b8173ffffffffffffffffffffffffffffffffffffffff166002600086815260200190815260200160002060000160019054906101000a900473ffffffffffffffffffffffffffffffffffffffff1673ffffffffffffffffffffffffffffffffffffffff16146126475760016002600086815260200190815260200160002060000160006101000a81548160ff0219169083600781111561260457612603613280565b5b02179055507f72a10a8665a377df2e4d56fdee4ea737695322d6fad2246c18b6e7bd65d1fb6e848360405161263a92919061444d565b60405180910390a161281d565b60008360ff1614156126d05760016002600086815260200190815260200160002060000160006101000a81548160ff0219169083600781111561268d5761268c613280565b5b02179055507f72a10a8665a377df2e4d56fdee4ea737695322d6fad2246c18b6e7bd65d1fb6e84836040516126c39291906144d5565b60405180910390a161281c565b60008114156127565760016002600086815260200190815260200160002060000160006101000a81548160ff0219169083600781111561271357612712613280565b5b02179055507f72a10a8665a377df2e4d56fdee4ea737695322d6fad2246c18b6e7bd65d1fb6e84836040516127499291906144d5565b60405180910390a161281b565b6006548111156127a45760076002600086815260200190815260200160002060000160006101000a81548160ff0219169083600781111561279a57612799613280565b5b02179055506127e4565b60056002600086815260200190815260200160002060000160006101000a81548160ff021916908360078111156127de576127dd613280565b5b02179055505b4260026000868152602001908152602001600020600101819055508060026000868152602001908152602001600020600201819055505b5b5b50505050565b8073ffffffffffffffffffffffffffffffffffffffff166002600085815260200190815260200160002060000160019054906101000a900473ffffffffffffffffffffffffffffffffffffffff1673ffffffffffffffffffffffffffffffffffffffff16141580612897575060018260ff16145b1561296f5760006002600085815260200190815260200160002060000160016101000a81548173ffffffffffffffffffffffffffffffffffffffff021916908373ffffffffffffffffffffffffffffffffffffffff16021790555060006002600085815260200190815260200160002060000160006101000a81548160ff0219169083600781111561292c5761292b613280565b5b02179055507f72a10a8665a377df2e4d56fdee4ea737695322d6fad2246c18b6e7bd65d1fb6e838260405161296292919061455d565b60405180910390a16129af565b60036002600085815260200190815260200160002060000160006101000a81548160ff021916908360078111156129a9576129a8613280565b5b02179055505b505050565b60006129be610c9a565b9050818110156129d1576129d0612c46565b5b6000600360009054906101000a900473ffffffffffffffffffffffffffffffffffffffff1673ffffffffffffffffffffffffffffffffffffffff1663828997566040518163ffffffff1660e01b815260040160206040518083038186803b158015612a3b57600080fd5b505afa158015612a4f573d6000803e3d6000fd5b505050506040513d601f19601f82011682018060405250810190612a73919061349f565b9050612ac17f000000000000000000000000000000000000000000000000000000000000000060008373ffffffffffffffffffffffffffffffffffffffff16612d499092919063ffffffff16565b612b0c7f0000000000000000000000000000000000000000000000000000000000000000848373ffffffffffffffffffffffffffffffffffffffff16612d499092919063ffffffff16565b6000600360009054906101000a900473ffffffffffffffffffffffffffffffffffffffff1673ffffffffffffffffffffffffffffffffffffffff16635f36a7426040518163ffffffff1660e01b815260040160206040518083038186803b158015612b7657600080fd5b505afa158015612b8a573d6000803e3d6000fd5b505050506040513d601f19601f82011682018060405250810190612bae919061349f565b90507f000000000000000000000000000000000000000000000000000000000000000073ffffffffffffffffffffffffffffffffffffffff166380500d208286886040518463ffffffff1660e01b8152600401612c0d93929190614599565b600060405180830381600087803b158015612c2757600080fd5b505af1158015612c3b573d6000803e3d6000fd5b505050505050505050565b6000600360009054906101000a900473ffffffffffffffffffffffffffffffffffffffff1673ffffffffffffffffffffffffffffffffffffffff166263750c6040518163ffffffff1660e01b8152600401602060405180830381600087803b158015612cb157600080fd5b505af1158015612cc5573d6000803e3d6000fd5b505050506040513d601f19601f82011682018060405250810190612ce991906137d4565b90507fc9695243a805adb74c91f28311176c65b417e842d5699893cef56d18bfa48cba600360009054906101000a900473ffffffffffffffffffffffffffffffffffffffff1682604051612d3e929190613461565b60405180910390a150565b6000811480612de2575060008373ffffffffffffffffffffffffffffffffffffffff1663dd62ed3e30856040518363ffffffff1660e01b8152600401612d909291906145d0565b60206040518083038186803b158015612da857600080fd5b505afa158015612dbc573d6000803e3d6000fd5b505050506040513d601f19601f82011682018060405250810190612de091906137d4565b145b612e21576040517f08c379a0000000000000000000000000000000000000000000000000000000008152600401612e189061466b565b60405180910390fd5b612ea28363095ea7b360e01b8484604051602401612e40929190613461565b604051602081830303815290604052907bffffffffffffffffffffffffffffffffffffffffffffffffffffffff19166020820180517bffffffffffffffffffffffffffffffffffffffffffffffffffffffff8381831617835250505050612ea7565b505050565b612ec68273ffffffffffffffffffffffffffffffffffffffff16613018565b612f05576040517f08c379a0000000000000000000000000000000000000000000000000000000008152600401612efc906146d7565b60405180910390fd5b6000808373ffffffffffffffffffffffffffffffffffffffff1683604051612f2d9190614733565b6000604051808303816000865af19150503d8060008114612f6a576040519150601f19603f3d011682016040523d82523d6000602084013e612f6f565b606091505b509150915081612fb4576040517f08c379a0000000000000000000000000000000000000000000000000000000008152600401612fab90614796565b60405180910390fd5b6000815111156130125780806020019051810190612fd291906147e2565b613011576040517f08c379a000000000000000000000000000000000000000000000000000000000815260040161300890614881565b60405180910390fd5b5b50505050565b60008060007fc5d2460186f7233c927e7db2dcc703c0e500b653ca82273b7bfad8045d85a47060001b9050833f915080821415801561305a57506000801b8214155b92505050919050565b600080fd5b6000819050919050565b61307b81613068565b811461308657600080fd5b50565b60008135905061309881613072565b92915050565b6000602082840312156130b4576130b3613063565b5b60006130c284828501613089565b91505092915050565b6130d481613068565b82525050565b60006020820190506130ef60008301846130cb565b92915050565b600073ffffffffffffffffffffffffffffffffffffffff82169050919050565b6000613120826130f5565b9050919050565b61313081613115565b82525050565b600060208201905061314b6000830184613127565b92915050565b600060ff82169050919050565b61316781613151565b811461317257600080fd5b50565b6000813590506131848161315e565b92915050565b61319381613115565b811461319e57600080fd5b50565b6000813590506131b08161318a565b92915050565b600080600080608085870312156131d0576131cf613063565b5b60006131de87828801613089565b94505060206131ef87828801613175565b9350506040613200878288016131a1565b925050606061321187828801613089565b91505092959194509250565b60006020828403121561323357613232613063565b5b6000613241848285016131a1565b91505092915050565b60008115159050919050565b61325f8161324a565b82525050565b600060208201905061327a6000830184613256565b92915050565b7f4e487b7100000000000000000000000000000000000000000000000000000000600052602160045260246000fd5b600881106132c0576132bf613280565b5b50565b60008190506132d1826132af565b919050565b60006132e1826132c3565b9050919050565b6132f1816132d6565b82525050565b600060208201905061330c60008301846132e8565b92915050565b6000806040838503121561332957613328613063565b5b6000613337858286016131a1565b925050602061334885828601613089565b9150509250929050565b600082825260208201905092915050565b7f5265656e7472616e637947756172643a207265656e7472616e742063616c6c00600082015250565b6000613399601f83613352565b91506133a482613363565b602082019050919050565b600060208201905081810360008301526133c88161338c565b9050919050565b7f76616c7565206d7573742062652067726561746572207468616e206d696e696d60008201527f756d000000000000000000000000000000000000000000000000000000000000602082015250565b600061342b602283613352565b9150613436826133cf565b604082019050919050565b6000602082019050818103600083015261345a8161341e565b9050919050565b60006040820190506134766000830185613127565b61348360208301846130cb565b9392505050565b6000815190506134998161318a565b92915050565b6000602082840312156134b5576134b4613063565b5b60006134c38482850161348a565b91505092915050565b6000819050919050565b600061ffff82169050919050565b6000819050919050565b60006135096135046134ff846134cc565b6134e4565b6134d6565b9050919050565b613519816134ee565b82525050565b60006060820190506135346000830186613127565b6135416020830185613127565b61354e6040830184613510565b949350505050565b7f6e6f7420746865206d756c746953696700000000000000000000000000000000600082015250565b600061358c601083613352565b915061359782613556565b602082019050919050565b600060208201905081810360008301526135bb8161357f565b9050919050565b7f6e6f20636c61696d2070656e64696e6700000000000000000000000000000000600082015250565b60006135f8601083613352565b9150613603826135c2565b602082019050919050565b60006020820190508181036000830152613627816135eb565b9050919050565b600061364961364461363f846134cc565b6134e4565b613068565b9050919050565b6136598161362e565b82525050565b7f7061757365000000000000000000000000000000000000000000000000000000600082015250565b6000613695600583613352565b91506136a08261365f565b602082019050919050565b60006060820190506136c06000830185613127565b6136cd6020830184613650565b81810360408301526136de81613688565b90509392505050565b7f77697468647261774164647265737320646f6573206e6f74206d617463680000600082015250565b600061371d601e83613352565b9150613728826136e7565b602082019050919050565b6000602082019050818103600083015261374c81613710565b9050919050565b7f62656e6566696369617279206e6f742061637469766500000000000000000000600082015250565b6000613789601683613352565b915061379482613753565b602082019050919050565b600060208201905081810360008301526137b88161377c565b9050919050565b6000815190506137ce81613072565b92915050565b6000602082840312156137ea576137e9613063565b5b60006137f8848285016137bf565b91505092915050565b7f4e487b7100000000000000000000000000000000000000000000000000000000600052601160045260246000fd5b600061383b82613068565b915061384683613068565b9250827fffffffffffffffffffffffffffffffffffffffffffffffffffffffffffffffff0382111561387b5761387a613801565b5b828201905092915050565b7f7265736574000000000000000000000000000000000000000000000000000000600082015250565b60006138bc600583613352565b91506138c782613886565b602082019050919050565b60006060820190506138e76000830185613127565b6138f46020830184613650565b8181036040830152613905816138af565b90509392505050565b7f6e6f7420746865206f7261636c65000000000000000000000000000000000000600082015250565b6000613944600e83613352565b915061394f8261390e565b602082019050919050565b6000602082019050818103600083015261397381613937565b9050919050565b7f6e6f20636c61696d207061757365640000000000000000000000000000000000600082015250565b60006139b0600f83613352565b91506139bb8261397a565b602082019050919050565b600060208201905081810360008301526139df816139a3565b9050919050565b7f756e706175736500000000000000000000000000000000000000000000000000600082015250565b6000613a1c600783613352565b9150613a27826139e6565b602082019050919050565b6000606082019050613a476000830185613127565b613a546020830184613650565b8181036040830152613a6581613a0f565b90509392505050565b7f6e6f7420656c696769626c6520746f206170706c790000000000000000000000600082015250565b6000613aa4601583613352565b9150613aaf82613a6e565b602082019050919050565b60006020820190508181036000830152613ad381613a97565b9050919050565b7f726571756573746564206973206c6172676572207468616e2070726f746f636f60008201527f6c2062616c616e63650000000000000000000000000000000000000000000000602082015250565b6000613b36602983613352565b9150613b4182613ada565b604082019050919050565b60006020820190508181036000830152613b6581613b29565b9050919050565b6000613b7782613068565b9150613b8283613068565b925082821015613b9557613b94613801565b5b828203905092915050565b7f64656e7900000000000000000000000000000000000000000000000000000000600082015250565b6000613bd6600483613352565b9150613be182613ba0565b602082019050919050565b6000606082019050613c016000830185613127565b613c0e6020830184613650565b8181036040830152613c1f81613bc9565b90509392505050565b7f6d696e696d756d2072657365727665206e6f74206d6574000000000000000000600082015250565b6000613c5e601783613352565b9150613c6982613c28565b602082019050919050565b60006020820190508181036000830152613c8d81613c51565b9050919050565b7f62656e6566696369617279206973206e6f7420617070726f7665640000000000600082015250565b6000613cca601b83613352565b9150613cd582613c94565b602082019050919050565b60006020820190508181036000830152613cf981613cbd565b9050919050565b7f6d7573742073656e642074782066726f6d2076616c696461746f72207769746860008201527f6472617741646472657373000000000000000000000000000000000000000000602082015250565b6000613d5c602b83613352565b9150613d6782613d00565b604082019050919050565b60006020820190508181036000830152613d8b81613d4f565b9050919050565b7f73656e646572206973206e6f7420706f6f6c0000000000000000000000000000600082015250565b6000613dc8601283613352565b9150613dd382613d92565b602082019050919050565b60006020820190508181036000830152613df781613dbb565b9050919050565b7f7265736572766520696e73756666696369656e7420746f20776974686472617760008201527f20696e737572616e636500000000000000000000000000000000000000000000602082015250565b6000613e5a602a83613352565b9150613e6582613dfe565b604082019050919050565b60006020820190508181036000830152613e8981613e4d565b9050919050565b7f43616e6e6f7420776974686472617720636c61696d20756e74696c2074696d6560008201527f6f75742070617373656400000000000000000000000000000000000000000000602082015250565b6000613eec602a83613352565b9150613ef782613e90565b604082019050919050565b60006020820190508181036000830152613f1b81613edf565b9050919050565b7f617070726f766500000000000000000000000000000000000000000000000000600082015250565b6000613f58600783613352565b9150613f6382613f22565b602082019050919050565b6000606082019050613f836000830185613127565b613f9060208301846130cb565b8181036040830152613fa181613f4b565b90509392505050565b6000604082019050613fbf60008301856130cb565b613fcc6020830184613127565b9392505050565b6000613fde82613068565b91507fffffffffffffffffffffffffffffffffffffffffffffffffffffffffffffffff82141561401157614010613801565b5b600182019050919050565b7f4e487b7100000000000000000000000000000000000000000000000000000000600052601260045260246000fd5b600061405682613068565b915061406183613068565b9250826140715761407061401c565b5b828204905092915050565b7f4e487b7100000000000000000000000000000000000000000000000000000000600052604160045260246000fd5b60006140b682613068565b91506140c183613068565b9250826140d1576140d061401c565b5b828206905092915050565b7f4e487b7100000000000000000000000000000000000000000000000000000000600052603260045260246000fd5b600081519050919050565b60005b83811015614134578082015181840152602081019050614119565b83811115614143576000848401525b50505050565b6000601f19601f8301169050919050565b60006141658261410b565b61416f8185613352565b935061417f818560208601614116565b61418881614149565b840191505092915050565b600081519050919050565b600082825260208201905092915050565b60006141ba82614193565b6141c4818561419e565b93506141d4818560208601614116565b6141dd81614149565b840191505092915050565b600081519050919050565b600082825260208201905092915050565b6000819050602082019050919050565b600082825260208201905092915050565b60006142308261410b565b61423a8185614214565b935061424a818560208601614116565b61425381614149565b840191505092915050565b600061426a8383614225565b905092915050565b6000602082019050919050565b600061428a826141e8565b61429481856141f3565b9350836020820285016142a685614204565b8060005b858110156142e257848403895281516142c3858261425e565b94506142ce83614272565b925060208a019950506001810190506142aa565b50829750879550505050505092915050565b600067ffffffffffffffff82169050919050565b614311816142f4565b82525050565b600063ffffffff82169050919050565b61433081614317565b82525050565b600060a0820190508181036000830152614350818861415a565b9050818103602083015261436481876141af565b90508181036040830152614378818661427f565b90506143876060830185614308565b6143946080830184614327565b9695505050505050565b6000819050919050565b6143b18161439e565b81146143bc57600080fd5b50565b6000815190506143ce816143a8565b92915050565b6000602082840312156143ea576143e9613063565b5b60006143f8848285016143bf565b91505092915050565b7f77697468647261774164647265737320696e636f727265637400000000000000600082015250565b6000614437601983613352565b915061444282614401565b602082019050919050565b600060608201905061446260008301856130cb565b61446f6020830184613127565b81810360408301526144808161442a565b90509392505050565b7f6e6f7420736c6173686564000000000000000000000000000000000000000000600082015250565b60006144bf600b83613352565b91506144ca82614489565b602082019050919050565b60006060820190506144ea60008301856130cb565b6144f76020830184613127565b8181036040830152614508816144b2565b90509392505050565b7f61646472657373206e6f7420636f7272656374206f72206e6f74207365740000600082015250565b6000614547601e83613352565b915061455282614511565b602082019050919050565b600060608201905061457260008301856130cb565b61457f6020830184613127565b81810360408301526145908161453a565b90509392505050565b60006060820190506145ae6000830186613127565b6145bb60208301856130cb565b6145c86040830184613127565b949350505050565b60006040820190506145e56000830185613127565b6145f26020830184613127565b9392505050565b7f5361666545524332303a20617070726f76652066726f6d206e6f6e2d7a65726f60008201527f20746f206e6f6e2d7a65726f20616c6c6f77616e636500000000000000000000602082015250565b6000614655603683613352565b9150614660826145f9565b604082019050919050565b6000602082019050818103600083015261468481614648565b9050919050565b7f5361666545524332303a2063616c6c20746f206e6f6e2d636f6e747261637400600082015250565b60006146c1601f83613352565b91506146cc8261468b565b602082019050919050565b600060208201905081810360008301526146f0816146b4565b9050919050565b600081905092915050565b600061470d82614193565b61471781856146f7565b9350614727818560208601614116565b80840191505092915050565b600061473f8284614702565b915081905092915050565b7f5361666545524332303a206c6f772d6c6576656c2063616c6c206661696c6564600082015250565b6000614780602083613352565b915061478b8261474a565b602082019050919050565b600060208201905081810360008301526147af81614773565b9050919050565b6147bf8161324a565b81146147ca57600080fd5b50565b6000815190506147dc816147b6565b92915050565b6000602082840312156147f8576147f7613063565b5b6000614806848285016147cd565b91505092915050565b7f5361666545524332303a204552433230206f7065726174696f6e20646964206e60008201527f6f74207375636365656400000000000000000000000000000000000000000000602082015250565b600061486b602a83613352565b91506148768261480f565b604082019050919050565b6000602082019050818103600083015261489a8161485e565b905091905056fe636f6e73742076616c696461746f72496e646578203d20617267735b305d0a202020202020202020202020636f6e73742075726c203d202768747470733a2f2f666c61736b2d736572766963652e726671626872383334716c6e6f2e75732d656173742d322e63732e616d617a6f6e6c696768747361696c2e636f6d2f7374617475732f272b76616c696461746f72496e6465782e746f537472696e6728290a202020202020202020202020636f6e73742063727970746f436f6d7061726552657175657374203d2046756e6374696f6e732e6d616b654874747052657175657374287b0a2020202020202020202020202020202075726c3a2075726c2c0a2020202020202020202020207d290a202020202020202020202020636f6e73742063727970746f436f6d70617265526573706f6e7365203d2061776169742063727970746f436f6d70617265526571756573740a2020202020202020202020206966202863727970746f436f6d70617265526573706f6e73652e6572726f7229207b0a20202020202020202020202020202020636f6e736f6c652e6572726f722863727970746f436f6d70617265526573706f6e73652e6572726f72290a202020202020202020202020202020207468726f77204572726f72282752657175657374206661696c656427290a2020202020202020202020207d0a202020202020202020202020636f6e73742064617461203d2063727970746f436f6d70617265526573706f6e73655b2764617461275d0a20202020202020202020202069662028646174612e526573706f6e7365203d3d3d20274572726f722729207b0a20202020202020202020202020202020636f6e736f6c652e6572726f7228646174612e4d657373616765290a202020202020202020202020202020207468726f77204572726f72286046756e6374696f6e616c206572726f722e2052656164206d6573736167653a20247b646174612e4d6573736167657d60290a2020202020202020202020207d0a2020202020202020202020206c657420736c6173686564203d20747275653b0a20202020202020202020202069662821646174615b27736c6173686564275d297b0a20202020202020202020202020202020736c6173686564203d2066616c73653b0a2020202020202020202020207d0a202020202020202020202020696628646174615b27776974686472617741646472657373275d203d3d202730783027297b0a20202020202020202020202020202020646174615b27776974686472617741646472657373275d203d2027307830303030303030303030303030303030303030303030303030303030303030303030303030303030270a2020202020202020202020207d0a2020202020202020202020206c6574206c6f7373203d20646174615b276c6f7373275d202a20310a202020202020202020202020636f6e737420627566666572203d204275666665722e616c6c6f632831293b0a2020202020202020202020206275666665722e777269746555496e743828736c6173686564203f2031203a20302c2030290a202020202020202020202020636f6e737420686578426f6f6c203d206275666665722e746f537472696e67282768657827290a2020202020202020202020206c657420686578496e646578203d20646174615b27696e646578275d2e746f537472696e67283136292e70616453746172742836342c20273027290a2020202020202020202020206c6574206865784c6f7373203d206c6f73732e746f537472696e67283136292e70616453746172742836342c20273027290a2020202020202020202020206c657420726573756c74203d204275666665722e66726f6d28646174615b27776974686472617741646472657373275d2e736c6963652832292b686578426f6f6c2b686578496e6465782b6865784c6f73732c202768657827290a20202020202020202020202072657475726e204275666665722e66726f6d28726573756c7429a26469706673582212207760d0ef8b177b58d94b6b8f4e4eb2b0447f88bd96f3f5661f0da0b600aface664736f6c6343000809003360806040523480156200001157600080fd5b506040518060400160405280601681526020017f536c617368696e6720496e737572616e636520455448000000000000000000008152506040518060400160405280600681526020017f736c694554480000000000000000000000000000000000000000000000000000815250816003908051906020019062000096929190620000f9565b508060049080519060200190620000af929190620000f9565b50505033600660006101000a81548173ffffffffffffffffffffffffffffffffffffffff021916908373ffffffffffffffffffffffffffffffffffffffff1602179055506200020e565b8280546200010790620001d8565b90600052602060002090601f0160209004810192826200012b576000855562000177565b82601f106200014657805160ff191683800117855562000177565b8280016001018555821562000177579182015b828111156200017657825182559160200191906001019062000159565b5b5090506200018691906200018a565b5090565b5b80821115620001a55760008160009055506001016200018b565b5090565b7f4e487b7100000000000000000000000000000000000000000000000000000000600052602260045260246000fd5b60006002820490506001821680620001f157607f821691505b60208210811415620002085762000207620001a9565b5b50919050565b612339806200021e6000396000f3fe6080604052600436106101025760003560e01c806371f56f1111610095578063a9059cbb11610064578063a9059cbb1461037a578063cb765c1d146103b7578063d5bda32d146103e2578063dd62ed3e1461041f578063f0197e1a1461045c57610109565b806371f56f11146102ac57806395d89b41146102e95780639dc29fac14610314578063a457c2d71461033d57610109565b8063313ce567116100d1578063313ce567146101de578063395093511461020957806340c10f191461024657806370a082311461026f57610109565b806306fdde031461010e578063095ea7b31461013957806318160ddd1461017657806323b872dd146101a157610109565b3661010957005b600080fd5b34801561011a57600080fd5b50610123610487565b6040516101309190611641565b60405180910390f35b34801561014557600080fd5b50610160600480360381019061015b91906116fc565b610519565b60405161016d9190611757565b60405180910390f35b34801561018257600080fd5b5061018b610537565b6040516101989190611781565b60405180910390f35b3480156101ad57600080fd5b506101c860048036038101906101c3919061179c565b610541565b6040516101d59190611757565b60405180910390f35b3480156101ea57600080fd5b506101f3610639565b604051610200919061180b565b60405180910390f35b34801561021557600080fd5b50610230600480360381019061022b91906116fc565b610642565b60405161023d9190611757565b60405180910390f35b34801561025257600080fd5b5061026d600480360381019061026891906116fc565b6106ee565b005b34801561027b57600080fd5b5061029660048036038101906102919190611826565b61082f565b6040516102a39190611781565b60405180910390f35b3480156102b857600080fd5b506102d360048036038101906102ce9190611853565b610877565b6040516102e09190611781565b60405180910390f35b3480156102f557600080fd5b506102fe610912565b60405161030b9190611641565b60405180910390f35b34801561032057600080fd5b5061033b600480360381019061033691906116fc565b6109a4565b005b34801561034957600080fd5b50610364600480360381019061035f91906116fc565b610b30565b6040516103719190611757565b60405180910390f35b34801561038657600080fd5b506103a1600480360381019061039c91906116fc565b610c1b565b6040516103ae9190611757565b60405180910390f35b3480156103c357600080fd5b506103cc610c39565b6040516103d99190611781565b60405180910390f35b3480156103ee57600080fd5b5061040960048036038101906104049190611853565b610ce0565b6040516104169190611781565b60405180910390f35b34801561042b57600080fd5b5061044660048036038101906104419190611880565b610d2d565b6040516104539190611781565b60405180910390f35b34801561046857600080fd5b50610471610db4565b60405161047e9190611781565b60405180910390f35b606060038054610496906118ef565b80601f01602080910402602001604051908101604052809291908181526020018280546104c2906118ef565b801561050f5780601f106104e45761010080835404028352916020019161050f565b820191906000526020600020905b8154815290600101906020018083116104f257829003601f168201915b5050505050905090565b600061052d610526610e13565b8484610e1b565b6001905092915050565b6000600254905090565b600061054e848484610fe6565b6000600160008673ffffffffffffffffffffffffffffffffffffffff1673ffffffffffffffffffffffffffffffffffffffff1681526020019081526020016000206000610599610e13565b73ffffffffffffffffffffffffffffffffffffffff1673ffffffffffffffffffffffffffffffffffffffff16815260200190815260200160002054905082811015610619576040517f08c379a000000000000000000000000000000000000000000000000000000000815260040161061090611993565b60405180910390fd5b61062d85610625610e13565b858403610e1b565b60019150509392505050565b60006012905090565b60006106e461064f610e13565b84846001600061065d610e13565b73ffffffffffffffffffffffffffffffffffffffff1673ffffffffffffffffffffffffffffffffffffffff16815260200190815260200160002060008873ffffffffffffffffffffffffffffffffffffffff1673ffffffffffffffffffffffffffffffffffffffff168152602001908152602001600020546106df91906119e2565b610e1b565b6001905092915050565b3373ffffffffffffffffffffffffffffffffffffffff16600660009054906101000a900473ffffffffffffffffffffffffffffffffffffffff1673ffffffffffffffffffffffffffffffffffffffff161461077e576040517f08c379a000000000000000000000000000000000000000000000000000000000815260040161077590611a84565b60405180910390fd5b600061078982610877565b9050600081116107ce576040517f08c379a00000000000000000000000000000000000000000000000000000000081526004016107c590611af0565b60405180910390fd5b6107d88382611267565b8273ffffffffffffffffffffffffffffffffffffffff167f6155cfd0fd028b0ca77e8495a60cbe563e8bce8611f0aad6fedbdaafc05d44a282844260405161082293929190611b10565b60405180910390a2505050565b60008060008373ffffffffffffffffffffffffffffffffffffffff1673ffffffffffffffffffffffffffffffffffffffff168152602001908152602001600020549050919050565b60008082610883610c39565b61088d9190611b47565b90506000610899610537565b905060008114156108ae57839250505061090d565b600082116108f1576040517f08c379a00000000000000000000000000000000000000000000000000000000081526004016108e890611c13565b60405180910390fd5b8181856108fe9190611c33565b6109089190611cbc565b925050505b919050565b606060048054610921906118ef565b80601f016020809104026020016040519081016040528092919081815260200182805461094d906118ef565b801561099a5780601f1061096f5761010080835404028352916020019161099a565b820191906000526020600020905b81548152906001019060200180831161097d57829003601f168201915b5050505050905090565b3373ffffffffffffffffffffffffffffffffffffffff16600660009054906101000a900473ffffffffffffffffffffffffffffffffffffffff1673ffffffffffffffffffffffffffffffffffffffff1614610a34576040517f08c379a0000000000000000000000000000000000000000000000000000000008152600401610a2b90611a84565b60405180910390fd5b60008111610a77576040517f08c379a0000000000000000000000000000000000000000000000000000000008152600401610a6e90611d39565b60405180910390fd5b80610a818361082f565b1015610ac2576040517f08c379a0000000000000000000000000000000000000000000000000000000008152600401610ab990611da5565b60405180910390fd5b6000610acd82610ce0565b9050610ad983836113c7565b3373ffffffffffffffffffffffffffffffffffffffff167f19783b34589160c168487dc7f9c51ae0bcefe67a47d6708fba90f6ce0366d3d1838342604051610b2393929190611b10565b60405180910390a2505050565b60008060016000610b3f610e13565b73ffffffffffffffffffffffffffffffffffffffff1673ffffffffffffffffffffffffffffffffffffffff16815260200190815260200160002060008573ffffffffffffffffffffffffffffffffffffffff1673ffffffffffffffffffffffffffffffffffffffff16815260200190815260200160002054905082811015610bfc576040517f08c379a0000000000000000000000000000000000000000000000000000000008152600401610bf390611e37565b60405180910390fd5b610c10610c07610e13565b85858403610e1b565b600191505092915050565b6000610c2f610c28610e13565b8484610fe6565b6001905092915050565b6000600660009054906101000a900473ffffffffffffffffffffffffffffffffffffffff1673ffffffffffffffffffffffffffffffffffffffff166314e7c9226040518163ffffffff1660e01b815260040160206040518083038186803b158015610ca357600080fd5b505afa158015610cb7573d6000803e3d6000fd5b505050506040513d601f19601f82011682018060405250810190610cdb9190611e6c565b905090565b600080610ceb610c39565b90506000610cf7610537565b90506000811415610d0c578392505050610d28565b808285610d199190611c33565b610d239190611cbc565b925050505b919050565b6000600160008473ffffffffffffffffffffffffffffffffffffffff1673ffffffffffffffffffffffffffffffffffffffff16815260200190815260200160002060008373ffffffffffffffffffffffffffffffffffffffff1673ffffffffffffffffffffffffffffffffffffffff16815260200190815260200160002054905092915050565b600080610dbf610c39565b90506000610dcb610537565b90506000811480610ddc5750600082145b15610dec57600092505050610e10565b8082670de0b6b3a7640000610e019190611c33565b610e0b9190611cbc565b925050505b90565b600033905090565b600073ffffffffffffffffffffffffffffffffffffffff168373ffffffffffffffffffffffffffffffffffffffff161415610e8b576040517f08c379a0000000000000000000000000000000000000000000000000000000008152600401610e8290611f0b565b60405180910390fd5b600073ffffffffffffffffffffffffffffffffffffffff168273ffffffffffffffffffffffffffffffffffffffff161415610efb576040517f08c379a0000000000000000000000000000000000000000000000000000000008152600401610ef290611f9d565b60405180910390fd5b80600160008573ffffffffffffffffffffffffffffffffffffffff1673ffffffffffffffffffffffffffffffffffffffff16815260200190815260200160002060008473ffffffffffffffffffffffffffffffffffffffff1673ffffffffffffffffffffffffffffffffffffffff168152602001908152602001600020819055508173ffffffffffffffffffffffffffffffffffffffff168373ffffffffffffffffffffffffffffffffffffffff167f8c5be1e5ebec7d5bd14f71427d1e84f3dd0314c0f7b2291e5b200ac8c7c3b92583604051610fd99190611781565b60405180910390a3505050565b600073ffffffffffffffffffffffffffffffffffffffff168373ffffffffffffffffffffffffffffffffffffffff161415611056576040517f08c379a000000000000000000000000000000000000000000000000000000000815260040161104d9061202f565b60405180910390fd5b600073ffffffffffffffffffffffffffffffffffffffff168273ffffffffffffffffffffffffffffffffffffffff1614156110c6576040517f08c379a00000000000000000000000000000000000000000000000000000000081526004016110bd906120c1565b60405180910390fd5b6110d183838361159e565b60008060008573ffffffffffffffffffffffffffffffffffffffff1673ffffffffffffffffffffffffffffffffffffffff16815260200190815260200160002054905081811015611157576040517f08c379a000000000000000000000000000000000000000000000000000000000815260040161114e90612153565b60405180910390fd5b8181036000808673ffffffffffffffffffffffffffffffffffffffff1673ffffffffffffffffffffffffffffffffffffffff16815260200190815260200160002081905550816000808573ffffffffffffffffffffffffffffffffffffffff1673ffffffffffffffffffffffffffffffffffffffff16815260200190815260200160002060008282546111ea91906119e2565b925050819055508273ffffffffffffffffffffffffffffffffffffffff168473ffffffffffffffffffffffffffffffffffffffff167fddf252ad1be2c89b69c2b068fc378daa952ba7f163c4a11628f55a4df523b3ef8460405161124e9190611781565b60405180910390a36112618484846115a3565b50505050565b600073ffffffffffffffffffffffffffffffffffffffff168273ffffffffffffffffffffffffffffffffffffffff1614156112d7576040517f08c379a00000000000000000000000000000000000000000000000000000000081526004016112ce906121bf565b60405180910390fd5b6112e36000838361159e565b80600260008282546112f591906119e2565b92505081905550806000808473ffffffffffffffffffffffffffffffffffffffff1673ffffffffffffffffffffffffffffffffffffffff168152602001908152602001600020600082825461134a91906119e2565b925050819055508173ffffffffffffffffffffffffffffffffffffffff16600073ffffffffffffffffffffffffffffffffffffffff167fddf252ad1be2c89b69c2b068fc378daa952ba7f163c4a11628f55a4df523b3ef836040516113af9190611781565b60405180910390a36113c3600083836115a3565b5050565b600073ffffffffffffffffffffffffffffffffffffffff168273ffffffffffffffffffffffffffffffffffffffff161415611437576040517f08c379a000000000000000000000000000000000000000000000000000000000815260040161142e90612251565b60405180910390fd5b6114438260008361159e565b60008060008473ffffffffffffffffffffffffffffffffffffffff1673ffffffffffffffffffffffffffffffffffffffff168152602001908152602001600020549050818110156114c9576040517f08c379a00000000000000000000000000000000000000000000000000000000081526004016114c0906122e3565b60405180910390fd5b8181036000808573ffffffffffffffffffffffffffffffffffffffff1673ffffffffffffffffffffffffffffffffffffffff1681526020019081526020016000208190555081600260008282546115209190611b47565b92505081905550600073ffffffffffffffffffffffffffffffffffffffff168373ffffffffffffffffffffffffffffffffffffffff167fddf252ad1be2c89b69c2b068fc378daa952ba7f163c4a11628f55a4df523b3ef846040516115859190611781565b60405180910390a3611599836000846115a3565b505050565b505050565b505050565b600081519050919050565b600082825260208201905092915050565b60005b838110156115e25780820151818401526020810190506115c7565b838111156115f1576000848401525b50505050565b6000601f19601f8301169050919050565b6000611613826115a8565b61161d81856115b3565b935061162d8185602086016115c4565b611636816115f7565b840191505092915050565b6000602082019050818103600083015261165b8184611608565b905092915050565b600080fd5b600073ffffffffffffffffffffffffffffffffffffffff82169050919050565b600061169382611668565b9050919050565b6116a381611688565b81146116ae57600080fd5b50565b6000813590506116c08161169a565b92915050565b6000819050919050565b6116d9816116c6565b81146116e457600080fd5b50565b6000813590506116f6816116d0565b92915050565b6000806040838503121561171357611712611663565b5b6000611721858286016116b1565b9250506020611732858286016116e7565b9150509250929050565b60008115159050919050565b6117518161173c565b82525050565b600060208201905061176c6000830184611748565b92915050565b61177b816116c6565b82525050565b60006020820190506117966000830184611772565b92915050565b6000806000606084860312156117b5576117b4611663565b5b60006117c3868287016116b1565b93505060206117d4868287016116b1565b92505060406117e5868287016116e7565b9150509250925092565b600060ff82169050919050565b611805816117ef565b82525050565b600060208201905061182060008301846117fc565b92915050565b60006020828403121561183c5761183b611663565b5b600061184a848285016116b1565b91505092915050565b60006020828403121561186957611868611663565b5b6000611877848285016116e7565b91505092915050565b6000806040838503121561189757611896611663565b5b60006118a5858286016116b1565b92505060206118b6858286016116b1565b9150509250929050565b7f4e487b7100000000000000000000000000000000000000000000000000000000600052602260045260246000fd5b6000600282049050600182168061190757607f821691505b6020821081141561191b5761191a6118c0565b5b50919050565b7f45524332303a207472616e7366657220616d6f756e742065786365656473206160008201527f6c6c6f77616e6365000000000000000000000000000000000000000000000000602082015250565b600061197d6028836115b3565b915061198882611921565b604082019050919050565b600060208201905081810360008301526119ac81611970565b9050919050565b7f4e487b7100000000000000000000000000000000000000000000000000000000600052601160045260246000fd5b60006119ed826116c6565b91506119f8836116c6565b9250827fffffffffffffffffffffffffffffffffffffffffffffffffffffffffffffffff03821115611a2d57611a2c6119b3565b5b828201905092915050565b7f6e6f7420746865206f776e657200000000000000000000000000000000000000600082015250565b6000611a6e600d836115b3565b9150611a7982611a38565b602082019050919050565b60006020820190508181036000830152611a9d81611a61565b9050919050565b7f496e76616c696420746f6b656e206d696e7420616d6f756e7400000000000000600082015250565b6000611ada6019836115b3565b9150611ae582611aa4565b602082019050919050565b60006020820190508181036000830152611b0981611acd565b9050919050565b6000606082019050611b256000830186611772565b611b326020830185611772565b611b3f6040830184611772565b949350505050565b6000611b52826116c6565b9150611b5d836116c6565b925082821015611b7057611b6f6119b3565b5b828203905092915050565b7f43616e6e6f742063616c63756c61746520736c6945544820746f6b656e20616d60008201527f6f756e74207768696c6520726573657276652062616c616e6365206973207a6560208201527f726f000000000000000000000000000000000000000000000000000000000000604082015250565b6000611bfd6042836115b3565b9150611c0882611b7b565b606082019050919050565b60006020820190508181036000830152611c2c81611bf0565b9050919050565b6000611c3e826116c6565b9150611c49836116c6565b9250817fffffffffffffffffffffffffffffffffffffffffffffffffffffffffffffffff0483118215151615611c8257611c816119b3565b5b828202905092915050565b7f4e487b7100000000000000000000000000000000000000000000000000000000600052601260045260246000fd5b6000611cc7826116c6565b9150611cd2836116c6565b925082611ce257611ce1611c8d565b5b828204905092915050565b7f496e76616c696420746f6b656e206275726e20616d6f756e7400000000000000600082015250565b6000611d236019836115b3565b9150611d2e82611ced565b602082019050919050565b60006020820190508181036000830152611d5281611d16565b9050919050565b7f496e73756666696369656e7420736c694554482062616c616e63650000000000600082015250565b6000611d8f601b836115b3565b9150611d9a82611d59565b602082019050919050565b60006020820190508181036000830152611dbe81611d82565b9050919050565b7f45524332303a2064656372656173656420616c6c6f77616e63652062656c6f7760008201527f207a65726f000000000000000000000000000000000000000000000000000000602082015250565b6000611e216025836115b3565b9150611e2c82611dc5565b604082019050919050565b60006020820190508181036000830152611e5081611e14565b9050919050565b600081519050611e66816116d0565b92915050565b600060208284031215611e8257611e81611663565b5b6000611e9084828501611e57565b91505092915050565b7f45524332303a20617070726f76652066726f6d20746865207a65726f2061646460008201527f7265737300000000000000000000000000000000000000000000000000000000602082015250565b6000611ef56024836115b3565b9150611f0082611e99565b604082019050919050565b60006020820190508181036000830152611f2481611ee8565b9050919050565b7f45524332303a20617070726f766520746f20746865207a65726f20616464726560008201527f7373000000000000000000000000000000000000000000000000000000000000602082015250565b6000611f876022836115b3565b9150611f9282611f2b565b604082019050919050565b60006020820190508181036000830152611fb681611f7a565b9050919050565b7f45524332303a207472616e736665722066726f6d20746865207a65726f20616460008201527f6472657373000000000000000000000000000000000000000000000000000000602082015250565b60006120196025836115b3565b915061202482611fbd565b604082019050919050565b600060208201905081810360008301526120488161200c565b9050919050565b7f45524332303a207472616e7366657220746f20746865207a65726f206164647260008201527f6573730000000000000000000000000000000000000000000000000000000000602082015250565b60006120ab6023836115b3565b91506120b68261204f565b604082019050919050565b600060208201905081810360008301526120da8161209e565b9050919050565b7f45524332303a207472616e7366657220616d6f756e742065786365656473206260008201527f616c616e63650000000000000000000000000000000000000000000000000000602082015250565b600061213d6026836115b3565b9150612148826120e1565b604082019050919050565b6000602082019050818103600083015261216c81612130565b9050919050565b7f45524332303a206d696e7420746f20746865207a65726f206164647265737300600082015250565b60006121a9601f836115b3565b91506121b482612173565b602082019050919050565b600060208201905081810360008301526121d88161219c565b9050919050565b7f45524332303a206275726e2066726f6d20746865207a65726f2061646472657360008201527f7300000000000000000000000000000000000000000000000000000000000000602082015250565b600061223b6021836115b3565b9150612246826121df565b604082019050919050565b6000602082019050818103600083015261226a8161222e565b9050919050565b7f45524332303a206275726e20616d6f756e7420657863656564732062616c616e60008201527f6365000000000000000000000000000000000000000000000000000000000000602082015250565b60006122cd6022836115b3565b91506122d882612271565b604082019050919050565b600060208201905081810360008301526122fc816122c0565b905091905056fea264697066735822122093cb834fdbd5c9528793e6fea0a56433d2e5bc42fa210e6ac0c73f6fec6feb8e64736f6c63430008090033",
  "immutableReferences": {
    "1821": [
      {
        "length": 32,
        "start": 1910
      },
      {
        "length": 32,
        "start": 5379
      },
      {
        "length": 32,
        "start": 7135
      },
      {
        "length": 32,
        "start": 7392
      },
      {
        "length": 32,
        "start": 7557
      }
    ],
    "1823": [
      {
        "length": 32,
        "start": 2215
      },
      {
        "length": 32,
        "start": 10874
      },
      {
        "length": 32,
        "start": 10950
      },
      {
        "length": 32,
        "start": 11186
      }
    ],
    "1856": [
      {
        "length": 32,
        "start": 2394
      },
      {
        "length": 32,
        "start": 3841
      },
      {
        "length": 32,
        "start": 4517
      },
      {
        "length": 32,
        "start": 5509
      },
      {
        "length": 32,
        "start": 5880
      }
    ]
  },
  "source": "// SPDX-License-Identifier: MIT\npragma solidity 0.8.9;\n\nimport {IERC20} from \"./interfaces/other/IERC20.sol\";\nimport {IWETHGateway} from \"./interfaces/aave/IWETHGateway.sol\";\nimport {IFunctionsConsumer} from \"./interfaces/link/IFunctionsConsumer.sol\";\nimport {IPremiumGenerator} from \"./interfaces/protocol/IPremiumGenerator.sol\";\nimport {SlashingInsuranceETH} from \"./SlashingInsuranceETH.sol\";\nimport {SafeERC20} from \"./libraries/SafeERC20.sol\";\nimport \"@openzeppelin/contracts/security/ReentrancyGuard.sol\";\nimport \"@openzeppelin/contracts/utils/Strings.sol\";\n\n//AAVE V2\nimport {ILendingPool} from \"./interfaces/aave/ILendingPool.sol\";\nimport {ILendingPoolAddressesProvider} from \"./interfaces/aave/ILendingPoolAddressesProvider.sol\";\nimport {IProtocolDataProvider} from \"./interfaces/aave/IProtocolDataProvider.sol\";\n\n//AAVE V3\nimport {IPool} from \"./interfaces/aave/IPool.sol\";\nimport {IPoolAddressesProvider} from \"./interfaces/aave/IPoolAddressesProvider.sol\";\n\n/**\n * @title PoolTracker contract\n * @author JustCause\n * @notice Main point of interaction with JustCause Protocol\n * This is a proof of concept starter contract for lossless donations\n *\n * Aave v3 is used to generate interest for crowdfunding\n *\n * PoolTracker contract controls deposit calls to Aave to make\n * approvals needed only once per token. Calls JustCause Pools for\n * withdrawals and claims\n *\n * Controls Owner/Contributor NFT creation and updates for deposits/withdrawals\n *\n * Controls JustCause Pool creation with proxy contracts\n *\n * @dev Deposits, withdraws, and claims for Aave Pools\n * @dev Generate ERC721 token\n **/\n\ncontract Reserve is ReentrancyGuard {\n    using SafeERC20 for IERC20;\n\n    SlashingInsuranceETH immutable sliETH;\n    address immutable wethGatewayAddr;\n    address oracle;\n    uint256 public constant WAIT_PERIOD = 2 weeks;\n    enum Status {\n        NOT_ACTIVE,\n        ACTIVE,\n        AWAIT_ORACLE_ADD,\n        ORACLE_ADD_APPROVE,\n        AWAIT_ORACLE_CLAIM,\n        CLAIM_WAIT_PERIOD,\n        CLOSED,\n        CLAIM_PAUSED\n    }\n\n    struct Beneficiary {\n        Status status;\n        address withdrawAddress;\n        uint claimTimestamp;\n        uint loss;\n    }\n\n    //maps validator index to Beneficiary obj\n    mapping(uint => Beneficiary) beneficiaries;\n    //mapping(address => uint) claims;\n\n    address generatorPool;\n\n    address immutable multiSig;\n    uint public minimumProvide;\n    //minimum required for withdrawals and accepting claims\n    uint public minimumReserve;\n    //minimum pure ETH to hold in Reserve\n    //uint public minimumPureHoldings;\n    uint public maxClaim;\n\n    event DenyAddBeneficiary(\n        uint validatorIndex,\n        address withdrawAddres,\n        string reason\n    );\n    event AddBeneficiary(uint validatorIndex, address withdrawAddress);\n    event WithdrawBeneficiary(uint validatorIndex, address withdrawAddres);\n    event Harvest(address pool, uint amount);\n    event MakeClaim(uint validatorIndex);\n    event ProcessClaim(address beneficiary, uint amount, string result);\n\n    modifier claimLessThanMax(uint _claimAmount) {\n        require(_claimAmount < maxClaim, \"claim cannot be more than 16 Ether\");\n        _;\n    }\n\n    modifier minimumReserveMet() {\n        require(\n            minimumReserve <= getProtocolBalance(),\n            \"minimum reserve not met\"\n        );\n        _;\n    }\n\n    modifier onlyApply(uint _validatorIndex) {\n        require(\n            beneficiaries[_validatorIndex].withdrawAddress == address(0),\n            \"not eligible to apply\"\n        );\n        _;\n    }\n\n    modifier onlyBeneficiary(address _withdrawAddress, uint _validatorIndex) {\n        require(\n            beneficiaries[_validatorIndex].withdrawAddress == _withdrawAddress,\n            \"must send tx from validator withdrawAddress\"\n        );\n        _;\n    }\n    modifier onlyAddApproved(uint _validatorIndex) {\n        require(\n            beneficiaries[_validatorIndex].status == Status.ORACLE_ADD_APPROVE,\n            \"beneficiary is not approved\"\n        );\n        _;\n    }\n\n    modifier onlyActiveBeneficiary(uint _validatorIndex) {\n        require(\n            beneficiaries[_validatorIndex].status == Status.ACTIVE,\n            \"beneficiary not active\"\n        );\n        _;\n    }\n\n    modifier onlyWaitPeriod(uint _validatorIndex) {\n        require(\n            beneficiaries[_validatorIndex].status == Status.CLAIM_WAIT_PERIOD,\n            \"no claim pending\"\n        );\n        _;\n    }\n\n    modifier onlyPausedClaim(uint _validatorIndex) {\n        require(\n            beneficiaries[_validatorIndex].status == Status.CLAIM_PAUSED,\n            \"no claim paused\"\n        );\n        _;\n    }\n\n    modifier onlyTimeoutPassed(uint _validatorIndex) {\n        require(block.timestamp >=\n                beneficiaries[_validatorIndex].claimTimestamp +\n                WAIT_PERIOD, \"Cannot withdraw claim until timeout passed\"\n        );\n        _;\n    }\n\n    modifier fromWithdrawAddress(\n        address _withdrawAddress,\n        uint _validatorIndex\n    ) {\n        require(\n            beneficiaries[_validatorIndex].withdrawAddress == _withdrawAddress,\n            \"withdrawAddress does not match\"\n        );\n        _;\n    }\n\n    /**\n     * @dev Only address that are a pool can be passed to functions marked by this modifier.\n     **/\n    modifier onlyPools() {\n        require(isPool(msg.sender), \"sender is not pool\");\n        _;\n    }\n\n    /**\n     * @dev Only multisig can call functions marked by this modifier.\n     **/\n    modifier onlyMultiSig() {\n        require(multiSig == msg.sender, \"not the multiSig\");\n        _;\n    }\n\n    /**\n     * @dev Only oracle can call functions marked by this modifier.\n     **/\n    modifier onlyOracle() {\n        require(oracle == msg.sender, \"not the oracle\");\n        _;\n    }\n\n    /**\n     * @dev Only sliETH contract can call functions marked by this modifier.\n     **/\n    modifier onlySliETHContract() {\n        require(address(sliETH) == msg.sender, \"not the sliETH contract\");\n        _;\n    }\n\n    /**\n     * @dev Constructor.\n     */\n    constructor(\n        address _multiSig,\n        address _generatorPool,\n        address _wethGatewayAddr,\n        uint _minimumProvide,\n        uint _minimumReserve,\n        uint _maxClaim,\n        address _oracle\n    ) {\n        multiSig = _multiSig;\n        generatorPool = _generatorPool;\n        wethGatewayAddr = _wethGatewayAddr;\n        sliETH = new SlashingInsuranceETH();\n        oracle = _oracle;\n        minimumProvide = _minimumProvide;\n        minimumReserve = _minimumReserve;\n        maxClaim = _maxClaim;\n    }\n\n    receive() external payable {\n        provideInsurance();\n    }\n\n    // Fallback function is called when msg.data is not empty\n    fallback() external payable {\n        provideInsurance();\n    }\n\n    function provideInsurance() public payable nonReentrant {\n        require(\n            msg.value >= minimumProvide,\n            \"value must be greater than minimum\"\n        );\n        sliETH.mint(msg.sender, msg.value);\n        address aaveLendingPool = IPremiumGenerator(generatorPool).getLendingPoolAddress();\n        IWETHGateway(wethGatewayAddr).depositETH{value: msg.value}(aaveLendingPool, address(this), 0);\n    }\n\n    function withdrawInsurance(uint _sliETHAmount) external nonReentrant {\n        uint requestedETH = sliETH.getETHValue(_sliETHAmount);\n        require(\n            minimumReserve < (getProtocolBalance() - requestedETH),\n            \"reserve insufficient to withdraw insurance\"\n        );\n        sliETH.burn(msg.sender, _sliETHAmount);\n        _processOutflow(msg.sender, requestedETH);\n    }\n\n    function _processOutflow(address _to, uint requestedETH) internal {\n        //harvest aave pools for outflow\n        uint aTokenBalance = getReserveATokenBalance();\n        if(aTokenBalance < requestedETH){\n            _harvestInterest();\n        }\n\n        address aTokenAddress = IPremiumGenerator(generatorPool)\n            .getATokenAddress();\n        IERC20(aTokenAddress).safeApprove(wethGatewayAddr, 0);\n        IERC20(aTokenAddress).safeApprove(wethGatewayAddr, requestedETH);\n        address aaveLendingPool = IPremiumGenerator(generatorPool)\n            .getLendingPoolAddress();\n        IWETHGateway(wethGatewayAddr).withdrawETH(\n            aaveLendingPool,\n            requestedETH,\n            _to\n        );\n    }\n\n    /**\n     * @param _validatorIndex uint index of insured validator\n     **/\n    function applyForCoverage(\n        uint _validatorIndex\n    ) external onlyApply(_validatorIndex) {\n        _callOracle(Strings.toString(_validatorIndex));\n        beneficiaries[_validatorIndex] = Beneficiary(\n            Status.AWAIT_ORACLE_ADD,\n            msg.sender,\n            0,\n            0\n        );\n    }\n\n    /**\n     * @param _withdrawAddress address of beneficiary\n     * @param _validatorIndex uint index of insured validator\n     **/\n    function addBeneficiary(\n        address _withdrawAddress,\n        uint _validatorIndex\n    )\n        external\n        minimumReserveMet\n        onlyAddApproved(_validatorIndex)\n        onlyBeneficiary(_withdrawAddress, _validatorIndex)\n        onlyPools\n    {\n        beneficiaries[_validatorIndex] = Beneficiary(\n            Status.ACTIVE,\n            _withdrawAddress,\n            0,\n            0\n        );\n    }\n\n    function oracleResponse(\n        uint _validatorIndex,\n        uint8 _slashed,\n        address _withdrawAddress,\n        uint _loss\n    ) external onlyOracle {\n        if (beneficiaries[_validatorIndex].status == Status.AWAIT_ORACLE_CLAIM) {\n            _oracleClaimResponse(_validatorIndex, _slashed, _withdrawAddress, _loss);\n        }\n        else if (beneficiaries[_validatorIndex].status == Status.AWAIT_ORACLE_ADD) {\n            _oracleAddBeneResponse(_validatorIndex, _slashed, _withdrawAddress);\n        }\n        else{\n            return;\n        }\n    }\n\n    function _oracleAddBeneResponse(\n        uint _validatorIndex,\n        uint8 _slashed,\n        address _withdrawAddress\n    ) internal {\n        //check withdraw address with oracle reponse\n        //check validator is active with oracle response\n        if (\n            beneficiaries[_validatorIndex].withdrawAddress != _withdrawAddress ||\n            _slashed == 1\n        ) {\n            beneficiaries[_validatorIndex].withdrawAddress = address(0);\n            beneficiaries[_validatorIndex].status = Status.NOT_ACTIVE;\n            emit DenyAddBeneficiary(\n                _validatorIndex,\n                _withdrawAddress,\n                \"address not correct or not set\"\n            );\n        }\n        else {\n            beneficiaries[_validatorIndex].status = Status.ORACLE_ADD_APPROVE;\n        }\n    }\n\n    function _oracleClaimResponse(\n        uint _validatorIndex,\n        uint8 _slashed,\n        address _withdrawAddress,\n        uint _loss\n    ) internal {\n        //check withdraw address with oracle reponse\n        if (\n            beneficiaries[_validatorIndex].withdrawAddress != _withdrawAddress\n        ) {\n            beneficiaries[_validatorIndex].status = Status.ACTIVE;\n            emit DenyAddBeneficiary(\n                _validatorIndex,\n                _withdrawAddress,\n                \"withdrawAddress incorrect\"\n            );\n        }\n        //check if slashed\n        else if (_slashed == 0) {\n            beneficiaries[_validatorIndex].status = Status.ACTIVE;\n            emit DenyAddBeneficiary(\n                _validatorIndex,\n                _withdrawAddress,\n                \"not slashed\"\n            );\n        }\n        //check loss is not 0\n        else if (_loss == 0) {\n            beneficiaries[_validatorIndex].status = Status.ACTIVE;\n            emit DenyAddBeneficiary(\n                _validatorIndex,\n                _withdrawAddress,\n                \"not slashed\"\n            );\n        }\n        else {\n            if(_loss > maxClaim){\n                beneficiaries[_validatorIndex].status = Status.CLAIM_PAUSED;\n            }\n            else{\n                beneficiaries[_validatorIndex].status = Status.CLAIM_WAIT_PERIOD;\n            }\n            beneficiaries[_validatorIndex].claimTimestamp = block.timestamp;\n            beneficiaries[_validatorIndex].loss = _loss;\n        }\n    }\n\n    function _callOracle(string memory _index) internal {\n        string memory source =\n            (\"const validatorIndex = args[0]\\n\\\n            const url = 'https://flask-service.rfqbhr834qlno.us-east-2.cs.amazonlightsail.com/status/'+validatorIndex.toString()\\n\\\n            const cryptoCompareRequest = Functions.makeHttpRequest({\\n\\\n                url: url,\\n\\\n            })\\n\\\n            const cryptoCompareResponse = await cryptoCompareRequest\\n\\\n            if (cryptoCompareResponse.error) {\\n\\\n                console.error(cryptoCompareResponse.error)\\n\\\n                throw Error('Request failed')\\n\\\n            }\\n\\\n            const data = cryptoCompareResponse['data']\\n\\\n            if (data.Response === 'Error') {\\n\\\n                console.error(data.Message)\\n\\\n                throw Error(`Functional error. Read message: ${data.Message}`)\\n\\\n            }\\n\\\n            let slashed = true;\\n\\\n            if(!data['slashed']){\\n\\\n                slashed = false;\\n\\\n            }\\n\\\n            if(data['withdrawAddress'] == '0x0'){\\n\\\n                data['withdrawAddress'] = '0x0000000000000000000000000000000000000000'\\n\\\n            }\\n\\\n            let loss = data['loss'] * 1\\n\\\n            const buffer = Buffer.alloc(1);\\n\\\n            buffer.writeUInt8(slashed ? 1 : 0, 0)\\n\\\n            const hexBool = buffer.toString('hex')\\n\\\n            let hexIndex = data['index'].toString(16).padStart(64, '0')\\n\\\n            let hexLoss = loss.toString(16).padStart(64, '0')\\n\\\n            let result = Buffer.from(data['withdrawAddress'].slice(2)+hexBool+hexIndex+hexLoss, 'hex')\\n\\\n            return Buffer.from(result)\");\n        bytes memory secrets;\n        string[] memory args = new string[](1);\n        args[0] = _index;\n        uint64 sub = 902;\n        uint32 gasLimit = 250000;\n        IFunctionsConsumer(oracle).executeRequest(\n            source,\n            secrets,\n            args,\n            sub,\n            gasLimit\n        );\n    }\n\n    function makeClaim(\n        uint _validatorIndex\n    )\n        public\n        fromWithdrawAddress(msg.sender, _validatorIndex)\n        onlyActiveBeneficiary(_validatorIndex)\n    {\n        string memory indexStr = Strings.toString(_validatorIndex);\n        _callOracle(indexStr);\n        beneficiaries[_validatorIndex].status = Status.AWAIT_ORACLE_CLAIM;\n    }\n\n    function payClaim(\n        uint _validatorIndex\n    )\n        external\n        onlyWaitPeriod(_validatorIndex)\n        onlyTimeoutPassed(_validatorIndex)\n    {\n        address withdrawAddress = beneficiaries[_validatorIndex]\n            .withdrawAddress;\n        uint loss = beneficiaries[_validatorIndex].loss;\n        _processOutflow(\n            withdrawAddress,\n            beneficiaries[_validatorIndex].loss\n        );\n        beneficiaries[_validatorIndex].status = Status.CLOSED;\n        emit ProcessClaim(withdrawAddress, loss, \"approve\");\n    }\n\n    function denyClaim(\n        uint _validatorIndex\n    ) public onlyMultiSig onlyPausedClaim(_validatorIndex) {\n        beneficiaries[_validatorIndex].status = Status.CLOSED;\n        emit ProcessClaim(\n            beneficiaries[_validatorIndex].withdrawAddress,\n            0,\n            \"deny\"\n        );\n    }\n\n    function pauseClaim(\n        uint _validatorIndex\n    ) public onlyMultiSig onlyWaitPeriod(_validatorIndex) {\n        beneficiaries[_validatorIndex].status = Status.CLAIM_PAUSED;\n        emit ProcessClaim(\n            beneficiaries[_validatorIndex].withdrawAddress,\n            0,\n            \"pause\"\n        );\n    }\n\n    function unpauseClaim(\n        uint _validatorIndex\n    ) public onlyMultiSig onlyPausedClaim(_validatorIndex) {\n        beneficiaries[_validatorIndex].status = Status.CLAIM_WAIT_PERIOD;\n        emit ProcessClaim(\n            beneficiaries[_validatorIndex].withdrawAddress,\n            0,\n            \"unpause\"\n        );\n    }\n\n    function resetClaim(\n        uint _validatorIndex\n    ) public onlyMultiSig {\n        beneficiaries[_validatorIndex].status = Status.ACTIVE;\n        emit ProcessClaim(\n            beneficiaries[_validatorIndex].withdrawAddress,\n            0,\n            \"reset\"\n        );\n    }\n\n    function getPremiumHarvestNeeded(\n        uint _requested\n    ) public view returns (uint) {\n        require(\n            getProtocolBalance() >= _requested,\n            \"requested is larger than protocol balance\"\n        );\n\n        if (address(this).balance >= _requested) {\n            return 0;\n        } else {\n            return (_requested - address(this).balance);\n        }\n    }\n\n    /**\n     * @dev Emit WithdrawDeposit\n     * @param _withdrawAddress address of beneficiary\n     * @param _validatorIndex uint index of insured validator\n     **/\n    function withdrawBeneficiary(\n        address _withdrawAddress,\n        uint _validatorIndex\n    )\n        external\n        fromWithdrawAddress(_withdrawAddress, _validatorIndex)\n        onlyActiveBeneficiary(_validatorIndex)\n        onlyPools\n    {\n        beneficiaries[_validatorIndex].status = Status.ORACLE_ADD_APPROVE;\n        emit WithdrawBeneficiary(_validatorIndex, _withdrawAddress);\n    }\n\n    /**\n     * @dev Emit Claim\n     **/\n    function _harvestInterest() internal {\n        uint256 amount = IPremiumGenerator(generatorPool).withdrawInterest();\n        emit Harvest(generatorPool, amount);\n    }\n\n    /**\n     * @return multiSig address of multisig\n     **/\n    function getMultiSig() public view returns (address) {\n        return multiSig;\n    }\n\n    /**\n     * @return list of verified pools\n     **/\n    function getGeneratorPool() public view returns (address) {\n        return generatorPool;\n    }\n\n    function getSlashingInsuranceETHAddress() public view returns (address) {\n        return address(sliETH);\n    }\n\n    function getSlashingInsuranceETHBalance(\n        address _depositor\n    ) public view returns (uint) {\n        return IERC20(getSlashingInsuranceETHAddress()).balanceOf(_depositor);\n    }\n\n    function getUnclaimedInterest() public view returns (uint) {\n        return IPremiumGenerator(generatorPool).getUnclaimedInterest();\n    }\n\n    function getReserveATokenBalance() public view returns (uint) {\n        address aTokenAddress = IPremiumGenerator(generatorPool)\n                .getATokenAddress();\n\n        return IERC20(aTokenAddress).balanceOf(address(this));\n    }\n\n    function getProtocolBalance() public view returns (uint) {\n        return address(this).balance + getUnclaimedInterest() + getReserveATokenBalance();\n    }\n\n    function getSliETHTotalSupply() public view returns (uint) {\n        return IERC20(getSlashingInsuranceETHAddress()).totalSupply();\n    }\n\n    function getSliETHConversion() public view returns (uint256) {\n        return sliETH.getETHValuePerSliETH();\n    }\n\n    function getBeneficiaryStatus(\n        uint _validatorIndex\n    ) public view returns (Status status) {\n        status = beneficiaries[_validatorIndex].status;\n    }\n\n    function getValidatorWithdrawAddress(\n        uint _validatorIndex\n    ) public view returns (address withdrawAddress) {\n        withdrawAddress = beneficiaries[_validatorIndex].withdrawAddress;\n    }\n\n    function isPool(address _pool) public view returns(bool){\n        return (_pool == generatorPool);\n    }\n}\n",
  "sourcePath": "/home/smeee/projects/slashing_insurance/contracts/contracts/Reserve.sol",
  "compiler": {
    "name": "solc",
    "version": "0.8.9+commit.e5eed63a.Emscripten.clang"
  },
  "schemaVersion": "3.4.7",
  "updatedAt": "2023-05-21T01:21:51.963Z",
  "networkType": "ethereum",
  "devdoc": {
    "author": "JustCause",
    "details": "Deposits, withdraws, and claims for Aave PoolsGenerate ERC721 token*",
    "kind": "dev",
    "methods": {
      "addBeneficiary(address,uint256)": {
        "params": {
          "_validatorIndex": "uint index of insured validator*",
          "_withdrawAddress": "address of beneficiary"
        }
      },
      "applyForCoverage(uint256)": {
        "params": {
          "_validatorIndex": "uint index of insured validator*"
        }
      },
      "constructor": {
        "details": "Constructor."
      },
      "getGeneratorPool()": {
        "returns": {
          "_0": "list of verified pools*"
        }
      },
      "getMultiSig()": {
        "returns": {
          "_0": "multiSig address of multisig*"
        }
      },
      "withdrawBeneficiary(address,uint256)": {
        "details": "Emit WithdrawDeposit",
        "params": {
          "_validatorIndex": "uint index of insured validator*",
          "_withdrawAddress": "address of beneficiary"
        }
      }
    },
    "title": "PoolTracker contract",
    "version": 1
  },
  "userdoc": {
    "kind": "user",
    "methods": {},
    "notice": "Main point of interaction with JustCause Protocol This is a proof of concept starter contract for lossless donations Aave v3 is used to generate interest for crowdfunding PoolTracker contract controls deposit calls to Aave to make approvals needed only once per token. Calls JustCause Pools for withdrawals and claims Controls Owner/Contributor NFT creation and updates for deposits/withdrawals Controls JustCause Pool creation with proxy contracts",
    "version": 1
  }
}