{
  "contractName": "Reserve",
  "abi": [
    {
      "inputs": [
        {
          "internalType": "address",
          "name": "_multiSig",
          "type": "address"
        },
        {
          "internalType": "address",
          "name": "_generatorPool",
          "type": "address"
        },
        {
          "internalType": "address",
          "name": "_wethGatewayAddr",
          "type": "address"
        },
        {
          "internalType": "uint256",
          "name": "_minimumProvide",
          "type": "uint256"
        },
        {
          "internalType": "uint256",
          "name": "_minimumReserve",
          "type": "uint256"
        },
        {
          "internalType": "uint256",
          "name": "_maxClaim",
          "type": "uint256"
        },
        {
          "internalType": "address",
          "name": "_oracle",
          "type": "address"
        },
        {
          "internalType": "address",
          "name": "_oracleGateway",
          "type": "address"
        }
      ],
      "stateMutability": "nonpayable",
      "type": "constructor"
    },
    {
      "anonymous": false,
      "inputs": [
        {
          "indexed": false,
          "internalType": "uint256",
          "name": "validatorIndex",
          "type": "uint256"
        },
        {
          "indexed": false,
          "internalType": "address",
          "name": "withdrawAddress",
          "type": "address"
        }
      ],
      "name": "AcceptClaim",
      "type": "event"
    },
    {
      "anonymous": false,
      "inputs": [
        {
          "indexed": false,
          "internalType": "uint256",
          "name": "validatorIndex",
          "type": "uint256"
        },
        {
          "indexed": false,
          "internalType": "address",
          "name": "withdrawAddress",
          "type": "address"
        }
      ],
      "name": "AddBeneficiary",
      "type": "event"
    },
    {
      "anonymous": false,
      "inputs": [
        {
          "indexed": false,
          "internalType": "uint256",
          "name": "validatorIndex",
          "type": "uint256"
        },
        {
          "indexed": false,
          "internalType": "address",
          "name": "withdrawAddress",
          "type": "address"
        }
      ],
      "name": "ApproveApplication",
      "type": "event"
    },
    {
      "anonymous": false,
      "inputs": [
        {
          "indexed": false,
          "internalType": "uint256",
          "name": "validatorIndex",
          "type": "uint256"
        },
        {
          "indexed": false,
          "internalType": "address",
          "name": "withdrawAddress",
          "type": "address"
        },
        {
          "indexed": false,
          "internalType": "uint8",
          "name": "reason",
          "type": "uint8"
        }
      ],
      "name": "DenyApplication",
      "type": "event"
    },
    {
      "anonymous": false,
      "inputs": [
        {
          "indexed": false,
          "internalType": "uint256",
          "name": "validatorIndex",
          "type": "uint256"
        },
        {
          "indexed": false,
          "internalType": "address",
          "name": "withdrawAddress",
          "type": "address"
        },
        {
          "indexed": false,
          "internalType": "uint8",
          "name": "reason",
          "type": "uint8"
        }
      ],
      "name": "DenyClaim",
      "type": "event"
    },
    {
      "anonymous": false,
      "inputs": [
        {
          "indexed": false,
          "internalType": "uint256",
          "name": "validatorIndex",
          "type": "uint256"
        }
      ],
      "name": "MakeClaim",
      "type": "event"
    },
    {
      "anonymous": false,
      "inputs": [
        {
          "indexed": false,
          "internalType": "address",
          "name": "beneficiary",
          "type": "address"
        },
        {
          "indexed": false,
          "internalType": "uint256",
          "name": "amount",
          "type": "uint256"
        },
        {
          "indexed": false,
          "internalType": "uint8",
          "name": "result",
          "type": "uint8"
        }
      ],
      "name": "ProcessClaim",
      "type": "event"
    },
    {
      "anonymous": false,
      "inputs": [
        {
          "indexed": false,
          "internalType": "address",
          "name": "depositor",
          "type": "address"
        },
        {
          "indexed": false,
          "internalType": "uint256",
          "name": "ethAmount",
          "type": "uint256"
        }
      ],
      "name": "ProvideInsurance",
      "type": "event"
    },
    {
      "anonymous": false,
      "inputs": [
        {
          "indexed": false,
          "internalType": "uint256",
          "name": "validatorIndex",
          "type": "uint256"
        },
        {
          "indexed": false,
          "internalType": "address",
          "name": "withdrawAddress",
          "type": "address"
        }
      ],
      "name": "WithdrawBeneficiary",
      "type": "event"
    },
    {
      "anonymous": false,
      "inputs": [
        {
          "indexed": false,
          "internalType": "address",
          "name": "depositor",
          "type": "address"
        },
        {
          "indexed": false,
          "internalType": "uint256",
          "name": "ethAmount",
          "type": "uint256"
        },
        {
          "indexed": false,
          "internalType": "uint256",
          "name": "sliETHAmount",
          "type": "uint256"
        }
      ],
      "name": "WithdrawInsurance",
      "type": "event"
    },
    {
      "stateMutability": "payable",
      "type": "fallback",
      "payable": true
    },
    {
      "inputs": [],
      "name": "APPLY_WINDOW",
      "outputs": [
        {
          "internalType": "uint256",
          "name": "",
          "type": "uint256"
        }
      ],
      "stateMutability": "view",
      "type": "function",
      "constant": true
    },
    {
      "inputs": [],
      "name": "WAIT_PERIOD",
      "outputs": [
        {
          "internalType": "uint256",
          "name": "",
          "type": "uint256"
        }
      ],
      "stateMutability": "view",
      "type": "function",
      "constant": true
    },
    {
      "inputs": [],
      "name": "generatorPool",
      "outputs": [
        {
          "internalType": "address",
          "name": "",
          "type": "address"
        }
      ],
      "stateMutability": "view",
      "type": "function",
      "constant": true
    },
    {
      "inputs": [],
      "name": "maxClaim",
      "outputs": [
        {
          "internalType": "uint256",
          "name": "",
          "type": "uint256"
        }
      ],
      "stateMutability": "view",
      "type": "function",
      "constant": true
    },
    {
      "inputs": [],
      "name": "minimumProvide",
      "outputs": [
        {
          "internalType": "uint256",
          "name": "",
          "type": "uint256"
        }
      ],
      "stateMutability": "view",
      "type": "function",
      "constant": true
    },
    {
      "inputs": [],
      "name": "minimumReserve",
      "outputs": [
        {
          "internalType": "uint256",
          "name": "",
          "type": "uint256"
        }
      ],
      "stateMutability": "view",
      "type": "function",
      "constant": true
    },
    {
      "inputs": [],
      "name": "multiSig",
      "outputs": [
        {
          "internalType": "address",
          "name": "",
          "type": "address"
        }
      ],
      "stateMutability": "view",
      "type": "function",
      "constant": true
    },
    {
      "inputs": [],
      "name": "oracleGateway",
      "outputs": [
        {
          "internalType": "address",
          "name": "",
          "type": "address"
        }
      ],
      "stateMutability": "view",
      "type": "function",
      "constant": true
    },
    {
      "stateMutability": "payable",
      "type": "receive",
      "payable": true
    },
    {
      "inputs": [],
      "name": "provideInsurance",
      "outputs": [],
      "stateMutability": "payable",
      "type": "function",
      "payable": true
    },
    {
      "inputs": [
        {
          "internalType": "uint256",
          "name": "_sliETHAmount",
          "type": "uint256"
        }
      ],
      "name": "withdrawInsurance",
      "outputs": [],
      "stateMutability": "nonpayable",
      "type": "function"
    },
    {
      "inputs": [
        {
          "internalType": "uint256",
          "name": "_validatorIndex",
          "type": "uint256"
        }
      ],
      "name": "applyForCoverage",
      "outputs": [],
      "stateMutability": "nonpayable",
      "type": "function"
    },
    {
      "inputs": [
        {
          "internalType": "address",
          "name": "_withdrawAddress",
          "type": "address"
        },
        {
          "internalType": "uint256",
          "name": "_validatorIndex",
          "type": "uint256"
        }
      ],
      "name": "addBeneficiary",
      "outputs": [],
      "stateMutability": "nonpayable",
      "type": "function"
    },
    {
      "inputs": [
        {
          "internalType": "uint256",
          "name": "_validatorIndex",
          "type": "uint256"
        },
        {
          "internalType": "uint8",
          "name": "_slashed",
          "type": "uint8"
        },
        {
          "internalType": "address",
          "name": "_withdrawAddress",
          "type": "address"
        },
        {
          "internalType": "uint256",
          "name": "_loss",
          "type": "uint256"
        }
      ],
      "name": "oracleResponse",
      "outputs": [],
      "stateMutability": "nonpayable",
      "type": "function"
    },
    {
      "inputs": [
        {
          "internalType": "uint256",
          "name": "_validatorIndex",
          "type": "uint256"
        }
      ],
      "name": "makeClaim",
      "outputs": [],
      "stateMutability": "nonpayable",
      "type": "function"
    },
    {
      "inputs": [
        {
          "internalType": "uint256",
          "name": "_validatorIndex",
          "type": "uint256"
        }
      ],
      "name": "payClaim",
      "outputs": [],
      "stateMutability": "nonpayable",
      "type": "function"
    },
    {
      "inputs": [
        {
          "internalType": "uint256",
          "name": "_validatorIndex",
          "type": "uint256"
        }
      ],
      "name": "denyClaim",
      "outputs": [],
      "stateMutability": "nonpayable",
      "type": "function"
    },
    {
      "inputs": [
        {
          "internalType": "uint256",
          "name": "_validatorIndex",
          "type": "uint256"
        }
      ],
      "name": "pauseClaim",
      "outputs": [],
      "stateMutability": "nonpayable",
      "type": "function"
    },
    {
      "inputs": [
        {
          "internalType": "uint256",
          "name": "_validatorIndex",
          "type": "uint256"
        }
      ],
      "name": "unpauseClaim",
      "outputs": [],
      "stateMutability": "nonpayable",
      "type": "function"
    },
    {
      "inputs": [
        {
          "internalType": "uint256",
          "name": "_validatorIndex",
          "type": "uint256"
        }
      ],
      "name": "resetClaim",
      "outputs": [],
      "stateMutability": "nonpayable",
      "type": "function"
    },
    {
      "inputs": [
        {
          "internalType": "address",
          "name": "_withdrawAddress",
          "type": "address"
        },
        {
          "internalType": "uint256",
          "name": "_validatorIndex",
          "type": "uint256"
        }
      ],
      "name": "withdrawBeneficiary",
      "outputs": [],
      "stateMutability": "nonpayable",
      "type": "function"
    },
    {
      "inputs": [],
      "name": "getSlashingInsuranceETHAddress",
      "outputs": [
        {
          "internalType": "address",
          "name": "",
          "type": "address"
        }
      ],
      "stateMutability": "view",
      "type": "function",
      "constant": true
    },
    {
      "inputs": [
        {
          "internalType": "address",
          "name": "_depositor",
          "type": "address"
        }
      ],
      "name": "getSlashingInsuranceETHBalance",
      "outputs": [
        {
          "internalType": "uint256",
          "name": "",
          "type": "uint256"
        }
      ],
      "stateMutability": "view",
      "type": "function",
      "constant": true
    },
    {
      "inputs": [
        {
          "internalType": "address",
          "name": "_withdrawAddress",
          "type": "address"
        }
      ],
      "name": "getDepositorValidatorIds",
      "outputs": [
        {
          "internalType": "uint256[]",
          "name": "",
          "type": "uint256[]"
        }
      ],
      "stateMutability": "view",
      "type": "function",
      "constant": true
    },
    {
      "inputs": [],
      "name": "getReserveATokenBalance",
      "outputs": [
        {
          "internalType": "uint256",
          "name": "",
          "type": "uint256"
        }
      ],
      "stateMutability": "view",
      "type": "function",
      "constant": true
    },
    {
      "inputs": [],
      "name": "getProtocolBalance",
      "outputs": [
        {
          "internalType": "uint256",
          "name": "",
          "type": "uint256"
        }
      ],
      "stateMutability": "view",
      "type": "function",
      "constant": true
    },
    {
      "inputs": [],
      "name": "getSliETHTotalSupply",
      "outputs": [
        {
          "internalType": "uint256",
          "name": "",
          "type": "uint256"
        }
      ],
      "stateMutability": "view",
      "type": "function",
      "constant": true
    },
    {
      "inputs": [],
      "name": "getSliETHConversion",
      "outputs": [
        {
          "internalType": "uint256",
          "name": "",
          "type": "uint256"
        }
      ],
      "stateMutability": "view",
      "type": "function",
      "constant": true
    },
    {
      "inputs": [
        {
          "internalType": "uint256",
          "name": "_validatorIndex",
          "type": "uint256"
        }
      ],
      "name": "getBeneficiaryStatus",
      "outputs": [
        {
          "internalType": "enum ReserveStorage.Status",
          "name": "status",
          "type": "uint8"
        }
      ],
      "stateMutability": "view",
      "type": "function",
      "constant": true
    },
    {
      "inputs": [
        {
          "internalType": "uint256",
          "name": "_validatorIndex",
          "type": "uint256"
        }
      ],
      "name": "getValidatorWithdrawAddress",
      "outputs": [
        {
          "internalType": "address",
          "name": "withdrawAddress",
          "type": "address"
        }
      ],
      "stateMutability": "view",
      "type": "function",
      "constant": true
    }
  ],
  "bytecode": "0x6101006040523480156200001257600080fd5b50604051620071bc380380620071bc8339818101604052810190620000389190620002b3565b8787878787878787878787878787878760016000819055508773ffffffffffffffffffffffffffffffffffffffff1660c08173ffffffffffffffffffffffffffffffffffffffff16815250508673ffffffffffffffffffffffffffffffffffffffff1660a08173ffffffffffffffffffffffffffffffffffffffff16815250508573ffffffffffffffffffffffffffffffffffffffff1660808173ffffffffffffffffffffffffffffffffffffffff168152505084600581905550836006819055508260078190555081600160006101000a81548173ffffffffffffffffffffffffffffffffffffffff021916908373ffffffffffffffffffffffffffffffffffffffff16021790555080600260006101000a81548173ffffffffffffffffffffffffffffffffffffffff021916908373ffffffffffffffffffffffffffffffffffffffff16021790555050505050505050505050505050505050604051620001a19062000200565b604051809103906000f080158015620001be573d6000803e3d6000fd5b5073ffffffffffffffffffffffffffffffffffffffff1660e08173ffffffffffffffffffffffffffffffffffffffff168152505050505050505050506200037c565b6125578062004c6583390190565b600080fd5b600073ffffffffffffffffffffffffffffffffffffffff82169050919050565b6000620002408262000213565b9050919050565b620002528162000233565b81146200025e57600080fd5b50565b600081519050620002728162000247565b92915050565b6000819050919050565b6200028d8162000278565b81146200029957600080fd5b50565b600081519050620002ad8162000282565b92915050565b600080600080600080600080610100898b031215620002d757620002d66200020e565b5b6000620002e78b828c0162000261565b9850506020620002fa8b828c0162000261565b97505060406200030d8b828c0162000261565b9650506060620003208b828c016200029c565b9550506080620003338b828c016200029c565b94505060a0620003468b828c016200029c565b93505060c0620003598b828c0162000261565b92505060e06200036c8b828c0162000261565b9150509295985092959890939650565b60805160a05160c05160e05161482a6200043b600039600081816107640152818161179b01528181611eb701528181611fb8015261209801526000818161097f01528181610f8401528181610fbf0152818161126601526119350152600081816107f301528181610d4501528181610e7e01528181611cd2015281816123e40152818161253901528181612c6e01528181612da70152612edf01526000818161089301528181612d1101528181612d5d0152612e47015261482a6000f3fe6080604052600436106101c65760003560e01c8063576d22a2116100f7578063a5ac9a0211610095578063d4938db311610064578063d4938db314610627578063d70356cc14610652578063dc0e5d4b1461067b578063ecb61ea1146106a6576101d5565b8063a5ac9a021461057b578063b6c5039f146105a6578063bfdb89bc146105d1578063c1810f66146105fc576101d5565b8063787191b6116100d1578063787191b6146104c357806384ac35eb1461050057806396074e7014610529578063a0580d8814610552576101d5565b8063576d22a21461041e5780635a903d261461044957806373be409e14610486576101d5565b806333e5c43d116101645780633c1e7c561161013e5780633c1e7c561461037857806344c506d5146103a3578063486da2ca146103cc578063518655e3146103f5576101d5565b806333e5c43d146102f957806336e0004a146103245780633985a42e1461034f576101d5565b806314e7c922116101a057806314e7c9221461025c57806317ea277314610287578063189df97d146102915780632907242f146102bc576101d5565b806303010419146101df5780631077f06c1461020857806311918cb114610231576101d5565b366101d5576101d36106cf565b005b6101dd6106cf565b005b3480156101eb57600080fd5b50610206600480360381019061020191906132d6565b610966565b005b34801561021457600080fd5b5061022f600480360381019061022a91906132d6565b610b35565b005b34801561023d57600080fd5b50610246610d40565b6040516102539190613312565b60405180910390f35b34801561026857600080fd5b50610271610e72565b60405161027e9190613312565b60405180910390f35b61028f6106cf565b005b34801561029d57600080fd5b506102a6610f34565b6040516102b39190613312565b60405180910390f35b3480156102c857600080fd5b506102e360048036038101906102de91906132d6565b610f3b565b6040516102f0919061336e565b60405180910390f35b34801561030557600080fd5b5061030e610f7b565b60405161031b9190613312565b60405180910390f35b34801561033057600080fd5b50610339610f82565b604051610346919061336e565b60405180910390f35b34801561035b57600080fd5b50610376600480360381019061037191906132d6565b610fa6565b005b34801561038457600080fd5b5061038d6110e9565b60405161039a9190613312565b60405180910390f35b3480156103af57600080fd5b506103ca60048036038101906103c591906133ee565b6110ef565b005b3480156103d857600080fd5b506103f360048036038101906103ee91906132d6565b61124d565b005b34801561040157600080fd5b5061041c600480360381019061041791906132d6565b61141b565b005b34801561042a57600080fd5b50610433611797565b604051610440919061336e565b60405180910390f35b34801561045557600080fd5b50610470600480360381019061046b9190613455565b6117bf565b60405161047d9190613540565b60405180910390f35b34801561049257600080fd5b506104ad60048036038101906104a891906132d6565b611856565b6040516104ba91906135d9565b60405180910390f35b3480156104cf57600080fd5b506104ea60048036038101906104e59190613455565b611883565b6040516104f79190613312565b60405180910390f35b34801561050c57600080fd5b50610527600480360381019061052291906132d6565b61191c565b005b34801561053557600080fd5b50610550600480360381019061054b91906135f4565b611aea565b005b34801561055e57600080fd5b50610579600480360381019061057491906132d6565b611e65565b005b34801561058757600080fd5b50610590612094565b60405161059d9190613312565b60405180910390f35b3480156105b257600080fd5b506105bb612139565b6040516105c89190613312565b60405180910390f35b3480156105dd57600080fd5b506105e661213f565b6040516105f39190613312565b60405180910390f35b34801561060857600080fd5b506106116121cb565b60405161061e919061336e565b60405180910390f35b34801561063357600080fd5b5061063c6121f1565b6040516106499190613312565b60405180910390f35b34801561065e57600080fd5b50610679600480360381019061067491906132d6565b6121f7565b005b34801561068757600080fd5b506106906123e2565b60405161069d919061336e565b60405180910390f35b3480156106b257600080fd5b506106cd60048036038101906106c891906135f4565b612406565b005b60026000541415610715576040517f08c379a000000000000000000000000000000000000000000000000000000000815260040161070c90613691565b60405180910390fd5b6002600081905550600554341015610762576040517f08c379a000000000000000000000000000000000000000000000000000000000815260040161075990613723565b60405180910390fd5b7f000000000000000000000000000000000000000000000000000000000000000073ffffffffffffffffffffffffffffffffffffffff166340c10f1933346040518363ffffffff1660e01b81526004016107bd929190613743565b600060405180830381600087803b1580156107d757600080fd5b505af11580156107eb573d6000803e3d6000fd5b5050505060007f000000000000000000000000000000000000000000000000000000000000000073ffffffffffffffffffffffffffffffffffffffff16635f36a7426040518163ffffffff1660e01b815260040160206040518083038186803b15801561085757600080fd5b505afa15801561086b573d6000803e3d6000fd5b505050506040513d601f19601f8201168201806040525081019061088f9190613781565b90507f000000000000000000000000000000000000000000000000000000000000000073ffffffffffffffffffffffffffffffffffffffff1663474cf53d34833060006040518563ffffffff1660e01b81526004016108f093929190613801565b6000604051808303818588803b15801561090957600080fd5b505af115801561091d573d6000803e3d6000fd5b50505050507f3bdedc0452d6c06ae4c6d0ead53d5e507668cea240d7159cc0d90b9d83ed4dda3334604051610953929190613743565b60405180910390a1506001600081905550565b3373ffffffffffffffffffffffffffffffffffffffff167f000000000000000000000000000000000000000000000000000000000000000073ffffffffffffffffffffffffffffffffffffffff16146109f4576040517f08c379a00000000000000000000000000000000000000000000000000000000081526004016109eb90613884565b60405180910390fd5b8060056007811115610a0957610a08613562565b5b6003600083815260200190815260200160002060000160009054906101000a900460ff166007811115610a3f57610a3e613562565b5b14610a7f576040517f08c379a0000000000000000000000000000000000000000000000000000000008152600401610a76906138f0565b60405180910390fd5b60076003600084815260200190815260200160002060000160006101000a81548160ff02191690836007811115610ab957610ab8613562565b5b02179055507f86c33d4cf6eac3e0f0cdffaeb6caf7eb4e20a7239225f6423025a664068115416003600084815260200190815260200160002060000160019054906101000a900473ffffffffffffffffffffffffffffffffffffffff1660006002604051610b299392919061397c565b60405180910390a15050565b33818173ffffffffffffffffffffffffffffffffffffffff166003600083815260200190815260200160002060000160019054906101000a900473ffffffffffffffffffffffffffffffffffffffff1673ffffffffffffffffffffffffffffffffffffffff1614610bdb576040517f08c379a0000000000000000000000000000000000000000000000000000000008152600401610bd2906139ff565b60405180910390fd5b8260016007811115610bf057610bef613562565b5b6003600083815260200190815260200160002060000160009054906101000a900460ff166007811115610c2657610c25613562565b5b14610c66576040517f08c379a0000000000000000000000000000000000000000000000000000000008152600401610c5d90613a6b565b60405180910390fd5b600260009054906101000a900473ffffffffffffffffffffffffffffffffffffffff1673ffffffffffffffffffffffffffffffffffffffff166332d59b2a610cad86612644565b6040518263ffffffff1660e01b8152600401610cc99190613b13565b600060405180830381600087803b158015610ce357600080fd5b505af1158015610cf7573d6000803e3d6000fd5b5050505060046003600086815260200190815260200160002060000160006101000a81548160ff02191690836007811115610d3557610d34613562565b5b021790555050505050565b6000807f000000000000000000000000000000000000000000000000000000000000000073ffffffffffffffffffffffffffffffffffffffff1663828997566040518163ffffffff1660e01b815260040160206040518083038186803b158015610da957600080fd5b505afa158015610dbd573d6000803e3d6000fd5b505050506040513d601f19601f82011682018060405250810190610de19190613781565b90508073ffffffffffffffffffffffffffffffffffffffff166370a08231306040518263ffffffff1660e01b8152600401610e1c919061336e565b60206040518083038186803b158015610e3457600080fd5b505afa158015610e48573d6000803e3d6000fd5b505050506040513d601f19601f82011682018060405250810190610e6c9190613b4a565b91505090565b6000610e7c610d40565b7f000000000000000000000000000000000000000000000000000000000000000073ffffffffffffffffffffffffffffffffffffffff1663233641fa6040518163ffffffff1660e01b815260040160206040518083038186803b158015610ee257600080fd5b505afa158015610ef6573d6000803e3d6000fd5b505050506040513d601f19601f82011682018060405250810190610f1a9190613b4a565b47610f259190613ba6565b610f2f9190613ba6565b905090565b6212750081565b60006003600083815260200190815260200160002060000160019054906101000a900473ffffffffffffffffffffffffffffffffffffffff169050919050565b6202a30081565b7f000000000000000000000000000000000000000000000000000000000000000081565b3373ffffffffffffffffffffffffffffffffffffffff167f000000000000000000000000000000000000000000000000000000000000000073ffffffffffffffffffffffffffffffffffffffff1614611034576040517f08c379a000000000000000000000000000000000000000000000000000000000815260040161102b90613884565b60405180910390fd5b60016003600083815260200190815260200160002060000160006101000a81548160ff0219169083600781111561106e5761106d613562565b5b02179055507f86c33d4cf6eac3e0f0cdffaeb6caf7eb4e20a7239225f6423025a664068115416003600083815260200190815260200160002060000160019054906101000a900473ffffffffffffffffffffffffffffffffffffffff16600060046040516110de93929190613c37565b60405180910390a150565b60055481565b3373ffffffffffffffffffffffffffffffffffffffff16600160009054906101000a900473ffffffffffffffffffffffffffffffffffffffff1673ffffffffffffffffffffffffffffffffffffffff161461117f576040517f08c379a000000000000000000000000000000000000000000000000000000000815260040161117690613cba565b60405180910390fd5b6004600781111561119357611192613562565b5b6003600086815260200190815260200160002060000160009054906101000a900460ff1660078111156111c9576111c8613562565b5b14156111e0576111db848484846127a5565b611246565b600260078111156111f4576111f3613562565b5b6003600086815260200190815260200160002060000160009054906101000a900460ff16600781111561122a57611229613562565b5b14156112405761123b848484612a66565b611245565b611247565b5b5b50505050565b3373ffffffffffffffffffffffffffffffffffffffff167f000000000000000000000000000000000000000000000000000000000000000073ffffffffffffffffffffffffffffffffffffffff16146112db576040517f08c379a00000000000000000000000000000000000000000000000000000000081526004016112d290613884565b60405180910390fd5b806007808111156112ef576112ee613562565b5b6003600083815260200190815260200160002060000160009054906101000a900460ff16600781111561132557611324613562565b5b14611365576040517f08c379a000000000000000000000000000000000000000000000000000000000815260040161135c90613d26565b60405180910390fd5b60056003600084815260200190815260200160002060000160006101000a81548160ff0219169083600781111561139f5761139e613562565b5b02179055507f86c33d4cf6eac3e0f0cdffaeb6caf7eb4e20a7239225f6423025a664068115416003600084815260200190815260200160002060000160019054906101000a900473ffffffffffffffffffffffffffffffffffffffff166000600360405161140f93929190613d81565b60405180910390a15050565b80600080600781111561143157611430613562565b5b6003600084815260200190815260200160002060000160009054906101000a900460ff16600781111561146757611466613562565b5b148061155757506003600781111561148257611481613562565b5b6003600084815260200190815260200160002060000160009054906101000a900460ff1660078111156114b8576114b7613562565b5b14801561152657503373ffffffffffffffffffffffffffffffffffffffff166003600084815260200190815260200160002060000160019054906101000a900473ffffffffffffffffffffffffffffffffffffffff1673ffffffffffffffffffffffffffffffffffffffff16145b801561155657506202a30060036000848152602001908152602001600020600201546115529190613ba6565b4210155b5b905080611599576040517f08c379a000000000000000000000000000000000000000000000000000000000815260040161159090613e04565b60405180910390fd5b600260009054906101000a900473ffffffffffffffffffffffffffffffffffffffff1673ffffffffffffffffffffffffffffffffffffffff166332d59b2a6115e085612644565b6040518263ffffffff1660e01b81526004016115fc9190613b13565b600060405180830381600087803b15801561161657600080fd5b505af115801561162a573d6000803e3d6000fd5b505050506040518060a001604052806002600781111561164d5761164c613562565b5b81526020013373ffffffffffffffffffffffffffffffffffffffff168152602001600081526020016000815260200160008152506003600085815260200190815260200160002060008201518160000160006101000a81548160ff021916908360078111156116bf576116be613562565b5b021790555060208201518160000160016101000a81548173ffffffffffffffffffffffffffffffffffffffff021916908373ffffffffffffffffffffffffffffffffffffffff160217905550604082015181600101556060820151816002015560808201518160030155905050600460003373ffffffffffffffffffffffffffffffffffffffff1673ffffffffffffffffffffffffffffffffffffffff168152602001908152602001600020839080600181540180825580915050600190039060005260206000200160009091909190915055505050565b60007f0000000000000000000000000000000000000000000000000000000000000000905090565b6060600460008373ffffffffffffffffffffffffffffffffffffffff1673ffffffffffffffffffffffffffffffffffffffff16815260200190815260200160002080548060200260200160405190810160405280929190818152602001828054801561184a57602002820191906000526020600020905b815481526020019060010190808311611836575b50505050509050919050565b60006003600083815260200190815260200160002060000160009054906101000a900460ff169050919050565b600061188d611797565b73ffffffffffffffffffffffffffffffffffffffff166370a08231836040518263ffffffff1660e01b81526004016118c5919061336e565b60206040518083038186803b1580156118dd57600080fd5b505afa1580156118f1573d6000803e3d6000fd5b505050506040513d601f19601f820116820180604052508101906119159190613b4a565b9050919050565b3373ffffffffffffffffffffffffffffffffffffffff167f000000000000000000000000000000000000000000000000000000000000000073ffffffffffffffffffffffffffffffffffffffff16146119aa576040517f08c379a00000000000000000000000000000000000000000000000000000000081526004016119a190613884565b60405180910390fd5b806007808111156119be576119bd613562565b5b6003600083815260200190815260200160002060000160009054906101000a900460ff1660078111156119f4576119f3613562565b5b14611a34576040517f08c379a0000000000000000000000000000000000000000000000000000000008152600401611a2b90613d26565b60405180910390fd5b60066003600084815260200190815260200160002060000160006101000a81548160ff02191690836007811115611a6e57611a6d613562565b5b02179055507f86c33d4cf6eac3e0f0cdffaeb6caf7eb4e20a7239225f6423025a664068115416003600084815260200190815260200160002060000160019054906101000a900473ffffffffffffffffffffffffffffffffffffffff1660006001604051611ade93929190613e5f565b60405180910390a15050565b611af2610e72565b806006541115611b37576040517f08c379a0000000000000000000000000000000000000000000000000000000008152600401611b2e90613ee2565b60405180910390fd5b8160036007811115611b4c57611b4b613562565b5b6003600083815260200190815260200160002060000160009054906101000a900460ff166007811115611b8257611b81613562565b5b14611bc2576040517f08c379a0000000000000000000000000000000000000000000000000000000008152600401611bb990613f4e565b60405180910390fd5b83838173ffffffffffffffffffffffffffffffffffffffff166003600083815260200190815260200160002060000160019054906101000a900473ffffffffffffffffffffffffffffffffffffffff1673ffffffffffffffffffffffffffffffffffffffff1614611c68576040517f08c379a0000000000000000000000000000000000000000000000000000000008152600401611c5f90613fe0565b60405180910390fd5b846202a3006003600083815260200190815260200160002060020154611c8e9190613ba6565b421115611cd0576040517f08c379a0000000000000000000000000000000000000000000000000000000008152600401611cc79061404c565b60405180910390fd5b7f000000000000000000000000000000000000000000000000000000000000000073ffffffffffffffffffffffffffffffffffffffff163373ffffffffffffffffffffffffffffffffffffffff1614611d5e576040517f08c379a0000000000000000000000000000000000000000000000000000000008152600401611d55906140b8565b60405180910390fd5b6040518060a0016040528060016007811115611d7d57611d7c613562565b5b81526020018873ffffffffffffffffffffffffffffffffffffffff168152602001600081526020016000815260200160008152506003600088815260200190815260200160002060008201518160000160006101000a81548160ff02191690836007811115611def57611dee613562565b5b021790555060208201518160000160016101000a81548173ffffffffffffffffffffffffffffffffffffffff021916908373ffffffffffffffffffffffffffffffffffffffff16021790555060408201518160010155606082015181600201556080820151816003015590505050505050505050565b60026000541415611eab576040517f08c379a0000000000000000000000000000000000000000000000000000000008152600401611ea290613691565b60405180910390fd5b600260008190555060007f000000000000000000000000000000000000000000000000000000000000000073ffffffffffffffffffffffffffffffffffffffff1663d5bda32d836040518263ffffffff1660e01b8152600401611f0e9190613312565b60206040518083038186803b158015611f2657600080fd5b505afa158015611f3a573d6000803e3d6000fd5b505050506040513d601f19601f82011682018060405250810190611f5e9190613b4a565b905080611f69610e72565b611f7391906140d8565b60065410611fb6576040517f08c379a0000000000000000000000000000000000000000000000000000000008152600401611fad9061417e565b60405180910390fd5b7f000000000000000000000000000000000000000000000000000000000000000073ffffffffffffffffffffffffffffffffffffffff16639dc29fac33846040518363ffffffff1660e01b8152600401612011929190613743565b600060405180830381600087803b15801561202b57600080fd5b505af115801561203f573d6000803e3d6000fd5b5050505061204d3382612c4d565b7f84ace38dc519117233d1be602392092fc4cdb791d59d4ade8db1b73d22a1b99f3382846040516120809392919061419e565b60405180910390a150600160008190555050565b60007f000000000000000000000000000000000000000000000000000000000000000073ffffffffffffffffffffffffffffffffffffffff1663f0197e1a6040518163ffffffff1660e01b815260040160206040518083038186803b1580156120fc57600080fd5b505afa158015612110573d6000803e3d6000fd5b505050506040513d601f19601f820116820180604052508101906121349190613b4a565b905090565b60065481565b6000612149611797565b73ffffffffffffffffffffffffffffffffffffffff166318160ddd6040518163ffffffff1660e01b815260040160206040518083038186803b15801561218e57600080fd5b505afa1580156121a2573d6000803e3d6000fd5b505050506040513d601f19601f820116820180604052508101906121c69190613b4a565b905090565b600260009054906101000a900473ffffffffffffffffffffffffffffffffffffffff1681565b60075481565b806005600781111561220c5761220b613562565b5b6003600083815260200190815260200160002060000160009054906101000a900460ff16600781111561224257612241613562565b5b14612282576040517f08c379a0000000000000000000000000000000000000000000000000000000008152600401612279906138f0565b60405180910390fd5b816212750060036000838152602001908152602001600020600101546122a89190613ba6565b4210156122ea576040517f08c379a00000000000000000000000000000000000000000000000000000000081526004016122e190614247565b60405180910390fd5b60006003600085815260200190815260200160002060000160019054906101000a900473ffffffffffffffffffffffffffffffffffffffff169050600060036000868152602001908152602001600020600301549050612360826003600088815260200190815260200160002060030154612c4d565b60066003600087815260200190815260200160002060000160006101000a81548160ff0219169083600781111561239a57612399613562565b5b02179055507f86c33d4cf6eac3e0f0cdffaeb6caf7eb4e20a7239225f6423025a66406811541828260006040516123d393929190614298565b60405180910390a15050505050565b7f000000000000000000000000000000000000000000000000000000000000000081565b81818173ffffffffffffffffffffffffffffffffffffffff166003600083815260200190815260200160002060000160019054906101000a900473ffffffffffffffffffffffffffffffffffffffff1673ffffffffffffffffffffffffffffffffffffffff16146124ac576040517f08c379a00000000000000000000000000000000000000000000000000000000081526004016124a3906139ff565b60405180910390fd5b82600160078111156124c1576124c0613562565b5b6003600083815260200190815260200160002060000160009054906101000a900460ff1660078111156124f7576124f6613562565b5b14612537576040517f08c379a000000000000000000000000000000000000000000000000000000000815260040161252e90613a6b565b60405180910390fd5b7f000000000000000000000000000000000000000000000000000000000000000073ffffffffffffffffffffffffffffffffffffffff163373ffffffffffffffffffffffffffffffffffffffff16146125c5576040517f08c379a00000000000000000000000000000000000000000000000000000000081526004016125bc906140b8565b60405180910390fd5b60006003600086815260200190815260200160002060000160006101000a81548160ff021916908360078111156125ff576125fe613562565b5b02179055507f6c120324200e3395fa899969762464b667f9fc1d7e81c3471b90d215cc077e5484866040516126359291906142cf565b60405180910390a15050505050565b6060600082141561268c576040518060400160405280600181526020017f300000000000000000000000000000000000000000000000000000000000000081525090506127a0565b600082905060005b600082146126be5780806126a7906142f8565b915050600a826126b79190614370565b9150612694565b60008167ffffffffffffffff8111156126da576126d96143a1565b5b6040519080825280601f01601f19166020018201604052801561270c5781602001600182028036833780820191505090505b5090505b600085146127995760018261272591906140d8565b9150600a8561273491906143d0565b60306127409190613ba6565b60f81b81838151811061275657612755614401565b5b60200101907effffffffffffffffffffffffffffffffffffffffffffffffffffffffffffff1916908160001a905350600a856127929190614370565b9450612710565b8093505050505b919050565b8173ffffffffffffffffffffffffffffffffffffffff166003600086815260200190815260200160002060000160019054906101000a900473ffffffffffffffffffffffffffffffffffffffff1673ffffffffffffffffffffffffffffffffffffffff161461288e5760016003600086815260200190815260200160002060000160006101000a81548160ff0219169083600781111561284857612847613562565b5b02179055507f246892a0b72c59463eccffe6f35d69b87418c0a947d521e09b5493a7401efa268483600060405161288193929190614430565b60405180910390a1612a60565b60008360ff1614806128a05750600081145b156129255760016003600086815260200190815260200160002060000160006101000a81548160ff021916908360078111156128df576128de613562565b5b02179055507f246892a0b72c59463eccffe6f35d69b87418c0a947d521e09b5493a7401efa268483600160405161291893929190614467565b60405180910390a1612a5f565b6007548111156129af5760076003600086815260200190815260200160002060000160006101000a81548160ff0219169083600781111561296957612968613562565b5b02179055507f246892a0b72c59463eccffe6f35d69b87418c0a947d521e09b5493a7401efa26848360026040516129a29392919061449e565b60405180910390a1612a28565b60056003600086815260200190815260200160002060000160006101000a81548160ff021916908360078111156129e9576129e8613562565b5b02179055507fb0521091930bd66fcf40b38982cc461208539f2cc476213ba6528a02ed9d0b088483604051612a1f9291906142cf565b60405180910390a15b4260036000868152602001908152602001600020600101819055508060036000868152602001908152602001600020600301819055505b5b50505050565b8073ffffffffffffffffffffffffffffffffffffffff166003600085815260200190815260200160002060000160019054906101000a900473ffffffffffffffffffffffffffffffffffffffff1673ffffffffffffffffffffffffffffffffffffffff16141580612ada575060018260ff16145b15612bb55760006003600085815260200190815260200160002060000160016101000a81548173ffffffffffffffffffffffffffffffffffffffff021916908373ffffffffffffffffffffffffffffffffffffffff16021790555060006003600085815260200190815260200160002060000160006101000a81548160ff02191690836007811115612b6f57612b6e613562565b5b02179055507ff4cbf660b9bf86ae341996b23cc16c5a30d67188f77a1ec65deec0167392507983826000604051612ba893929190614430565b60405180910390a1612c48565b600380600085815260200190815260200160002060000160006101000a81548160ff02191690836007811115612bee57612bed613562565b5b02179055504260036000858152602001908152602001600020600201819055507f3a17f9fc3552f1447f9b42179b1021cd4fa12f2e9de107610d91b447a410107c8382604051612c3f9291906142cf565b60405180910390a15b505050565b6000612c57610d40565b905081811015612c6a57612c69612edb565b5b60007f000000000000000000000000000000000000000000000000000000000000000073ffffffffffffffffffffffffffffffffffffffff1663828997566040518163ffffffff1660e01b815260040160206040518083038186803b158015612cd257600080fd5b505afa158015612ce6573d6000803e3d6000fd5b505050506040513d601f19601f82011682018060405250810190612d0a9190613781565b9050612d587f000000000000000000000000000000000000000000000000000000000000000060008373ffffffffffffffffffffffffffffffffffffffff16612f819092919063ffffffff16565b612da37f0000000000000000000000000000000000000000000000000000000000000000848373ffffffffffffffffffffffffffffffffffffffff16612f819092919063ffffffff16565b60007f000000000000000000000000000000000000000000000000000000000000000073ffffffffffffffffffffffffffffffffffffffff16635f36a7426040518163ffffffff1660e01b815260040160206040518083038186803b158015612e0b57600080fd5b505afa158015612e1f573d6000803e3d6000fd5b505050506040513d601f19601f82011682018060405250810190612e439190613781565b90507f000000000000000000000000000000000000000000000000000000000000000073ffffffffffffffffffffffffffffffffffffffff166380500d208286886040518463ffffffff1660e01b8152600401612ea2939291906144d5565b600060405180830381600087803b158015612ebc57600080fd5b505af1158015612ed0573d6000803e3d6000fd5b505050505050505050565b60007f000000000000000000000000000000000000000000000000000000000000000073ffffffffffffffffffffffffffffffffffffffff166263750c6040518163ffffffff1660e01b8152600401602060405180830381600087803b158015612f4457600080fd5b505af1158015612f58573d6000803e3d6000fd5b505050506040513d601f19601f82011682018060405250810190612f7c9190613b4a565b905050565b600081148061301a575060008373ffffffffffffffffffffffffffffffffffffffff1663dd62ed3e30856040518363ffffffff1660e01b8152600401612fc892919061450c565b60206040518083038186803b158015612fe057600080fd5b505afa158015612ff4573d6000803e3d6000fd5b505050506040513d601f19601f820116820180604052508101906130189190613b4a565b145b613059576040517f08c379a0000000000000000000000000000000000000000000000000000000008152600401613050906145a7565b60405180910390fd5b6130da8363095ea7b360e01b8484604051602401613078929190613743565b604051602081830303815290604052907bffffffffffffffffffffffffffffffffffffffffffffffffffffffff19166020820180517bffffffffffffffffffffffffffffffffffffffffffffffffffffffff83818316178352505050506130df565b505050565b6130fe8273ffffffffffffffffffffffffffffffffffffffff16613250565b61313d576040517f08c379a000000000000000000000000000000000000000000000000000000000815260040161313490614613565b60405180910390fd5b6000808373ffffffffffffffffffffffffffffffffffffffff1683604051613165919061467a565b6000604051808303816000865af19150503d80600081146131a2576040519150601f19603f3d011682016040523d82523d6000602084013e6131a7565b606091505b5091509150816131ec576040517f08c379a00000000000000000000000000000000000000000000000000000000081526004016131e3906146dd565b60405180910390fd5b60008151111561324a578080602001905181019061320a9190614735565b613249576040517f08c379a0000000000000000000000000000000000000000000000000000000008152600401613240906147d4565b60405180910390fd5b5b50505050565b60008060007fc5d2460186f7233c927e7db2dcc703c0e500b653ca82273b7bfad8045d85a47060001b9050833f915080821415801561329257506000801b8214155b92505050919050565b600080fd5b6000819050919050565b6132b3816132a0565b81146132be57600080fd5b50565b6000813590506132d0816132aa565b92915050565b6000602082840312156132ec576132eb61329b565b5b60006132fa848285016132c1565b91505092915050565b61330c816132a0565b82525050565b60006020820190506133276000830184613303565b92915050565b600073ffffffffffffffffffffffffffffffffffffffff82169050919050565b60006133588261332d565b9050919050565b6133688161334d565b82525050565b6000602082019050613383600083018461335f565b92915050565b600060ff82169050919050565b61339f81613389565b81146133aa57600080fd5b50565b6000813590506133bc81613396565b92915050565b6133cb8161334d565b81146133d657600080fd5b50565b6000813590506133e8816133c2565b92915050565b600080600080608085870312156134085761340761329b565b5b6000613416878288016132c1565b9450506020613427878288016133ad565b9350506040613438878288016133d9565b9250506060613449878288016132c1565b91505092959194509250565b60006020828403121561346b5761346a61329b565b5b6000613479848285016133d9565b91505092915050565b600081519050919050565b600082825260208201905092915050565b6000819050602082019050919050565b6134b7816132a0565b82525050565b60006134c983836134ae565b60208301905092915050565b6000602082019050919050565b60006134ed82613482565b6134f7818561348d565b93506135028361349e565b8060005b8381101561353357815161351a88826134bd565b9750613525836134d5565b925050600181019050613506565b5085935050505092915050565b6000602082019050818103600083015261355a81846134e2565b905092915050565b7f4e487b7100000000000000000000000000000000000000000000000000000000600052602160045260246000fd5b600881106135a2576135a1613562565b5b50565b60008190506135b382613591565b919050565b60006135c3826135a5565b9050919050565b6135d3816135b8565b82525050565b60006020820190506135ee60008301846135ca565b92915050565b6000806040838503121561360b5761360a61329b565b5b6000613619858286016133d9565b925050602061362a858286016132c1565b9150509250929050565b600082825260208201905092915050565b7f5265656e7472616e637947756172643a207265656e7472616e742063616c6c00600082015250565b600061367b601f83613634565b915061368682613645565b602082019050919050565b600060208201905081810360008301526136aa8161366e565b9050919050565b7f76616c7565206d7573742062652067726561746572207468616e206d696e696d60008201527f756d000000000000000000000000000000000000000000000000000000000000602082015250565b600061370d602283613634565b9150613718826136b1565b604082019050919050565b6000602082019050818103600083015261373c81613700565b9050919050565b6000604082019050613758600083018561335f565b6137656020830184613303565b9392505050565b60008151905061377b816133c2565b92915050565b6000602082840312156137975761379661329b565b5b60006137a58482850161376c565b91505092915050565b6000819050919050565b600061ffff82169050919050565b6000819050919050565b60006137eb6137e66137e1846137ae565b6137c6565b6137b8565b9050919050565b6137fb816137d0565b82525050565b6000606082019050613816600083018661335f565b613823602083018561335f565b61383060408301846137f2565b949350505050565b7f6e6f7420746865206d756c746953696700000000000000000000000000000000600082015250565b600061386e601083613634565b915061387982613838565b602082019050919050565b6000602082019050818103600083015261389d81613861565b9050919050565b7f6e6f20636c61696d2070656e64696e6700000000000000000000000000000000600082015250565b60006138da601083613634565b91506138e5826138a4565b602082019050919050565b60006020820190508181036000830152613909816138cd565b9050919050565b600061392b613926613921846137ae565b6137c6565b6132a0565b9050919050565b61393b81613910565b82525050565b6000819050919050565b600061396661396161395c84613941565b6137c6565b613389565b9050919050565b6139768161394b565b82525050565b6000606082019050613991600083018661335f565b61399e6020830185613932565b6139ab604083018461396d565b949350505050565b7f77697468647261774164647265737320646f6573206e6f74206d617463680000600082015250565b60006139e9601e83613634565b91506139f4826139b3565b602082019050919050565b60006020820190508181036000830152613a18816139dc565b9050919050565b7f62656e6566696369617279206e6f742061637469766500000000000000000000600082015250565b6000613a55601683613634565b9150613a6082613a1f565b602082019050919050565b60006020820190508181036000830152613a8481613a48565b9050919050565b600081519050919050565b60005b83811015613ab4578082015181840152602081019050613a99565b83811115613ac3576000848401525b50505050565b6000601f19601f8301169050919050565b6000613ae582613a8b565b613aef8185613634565b9350613aff818560208601613a96565b613b0881613ac9565b840191505092915050565b60006020820190508181036000830152613b2d8184613ada565b905092915050565b600081519050613b44816132aa565b92915050565b600060208284031215613b6057613b5f61329b565b5b6000613b6e84828501613b35565b91505092915050565b7f4e487b7100000000000000000000000000000000000000000000000000000000600052601160045260246000fd5b6000613bb1826132a0565b9150613bbc836132a0565b9250827fffffffffffffffffffffffffffffffffffffffffffffffffffffffffffffffff03821115613bf157613bf0613b77565b5b828201905092915050565b6000819050919050565b6000613c21613c1c613c1784613bfc565b6137c6565b613389565b9050919050565b613c3181613c06565b82525050565b6000606082019050613c4c600083018661335f565b613c596020830185613932565b613c666040830184613c28565b949350505050565b7f6e6f7420746865206f7261636c65000000000000000000000000000000000000600082015250565b6000613ca4600e83613634565b9150613caf82613c6e565b602082019050919050565b60006020820190508181036000830152613cd381613c97565b9050919050565b7f6e6f20636c61696d207061757365640000000000000000000000000000000000600082015250565b6000613d10600f83613634565b9150613d1b82613cda565b602082019050919050565b60006020820190508181036000830152613d3f81613d03565b9050919050565b6000819050919050565b6000613d6b613d66613d6184613d46565b6137c6565b613389565b9050919050565b613d7b81613d50565b82525050565b6000606082019050613d96600083018661335f565b613da36020830185613932565b613db06040830184613d72565b949350505050565b7f6e6f7420656c696769626c6520746f206170706c790000000000000000000000600082015250565b6000613dee601583613634565b9150613df982613db8565b602082019050919050565b60006020820190508181036000830152613e1d81613de1565b9050919050565b6000819050919050565b6000613e49613e44613e3f84613e24565b6137c6565b613389565b9050919050565b613e5981613e2e565b82525050565b6000606082019050613e74600083018661335f565b613e816020830185613932565b613e8e6040830184613e50565b949350505050565b7f6d696e696d756d2072657365727665206e6f74206d6574000000000000000000600082015250565b6000613ecc601783613634565b9150613ed782613e96565b602082019050919050565b60006020820190508181036000830152613efb81613ebf565b9050919050565b7f62656e6566696369617279206973206e6f7420617070726f7665640000000000600082015250565b6000613f38601b83613634565b9150613f4382613f02565b602082019050919050565b60006020820190508181036000830152613f6781613f2b565b9050919050565b7f6d7573742073656e642074782066726f6d2076616c696461746f72207769746860008201527f6472617741646472657373000000000000000000000000000000000000000000602082015250565b6000613fca602b83613634565b9150613fd582613f6e565b604082019050919050565b60006020820190508181036000830152613ff981613fbd565b9050919050565b7f4f757473696465206170706c792077696e646f77000000000000000000000000600082015250565b6000614036601483613634565b915061404182614000565b602082019050919050565b6000602082019050818103600083015261406581614029565b9050919050565b7f73656e646572206973206e6f7420706f6f6c0000000000000000000000000000600082015250565b60006140a2601283613634565b91506140ad8261406c565b602082019050919050565b600060208201905081810360008301526140d181614095565b9050919050565b60006140e3826132a0565b91506140ee836132a0565b92508282101561410157614100613b77565b5b828203905092915050565b7f7265736572766520696e73756666696369656e7420746f20776974686472617760008201527f20696e737572616e636500000000000000000000000000000000000000000000602082015250565b6000614168602a83613634565b91506141738261410c565b604082019050919050565b600060208201905081810360008301526141978161415b565b9050919050565b60006060820190506141b3600083018661335f565b6141c06020830185613303565b6141cd6040830184613303565b949350505050565b7f43616e6e6f7420776974686472617720636c61696d20756e74696c2074696d6560008201527f6f75742070617373656400000000000000000000000000000000000000000000602082015250565b6000614231602a83613634565b915061423c826141d5565b604082019050919050565b6000602082019050818103600083015261426081614224565b9050919050565b600061428261427d614278846137ae565b6137c6565b613389565b9050919050565b61429281614267565b82525050565b60006060820190506142ad600083018661335f565b6142ba6020830185613303565b6142c76040830184614289565b949350505050565b60006040820190506142e46000830185613303565b6142f1602083018461335f565b9392505050565b6000614303826132a0565b91507fffffffffffffffffffffffffffffffffffffffffffffffffffffffffffffffff82141561433657614335613b77565b5b600182019050919050565b7f4e487b7100000000000000000000000000000000000000000000000000000000600052601260045260246000fd5b600061437b826132a0565b9150614386836132a0565b92508261439657614395614341565b5b828204905092915050565b7f4e487b7100000000000000000000000000000000000000000000000000000000600052604160045260246000fd5b60006143db826132a0565b91506143e6836132a0565b9250826143f6576143f5614341565b5b828206905092915050565b7f4e487b7100000000000000000000000000000000000000000000000000000000600052603260045260246000fd5b60006060820190506144456000830186613303565b614452602083018561335f565b61445f6040830184614289565b949350505050565b600060608201905061447c6000830186613303565b614489602083018561335f565b6144966040830184613e50565b949350505050565b60006060820190506144b36000830186613303565b6144c0602083018561335f565b6144cd604083018461396d565b949350505050565b60006060820190506144ea600083018661335f565b6144f76020830185613303565b614504604083018461335f565b949350505050565b6000604082019050614521600083018561335f565b61452e602083018461335f565b9392505050565b7f5361666545524332303a20617070726f76652066726f6d206e6f6e2d7a65726f60008201527f20746f206e6f6e2d7a65726f20616c6c6f77616e636500000000000000000000602082015250565b6000614591603683613634565b915061459c82614535565b604082019050919050565b600060208201905081810360008301526145c081614584565b9050919050565b7f5361666545524332303a2063616c6c20746f206e6f6e2d636f6e747261637400600082015250565b60006145fd601f83613634565b9150614608826145c7565b602082019050919050565b6000602082019050818103600083015261462c816145f0565b9050919050565b600081519050919050565b600081905092915050565b600061465482614633565b61465e818561463e565b935061466e818560208601613a96565b80840191505092915050565b60006146868284614649565b915081905092915050565b7f5361666545524332303a206c6f772d6c6576656c2063616c6c206661696c6564600082015250565b60006146c7602083613634565b91506146d282614691565b602082019050919050565b600060208201905081810360008301526146f6816146ba565b9050919050565b60008115159050919050565b614712816146fd565b811461471d57600080fd5b50565b60008151905061472f81614709565b92915050565b60006020828403121561474b5761474a61329b565b5b600061475984828501614720565b91505092915050565b7f5361666545524332303a204552433230206f7065726174696f6e20646964206e60008201527f6f74207375636365656400000000000000000000000000000000000000000000602082015250565b60006147be602a83613634565b91506147c982614762565b604082019050919050565b600060208201905081810360008301526147ed816147b1565b905091905056fea26469706673582212204ace0b0a50a57d2fbe949a157fb47b2c6e1d752309a0891f73f9c66d0ef9a10e64736f6c6343000809003360806040523480156200001157600080fd5b506040518060400160405280601681526020017f536c617368696e6720496e737572616e636520455448000000000000000000008152506040518060400160405280600681526020017f736c694554480000000000000000000000000000000000000000000000000000815250816003908051906020019062000096929190620000f9565b508060049080519060200190620000af929190620000f9565b50505033600660006101000a81548173ffffffffffffffffffffffffffffffffffffffff021916908373ffffffffffffffffffffffffffffffffffffffff1602179055506200020e565b8280546200010790620001d8565b90600052602060002090601f0160209004810192826200012b576000855562000177565b82601f106200014657805160ff191683800117855562000177565b8280016001018555821562000177579182015b828111156200017657825182559160200191906001019062000159565b5b5090506200018691906200018a565b5090565b5b80821115620001a55760008160009055506001016200018b565b5090565b7f4e487b7100000000000000000000000000000000000000000000000000000000600052602260045260246000fd5b60006002820490506001821680620001f157607f821691505b60208210811415620002085762000207620001a9565b5b50919050565b612339806200021e6000396000f3fe6080604052600436106101025760003560e01c806371f56f1111610095578063a9059cbb11610064578063a9059cbb1461037a578063cb765c1d146103b7578063d5bda32d146103e2578063dd62ed3e1461041f578063f0197e1a1461045c57610109565b806371f56f11146102ac57806395d89b41146102e95780639dc29fac14610314578063a457c2d71461033d57610109565b8063313ce567116100d1578063313ce567146101de578063395093511461020957806340c10f191461024657806370a082311461026f57610109565b806306fdde031461010e578063095ea7b31461013957806318160ddd1461017657806323b872dd146101a157610109565b3661010957005b600080fd5b34801561011a57600080fd5b50610123610487565b6040516101309190611641565b60405180910390f35b34801561014557600080fd5b50610160600480360381019061015b91906116fc565b610519565b60405161016d9190611757565b60405180910390f35b34801561018257600080fd5b5061018b610537565b6040516101989190611781565b60405180910390f35b3480156101ad57600080fd5b506101c860048036038101906101c3919061179c565b610541565b6040516101d59190611757565b60405180910390f35b3480156101ea57600080fd5b506101f3610639565b604051610200919061180b565b60405180910390f35b34801561021557600080fd5b50610230600480360381019061022b91906116fc565b610642565b60405161023d9190611757565b60405180910390f35b34801561025257600080fd5b5061026d600480360381019061026891906116fc565b6106ee565b005b34801561027b57600080fd5b5061029660048036038101906102919190611826565b61082f565b6040516102a39190611781565b60405180910390f35b3480156102b857600080fd5b506102d360048036038101906102ce9190611853565b610877565b6040516102e09190611781565b60405180910390f35b3480156102f557600080fd5b506102fe610912565b60405161030b9190611641565b60405180910390f35b34801561032057600080fd5b5061033b600480360381019061033691906116fc565b6109a4565b005b34801561034957600080fd5b50610364600480360381019061035f91906116fc565b610b30565b6040516103719190611757565b60405180910390f35b34801561038657600080fd5b506103a1600480360381019061039c91906116fc565b610c1b565b6040516103ae9190611757565b60405180910390f35b3480156103c357600080fd5b506103cc610c39565b6040516103d99190611781565b60405180910390f35b3480156103ee57600080fd5b5061040960048036038101906104049190611853565b610ce0565b6040516104169190611781565b60405180910390f35b34801561042b57600080fd5b5061044660048036038101906104419190611880565b610d2d565b6040516104539190611781565b60405180910390f35b34801561046857600080fd5b50610471610db4565b60405161047e9190611781565b60405180910390f35b606060038054610496906118ef565b80601f01602080910402602001604051908101604052809291908181526020018280546104c2906118ef565b801561050f5780601f106104e45761010080835404028352916020019161050f565b820191906000526020600020905b8154815290600101906020018083116104f257829003601f168201915b5050505050905090565b600061052d610526610e13565b8484610e1b565b6001905092915050565b6000600254905090565b600061054e848484610fe6565b6000600160008673ffffffffffffffffffffffffffffffffffffffff1673ffffffffffffffffffffffffffffffffffffffff1681526020019081526020016000206000610599610e13565b73ffffffffffffffffffffffffffffffffffffffff1673ffffffffffffffffffffffffffffffffffffffff16815260200190815260200160002054905082811015610619576040517f08c379a000000000000000000000000000000000000000000000000000000000815260040161061090611993565b60405180910390fd5b61062d85610625610e13565b858403610e1b565b60019150509392505050565b60006012905090565b60006106e461064f610e13565b84846001600061065d610e13565b73ffffffffffffffffffffffffffffffffffffffff1673ffffffffffffffffffffffffffffffffffffffff16815260200190815260200160002060008873ffffffffffffffffffffffffffffffffffffffff1673ffffffffffffffffffffffffffffffffffffffff168152602001908152602001600020546106df91906119e2565b610e1b565b6001905092915050565b3373ffffffffffffffffffffffffffffffffffffffff16600660009054906101000a900473ffffffffffffffffffffffffffffffffffffffff1673ffffffffffffffffffffffffffffffffffffffff161461077e576040517f08c379a000000000000000000000000000000000000000000000000000000000815260040161077590611a84565b60405180910390fd5b600061078982610877565b9050600081116107ce576040517f08c379a00000000000000000000000000000000000000000000000000000000081526004016107c590611af0565b60405180910390fd5b6107d88382611267565b8273ffffffffffffffffffffffffffffffffffffffff167f6155cfd0fd028b0ca77e8495a60cbe563e8bce8611f0aad6fedbdaafc05d44a282844260405161082293929190611b10565b60405180910390a2505050565b60008060008373ffffffffffffffffffffffffffffffffffffffff1673ffffffffffffffffffffffffffffffffffffffff168152602001908152602001600020549050919050565b60008082610883610c39565b61088d9190611b47565b90506000610899610537565b905060008114156108ae57839250505061090d565b600082116108f1576040517f08c379a00000000000000000000000000000000000000000000000000000000081526004016108e890611c13565b60405180910390fd5b8181856108fe9190611c33565b6109089190611cbc565b925050505b919050565b606060048054610921906118ef565b80601f016020809104026020016040519081016040528092919081815260200182805461094d906118ef565b801561099a5780601f1061096f5761010080835404028352916020019161099a565b820191906000526020600020905b81548152906001019060200180831161097d57829003601f168201915b5050505050905090565b3373ffffffffffffffffffffffffffffffffffffffff16600660009054906101000a900473ffffffffffffffffffffffffffffffffffffffff1673ffffffffffffffffffffffffffffffffffffffff1614610a34576040517f08c379a0000000000000000000000000000000000000000000000000000000008152600401610a2b90611a84565b60405180910390fd5b60008111610a77576040517f08c379a0000000000000000000000000000000000000000000000000000000008152600401610a6e90611d39565b60405180910390fd5b80610a818361082f565b1015610ac2576040517f08c379a0000000000000000000000000000000000000000000000000000000008152600401610ab990611da5565b60405180910390fd5b6000610acd82610ce0565b9050610ad983836113c7565b3373ffffffffffffffffffffffffffffffffffffffff167f19783b34589160c168487dc7f9c51ae0bcefe67a47d6708fba90f6ce0366d3d1838342604051610b2393929190611b10565b60405180910390a2505050565b60008060016000610b3f610e13565b73ffffffffffffffffffffffffffffffffffffffff1673ffffffffffffffffffffffffffffffffffffffff16815260200190815260200160002060008573ffffffffffffffffffffffffffffffffffffffff1673ffffffffffffffffffffffffffffffffffffffff16815260200190815260200160002054905082811015610bfc576040517f08c379a0000000000000000000000000000000000000000000000000000000008152600401610bf390611e37565b60405180910390fd5b610c10610c07610e13565b85858403610e1b565b600191505092915050565b6000610c2f610c28610e13565b8484610fe6565b6001905092915050565b6000600660009054906101000a900473ffffffffffffffffffffffffffffffffffffffff1673ffffffffffffffffffffffffffffffffffffffff166314e7c9226040518163ffffffff1660e01b815260040160206040518083038186803b158015610ca357600080fd5b505afa158015610cb7573d6000803e3d6000fd5b505050506040513d601f19601f82011682018060405250810190610cdb9190611e6c565b905090565b600080610ceb610c39565b90506000610cf7610537565b90506000811415610d0c578392505050610d28565b808285610d199190611c33565b610d239190611cbc565b925050505b919050565b6000600160008473ffffffffffffffffffffffffffffffffffffffff1673ffffffffffffffffffffffffffffffffffffffff16815260200190815260200160002060008373ffffffffffffffffffffffffffffffffffffffff1673ffffffffffffffffffffffffffffffffffffffff16815260200190815260200160002054905092915050565b600080610dbf610c39565b90506000610dcb610537565b90506000811480610ddc5750600082145b15610dec57600092505050610e10565b8082670de0b6b3a7640000610e019190611c33565b610e0b9190611cbc565b925050505b90565b600033905090565b600073ffffffffffffffffffffffffffffffffffffffff168373ffffffffffffffffffffffffffffffffffffffff161415610e8b576040517f08c379a0000000000000000000000000000000000000000000000000000000008152600401610e8290611f0b565b60405180910390fd5b600073ffffffffffffffffffffffffffffffffffffffff168273ffffffffffffffffffffffffffffffffffffffff161415610efb576040517f08c379a0000000000000000000000000000000000000000000000000000000008152600401610ef290611f9d565b60405180910390fd5b80600160008573ffffffffffffffffffffffffffffffffffffffff1673ffffffffffffffffffffffffffffffffffffffff16815260200190815260200160002060008473ffffffffffffffffffffffffffffffffffffffff1673ffffffffffffffffffffffffffffffffffffffff168152602001908152602001600020819055508173ffffffffffffffffffffffffffffffffffffffff168373ffffffffffffffffffffffffffffffffffffffff167f8c5be1e5ebec7d5bd14f71427d1e84f3dd0314c0f7b2291e5b200ac8c7c3b92583604051610fd99190611781565b60405180910390a3505050565b600073ffffffffffffffffffffffffffffffffffffffff168373ffffffffffffffffffffffffffffffffffffffff161415611056576040517f08c379a000000000000000000000000000000000000000000000000000000000815260040161104d9061202f565b60405180910390fd5b600073ffffffffffffffffffffffffffffffffffffffff168273ffffffffffffffffffffffffffffffffffffffff1614156110c6576040517f08c379a00000000000000000000000000000000000000000000000000000000081526004016110bd906120c1565b60405180910390fd5b6110d183838361159e565b60008060008573ffffffffffffffffffffffffffffffffffffffff1673ffffffffffffffffffffffffffffffffffffffff16815260200190815260200160002054905081811015611157576040517f08c379a000000000000000000000000000000000000000000000000000000000815260040161114e90612153565b60405180910390fd5b8181036000808673ffffffffffffffffffffffffffffffffffffffff1673ffffffffffffffffffffffffffffffffffffffff16815260200190815260200160002081905550816000808573ffffffffffffffffffffffffffffffffffffffff1673ffffffffffffffffffffffffffffffffffffffff16815260200190815260200160002060008282546111ea91906119e2565b925050819055508273ffffffffffffffffffffffffffffffffffffffff168473ffffffffffffffffffffffffffffffffffffffff167fddf252ad1be2c89b69c2b068fc378daa952ba7f163c4a11628f55a4df523b3ef8460405161124e9190611781565b60405180910390a36112618484846115a3565b50505050565b600073ffffffffffffffffffffffffffffffffffffffff168273ffffffffffffffffffffffffffffffffffffffff1614156112d7576040517f08c379a00000000000000000000000000000000000000000000000000000000081526004016112ce906121bf565b60405180910390fd5b6112e36000838361159e565b80600260008282546112f591906119e2565b92505081905550806000808473ffffffffffffffffffffffffffffffffffffffff1673ffffffffffffffffffffffffffffffffffffffff168152602001908152602001600020600082825461134a91906119e2565b925050819055508173ffffffffffffffffffffffffffffffffffffffff16600073ffffffffffffffffffffffffffffffffffffffff167fddf252ad1be2c89b69c2b068fc378daa952ba7f163c4a11628f55a4df523b3ef836040516113af9190611781565b60405180910390a36113c3600083836115a3565b5050565b600073ffffffffffffffffffffffffffffffffffffffff168273ffffffffffffffffffffffffffffffffffffffff161415611437576040517f08c379a000000000000000000000000000000000000000000000000000000000815260040161142e90612251565b60405180910390fd5b6114438260008361159e565b60008060008473ffffffffffffffffffffffffffffffffffffffff1673ffffffffffffffffffffffffffffffffffffffff168152602001908152602001600020549050818110156114c9576040517f08c379a00000000000000000000000000000000000000000000000000000000081526004016114c0906122e3565b60405180910390fd5b8181036000808573ffffffffffffffffffffffffffffffffffffffff1673ffffffffffffffffffffffffffffffffffffffff1681526020019081526020016000208190555081600260008282546115209190611b47565b92505081905550600073ffffffffffffffffffffffffffffffffffffffff168373ffffffffffffffffffffffffffffffffffffffff167fddf252ad1be2c89b69c2b068fc378daa952ba7f163c4a11628f55a4df523b3ef846040516115859190611781565b60405180910390a3611599836000846115a3565b505050565b505050565b505050565b600081519050919050565b600082825260208201905092915050565b60005b838110156115e25780820151818401526020810190506115c7565b838111156115f1576000848401525b50505050565b6000601f19601f8301169050919050565b6000611613826115a8565b61161d81856115b3565b935061162d8185602086016115c4565b611636816115f7565b840191505092915050565b6000602082019050818103600083015261165b8184611608565b905092915050565b600080fd5b600073ffffffffffffffffffffffffffffffffffffffff82169050919050565b600061169382611668565b9050919050565b6116a381611688565b81146116ae57600080fd5b50565b6000813590506116c08161169a565b92915050565b6000819050919050565b6116d9816116c6565b81146116e457600080fd5b50565b6000813590506116f6816116d0565b92915050565b6000806040838503121561171357611712611663565b5b6000611721858286016116b1565b9250506020611732858286016116e7565b9150509250929050565b60008115159050919050565b6117518161173c565b82525050565b600060208201905061176c6000830184611748565b92915050565b61177b816116c6565b82525050565b60006020820190506117966000830184611772565b92915050565b6000806000606084860312156117b5576117b4611663565b5b60006117c3868287016116b1565b93505060206117d4868287016116b1565b92505060406117e5868287016116e7565b9150509250925092565b600060ff82169050919050565b611805816117ef565b82525050565b600060208201905061182060008301846117fc565b92915050565b60006020828403121561183c5761183b611663565b5b600061184a848285016116b1565b91505092915050565b60006020828403121561186957611868611663565b5b6000611877848285016116e7565b91505092915050565b6000806040838503121561189757611896611663565b5b60006118a5858286016116b1565b92505060206118b6858286016116b1565b9150509250929050565b7f4e487b7100000000000000000000000000000000000000000000000000000000600052602260045260246000fd5b6000600282049050600182168061190757607f821691505b6020821081141561191b5761191a6118c0565b5b50919050565b7f45524332303a207472616e7366657220616d6f756e742065786365656473206160008201527f6c6c6f77616e6365000000000000000000000000000000000000000000000000602082015250565b600061197d6028836115b3565b915061198882611921565b604082019050919050565b600060208201905081810360008301526119ac81611970565b9050919050565b7f4e487b7100000000000000000000000000000000000000000000000000000000600052601160045260246000fd5b60006119ed826116c6565b91506119f8836116c6565b9250827fffffffffffffffffffffffffffffffffffffffffffffffffffffffffffffffff03821115611a2d57611a2c6119b3565b5b828201905092915050565b7f6e6f7420746865206f776e657200000000000000000000000000000000000000600082015250565b6000611a6e600d836115b3565b9150611a7982611a38565b602082019050919050565b60006020820190508181036000830152611a9d81611a61565b9050919050565b7f496e76616c696420746f6b656e206d696e7420616d6f756e7400000000000000600082015250565b6000611ada6019836115b3565b9150611ae582611aa4565b602082019050919050565b60006020820190508181036000830152611b0981611acd565b9050919050565b6000606082019050611b256000830186611772565b611b326020830185611772565b611b3f6040830184611772565b949350505050565b6000611b52826116c6565b9150611b5d836116c6565b925082821015611b7057611b6f6119b3565b5b828203905092915050565b7f43616e6e6f742063616c63756c61746520736c6945544820746f6b656e20616d60008201527f6f756e74207768696c6520726573657276652062616c616e6365206973207a6560208201527f726f000000000000000000000000000000000000000000000000000000000000604082015250565b6000611bfd6042836115b3565b9150611c0882611b7b565b606082019050919050565b60006020820190508181036000830152611c2c81611bf0565b9050919050565b6000611c3e826116c6565b9150611c49836116c6565b9250817fffffffffffffffffffffffffffffffffffffffffffffffffffffffffffffffff0483118215151615611c8257611c816119b3565b5b828202905092915050565b7f4e487b7100000000000000000000000000000000000000000000000000000000600052601260045260246000fd5b6000611cc7826116c6565b9150611cd2836116c6565b925082611ce257611ce1611c8d565b5b828204905092915050565b7f496e76616c696420746f6b656e206275726e20616d6f756e7400000000000000600082015250565b6000611d236019836115b3565b9150611d2e82611ced565b602082019050919050565b60006020820190508181036000830152611d5281611d16565b9050919050565b7f496e73756666696369656e7420736c694554482062616c616e63650000000000600082015250565b6000611d8f601b836115b3565b9150611d9a82611d59565b602082019050919050565b60006020820190508181036000830152611dbe81611d82565b9050919050565b7f45524332303a2064656372656173656420616c6c6f77616e63652062656c6f7760008201527f207a65726f000000000000000000000000000000000000000000000000000000602082015250565b6000611e216025836115b3565b9150611e2c82611dc5565b604082019050919050565b60006020820190508181036000830152611e5081611e14565b9050919050565b600081519050611e66816116d0565b92915050565b600060208284031215611e8257611e81611663565b5b6000611e9084828501611e57565b91505092915050565b7f45524332303a20617070726f76652066726f6d20746865207a65726f2061646460008201527f7265737300000000000000000000000000000000000000000000000000000000602082015250565b6000611ef56024836115b3565b9150611f0082611e99565b604082019050919050565b60006020820190508181036000830152611f2481611ee8565b9050919050565b7f45524332303a20617070726f766520746f20746865207a65726f20616464726560008201527f7373000000000000000000000000000000000000000000000000000000000000602082015250565b6000611f876022836115b3565b9150611f9282611f2b565b604082019050919050565b60006020820190508181036000830152611fb681611f7a565b9050919050565b7f45524332303a207472616e736665722066726f6d20746865207a65726f20616460008201527f6472657373000000000000000000000000000000000000000000000000000000602082015250565b60006120196025836115b3565b915061202482611fbd565b604082019050919050565b600060208201905081810360008301526120488161200c565b9050919050565b7f45524332303a207472616e7366657220746f20746865207a65726f206164647260008201527f6573730000000000000000000000000000000000000000000000000000000000602082015250565b60006120ab6023836115b3565b91506120b68261204f565b604082019050919050565b600060208201905081810360008301526120da8161209e565b9050919050565b7f45524332303a207472616e7366657220616d6f756e742065786365656473206260008201527f616c616e63650000000000000000000000000000000000000000000000000000602082015250565b600061213d6026836115b3565b9150612148826120e1565b604082019050919050565b6000602082019050818103600083015261216c81612130565b9050919050565b7f45524332303a206d696e7420746f20746865207a65726f206164647265737300600082015250565b60006121a9601f836115b3565b91506121b482612173565b602082019050919050565b600060208201905081810360008301526121d88161219c565b9050919050565b7f45524332303a206275726e2066726f6d20746865207a65726f2061646472657360008201527f7300000000000000000000000000000000000000000000000000000000000000602082015250565b600061223b6021836115b3565b9150612246826121df565b604082019050919050565b6000602082019050818103600083015261226a8161222e565b9050919050565b7f45524332303a206275726e20616d6f756e7420657863656564732062616c616e60008201527f6365000000000000000000000000000000000000000000000000000000000000602082015250565b60006122cd6022836115b3565b91506122d882612271565b604082019050919050565b600060208201905081810360008301526122fc816122c0565b905091905056fea2646970667358221220979fda24cdb3e8c632674edc54658edb43d59711b2735fc3a3e459cb98263d9b64736f6c63430008090033",
  "immutableReferences": {
    "1231": [
      {
        "length": 32,
        "start": 1892
      },
      {
        "length": 32,
        "start": 6043
      },
      {
        "length": 32,
        "start": 7863
      },
      {
        "length": 32,
        "start": 8120
      },
      {
        "length": 32,
        "start": 8344
      }
    ],
    "2190": [
      {
        "length": 32,
        "start": 2195
      },
      {
        "length": 32,
        "start": 11537
      },
      {
        "length": 32,
        "start": 11613
      },
      {
        "length": 32,
        "start": 11847
      }
    ],
    "2233": [
      {
        "length": 32,
        "start": 2035
      },
      {
        "length": 32,
        "start": 3397
      },
      {
        "length": 32,
        "start": 3710
      },
      {
        "length": 32,
        "start": 7378
      },
      {
        "length": 32,
        "start": 9188
      },
      {
        "length": 32,
        "start": 9529
      },
      {
        "length": 32,
        "start": 11374
      },
      {
        "length": 32,
        "start": 11687
      },
      {
        "length": 32,
        "start": 11999
      }
    ],
    "2235": [
      {
        "length": 32,
        "start": 2431
      },
      {
        "length": 32,
        "start": 3972
      },
      {
        "length": 32,
        "start": 4031
      },
      {
        "length": 32,
        "start": 4710
      },
      {
        "length": 32,
        "start": 6453
      }
    ]
  },
  "source": "// SPDX-License-Identifier: MIT\npragma solidity 0.8.9;\n\n\nimport {SafeERC20} from \"./libraries/SafeERC20.sol\";\nimport {IERC20} from \"./interfaces/other/IERC20.sol\";\nimport {IWETHGateway} from \"./interfaces/aave/IWETHGateway.sol\";\nimport {IPremiumGenerator} from \"./interfaces/protocol/IPremiumGenerator.sol\";\nimport { IOracleGateway } from \"./interfaces/protocol/IOracleGateway.sol\";\nimport {SlashingInsuranceETH} from \"./SlashingInsuranceETH.sol\";\nimport { Authenticator } from \"./Authenticator.sol\";\nimport \"@openzeppelin/contracts/security/ReentrancyGuard.sol\";\nimport \"@openzeppelin/contracts/utils/Strings.sol\";\n\n//AAVE V2\nimport {ILendingPool} from \"./interfaces/aave/ILendingPool.sol\";\nimport {ILendingPoolAddressesProvider} from \"./interfaces/aave/ILendingPoolAddressesProvider.sol\";\nimport {IProtocolDataProvider} from \"./interfaces/aave/IProtocolDataProvider.sol\";\n\n\n/**\n * @title Ethereum Slashing Insurance (SLI) Reserve contract\n * @author smeee\n * @notice Main point of interaction with SLI Protocol\n * This is a proof of concept starter contract for lossless insurance\n *\n * Aave v2 is used to generate interest from premium deposits\n * Premium is returned to beneficiary after the\n *\n * PoolTracker contract controls deposit calls to Aave to make\n * approvals needed only once per token. Calls JustCause Pools for\n * withdrawals and claims\n *\n * Controls Owner/Contributor NFT creation and updates for deposits/withdrawals\n *\n * Controls JustCause Pool creation with proxy contracts\n *\n * @dev Deposits, withdraws, and claims for Aave Pools\n * @dev Generate ERC721 token\n **/\n\ncontract Reserve is ReentrancyGuard, Authenticator{\n    using SafeERC20 for IERC20;\n\n    SlashingInsuranceETH immutable sliETH;\n\n    event DenyApplication(uint validatorIndex,address withdrawAddress,uint8 reason);\n    event ApproveApplication( uint validatorIndex, address withdrawAddress);\n    event ProvideInsurance(address depositor, uint ethAmount);\n    event WithdrawInsurance(address depositor, uint ethAmount, uint sliETHAmount);\n    event DenyClaim(uint validatorIndex,address withdrawAddress,uint8 reason);\n    event AcceptClaim(uint validatorIndex,address withdrawAddress);\n    event AddBeneficiary(uint validatorIndex, address withdrawAddress);\n    event WithdrawBeneficiary(uint validatorIndex, address withdrawAddress);\n    event MakeClaim(uint validatorIndex);\n    event ProcessClaim(address beneficiary, uint amount, uint8 result);\n\n    /**\n     * @dev Constructor.\n     */\n    constructor(\n        address _multiSig,\n        address _generatorPool,\n        address _wethGatewayAddr,\n        uint _minimumProvide,\n        uint _minimumReserve,\n        uint _maxClaim,\n        address _oracle,\n        address _oracleGateway\n    ) Authenticator(\n        _multiSig,\n        _generatorPool,\n        _wethGatewayAddr,\n        _minimumProvide,\n        _minimumReserve,\n        _maxClaim,\n        _oracle,\n        _oracleGateway\n    ){\n        sliETH = new SlashingInsuranceETH();\n    }\n\n    receive() external payable {\n        provideInsurance();\n    }\n\n    // Fallback function is called when msg.data is not empty\n    fallback() external payable {\n        provideInsurance();\n    }\n\n    function provideInsurance() public payable nonReentrant {\n        require(\n            msg.value >= minimumProvide,\n            \"value must be greater than minimum\"\n        );\n        sliETH.mint(msg.sender, msg.value);\n        address aaveLendingPool = IPremiumGenerator(generatorPool).getLendingPoolAddress();\n        IWETHGateway(wethGatewayAddr).depositETH{value: msg.value}(aaveLendingPool, address(this), 0);\n        emit ProvideInsurance(msg.sender, msg.value);\n    }\n\n    function withdrawInsurance(uint _sliETHAmount) external nonReentrant {\n        uint requestedETH = sliETH.getETHValue(_sliETHAmount);\n        require(\n            minimumReserve < (getProtocolBalance() - requestedETH),\n            \"reserve insufficient to withdraw insurance\"\n        );\n        sliETH.burn(msg.sender, _sliETHAmount);\n        _processOutflow(msg.sender, requestedETH);\n        emit WithdrawInsurance(msg.sender, requestedETH, _sliETHAmount);\n    }\n\n    function _processOutflow(address _to, uint requestedETH) internal {\n        //harvest aave pools for outflow\n        uint aTokenBalance = getReserveATokenBalance();\n        if(aTokenBalance < requestedETH){\n            _harvestInterest();\n        }\n\n        address aTokenAddress = IPremiumGenerator(generatorPool)\n            .getATokenAddress();\n        IERC20(aTokenAddress).safeApprove(wethGatewayAddr, 0);\n        IERC20(aTokenAddress).safeApprove(wethGatewayAddr, requestedETH);\n        address aaveLendingPool = IPremiumGenerator(generatorPool)\n            .getLendingPoolAddress();\n        IWETHGateway(wethGatewayAddr).withdrawETH(\n            aaveLendingPool,\n            requestedETH,\n            _to\n        );\n    }\n\n    /**\n     * @param _validatorIndex uint index of insured validator\n     **/\n    function applyForCoverage(\n        uint _validatorIndex\n    ) external onlyApply(_validatorIndex) {\n        IOracleGateway(oracleGateway).callOracle(Strings.toString(_validatorIndex));\n        beneficiaries[_validatorIndex] = Beneficiary(\n            Status.AWAIT_ORACLE_ADD,\n            msg.sender,\n            0,\n            0,\n            0\n        );\n        depositors[msg.sender].push(_validatorIndex);\n    }\n\n    /**\n     * @param _withdrawAddress address of beneficiary\n     * @param _validatorIndex uint index of insured validator\n     **/\n    function addBeneficiary(\n        address _withdrawAddress,\n        uint _validatorIndex\n    )\n        external\n        minimumReserveMet(getProtocolBalance())\n        onlyAddApproved(_validatorIndex)\n        onlyBeneficiary(_withdrawAddress, _validatorIndex)\n        onlyInApplyWindow(_validatorIndex)\n        onlyPools\n    {\n        beneficiaries[_validatorIndex] = Beneficiary(\n            Status.ACTIVE,\n            _withdrawAddress,\n            0,\n            0,\n            0\n        );\n    }\n\n    function oracleResponse(\n        uint _validatorIndex,\n        uint8 _slashed,\n        address _withdrawAddress,\n        uint _loss\n    ) external onlyOracle {\n        if (beneficiaries[_validatorIndex].status == Status.AWAIT_ORACLE_CLAIM) {\n            _oracleClaimResponse(_validatorIndex, _slashed, _withdrawAddress, _loss);\n        }\n        else if (beneficiaries[_validatorIndex].status == Status.AWAIT_ORACLE_ADD) {\n            _oracleAddBeneResponse(_validatorIndex, _slashed, _withdrawAddress);\n        }\n        else{\n            return;\n        }\n    }\n\n    function _oracleAddBeneResponse(\n        uint _validatorIndex,\n        uint8 _slashed,\n        address _withdrawAddress\n    ) internal {\n        //check withdraw address with oracle reponse\n        //check validator is active with oracle response\n        if (\n            beneficiaries[_validatorIndex].withdrawAddress != _withdrawAddress ||\n            _slashed == 1\n        ) {\n            beneficiaries[_validatorIndex].withdrawAddress = address(0);\n            beneficiaries[_validatorIndex].status = Status.NOT_ACTIVE;\n            emit DenyApplication(\n                _validatorIndex,\n                _withdrawAddress,\n                0 //address not correct or not set\n            );\n        }\n        else {\n            beneficiaries[_validatorIndex].status = Status.ORACLE_ADD_APPROVE;\n            beneficiaries[_validatorIndex].applyTimestamp = block.timestamp;\n            emit ApproveApplication(_validatorIndex, _withdrawAddress);\n        }\n    }\n\n    function _oracleClaimResponse(\n        uint _validatorIndex,\n        uint8 _slashed,\n        address _withdrawAddress,\n        uint _loss\n    ) internal {\n        //check withdraw address with oracle reponse\n        if (\n            beneficiaries[_validatorIndex].withdrawAddress != _withdrawAddress\n        ) {\n            beneficiaries[_validatorIndex].status = Status.ACTIVE;\n            emit DenyClaim(\n                _validatorIndex,\n                _withdrawAddress,\n                0//\"withdrawAddress incorrect\"\n            );\n        }\n        //check if slashed\n        else if (_slashed == 0 || _loss == 0) {\n            beneficiaries[_validatorIndex].status = Status.ACTIVE;\n            emit DenyClaim(\n                _validatorIndex,\n                _withdrawAddress,\n                1//\"not slashed\"\n            );\n        }\n        else {\n            if(_loss > maxClaim){\n                beneficiaries[_validatorIndex].status = Status.CLAIM_PAUSED;\n                emit DenyClaim(\n                _validatorIndex,\n                _withdrawAddress,\n                2//exceeds max claim and has to be reviewed\n            );\n            }\n            else{\n                beneficiaries[_validatorIndex].status = Status.CLAIM_WAIT_PERIOD;\n                emit AcceptClaim(_validatorIndex, _withdrawAddress);\n            }\n            beneficiaries[_validatorIndex].claimTimestamp = block.timestamp;\n            beneficiaries[_validatorIndex].loss = _loss;\n        }\n    }\n\n    function makeClaim(\n        uint _validatorIndex\n    )\n        public\n        fromWithdrawAddress(msg.sender, _validatorIndex)\n        onlyActiveBeneficiary(_validatorIndex)\n    {\n        IOracleGateway(oracleGateway).callOracle(Strings.toString(_validatorIndex));\n        beneficiaries[_validatorIndex].status = Status.AWAIT_ORACLE_CLAIM;\n    }\n\n    function payClaim(\n        uint _validatorIndex\n    )\n        external\n        onlyWaitPeriod(_validatorIndex)\n        onlyTimeoutPassed(_validatorIndex)\n    {\n        address withdrawAddress = beneficiaries[_validatorIndex]\n            .withdrawAddress;\n        uint loss = beneficiaries[_validatorIndex].loss;\n        _processOutflow(\n            withdrawAddress,\n            beneficiaries[_validatorIndex].loss\n        );\n        beneficiaries[_validatorIndex].status = Status.CLOSED;\n        emit ProcessClaim(\n            withdrawAddress,\n            loss,\n            0//approve\n            );\n    }\n\n    function denyClaim(\n        uint _validatorIndex\n    ) public onlyMultiSig onlyPausedClaim(_validatorIndex) {\n        beneficiaries[_validatorIndex].status = Status.CLOSED;\n        emit ProcessClaim(\n            beneficiaries[_validatorIndex].withdrawAddress,\n            0,\n            1//deny\n        );\n    }\n\n    function pauseClaim(\n        uint _validatorIndex\n    ) public onlyMultiSig onlyWaitPeriod(_validatorIndex) {\n        beneficiaries[_validatorIndex].status = Status.CLAIM_PAUSED;\n        emit ProcessClaim(\n            beneficiaries[_validatorIndex].withdrawAddress,\n            0,\n            2//pause\n        );\n    }\n\n    function unpauseClaim(\n        uint _validatorIndex\n    )\n        public\n        onlyMultiSig\n        onlyPausedClaim(_validatorIndex)\n    {\n        beneficiaries[_validatorIndex].status = Status.CLAIM_WAIT_PERIOD;\n        emit ProcessClaim(\n            beneficiaries[_validatorIndex].withdrawAddress,\n            0,\n            3//\"unpause\"\n        );\n    }\n\n    function resetClaim(\n        uint _validatorIndex\n    ) public onlyMultiSig {\n        beneficiaries[_validatorIndex].status = Status.ACTIVE;\n        emit ProcessClaim(\n            beneficiaries[_validatorIndex].withdrawAddress,\n            0,\n            4//\"reset\"\n        );\n    }\n\n    /**\n     * @dev Emit WithdrawDeposit\n     * @param _withdrawAddress address of beneficiary\n     * @param _validatorIndex uint index of insured validator\n     **/\n    function withdrawBeneficiary(\n        address _withdrawAddress,\n        uint _validatorIndex\n    )\n        external\n        fromWithdrawAddress(_withdrawAddress, _validatorIndex)\n        onlyActiveBeneficiary(_validatorIndex)\n        onlyPools\n    {\n        beneficiaries[_validatorIndex].status = Status.NOT_ACTIVE;\n        emit WithdrawBeneficiary(_validatorIndex, _withdrawAddress);\n    }\n\n    /**\n     * @dev Emit Claim\n     **/\n    function _harvestInterest() internal {\n        uint256 amount = IPremiumGenerator(generatorPool).withdrawInterest();\n    }\n\n    function getSlashingInsuranceETHAddress() public view returns (address) {\n        return address(sliETH);\n    }\n\n    function getSlashingInsuranceETHBalance(\n        address _depositor\n    ) public view returns (uint) {\n        return IERC20(getSlashingInsuranceETHAddress()).balanceOf(_depositor);\n    }\n\n    function getDepositorValidatorIds(address _withdrawAddress) public view returns(uint[] memory){\n        return depositors[_withdrawAddress];\n    }\n\n    function getReserveATokenBalance() public view returns (uint) {\n        address aTokenAddress = IPremiumGenerator(generatorPool)\n                .getATokenAddress();\n\n        return IERC20(aTokenAddress).balanceOf(address(this));\n    }\n\n    function getProtocolBalance() public view returns (uint) {\n        return (\n            address(this).balance +\n            IPremiumGenerator(generatorPool).getUnclaimedInterest() +\n            getReserveATokenBalance()\n        );\n    }\n\n    function getSliETHTotalSupply() public view returns (uint) {\n        return IERC20(getSlashingInsuranceETHAddress()).totalSupply();\n    }\n\n    function getSliETHConversion() public view returns (uint256) {\n        return sliETH.getETHValuePerSliETH();\n    }\n\n    function getBeneficiaryStatus(\n        uint _validatorIndex\n    ) public view returns (Status status) {\n        status = beneficiaries[_validatorIndex].status;\n    }\n\n    function getValidatorWithdrawAddress(\n        uint _validatorIndex\n    ) public view returns (address withdrawAddress) {\n        withdrawAddress = beneficiaries[_validatorIndex].withdrawAddress;\n    }\n}",
  "sourcePath": "/home/smeee/projects/slashing_insurance/contracts/contracts/Reserve.sol",
  "compiler": {
    "name": "solc",
    "version": "0.8.9+commit.e5eed63a.Emscripten.clang"
  },
  "schemaVersion": "3.4.7",
  "updatedAt": "2023-05-27T20:21:13.132Z",
  "networkType": "ethereum",
  "devdoc": {
    "author": "smeee",
    "details": "Deposits, withdraws, and claims for Aave PoolsGenerate ERC721 token*",
    "kind": "dev",
    "methods": {
      "addBeneficiary(address,uint256)": {
        "params": {
          "_validatorIndex": "uint index of insured validator*",
          "_withdrawAddress": "address of beneficiary"
        }
      },
      "applyForCoverage(uint256)": {
        "params": {
          "_validatorIndex": "uint index of insured validator*"
        }
      },
      "constructor": {
        "details": "Constructor."
      },
      "withdrawBeneficiary(address,uint256)": {
        "details": "Emit WithdrawDeposit",
        "params": {
          "_validatorIndex": "uint index of insured validator*",
          "_withdrawAddress": "address of beneficiary"
        }
      }
    },
    "title": "Ethereum Slashing Insurance (SLI) Reserve contract",
    "version": 1
  },
  "userdoc": {
    "kind": "user",
    "methods": {},
    "notice": "Main point of interaction with SLI Protocol This is a proof of concept starter contract for lossless insurance Aave v2 is used to generate interest from premium deposits Premium is returned to beneficiary after the PoolTracker contract controls deposit calls to Aave to make approvals needed only once per token. Calls JustCause Pools for withdrawals and claims Controls Owner/Contributor NFT creation and updates for deposits/withdrawals Controls JustCause Pool creation with proxy contracts",
    "version": 1
  }
}