{
  "contractName": "ReserveStorage",
  "abi": [
    {
      "inputs": [
        {
          "internalType": "address",
          "name": "_multiSig",
          "type": "address"
        },
        {
          "internalType": "address",
          "name": "_generatorPool",
          "type": "address"
        },
        {
          "internalType": "address",
          "name": "_wethGatewayAddr",
          "type": "address"
        },
        {
          "internalType": "uint256",
          "name": "_minimumProvide",
          "type": "uint256"
        },
        {
          "internalType": "uint256",
          "name": "_minimumReserve",
          "type": "uint256"
        },
        {
          "internalType": "uint256",
          "name": "_maxClaim",
          "type": "uint256"
        },
        {
          "internalType": "address",
          "name": "_oracle",
          "type": "address"
        },
        {
          "internalType": "address",
          "name": "_oracleGateway",
          "type": "address"
        }
      ],
      "stateMutability": "nonpayable",
      "type": "constructor"
    },
    {
      "inputs": [],
      "name": "APPLY_WINDOW",
      "outputs": [
        {
          "internalType": "uint256",
          "name": "",
          "type": "uint256"
        }
      ],
      "stateMutability": "view",
      "type": "function"
    },
    {
      "inputs": [],
      "name": "WAIT_PERIOD",
      "outputs": [
        {
          "internalType": "uint256",
          "name": "",
          "type": "uint256"
        }
      ],
      "stateMutability": "view",
      "type": "function"
    },
    {
      "inputs": [],
      "name": "generatorPool",
      "outputs": [
        {
          "internalType": "address",
          "name": "",
          "type": "address"
        }
      ],
      "stateMutability": "view",
      "type": "function"
    },
    {
      "inputs": [],
      "name": "maxClaim",
      "outputs": [
        {
          "internalType": "uint256",
          "name": "",
          "type": "uint256"
        }
      ],
      "stateMutability": "view",
      "type": "function"
    },
    {
      "inputs": [],
      "name": "minimumProvide",
      "outputs": [
        {
          "internalType": "uint256",
          "name": "",
          "type": "uint256"
        }
      ],
      "stateMutability": "view",
      "type": "function"
    },
    {
      "inputs": [],
      "name": "minimumReserve",
      "outputs": [
        {
          "internalType": "uint256",
          "name": "",
          "type": "uint256"
        }
      ],
      "stateMutability": "view",
      "type": "function"
    },
    {
      "inputs": [],
      "name": "multiSig",
      "outputs": [
        {
          "internalType": "address",
          "name": "",
          "type": "address"
        }
      ],
      "stateMutability": "view",
      "type": "function"
    },
    {
      "inputs": [],
      "name": "oracleGateway",
      "outputs": [
        {
          "internalType": "address",
          "name": "",
          "type": "address"
        }
      ],
      "stateMutability": "view",
      "type": "function"
    }
  ],
  "bytecode": "0x60e060405234801561001057600080fd5b506040516105bd3803806105bd8339818101604052810190610032919061020a565b8773ffffffffffffffffffffffffffffffffffffffff1660c08173ffffffffffffffffffffffffffffffffffffffff16815250508673ffffffffffffffffffffffffffffffffffffffff1660a08173ffffffffffffffffffffffffffffffffffffffff16815250508573ffffffffffffffffffffffffffffffffffffffff1660808173ffffffffffffffffffffffffffffffffffffffff1681525050846004819055508360058190555082600681905550816000806101000a81548173ffffffffffffffffffffffffffffffffffffffff021916908373ffffffffffffffffffffffffffffffffffffffff16021790555080600160006101000a81548173ffffffffffffffffffffffffffffffffffffffff021916908373ffffffffffffffffffffffffffffffffffffffff16021790555050505050505050506102c0565b600080fd5b600073ffffffffffffffffffffffffffffffffffffffff82169050919050565b60006101a182610176565b9050919050565b6101b181610196565b81146101bc57600080fd5b50565b6000815190506101ce816101a8565b92915050565b6000819050919050565b6101e7816101d4565b81146101f257600080fd5b50565b600081519050610204816101de565b92915050565b600080600080600080600080610100898b03121561022b5761022a610171565b5b60006102398b828c016101bf565b985050602061024a8b828c016101bf565b975050604061025b8b828c016101bf565b965050606061026c8b828c016101f5565b955050608061027d8b828c016101f5565b94505060a061028e8b828c016101f5565b93505060c061029f8b828c016101bf565b92505060e06102b08b828c016101bf565b9150509295985092959890939650565b60805160a05160c0516102d16102ec600039600061018d015260006101e90152600050506102d16000f3fe608060405234801561001057600080fd5b50600436106100885760003560e01c8063b6c5039f1161005b578063b6c5039f14610105578063c1810f6614610123578063d4938db314610141578063dc0e5d4b1461015f57610088565b8063189df97d1461008d57806333e5c43d146100ab57806336e0004a146100c95780633c1e7c56146100e7575b600080fd5b61009561017d565b6040516100a29190610224565b60405180910390f35b6100b3610184565b6040516100c09190610224565b60405180910390f35b6100d161018b565b6040516100de9190610280565b60405180910390f35b6100ef6101af565b6040516100fc9190610224565b60405180910390f35b61010d6101b5565b60405161011a9190610224565b60405180910390f35b61012b6101bb565b6040516101389190610280565b60405180910390f35b6101496101e1565b6040516101569190610224565b60405180910390f35b6101676101e7565b6040516101749190610280565b60405180910390f35b6212750081565b6202a30081565b7f000000000000000000000000000000000000000000000000000000000000000081565b60045481565b60055481565b600160009054906101000a900473ffffffffffffffffffffffffffffffffffffffff1681565b60065481565b7f000000000000000000000000000000000000000000000000000000000000000081565b6000819050919050565b61021e8161020b565b82525050565b60006020820190506102396000830184610215565b92915050565b600073ffffffffffffffffffffffffffffffffffffffff82169050919050565b600061026a8261023f565b9050919050565b61027a8161025f565b82525050565b60006020820190506102956000830184610271565b9291505056fea26469706673582212203663cb0b3c100befd27de832e5d89ca719110deddd9db5cbfdaf41bd81353c1564736f6c63430008090033",
  "immutableReferences": {
    "2346": [
      {
        "length": 32,
        "start": 489
      }
    ],
    "2348": [
      {
        "length": 32,
        "start": 397
      }
    ]
  },
  "source": "// SPDX-License-Identifier: MIT\npragma solidity 0.8.9;\n\ncontract ReserveStorage {\naddress immutable wethGatewayAddr;\n    address oracle;\n    address public oracleGateway;\n    uint256 public constant WAIT_PERIOD = 2 weeks;\n    uint256 public constant APPLY_WINDOW = 2 days;\n\n    enum Status {\n        NOT_ACTIVE,\n        ACTIVE,\n        AWAIT_ORACLE_ADD,\n        ORACLE_ADD_APPROVE,\n        AWAIT_ORACLE_CLAIM,\n        CLAIM_WAIT_PERIOD,\n        CLOSED,\n        CLAIM_PAUSED\n    }\n\n    struct Beneficiary {\n        Status status;\n        address withdrawAddress;\n        uint claimTimestamp;\n        uint applyTimestamp;\n        uint loss;\n    }\n\n    //maps validator index to Beneficiary obj\n    mapping(uint => Beneficiary) beneficiaries;\n    //maps withdraw address to validator Ids\n    mapping(address => uint[]) depositors;\n\n    address public immutable generatorPool;\n\n    address public immutable multiSig;\n    uint public minimumProvide;\n    //minimum required for withdrawals and accepting claims\n    uint public minimumReserve;\n    //minimum pure ETH to hold in Reserve\n    //uint public minimumPureHoldings;\n    uint public maxClaim;\n\n    /**\n     * @dev Constructor.\n     */\n    constructor(\n        address _multiSig,\n        address _generatorPool,\n        address _wethGatewayAddr,\n        uint _minimumProvide,\n        uint _minimumReserve,\n        uint _maxClaim,\n        address _oracle,\n        address _oracleGateway\n    ){\n        multiSig = _multiSig;\n        generatorPool = _generatorPool;\n        wethGatewayAddr = _wethGatewayAddr;\n        minimumProvide = _minimumProvide;\n        minimumReserve = _minimumReserve;\n        maxClaim = _maxClaim;\n        oracle = _oracle;\n        oracleGateway = _oracleGateway;\n    }\n}\n",
  "sourcePath": "/home/smeee/projects/slashing_insurance/contracts/contracts/ReserveStorage.sol",
  "compiler": {
    "name": "solc",
    "version": "0.8.9+commit.e5eed63a.Emscripten.clang"
  },
  "schemaVersion": "3.4.7",
  "updatedAt": "2023-05-27T18:28:49.735Z",
  "devdoc": {
    "kind": "dev",
    "methods": {
      "constructor": {
        "details": "Constructor."
      }
    },
    "version": 1
  },
  "userdoc": {
    "kind": "user",
    "methods": {},
    "version": 1
  }
}