{
  "contractName": "SlashingInsuranceETH",
  "abi": [
    {
      "inputs": [],
      "stateMutability": "nonpayable",
      "type": "constructor"
    },
    {
      "anonymous": false,
      "inputs": [
        {
          "indexed": true,
          "internalType": "address",
          "name": "owner",
          "type": "address"
        },
        {
          "indexed": true,
          "internalType": "address",
          "name": "spender",
          "type": "address"
        },
        {
          "indexed": false,
          "internalType": "uint256",
          "name": "value",
          "type": "uint256"
        }
      ],
      "name": "Approval",
      "type": "event"
    },
    {
      "anonymous": false,
      "inputs": [
        {
          "indexed": true,
          "internalType": "address",
          "name": "from",
          "type": "address"
        },
        {
          "indexed": false,
          "internalType": "uint256",
          "name": "amount",
          "type": "uint256"
        },
        {
          "indexed": false,
          "internalType": "uint256",
          "name": "time",
          "type": "uint256"
        }
      ],
      "name": "ETHDeposited",
      "type": "event"
    },
    {
      "anonymous": false,
      "inputs": [
        {
          "indexed": true,
          "internalType": "address",
          "name": "from",
          "type": "address"
        },
        {
          "indexed": false,
          "internalType": "uint256",
          "name": "amount",
          "type": "uint256"
        },
        {
          "indexed": false,
          "internalType": "uint256",
          "name": "ethAmount",
          "type": "uint256"
        },
        {
          "indexed": false,
          "internalType": "uint256",
          "name": "time",
          "type": "uint256"
        }
      ],
      "name": "TokensBurned",
      "type": "event"
    },
    {
      "anonymous": false,
      "inputs": [
        {
          "indexed": true,
          "internalType": "address",
          "name": "to",
          "type": "address"
        },
        {
          "indexed": false,
          "internalType": "uint256",
          "name": "amount",
          "type": "uint256"
        },
        {
          "indexed": false,
          "internalType": "uint256",
          "name": "ethAmount",
          "type": "uint256"
        },
        {
          "indexed": false,
          "internalType": "uint256",
          "name": "time",
          "type": "uint256"
        }
      ],
      "name": "TokensMinted",
      "type": "event"
    },
    {
      "anonymous": false,
      "inputs": [
        {
          "indexed": true,
          "internalType": "address",
          "name": "from",
          "type": "address"
        },
        {
          "indexed": true,
          "internalType": "address",
          "name": "to",
          "type": "address"
        },
        {
          "indexed": false,
          "internalType": "uint256",
          "name": "value",
          "type": "uint256"
        }
      ],
      "name": "Transfer",
      "type": "event"
    },
    {
      "inputs": [
        {
          "internalType": "address",
          "name": "owner",
          "type": "address"
        },
        {
          "internalType": "address",
          "name": "spender",
          "type": "address"
        }
      ],
      "name": "allowance",
      "outputs": [
        {
          "internalType": "uint256",
          "name": "",
          "type": "uint256"
        }
      ],
      "stateMutability": "view",
      "type": "function"
    },
    {
      "inputs": [
        {
          "internalType": "address",
          "name": "spender",
          "type": "address"
        },
        {
          "internalType": "uint256",
          "name": "amount",
          "type": "uint256"
        }
      ],
      "name": "approve",
      "outputs": [
        {
          "internalType": "bool",
          "name": "",
          "type": "bool"
        }
      ],
      "stateMutability": "nonpayable",
      "type": "function"
    },
    {
      "inputs": [
        {
          "internalType": "address",
          "name": "account",
          "type": "address"
        }
      ],
      "name": "balanceOf",
      "outputs": [
        {
          "internalType": "uint256",
          "name": "",
          "type": "uint256"
        }
      ],
      "stateMutability": "view",
      "type": "function"
    },
    {
      "inputs": [],
      "name": "decimals",
      "outputs": [
        {
          "internalType": "uint8",
          "name": "",
          "type": "uint8"
        }
      ],
      "stateMutability": "view",
      "type": "function"
    },
    {
      "inputs": [
        {
          "internalType": "address",
          "name": "spender",
          "type": "address"
        },
        {
          "internalType": "uint256",
          "name": "subtractedValue",
          "type": "uint256"
        }
      ],
      "name": "decreaseAllowance",
      "outputs": [
        {
          "internalType": "bool",
          "name": "",
          "type": "bool"
        }
      ],
      "stateMutability": "nonpayable",
      "type": "function"
    },
    {
      "inputs": [
        {
          "internalType": "address",
          "name": "spender",
          "type": "address"
        },
        {
          "internalType": "uint256",
          "name": "addedValue",
          "type": "uint256"
        }
      ],
      "name": "increaseAllowance",
      "outputs": [
        {
          "internalType": "bool",
          "name": "",
          "type": "bool"
        }
      ],
      "stateMutability": "nonpayable",
      "type": "function"
    },
    {
      "inputs": [],
      "name": "name",
      "outputs": [
        {
          "internalType": "string",
          "name": "",
          "type": "string"
        }
      ],
      "stateMutability": "view",
      "type": "function"
    },
    {
      "inputs": [],
      "name": "symbol",
      "outputs": [
        {
          "internalType": "string",
          "name": "",
          "type": "string"
        }
      ],
      "stateMutability": "view",
      "type": "function"
    },
    {
      "inputs": [],
      "name": "totalSupply",
      "outputs": [
        {
          "internalType": "uint256",
          "name": "",
          "type": "uint256"
        }
      ],
      "stateMutability": "view",
      "type": "function"
    },
    {
      "inputs": [
        {
          "internalType": "address",
          "name": "recipient",
          "type": "address"
        },
        {
          "internalType": "uint256",
          "name": "amount",
          "type": "uint256"
        }
      ],
      "name": "transfer",
      "outputs": [
        {
          "internalType": "bool",
          "name": "",
          "type": "bool"
        }
      ],
      "stateMutability": "nonpayable",
      "type": "function"
    },
    {
      "inputs": [
        {
          "internalType": "address",
          "name": "sender",
          "type": "address"
        },
        {
          "internalType": "address",
          "name": "recipient",
          "type": "address"
        },
        {
          "internalType": "uint256",
          "name": "amount",
          "type": "uint256"
        }
      ],
      "name": "transferFrom",
      "outputs": [
        {
          "internalType": "bool",
          "name": "",
          "type": "bool"
        }
      ],
      "stateMutability": "nonpayable",
      "type": "function"
    },
    {
      "stateMutability": "payable",
      "type": "receive"
    },
    {
      "inputs": [
        {
          "internalType": "uint256",
          "name": "_sliETHAmount",
          "type": "uint256"
        }
      ],
      "name": "getETHValue",
      "outputs": [
        {
          "internalType": "uint256",
          "name": "",
          "type": "uint256"
        }
      ],
      "stateMutability": "view",
      "type": "function"
    },
    {
      "inputs": [
        {
          "internalType": "uint256",
          "name": "_ethAmount",
          "type": "uint256"
        }
      ],
      "name": "getSliETHValue",
      "outputs": [
        {
          "internalType": "uint256",
          "name": "",
          "type": "uint256"
        }
      ],
      "stateMutability": "view",
      "type": "function"
    },
    {
      "inputs": [],
      "name": "getETHValuePerSliETH",
      "outputs": [
        {
          "internalType": "uint256",
          "name": "",
          "type": "uint256"
        }
      ],
      "stateMutability": "view",
      "type": "function"
    },
    {
      "inputs": [
        {
          "internalType": "address",
          "name": "_to",
          "type": "address"
        },
        {
          "internalType": "uint256",
          "name": "_ethAmount",
          "type": "uint256"
        }
      ],
      "name": "mint",
      "outputs": [],
      "stateMutability": "nonpayable",
      "type": "function"
    },
    {
      "inputs": [
        {
          "internalType": "address",
          "name": "_from",
          "type": "address"
        },
        {
          "internalType": "uint256",
          "name": "_sliETHAmount",
          "type": "uint256"
        }
      ],
      "name": "burn",
      "outputs": [],
      "stateMutability": "nonpayable",
      "type": "function"
    },
    {
      "inputs": [],
      "name": "getReserveBalance",
      "outputs": [
        {
          "internalType": "uint256",
          "name": "",
          "type": "uint256"
        }
      ],
      "stateMutability": "view",
      "type": "function"
    }
  ],
  "bytecode": "0x60806040523480156200001157600080fd5b506040518060400160405280601681526020017f536c617368696e6720496e737572616e636520455448000000000000000000008152506040518060400160405280600681526020017f736c694554480000000000000000000000000000000000000000000000000000815250816003908051906020019062000096929190620000f9565b508060049080519060200190620000af929190620000f9565b50505033600660006101000a81548173ffffffffffffffffffffffffffffffffffffffff021916908373ffffffffffffffffffffffffffffffffffffffff1602179055506200020e565b8280546200010790620001d8565b90600052602060002090601f0160209004810192826200012b576000855562000177565b82601f106200014657805160ff191683800117855562000177565b8280016001018555821562000177579182015b828111156200017657825182559160200191906001019062000159565b5b5090506200018691906200018a565b5090565b5b80821115620001a55760008160009055506001016200018b565b5090565b7f4e487b7100000000000000000000000000000000000000000000000000000000600052602260045260246000fd5b60006002820490506001821680620001f157607f821691505b60208210811415620002085762000207620001a9565b5b50919050565b612339806200021e6000396000f3fe6080604052600436106101025760003560e01c806371f56f1111610095578063a9059cbb11610064578063a9059cbb1461037a578063cb765c1d146103b7578063d5bda32d146103e2578063dd62ed3e1461041f578063f0197e1a1461045c57610109565b806371f56f11146102ac57806395d89b41146102e95780639dc29fac14610314578063a457c2d71461033d57610109565b8063313ce567116100d1578063313ce567146101de578063395093511461020957806340c10f191461024657806370a082311461026f57610109565b806306fdde031461010e578063095ea7b31461013957806318160ddd1461017657806323b872dd146101a157610109565b3661010957005b600080fd5b34801561011a57600080fd5b50610123610487565b6040516101309190611641565b60405180910390f35b34801561014557600080fd5b50610160600480360381019061015b91906116fc565b610519565b60405161016d9190611757565b60405180910390f35b34801561018257600080fd5b5061018b610537565b6040516101989190611781565b60405180910390f35b3480156101ad57600080fd5b506101c860048036038101906101c3919061179c565b610541565b6040516101d59190611757565b60405180910390f35b3480156101ea57600080fd5b506101f3610639565b604051610200919061180b565b60405180910390f35b34801561021557600080fd5b50610230600480360381019061022b91906116fc565b610642565b60405161023d9190611757565b60405180910390f35b34801561025257600080fd5b5061026d600480360381019061026891906116fc565b6106ee565b005b34801561027b57600080fd5b5061029660048036038101906102919190611826565b61082f565b6040516102a39190611781565b60405180910390f35b3480156102b857600080fd5b506102d360048036038101906102ce9190611853565b610877565b6040516102e09190611781565b60405180910390f35b3480156102f557600080fd5b506102fe610912565b60405161030b9190611641565b60405180910390f35b34801561032057600080fd5b5061033b600480360381019061033691906116fc565b6109a4565b005b34801561034957600080fd5b50610364600480360381019061035f91906116fc565b610b30565b6040516103719190611757565b60405180910390f35b34801561038657600080fd5b506103a1600480360381019061039c91906116fc565b610c1b565b6040516103ae9190611757565b60405180910390f35b3480156103c357600080fd5b506103cc610c39565b6040516103d99190611781565b60405180910390f35b3480156103ee57600080fd5b5061040960048036038101906104049190611853565b610ce0565b6040516104169190611781565b60405180910390f35b34801561042b57600080fd5b5061044660048036038101906104419190611880565b610d2d565b6040516104539190611781565b60405180910390f35b34801561046857600080fd5b50610471610db4565b60405161047e9190611781565b60405180910390f35b606060038054610496906118ef565b80601f01602080910402602001604051908101604052809291908181526020018280546104c2906118ef565b801561050f5780601f106104e45761010080835404028352916020019161050f565b820191906000526020600020905b8154815290600101906020018083116104f257829003601f168201915b5050505050905090565b600061052d610526610e13565b8484610e1b565b6001905092915050565b6000600254905090565b600061054e848484610fe6565b6000600160008673ffffffffffffffffffffffffffffffffffffffff1673ffffffffffffffffffffffffffffffffffffffff1681526020019081526020016000206000610599610e13565b73ffffffffffffffffffffffffffffffffffffffff1673ffffffffffffffffffffffffffffffffffffffff16815260200190815260200160002054905082811015610619576040517f08c379a000000000000000000000000000000000000000000000000000000000815260040161061090611993565b60405180910390fd5b61062d85610625610e13565b858403610e1b565b60019150509392505050565b60006012905090565b60006106e461064f610e13565b84846001600061065d610e13565b73ffffffffffffffffffffffffffffffffffffffff1673ffffffffffffffffffffffffffffffffffffffff16815260200190815260200160002060008873ffffffffffffffffffffffffffffffffffffffff1673ffffffffffffffffffffffffffffffffffffffff168152602001908152602001600020546106df91906119e2565b610e1b565b6001905092915050565b3373ffffffffffffffffffffffffffffffffffffffff16600660009054906101000a900473ffffffffffffffffffffffffffffffffffffffff1673ffffffffffffffffffffffffffffffffffffffff161461077e576040517f08c379a000000000000000000000000000000000000000000000000000000000815260040161077590611a84565b60405180910390fd5b600061078982610877565b9050600081116107ce576040517f08c379a00000000000000000000000000000000000000000000000000000000081526004016107c590611af0565b60405180910390fd5b6107d88382611267565b8273ffffffffffffffffffffffffffffffffffffffff167f6155cfd0fd028b0ca77e8495a60cbe563e8bce8611f0aad6fedbdaafc05d44a282844260405161082293929190611b10565b60405180910390a2505050565b60008060008373ffffffffffffffffffffffffffffffffffffffff1673ffffffffffffffffffffffffffffffffffffffff168152602001908152602001600020549050919050565b60008082610883610c39565b61088d9190611b47565b90506000610899610537565b905060008114156108ae57839250505061090d565b600082116108f1576040517f08c379a00000000000000000000000000000000000000000000000000000000081526004016108e890611c13565b60405180910390fd5b8181856108fe9190611c33565b6109089190611cbc565b925050505b919050565b606060048054610921906118ef565b80601f016020809104026020016040519081016040528092919081815260200182805461094d906118ef565b801561099a5780601f1061096f5761010080835404028352916020019161099a565b820191906000526020600020905b81548152906001019060200180831161097d57829003601f168201915b5050505050905090565b3373ffffffffffffffffffffffffffffffffffffffff16600660009054906101000a900473ffffffffffffffffffffffffffffffffffffffff1673ffffffffffffffffffffffffffffffffffffffff1614610a34576040517f08c379a0000000000000000000000000000000000000000000000000000000008152600401610a2b90611a84565b60405180910390fd5b60008111610a77576040517f08c379a0000000000000000000000000000000000000000000000000000000008152600401610a6e90611d39565b60405180910390fd5b80610a818361082f565b1015610ac2576040517f08c379a0000000000000000000000000000000000000000000000000000000008152600401610ab990611da5565b60405180910390fd5b6000610acd82610ce0565b9050610ad983836113c7565b3373ffffffffffffffffffffffffffffffffffffffff167f19783b34589160c168487dc7f9c51ae0bcefe67a47d6708fba90f6ce0366d3d1838342604051610b2393929190611b10565b60405180910390a2505050565b60008060016000610b3f610e13565b73ffffffffffffffffffffffffffffffffffffffff1673ffffffffffffffffffffffffffffffffffffffff16815260200190815260200160002060008573ffffffffffffffffffffffffffffffffffffffff1673ffffffffffffffffffffffffffffffffffffffff16815260200190815260200160002054905082811015610bfc576040517f08c379a0000000000000000000000000000000000000000000000000000000008152600401610bf390611e37565b60405180910390fd5b610c10610c07610e13565b85858403610e1b565b600191505092915050565b6000610c2f610c28610e13565b8484610fe6565b6001905092915050565b6000600660009054906101000a900473ffffffffffffffffffffffffffffffffffffffff1673ffffffffffffffffffffffffffffffffffffffff166314e7c9226040518163ffffffff1660e01b815260040160206040518083038186803b158015610ca357600080fd5b505afa158015610cb7573d6000803e3d6000fd5b505050506040513d601f19601f82011682018060405250810190610cdb9190611e6c565b905090565b600080610ceb610c39565b90506000610cf7610537565b90506000811415610d0c578392505050610d28565b808285610d199190611c33565b610d239190611cbc565b925050505b919050565b6000600160008473ffffffffffffffffffffffffffffffffffffffff1673ffffffffffffffffffffffffffffffffffffffff16815260200190815260200160002060008373ffffffffffffffffffffffffffffffffffffffff1673ffffffffffffffffffffffffffffffffffffffff16815260200190815260200160002054905092915050565b600080610dbf610c39565b90506000610dcb610537565b90506000811480610ddc5750600082145b15610dec57600092505050610e10565b8082670de0b6b3a7640000610e019190611c33565b610e0b9190611cbc565b925050505b90565b600033905090565b600073ffffffffffffffffffffffffffffffffffffffff168373ffffffffffffffffffffffffffffffffffffffff161415610e8b576040517f08c379a0000000000000000000000000000000000000000000000000000000008152600401610e8290611f0b565b60405180910390fd5b600073ffffffffffffffffffffffffffffffffffffffff168273ffffffffffffffffffffffffffffffffffffffff161415610efb576040517f08c379a0000000000000000000000000000000000000000000000000000000008152600401610ef290611f9d565b60405180910390fd5b80600160008573ffffffffffffffffffffffffffffffffffffffff1673ffffffffffffffffffffffffffffffffffffffff16815260200190815260200160002060008473ffffffffffffffffffffffffffffffffffffffff1673ffffffffffffffffffffffffffffffffffffffff168152602001908152602001600020819055508173ffffffffffffffffffffffffffffffffffffffff168373ffffffffffffffffffffffffffffffffffffffff167f8c5be1e5ebec7d5bd14f71427d1e84f3dd0314c0f7b2291e5b200ac8c7c3b92583604051610fd99190611781565b60405180910390a3505050565b600073ffffffffffffffffffffffffffffffffffffffff168373ffffffffffffffffffffffffffffffffffffffff161415611056576040517f08c379a000000000000000000000000000000000000000000000000000000000815260040161104d9061202f565b60405180910390fd5b600073ffffffffffffffffffffffffffffffffffffffff168273ffffffffffffffffffffffffffffffffffffffff1614156110c6576040517f08c379a00000000000000000000000000000000000000000000000000000000081526004016110bd906120c1565b60405180910390fd5b6110d183838361159e565b60008060008573ffffffffffffffffffffffffffffffffffffffff1673ffffffffffffffffffffffffffffffffffffffff16815260200190815260200160002054905081811015611157576040517f08c379a000000000000000000000000000000000000000000000000000000000815260040161114e90612153565b60405180910390fd5b8181036000808673ffffffffffffffffffffffffffffffffffffffff1673ffffffffffffffffffffffffffffffffffffffff16815260200190815260200160002081905550816000808573ffffffffffffffffffffffffffffffffffffffff1673ffffffffffffffffffffffffffffffffffffffff16815260200190815260200160002060008282546111ea91906119e2565b925050819055508273ffffffffffffffffffffffffffffffffffffffff168473ffffffffffffffffffffffffffffffffffffffff167fddf252ad1be2c89b69c2b068fc378daa952ba7f163c4a11628f55a4df523b3ef8460405161124e9190611781565b60405180910390a36112618484846115a3565b50505050565b600073ffffffffffffffffffffffffffffffffffffffff168273ffffffffffffffffffffffffffffffffffffffff1614156112d7576040517f08c379a00000000000000000000000000000000000000000000000000000000081526004016112ce906121bf565b60405180910390fd5b6112e36000838361159e565b80600260008282546112f591906119e2565b92505081905550806000808473ffffffffffffffffffffffffffffffffffffffff1673ffffffffffffffffffffffffffffffffffffffff168152602001908152602001600020600082825461134a91906119e2565b925050819055508173ffffffffffffffffffffffffffffffffffffffff16600073ffffffffffffffffffffffffffffffffffffffff167fddf252ad1be2c89b69c2b068fc378daa952ba7f163c4a11628f55a4df523b3ef836040516113af9190611781565b60405180910390a36113c3600083836115a3565b5050565b600073ffffffffffffffffffffffffffffffffffffffff168273ffffffffffffffffffffffffffffffffffffffff161415611437576040517f08c379a000000000000000000000000000000000000000000000000000000000815260040161142e90612251565b60405180910390fd5b6114438260008361159e565b60008060008473ffffffffffffffffffffffffffffffffffffffff1673ffffffffffffffffffffffffffffffffffffffff168152602001908152602001600020549050818110156114c9576040517f08c379a00000000000000000000000000000000000000000000000000000000081526004016114c0906122e3565b60405180910390fd5b8181036000808573ffffffffffffffffffffffffffffffffffffffff1673ffffffffffffffffffffffffffffffffffffffff1681526020019081526020016000208190555081600260008282546115209190611b47565b92505081905550600073ffffffffffffffffffffffffffffffffffffffff168373ffffffffffffffffffffffffffffffffffffffff167fddf252ad1be2c89b69c2b068fc378daa952ba7f163c4a11628f55a4df523b3ef846040516115859190611781565b60405180910390a3611599836000846115a3565b505050565b505050565b505050565b600081519050919050565b600082825260208201905092915050565b60005b838110156115e25780820151818401526020810190506115c7565b838111156115f1576000848401525b50505050565b6000601f19601f8301169050919050565b6000611613826115a8565b61161d81856115b3565b935061162d8185602086016115c4565b611636816115f7565b840191505092915050565b6000602082019050818103600083015261165b8184611608565b905092915050565b600080fd5b600073ffffffffffffffffffffffffffffffffffffffff82169050919050565b600061169382611668565b9050919050565b6116a381611688565b81146116ae57600080fd5b50565b6000813590506116c08161169a565b92915050565b6000819050919050565b6116d9816116c6565b81146116e457600080fd5b50565b6000813590506116f6816116d0565b92915050565b6000806040838503121561171357611712611663565b5b6000611721858286016116b1565b9250506020611732858286016116e7565b9150509250929050565b60008115159050919050565b6117518161173c565b82525050565b600060208201905061176c6000830184611748565b92915050565b61177b816116c6565b82525050565b60006020820190506117966000830184611772565b92915050565b6000806000606084860312156117b5576117b4611663565b5b60006117c3868287016116b1565b93505060206117d4868287016116b1565b92505060406117e5868287016116e7565b9150509250925092565b600060ff82169050919050565b611805816117ef565b82525050565b600060208201905061182060008301846117fc565b92915050565b60006020828403121561183c5761183b611663565b5b600061184a848285016116b1565b91505092915050565b60006020828403121561186957611868611663565b5b6000611877848285016116e7565b91505092915050565b6000806040838503121561189757611896611663565b5b60006118a5858286016116b1565b92505060206118b6858286016116b1565b9150509250929050565b7f4e487b7100000000000000000000000000000000000000000000000000000000600052602260045260246000fd5b6000600282049050600182168061190757607f821691505b6020821081141561191b5761191a6118c0565b5b50919050565b7f45524332303a207472616e7366657220616d6f756e742065786365656473206160008201527f6c6c6f77616e6365000000000000000000000000000000000000000000000000602082015250565b600061197d6028836115b3565b915061198882611921565b604082019050919050565b600060208201905081810360008301526119ac81611970565b9050919050565b7f4e487b7100000000000000000000000000000000000000000000000000000000600052601160045260246000fd5b60006119ed826116c6565b91506119f8836116c6565b9250827fffffffffffffffffffffffffffffffffffffffffffffffffffffffffffffffff03821115611a2d57611a2c6119b3565b5b828201905092915050565b7f6e6f7420746865206f776e657200000000000000000000000000000000000000600082015250565b6000611a6e600d836115b3565b9150611a7982611a38565b602082019050919050565b60006020820190508181036000830152611a9d81611a61565b9050919050565b7f496e76616c696420746f6b656e206d696e7420616d6f756e7400000000000000600082015250565b6000611ada6019836115b3565b9150611ae582611aa4565b602082019050919050565b60006020820190508181036000830152611b0981611acd565b9050919050565b6000606082019050611b256000830186611772565b611b326020830185611772565b611b3f6040830184611772565b949350505050565b6000611b52826116c6565b9150611b5d836116c6565b925082821015611b7057611b6f6119b3565b5b828203905092915050565b7f43616e6e6f742063616c63756c61746520736c6945544820746f6b656e20616d60008201527f6f756e74207768696c6520726573657276652062616c616e6365206973207a6560208201527f726f000000000000000000000000000000000000000000000000000000000000604082015250565b6000611bfd6042836115b3565b9150611c0882611b7b565b606082019050919050565b60006020820190508181036000830152611c2c81611bf0565b9050919050565b6000611c3e826116c6565b9150611c49836116c6565b9250817fffffffffffffffffffffffffffffffffffffffffffffffffffffffffffffffff0483118215151615611c8257611c816119b3565b5b828202905092915050565b7f4e487b7100000000000000000000000000000000000000000000000000000000600052601260045260246000fd5b6000611cc7826116c6565b9150611cd2836116c6565b925082611ce257611ce1611c8d565b5b828204905092915050565b7f496e76616c696420746f6b656e206275726e20616d6f756e7400000000000000600082015250565b6000611d236019836115b3565b9150611d2e82611ced565b602082019050919050565b60006020820190508181036000830152611d5281611d16565b9050919050565b7f496e73756666696369656e7420736c694554482062616c616e63650000000000600082015250565b6000611d8f601b836115b3565b9150611d9a82611d59565b602082019050919050565b60006020820190508181036000830152611dbe81611d82565b9050919050565b7f45524332303a2064656372656173656420616c6c6f77616e63652062656c6f7760008201527f207a65726f000000000000000000000000000000000000000000000000000000602082015250565b6000611e216025836115b3565b9150611e2c82611dc5565b604082019050919050565b60006020820190508181036000830152611e5081611e14565b9050919050565b600081519050611e66816116d0565b92915050565b600060208284031215611e8257611e81611663565b5b6000611e9084828501611e57565b91505092915050565b7f45524332303a20617070726f76652066726f6d20746865207a65726f2061646460008201527f7265737300000000000000000000000000000000000000000000000000000000602082015250565b6000611ef56024836115b3565b9150611f0082611e99565b604082019050919050565b60006020820190508181036000830152611f2481611ee8565b9050919050565b7f45524332303a20617070726f766520746f20746865207a65726f20616464726560008201527f7373000000000000000000000000000000000000000000000000000000000000602082015250565b6000611f876022836115b3565b9150611f9282611f2b565b604082019050919050565b60006020820190508181036000830152611fb681611f7a565b9050919050565b7f45524332303a207472616e736665722066726f6d20746865207a65726f20616460008201527f6472657373000000000000000000000000000000000000000000000000000000602082015250565b60006120196025836115b3565b915061202482611fbd565b604082019050919050565b600060208201905081810360008301526120488161200c565b9050919050565b7f45524332303a207472616e7366657220746f20746865207a65726f206164647260008201527f6573730000000000000000000000000000000000000000000000000000000000602082015250565b60006120ab6023836115b3565b91506120b68261204f565b604082019050919050565b600060208201905081810360008301526120da8161209e565b9050919050565b7f45524332303a207472616e7366657220616d6f756e742065786365656473206260008201527f616c616e63650000000000000000000000000000000000000000000000000000602082015250565b600061213d6026836115b3565b9150612148826120e1565b604082019050919050565b6000602082019050818103600083015261216c81612130565b9050919050565b7f45524332303a206d696e7420746f20746865207a65726f206164647265737300600082015250565b60006121a9601f836115b3565b91506121b482612173565b602082019050919050565b600060208201905081810360008301526121d88161219c565b9050919050565b7f45524332303a206275726e2066726f6d20746865207a65726f2061646472657360008201527f7300000000000000000000000000000000000000000000000000000000000000602082015250565b600061223b6021836115b3565b9150612246826121df565b604082019050919050565b6000602082019050818103600083015261226a8161222e565b9050919050565b7f45524332303a206275726e20616d6f756e7420657863656564732062616c616e60008201527f6365000000000000000000000000000000000000000000000000000000000000602082015250565b60006122cd6022836115b3565b91506122d882612271565b604082019050919050565b600060208201905081810360008301526122fc816122c0565b905091905056fea2646970667358221220450ffd241f2df82c72305670ed3c39f1d6a8bd9e83bc51acafebffbc9cb46c5464736f6c63430008090033",
  "immutableReferences": {},
  "source": "// SPDX-License-Identifier: MIT\npragma solidity 0.8.9;\n\nimport \"@openzeppelin/contracts/token/ERC20/ERC20.sol\";\nimport { IReserve} from \"./interfaces/protocol/IReserve.sol\";\n\ncontract SlashingInsuranceETH is ERC20 {\n\n    address[] allowed;\n    address reserve;\n\n    //Events\n    event ETHDeposited(address indexed from, uint256 amount, uint256 time);\n    event TokensMinted(address indexed to, uint256 amount, uint256 ethAmount, uint256 time);\n    event TokensBurned(address indexed from, uint256 amount, uint256 ethAmount, uint256 time);\n\n    /**\n    * @dev Only Reserve can call functions marked by this modifier.\n    **/\n    modifier onlyReserve(){\n        require(reserve == msg.sender, \"not the owner\");\n        _;\n    }\n\n    // Construct with our token details\n    constructor() ERC20(\"Slashing Insurance ETH\", \"sliETH\") {\n        reserve = msg.sender;\n    }\n\n    /**\n     * @dev Returns the equivalent ETH value for a given amount of sliETH.\n     * @param _sliETHAmount The amount of sliETH.\n     * @return The equivalent ETH value.\n     */\n    function getETHValue(uint256 _sliETHAmount) public view returns (uint256) {\n        // Get network balances\n        uint256 reserveETH = getReserveBalance();\n        uint256 sliETHSupply = totalSupply();\n        // Use 1:1 ratio if no sliETH is minted\n        if (sliETHSupply == 0) { return _sliETHAmount; }\n        // Calculate and return\n        return (_sliETHAmount * reserveETH) / sliETHSupply;\n    }\n\n    /**\n     * @dev Calculates the amount of sliETH backed by a given amount of ETH.\n     * @param _ethAmount The amount of ETH.\n     * @return The amount of sliETH.\n     */\n    function getSliETHValue(uint256 _ethAmount) public view returns (uint256) {\n        // Get network balances\n        uint256 reserveETH = getReserveBalance() - _ethAmount;\n        uint256 sliETHSupply = totalSupply();\n        // Use 1:1 ratio if no sliETH is minted\n        if (sliETHSupply == 0) { return _ethAmount; }\n        // Check network ETH balance\n        require(reserveETH > 0, \"Cannot calculate sliETH token amount while reserve balance is zero\");\n        // Calculate and return\n        return (_ethAmount * sliETHSupply ) / reserveETH;\n    }\n\n    /**\n     * @dev Calculates the amount of ETH backing 1 slashing insurance ETH.\n     * @return The amount of ETH per sliETH.\n     */\n    function getETHValuePerSliETH() public view returns (uint256) {\n        // Get network balances\n        uint256 reserveETH = getReserveBalance();\n        uint256 sliETHSupply = totalSupply();\n        if (sliETHSupply == 0 || reserveETH == 0) { return 0; }\n        return ((1 ether) * reserveETH ) / sliETHSupply;\n    }\n\n    /**\n     * @dev Mints slashing insurance ETH (sliETH) tokens for a given amount of ETH.\n     * @dev Only the reserve contract is allowed to call this function.\n     * @param _to The address to mint sliETH tokens to.\n     * @param _ethAmount The amount of ETH to be converted into sliETH tokens.\n     */\n    function mint(address _to, uint256 _ethAmount) external onlyReserve {\n        // Get sliETH amount\n        uint256 sliETHAmount = getSliETHValue(_ethAmount);\n        // Check sliETH amount\n        require(sliETHAmount > 0, \"Invalid token mint amount\");\n        // Update balance & supply\n        _mint(_to, sliETHAmount);\n        // Emit tokens minted event\n        emit TokensMinted(_to, sliETHAmount, _ethAmount, block.timestamp);\n    }\n\n    /**\n     * @dev Burns slashing insurance ETH (sliETH) tokens to receive the equivalent amount of ETH.\n     * Only the reserve contract is allowed to call this function.\n     * @param _from The address to burn sliETH tokens from.\n     * @param _sliETHAmount The amount of sliETH tokens to burn.\n     */\n    function burn(address _from, uint256 _sliETHAmount) external onlyReserve {\n        // Check sliETH amount\n        require(_sliETHAmount > 0, \"Invalid token burn amount\");\n        require(balanceOf(_from) >= _sliETHAmount, \"Insufficient sliETH balance\");\n        // Get ETH amount\n        uint256 ethAmount = getETHValue(_sliETHAmount);\n        // Update balance & supply\n        _burn(_from, _sliETHAmount);\n        // Emit tokens burned event\n        emit TokensBurned(msg.sender, _sliETHAmount, ethAmount, block.timestamp);\n    }\n\n    /**\n     * @dev Retrieves the balance of the reserve in the protocol, which includes the balance of ETH and other tokens.\n     * @return The balance of the reserve in the protocol.\n     */\n    function getReserveBalance() public view returns(uint){\n        return IReserve(reserve).getProtocolBalance();\n    }\n\n    receive() external payable{}\n\n}",
  "sourcePath": "/home/smeee/projects/slashing_insurance/contracts/contracts/SlashingInsuranceETH.sol",
  "compiler": {
    "name": "solc",
    "version": "0.8.9+commit.e5eed63a.Emscripten.clang"
  },
  "schemaVersion": "3.4.7",
  "updatedAt": "2023-06-05T18:27:36.089Z",
  "devdoc": {
    "kind": "dev",
    "methods": {
      "allowance(address,address)": {
        "details": "See {IERC20-allowance}."
      },
      "approve(address,uint256)": {
        "details": "See {IERC20-approve}. Requirements: - `spender` cannot be the zero address."
      },
      "balanceOf(address)": {
        "details": "See {IERC20-balanceOf}."
      },
      "burn(address,uint256)": {
        "details": "Burns slashing insurance ETH (sliETH) tokens to receive the equivalent amount of ETH. Only the reserve contract is allowed to call this function.",
        "params": {
          "_from": "The address to burn sliETH tokens from.",
          "_sliETHAmount": "The amount of sliETH tokens to burn."
        }
      },
      "decimals()": {
        "details": "Returns the number of decimals used to get its user representation. For example, if `decimals` equals `2`, a balance of `505` tokens should be displayed to a user as `5.05` (`505 / 10 ** 2`). Tokens usually opt for a value of 18, imitating the relationship between Ether and Wei. This is the value {ERC20} uses, unless this function is overridden; NOTE: This information is only used for _display_ purposes: it in no way affects any of the arithmetic of the contract, including {IERC20-balanceOf} and {IERC20-transfer}."
      },
      "decreaseAllowance(address,uint256)": {
        "details": "Atomically decreases the allowance granted to `spender` by the caller. This is an alternative to {approve} that can be used as a mitigation for problems described in {IERC20-approve}. Emits an {Approval} event indicating the updated allowance. Requirements: - `spender` cannot be the zero address. - `spender` must have allowance for the caller of at least `subtractedValue`."
      },
      "getETHValue(uint256)": {
        "details": "Returns the equivalent ETH value for a given amount of sliETH.",
        "params": {
          "_sliETHAmount": "The amount of sliETH."
        },
        "returns": {
          "_0": "The equivalent ETH value."
        }
      },
      "getETHValuePerSliETH()": {
        "details": "Calculates the amount of ETH backing 1 slashing insurance ETH.",
        "returns": {
          "_0": "The amount of ETH per sliETH."
        }
      },
      "getReserveBalance()": {
        "details": "Retrieves the balance of the reserve in the protocol, which includes the balance of ETH and other tokens.",
        "returns": {
          "_0": "The balance of the reserve in the protocol."
        }
      },
      "getSliETHValue(uint256)": {
        "details": "Calculates the amount of sliETH backed by a given amount of ETH.",
        "params": {
          "_ethAmount": "The amount of ETH."
        },
        "returns": {
          "_0": "The amount of sliETH."
        }
      },
      "increaseAllowance(address,uint256)": {
        "details": "Atomically increases the allowance granted to `spender` by the caller. This is an alternative to {approve} that can be used as a mitigation for problems described in {IERC20-approve}. Emits an {Approval} event indicating the updated allowance. Requirements: - `spender` cannot be the zero address."
      },
      "mint(address,uint256)": {
        "details": "Mints slashing insurance ETH (sliETH) tokens for a given amount of ETH.Only the reserve contract is allowed to call this function.",
        "params": {
          "_ethAmount": "The amount of ETH to be converted into sliETH tokens.",
          "_to": "The address to mint sliETH tokens to."
        }
      },
      "name()": {
        "details": "Returns the name of the token."
      },
      "symbol()": {
        "details": "Returns the symbol of the token, usually a shorter version of the name."
      },
      "totalSupply()": {
        "details": "See {IERC20-totalSupply}."
      },
      "transfer(address,uint256)": {
        "details": "See {IERC20-transfer}. Requirements: - `recipient` cannot be the zero address. - the caller must have a balance of at least `amount`."
      },
      "transferFrom(address,address,uint256)": {
        "details": "See {IERC20-transferFrom}. Emits an {Approval} event indicating the updated allowance. This is not required by the EIP. See the note at the beginning of {ERC20}. Requirements: - `sender` and `recipient` cannot be the zero address. - `sender` must have a balance of at least `amount`. - the caller must have allowance for ``sender``'s tokens of at least `amount`."
      }
    },
    "version": 1
  },
  "userdoc": {
    "kind": "user",
    "methods": {},
    "version": 1
  }
}