{
  "contractName": "WethGatewayTest",
  "abi": [
    {
      "anonymous": false,
      "inputs": [
        {
          "indexed": false,
          "internalType": "address",
          "name": "_to",
          "type": "address"
        },
        {
          "indexed": false,
          "internalType": "uint256",
          "name": "amountToWithdraw",
          "type": "uint256"
        }
      ],
      "name": "Test",
      "type": "event"
    },
    {
      "inputs": [],
      "name": "aWETH",
      "outputs": [
        {
          "internalType": "address",
          "name": "",
          "type": "address"
        }
      ],
      "stateMutability": "view",
      "type": "function"
    },
    {
      "inputs": [],
      "name": "sender",
      "outputs": [
        {
          "internalType": "address",
          "name": "",
          "type": "address"
        }
      ],
      "stateMutability": "view",
      "type": "function"
    },
    {
      "inputs": [],
      "name": "wETH",
      "outputs": [
        {
          "internalType": "address",
          "name": "",
          "type": "address"
        }
      ],
      "stateMutability": "view",
      "type": "function"
    },
    {
      "inputs": [
        {
          "internalType": "address",
          "name": "_wethAddress",
          "type": "address"
        },
        {
          "internalType": "address",
          "name": "_aWethAddress",
          "type": "address"
        }
      ],
      "name": "setValues",
      "outputs": [],
      "stateMutability": "nonpayable",
      "type": "function"
    },
    {
      "inputs": [
        {
          "internalType": "address",
          "name": "_pool",
          "type": "address"
        },
        {
          "internalType": "address",
          "name": "_onBehalfOf",
          "type": "address"
        },
        {
          "internalType": "uint16",
          "name": "_referralCode",
          "type": "uint16"
        }
      ],
      "name": "depositETH",
      "outputs": [],
      "stateMutability": "payable",
      "type": "function"
    },
    {
      "inputs": [
        {
          "internalType": "address",
          "name": "_pool",
          "type": "address"
        },
        {
          "internalType": "uint256",
          "name": "_amount",
          "type": "uint256"
        },
        {
          "internalType": "address",
          "name": "_to",
          "type": "address"
        }
      ],
      "name": "withdrawETH",
      "outputs": [],
      "stateMutability": "nonpayable",
      "type": "function"
    },
    {
      "inputs": [],
      "name": "getWETHAddress",
      "outputs": [
        {
          "internalType": "address",
          "name": "",
          "type": "address"
        }
      ],
      "stateMutability": "view",
      "type": "function"
    }
  ],
  "bytecode": "0x608060405234801561001057600080fd5b50610bb8806100206000396000f3fe6080604052600436106100705760003560e01c806380500d201161004e57806380500d20146100e7578063affa881714610110578063f24286211461013b578063fe5f01781461016657610070565b8063474cf53d1461007557806367e404ce146100915780636d2a583a146100bc575b600080fd5b61008f600480360381019061008a919061075e565b61018f565b005b34801561009d57600080fd5b506100a6610225565b6040516100b391906107c0565b60405180910390f35b3480156100c857600080fd5b506100d161024b565b6040516100de91906107c0565b60405180910390f35b3480156100f357600080fd5b5061010e60048036038101906101099190610811565b610271565b005b34801561011c57600080fd5b506101256104ef565b60405161013291906107c0565b60405180910390f35b34801561014757600080fd5b50610150610518565b60405161015d91906107c0565b60405180910390f35b34801561017257600080fd5b5061018d60048036038101906101889190610864565b61053c565b005b8273ffffffffffffffffffffffffffffffffffffffff1663e8eda9df60008054906101000a900473ffffffffffffffffffffffffffffffffffffffff163485856040518563ffffffff1660e01b81526004016101ee94939291906108c2565b600060405180830381600087803b15801561020857600080fd5b505af115801561021c573d6000803e3d6000fd5b50505050505050565b600260009054906101000a900473ffffffffffffffffffffffffffffffffffffffff1681565b600160009054906101000a900473ffffffffffffffffffffffffffffffffffffffff1681565b33600260006101000a81548173ffffffffffffffffffffffffffffffffffffffff021916908373ffffffffffffffffffffffffffffffffffffffff1602179055506000829050600160009054906101000a900473ffffffffffffffffffffffffffffffffffffffff1673ffffffffffffffffffffffffffffffffffffffff166323b872dd3330846040518463ffffffff1660e01b815260040161031693929190610907565b602060405180830381600087803b15801561033057600080fd5b505af1158015610344573d6000803e3d6000fd5b505050506040513d601f19601f820116820180604052508101906103689190610976565b508373ffffffffffffffffffffffffffffffffffffffff166369328dec60008054906101000a900473ffffffffffffffffffffffffffffffffffffffff1683306040518463ffffffff1660e01b81526004016103c6939291906109a3565b602060405180830381600087803b1580156103e057600080fd5b505af11580156103f4573d6000803e3d6000fd5b505050506040513d601f19601f8201168201806040525081019061041891906109ef565b5060008054906101000a900473ffffffffffffffffffffffffffffffffffffffff1673ffffffffffffffffffffffffffffffffffffffff16639dc29fac30836040518363ffffffff1660e01b8152600401610474929190610a1c565b600060405180830381600087803b15801561048e57600080fd5b505af11580156104a2573d6000803e3d6000fd5b505050506104b082826105c1565b7f4ba54330f8090ac87ed0a0b470fd9c8a6bbec84bfe94f4fa7776d1dc27da9f9c82826040516104e1929190610a1c565b60405180910390a150505050565b60008060009054906101000a900473ffffffffffffffffffffffffffffffffffffffff16905090565b60008054906101000a900473ffffffffffffffffffffffffffffffffffffffff1681565b816000806101000a81548173ffffffffffffffffffffffffffffffffffffffff021916908373ffffffffffffffffffffffffffffffffffffffff16021790555080600160006101000a81548173ffffffffffffffffffffffffffffffffffffffff021916908373ffffffffffffffffffffffffffffffffffffffff1602179055505050565b60008273ffffffffffffffffffffffffffffffffffffffff1682600067ffffffffffffffff8111156105f6576105f5610a45565b5b6040519080825280601f01601f1916602001820160405280156106285781602001600182028036833780820191505090505b506040516106369190610aee565b60006040518083038185875af1925050503d8060008114610673576040519150601f19603f3d011682016040523d82523d6000602084013e610678565b606091505b50509050806106bc576040517f08c379a00000000000000000000000000000000000000000000000000000000081526004016106b390610b62565b60405180910390fd5b505050565b600080fd5b600073ffffffffffffffffffffffffffffffffffffffff82169050919050565b60006106f1826106c6565b9050919050565b610701816106e6565b811461070c57600080fd5b50565b60008135905061071e816106f8565b92915050565b600061ffff82169050919050565b61073b81610724565b811461074657600080fd5b50565b60008135905061075881610732565b92915050565b600080600060608486031215610777576107766106c1565b5b60006107858682870161070f565b93505060206107968682870161070f565b92505060406107a786828701610749565b9150509250925092565b6107ba816106e6565b82525050565b60006020820190506107d560008301846107b1565b92915050565b6000819050919050565b6107ee816107db565b81146107f957600080fd5b50565b60008135905061080b816107e5565b92915050565b60008060006060848603121561082a576108296106c1565b5b60006108388682870161070f565b9350506020610849868287016107fc565b925050604061085a8682870161070f565b9150509250925092565b6000806040838503121561087b5761087a6106c1565b5b60006108898582860161070f565b925050602061089a8582860161070f565b9150509250929050565b6108ad816107db565b82525050565b6108bc81610724565b82525050565b60006080820190506108d760008301876107b1565b6108e460208301866108a4565b6108f160408301856107b1565b6108fe60608301846108b3565b95945050505050565b600060608201905061091c60008301866107b1565b61092960208301856107b1565b61093660408301846108a4565b949350505050565b60008115159050919050565b6109538161093e565b811461095e57600080fd5b50565b6000815190506109708161094a565b92915050565b60006020828403121561098c5761098b6106c1565b5b600061099a84828501610961565b91505092915050565b60006060820190506109b860008301866107b1565b6109c560208301856108a4565b6109d260408301846107b1565b949350505050565b6000815190506109e9816107e5565b92915050565b600060208284031215610a0557610a046106c1565b5b6000610a13848285016109da565b91505092915050565b6000604082019050610a3160008301856107b1565b610a3e60208301846108a4565b9392505050565b7f4e487b7100000000000000000000000000000000000000000000000000000000600052604160045260246000fd5b600081519050919050565b600081905092915050565b60005b83811015610aa8578082015181840152602081019050610a8d565b83811115610ab7576000848401525b50505050565b6000610ac882610a74565b610ad28185610a7f565b9350610ae2818560208601610a8a565b80840191505092915050565b6000610afa8284610abd565b915081905092915050565b600082825260208201905092915050565b7f4554485f5452414e534645525f4641494c454400000000000000000000000000600082015250565b6000610b4c601383610b05565b9150610b5782610b16565b602082019050919050565b60006020820190508181036000830152610b7b81610b3f565b905091905056fea26469706673582212208b2a21f5c1930d27b53f21594b6c1841bfce0e3c2ddc0712f9ca60118366a27764736f6c63430008090033",
  "immutableReferences": {},
  "source": "// SPDX-License-Identifier: AGPL-3.0\npragma solidity 0.8.9;\n\nimport { IERC20} from '../contracts/interfaces/other/IERC20.sol';\nimport { ITestToken } from '../contracts/interfaces/test/ITestToken.sol';\nimport { IPool } from '../contracts/interfaces/aave/IPool.sol';\n\ncontract WethGatewayTest {\n\n    address public wETH;\n    address public aWETH;\n    address public sender;\n    mapping(address => uint256) depositors;\n\n    event Test(address _to, uint256 amountToWithdraw);\n\n    function setValues(address _wethAddress, address _aWethAddress) external {\n        wETH = _wethAddress;\n        aWETH = _aWethAddress;\n    }\n\n    function depositETH(\n        address _pool,\n        address _onBehalfOf,\n        uint16 _referralCode\n    ) external payable {\n        IPool(_pool).deposit(address(wETH), msg.value, _onBehalfOf, _referralCode);\n    }\n\n    /**\n    * @dev withdraws the WETH _reserves of msg.sender.\n    * @param _pool address of the targeted underlying pool\n    * @param _amount amount of aWETH to withdraw and receive native ETH\n    * @param _to address of the user who will receive native ETH\n    */\n    function withdrawETH(\n        address _pool,\n        uint256 _amount,\n        address _to\n    ) external {\n\n        sender = msg.sender;\n\n        uint256 amountToWithdraw = _amount;\n        ITestToken(aWETH).transferFrom(msg.sender, address(this), amountToWithdraw);\n        IPool(_pool).withdraw(address(wETH), amountToWithdraw, address(this));\n        ITestToken(wETH).burn(address(this), amountToWithdraw);\n        _safeTransferETH(_to, amountToWithdraw);\n        emit Test(_to, amountToWithdraw);\n    }\n\n    function _safeTransferETH(address to, uint256 value) internal {\n        (bool success, ) = to.call{value: value}(new bytes(0));\n        require(success, 'ETH_TRANSFER_FAILED');\n    }\n\n    function getWETHAddress() external view returns (address) {\n        return address(wETH);\n    }\n}",
  "sourcePath": "/home/smeee/projects/slashing_insurance/contracts/test/WethGatewayTest.sol",
  "compiler": {
    "name": "solc",
    "version": "0.8.9+commit.e5eed63a.Emscripten.clang"
  },
  "schemaVersion": "3.4.7",
  "updatedAt": "2023-05-21T01:21:52.001Z",
  "networkType": "ethereum",
  "devdoc": {
    "kind": "dev",
    "methods": {
      "withdrawETH(address,uint256,address)": {
        "details": "withdraws the WETH _reserves of msg.sender.",
        "params": {
          "_amount": "amount of aWETH to withdraw and receive native ETH",
          "_pool": "address of the targeted underlying pool",
          "_to": "address of the user who will receive native ETH"
        }
      }
    },
    "version": 1
  },
  "userdoc": {
    "kind": "user",
    "methods": {},
    "version": 1
  }
}